{"abi":[{"type":"function","name":"DEFAULT_HANDLER_GAS_LIMIT","inputs":[],"outputs":[{"name":"","type":"uint64","internalType":"uint64"}],"stateMutability":"view"},{"type":"function","name":"DEFAULT_MAX_FEE_PER_GAS","inputs":[],"outputs":[{"name":"","type":"uint64","internalType":"uint64"}],"stateMutability":"view"},{"type":"function","name":"DEFAULT_PRIORITY_FEE_PER_GAS","inputs":[],"outputs":[{"name":"","type":"uint64","internalType":"uint64"}],"stateMutability":"view"},{"type":"function","name":"MAXIMUM_HANDLER_GAS_LIMIT","inputs":[],"outputs":[{"name":"","type":"uint64","internalType":"uint64"}],"stateMutability":"view"},{"type":"function","name":"MINIMUM_BASE_FEE_PER_GAS","inputs":[],"outputs":[{"name":"","type":"uint256","internalType":"uint256"}],"stateMutability":"view"},{"type":"function","name":"SOMNIA_REACTIVITY_PRECOMPILE_ADDRESS","inputs":[],"outputs":[{"name":"","type":"address","internalType":"address"}],"stateMutability":"view"},{"type":"function","name":"SUBSCRIPTION_OWNER_MINIMUM_BALANCE","inputs":[],"outputs":[{"name":"","type":"uint256","internalType":"uint256"}],"stateMutability":"view"},{"type":"error","name":"BlockInPast","inputs":[]},{"type":"error","name":"EmptyFilter","inputs":[]},{"type":"error","name":"GasLimitExceeded","inputs":[]},{"type":"error","name":"GasLimitZero","inputs":[]},{"type":"error","name":"HandlerZeroAddress","inputs":[]},{"type":"error","name":"InsufficientBalance","inputs":[]},{"type":"error","name":"InvalidMaxFeePerGas","inputs":[]},{"type":"error","name":"TimestampInPast","inputs":[]},{"type":"error","name":"UnsubscribeFailed","inputs":[]}],"bytecode":{"object":"0x6080806040523460195761015c908161001f823930815050f35b600080fdfe608080604052600436101561001357600080fd5b60003560e01c9081631b4d89671461010d57508063712f31f7146100f55780637adc3b42146100db578063a21e3a42146100c0578063cce6fcef146100a9578063cdbaa81c146100905763ce9e11341461006c57600080fd5b600036600319011261008b5760206040516801bc16d674ec8000008152f35b600080fd5b600036600319011261008b576020604051629896808152f35b600036600319011261008b57602060405160008152f35b600036600319011261008b5760206040516404a817c8008152f35b600036600319011261008b576020604051630bebc2008152f35b600036600319011261008b5760206040516101008152f35b600036600319011261008b5780640165a0bc0060209252f3fea2646970667358221220e06560ea05e5fdff6dbf5382325fb064b493704db829f8cae382fbf9e8d0947b64736f6c634300081e0033","linkReferences":{}},"methodIdentifiers":{"DEFAULT_HANDLER_GAS_LIMIT()":"cdbaa81c","DEFAULT_MAX_FEE_PER_GAS()":"a21e3a42","DEFAULT_PRIORITY_FEE_PER_GAS()":"cce6fcef","MAXIMUM_HANDLER_GAS_LIMIT()":"7adc3b42","MINIMUM_BASE_FEE_PER_GAS()":"1b4d8967","SOMNIA_REACTIVITY_PRECOMPILE_ADDRESS()":"712f31f7","SUBSCRIPTION_OWNER_MINIMUM_BALANCE()":"ce9e1134"},"id":19}