{"abi":[{"type":"function","name":"DEFAULT_HANDLER_GAS_LIMIT","inputs":[],"outputs":[{"name":"","type":"uint64","internalType":"uint64"}],"stateMutability":"view"},{"type":"function","name":"DEFAULT_MAX_FEE_PER_GAS","inputs":[],"outputs":[{"name":"","type":"uint64","internalType":"uint64"}],"stateMutability":"view"},{"type":"function","name":"DEFAULT_PRIORITY_FEE_PER_GAS","inputs":[],"outputs":[{"name":"","type":"uint64","internalType":"uint64"}],"stateMutability":"view"},{"type":"function","name":"MAXIMUM_HANDLER_GAS_LIMIT","inputs":[],"outputs":[{"name":"","type":"uint64","internalType":"uint64"}],"stateMutability":"view"},{"type":"function","name":"MINIMUM_BASE_FEE_PER_GAS","inputs":[],"outputs":[{"name":"","type":"uint256","internalType":"uint256"}],"stateMutability":"view"},{"type":"function","name":"SOMNIA_REACTIVITY_PRECOMPILE_ADDRESS","inputs":[],"outputs":[{"name":"","type":"address","internalType":"address"}],"stateMutability":"view"},{"type":"function","name":"SUBSCRIPTION_OWNER_MINIMUM_BALANCE","inputs":[],"outputs":[{"name":"","type":"uint256","internalType":"uint256"}],"stateMutability":"view"},{"type":"error","name":"BlockInPast","inputs":[]},{"type":"error","name":"EmptyFilter","inputs":[]},{"type":"error","name":"GasLimitExceeded","inputs":[]},{"type":"error","name":"GasLimitZero","inputs":[]},{"type":"error","name":"HandlerZeroAddress","inputs":[]},{"type":"error","name":"InsufficientBalance","inputs":[]},{"type":"error","name":"InvalidMaxFeePerGas","inputs":[]},{"type":"error","name":"TimestampInPast","inputs":[]},{"type":"error","name":"UnsubscribeFailed","inputs":[]}],"bytecode":{"object":"0x610150610034600b8282823980515f1a607314602857634e487b7160e01b5f525f60045260245ffd5b305f52607381538281f3fe7300000000000000000000000000000000000000003014608060405260043610610085575f3560e01c8063a21e3a4211610063578063a21e3a42146100ed578063cce6fcef146100f9578063cdbaa81c14610100578063ce9e11341461010a575f5ffd5b80631b4d896714610089578063712f31f7146100a85780637adc3b42146100c9575b5f5ffd5b610095640165a0bc0081565b6040519081526020015b60405180910390f35b6100b161010081565b6040516001600160a01b03909116815260200161009f565b6100d4630bebc20081565b60405167ffffffffffffffff909116815260200161009f565b6100d46404a817c80081565b6100d45f81565b6100d46298968081565b6100956801bc16d674ec8000008156fea26469706673582212202295225650684e3268d9779d046ec0ed5fc7251297681fcfc53d98c46c8bbb6664736f6c634300081e0033","linkReferences":{}},"methodIdentifiers":{"DEFAULT_HANDLER_GAS_LIMIT()":"cdbaa81c","DEFAULT_MAX_FEE_PER_GAS()":"a21e3a42","DEFAULT_PRIORITY_FEE_PER_GAS()":"cce6fcef","MAXIMUM_HANDLER_GAS_LIMIT()":"7adc3b42","MINIMUM_BASE_FEE_PER_GAS()":"1b4d8967","SOMNIA_REACTIVITY_PRECOMPILE_ADDRESS()":"712f31f7","SUBSCRIPTION_OWNER_MINIMUM_BALANCE()":"ce9e1134"},"id":19}