{"abi":[{"type":"constructor","inputs":[],"stateMutability":"nonpayable"},{"type":"function","name":"arena","inputs":[],"outputs":[{"name":"","type":"address","internalType":"address"}],"stateMutability":"view"},{"type":"function","name":"getAllGodStates","inputs":[],"outputs":[{"name":"addresses","type":"address[]","internalType":"address[]"},{"name":"perks","type":"tuple[]","internalType":"struct GodRegistry.GodPersonality[]","components":[{"name":"name","type":"string","internalType":"string"},{"name":"epithet","type":"string","internalType":"string"},{"name":"lore","type":"string","internalType":"string"},{"name":"aggression","type":"uint8","internalType":"uint8"},{"name":"riskTolerance","type":"uint8","internalType":"uint8"},{"name":"adaptability","type":"uint8","internalType":"uint8"},{"name":"favoredMove","type":"uint8","internalType":"uint8"},{"name":"color","type":"string","internalType":"string"}]},{"name":"allStats","type":"tuple[]","internalType":"struct GodRegistry.GodStats[]","components":[{"name":"wins","type":"uint256","internalType":"uint256"},{"name":"losses","type":"uint256","internalType":"uint256"},{"name":"totalStaked","type":"uint256","internalType":"uint256"},{"name":"powerScore","type":"uint256","internalType":"uint256"},{"name":"lastActionBlock","type":"uint256","internalType":"uint256"},{"name":"active","type":"bool","internalType":"bool"}]}],"stateMutability":"view"},{"type":"function","name":"getGodAt","inputs":[{"name":"index","type":"uint256","internalType":"uint256"}],"outputs":[{"name":"","type":"address","internalType":"address"}],"stateMutability":"view"},{"type":"function","name":"getGodCount","inputs":[],"outputs":[{"name":"","type":"uint256","internalType":"uint256"}],"stateMutability":"view"},{"type":"function","name":"getPersonality","inputs":[{"name":"god","type":"address","internalType":"address"}],"outputs":[{"name":"","type":"tuple","internalType":"struct GodRegistry.GodPersonality","components":[{"name":"name","type":"string","internalType":"string"},{"name":"epithet","type":"string","internalType":"string"},{"name":"lore","type":"string","internalType":"string"},{"name":"aggression","type":"uint8","internalType":"uint8"},{"name":"riskTolerance","type":"uint8","internalType":"uint8"},{"name":"adaptability","type":"uint8","internalType":"uint8"},{"name":"favoredMove","type":"uint8","internalType":"uint8"},{"name":"color","type":"string","internalType":"string"}]}],"stateMutability":"view"},{"type":"function","name":"getRecentMoves","inputs":[{"name":"god","type":"address","internalType":"address"},{"name":"n","type":"uint256","internalType":"uint256"}],"outputs":[{"name":"","type":"uint8[]","internalType":"uint8[]"}],"stateMutability":"view"},{"type":"function","name":"getRelation","inputs":[{"name":"godA","type":"address","internalType":"address"},{"name":"godB","type":"address","internalType":"address"}],"outputs":[{"name":"","type":"uint8","internalType":"enum GodRegistry.Relation"}],"stateMutability":"view"},{"type":"function","name":"getStats","inputs":[{"name":"god","type":"address","internalType":"address"}],"outputs":[{"name":"","type":"tuple","internalType":"struct GodRegistry.GodStats","components":[{"name":"wins","type":"uint256","internalType":"uint256"},{"name":"losses","type":"uint256","internalType":"uint256"},{"name":"totalStaked","type":"uint256","internalType":"uint256"},{"name":"powerScore","type":"uint256","internalType":"uint256"},{"name":"lastActionBlock","type":"uint256","internalType":"uint256"},{"name":"active","type":"bool","internalType":"bool"}]}],"stateMutability":"view"},{"type":"function","name":"gods","inputs":[{"name":"","type":"uint256","internalType":"uint256"}],"outputs":[{"name":"","type":"address","internalType":"address"}],"stateMutability":"view"},{"type":"function","name":"owner","inputs":[],"outputs":[{"name":"","type":"address","internalType":"address"}],"stateMutability":"view"},{"type":"function","name":"personalities","inputs":[{"name":"","type":"address","internalType":"address"}],"outputs":[{"name":"name","type":"string","internalType":"string"},{"name":"epithet","type":"string","internalType":"string"},{"name":"lore","type":"string","internalType":"string"},{"name":"aggression","type":"uint8","internalType":"uint8"},{"name":"riskTolerance","type":"uint8","internalType":"uint8"},{"name":"adaptability","type":"uint8","internalType":"uint8"},{"name":"favoredMove","type":"uint8","internalType":"uint8"},{"name":"color","type":"string","internalType":"string"}],"stateMutability":"view"},{"type":"function","name":"recordResult","inputs":[{"name":"winner","type":"address","internalType":"address"},{"name":"loser","type":"address","internalType":"address"},{"name":"winnerMove","type":"uint8","internalType":"uint8"},{"name":"loserMove","type":"uint8","internalType":"uint8"},{"name":"stake","type":"uint256","internalType":"uint256"}],"outputs":[],"stateMutability":"nonpayable"},{"type":"function","name":"registerGod","inputs":[{"name":"godAddress","type":"address","internalType":"address"},{"name":"personality","type":"tuple","internalType":"struct GodRegistry.GodPersonality","components":[{"name":"name","type":"string","internalType":"string"},{"name":"epithet","type":"string","internalType":"string"},{"name":"lore","type":"string","internalType":"string"},{"name":"aggression","type":"uint8","internalType":"uint8"},{"name":"riskTolerance","type":"uint8","internalType":"uint8"},{"name":"adaptability","type":"uint8","internalType":"uint8"},{"name":"favoredMove","type":"uint8","internalType":"uint8"},{"name":"color","type":"string","internalType":"string"}]}],"outputs":[],"stateMutability":"nonpayable"},{"type":"function","name":"relations","inputs":[{"name":"","type":"address","internalType":"address"},{"name":"","type":"address","internalType":"address"}],"outputs":[{"name":"","type":"uint8","internalType":"enum GodRegistry.Relation"}],"stateMutability":"view"},{"type":"function","name":"setArena","inputs":[{"name":"_arena","type":"address","internalType":"address"}],"outputs":[],"stateMutability":"nonpayable"},{"type":"function","name":"setRelation","inputs":[{"name":"godA","type":"address","internalType":"address"},{"name":"godB","type":"address","internalType":"address"},{"name":"rel","type":"uint8","internalType":"enum GodRegistry.Relation"}],"outputs":[],"stateMutability":"nonpayable"},{"type":"function","name":"stats","inputs":[{"name":"","type":"address","internalType":"address"}],"outputs":[{"name":"wins","type":"uint256","internalType":"uint256"},{"name":"losses","type":"uint256","internalType":"uint256"},{"name":"totalStaked","type":"uint256","internalType":"uint256"},{"name":"powerScore","type":"uint256","internalType":"uint256"},{"name":"lastActionBlock","type":"uint256","internalType":"uint256"},{"name":"active","type":"bool","internalType":"bool"}],"stateMutability":"view"},{"type":"event","name":"GodRegistered","inputs":[{"name":"god","type":"address","indexed":true,"internalType":"address"},{"name":"name","type":"string","indexed":false,"internalType":"string"}],"anonymous":false},{"type":"event","name":"RelationChanged","inputs":[{"name":"godA","type":"address","indexed":true,"internalType":"address"},{"name":"godB","type":"address","indexed":true,"internalType":"address"},{"name":"relation","type":"uint8","indexed":false,"internalType":"enum GodRegistry.Relation"}],"anonymous":false},{"type":"event","name":"StatsUpdated","inputs":[{"name":"god","type":"address","indexed":true,"internalType":"address"},{"name":"wins","type":"uint256","indexed":false,"internalType":"uint256"},{"name":"losses","type":"uint256","indexed":false,"internalType":"uint256"},{"name":"powerScore","type":"uint256","indexed":false,"internalType":"uint256"}],"anonymous":false},{"type":"error","name":"AlreadyRegistered","inputs":[]},{"type":"error","name":"GodNotFound","inputs":[]},{"type":"error","name":"Unauthorized","inputs":[]}],"bytecode":{"object":"0x60808060405234602757600080546001600160a01b03191633179055611894908161002d8239f35b600080fdfe6080604052600436101561001257600080fd5b60003560e01c80630798699b146113f85780631bd5ff28146113ab578063364ac046146110595780636a5850a21461102f5780636dae11a814610fd157806378540f7114610ef95780637d6caa0814610edb5780638660c23f146108135780638bcdcbf31461079d5780638da5cb5b14610774578063ae4d1bd014610672578063b510dee0146105a8578063b90b3e40146104ed578063c23f85d61461042a578063dec33398146103f3578063ec60b695146101055763fd3705f9146100d757600080fd5b34610100576000366003190112610100576001546040516001600160a01b039091168152602090f35b600080fd5b346101005760a03660031901126101005761011e61144e565b610126611464565b6044359160ff83168303610100576064359260ff8416840361010057600154608435906001600160a01b031633036103e35761021e7f997f24cf4975d3212acc0b9725adbd096842424cf775f6f4e79752c4a22c06ff916102b46102bc9760018060a01b0387168060005260046020528560406000209760018060a01b038b16988960005260046020526102666040600020956101c383546117c2565b8355600283016101d48a8254611795565b905543600484015560018701986101eb8a546117c2565b8a556101fc60028901918254611795565b90554360048801556102536003840194855461022560038b019d8e5483611821565b8092611795565b8755808d54116000146103d95761023d908d54611772565b8c555b87600052600660205260406000206117d1565b8b600052600660205260406000206117d1565b61028f600182549201549254604051938493846040919493926060820195825260208201520152565b0390a25491549254604051938493846040919493926060820195825260208201520152565b0390a2611806565b9060018060a01b0316806000526005602052604060002060018060a01b03831660005260205260ff6040600020541660048110156103c3576002810361035c575060008181526005602090815260408083206001600160a01b039590951680845294825291829020805460ff1916600390811790915591519182527f4cc942ab25942790fd040f418659b25a0e615eaba6201b8853da242e8e91c44f91a3005b6000901561036657005b8181526005602090815260408083206001600160a01b039590951680845294825291829020805460ff1916600290811790915591519182527f4cc942ab25942790fd040f418659b25a0e615eaba6201b8853da242e8e91c44f91a3005b634e487b7160e01b600052602160045260246000fd5b5060648c55610240565b6282b42960e81b60005260046000fd5b3461010057602036600319011261010057602061041160043561141d565b905460405160039290921b1c6001600160a01b03168152f35b346101005760203660031901126101005761044361144e565b61044b6116ec565b5060018060a01b0316600052600460205260c0604060002060ff600560405192610474846115b2565b8054845260018101546020850152600281015460408501526003810154606085015260048101546080850152015416151560a08201526104eb604051809260a08091805184526020810151602085015260408101516040850152606081015160608501526080810151608085015201511515910152565bf35b346101005760603660031901126101005761050661144e565b61050e611464565b90604435916004831015610100576001546001600160a01b031633036103e35761055c7f4cc942ab25942790fd040f418659b25a0e615eaba6201b8853da242e8e91c44f916105a393611806565b6001600160a01b03918216600081815260056020908152604080832095909416808352949052829020805460ff881660ff1991909116179055905191949093829182611548565b0390a3005b34610100576020366003190112610100576105c161144e565b6105c96116ac565b5060018060a01b0316600052600360205261066e60406000206106556004604051926105f484611595565b6105fd816115f0565b845261060b600182016115f0565b602085015261061c600282016115f0565b604085015260ff60038201548181166060870152818160081c166080870152818160101c1660a087015260181c1660c0850152016115f0565b60e08201526040519182916020835260208301906114bb565b0390f35b346101005760403660031901126101005761068b61144e565b6001600160a01b0316600090815260066020526040902080546024358082101561076e5750805b6106bb82611694565b926106c960405194856115ce565b8284526106d583611694565b602085019390601f190136853760005b8181106107345784866040519182916020830190602084525180915260408301919060005b818110610718575050500390f35b825160ff1684528594506020938401939092019160010161070a565b8060ff61075561074f60019461074a878a611772565b611795565b866117a2565b90549060031b1c16610767828961171d565b52016106e5565b906106b2565b34610100576000366003190112610100576000546040516001600160a01b039091168152602090f35b34610100576020366003190112610100576001600160a01b036107be61144e565b16600052600460205260c06040600020805490600181015490600281015460038201549060ff6005600485015494015416936040519586526020860152604085015260608401526080830152151560a0820152f35b346101005760403660031901126101005761082c61144e565b6024359067ffffffffffffffff82116101005781600401906101006003198436030112610100576000546001600160a01b031633036103e3576001600160a01b031660008181526004602052604090206005015490929060ff16610eca57600254600160401b811015610c6c578060016108a9920160025561141d565b81549060031b9085821b9160018060a01b03901b191617905582600052600360205260406000206108da8380611731565b9067ffffffffffffffff8211610c6c5781906108f6845461155b565b601f8111610e77575b50600090601f8311600114610e1157600092610e06575b50508160011b916000199060031b1c19161781555b6001810161093c6024840185611731565b9067ffffffffffffffff8211610c6c578190610958845461155b565b601f8111610db3575b50600090601f8311600114610d4d57600092610d42575b50508160011b916000199060031b1c19161790555b6002810161099e6044840185611731565b9067ffffffffffffffff8211610c6c576109b8835461155b565b601f8111610cfa575b50600090601f8311600114610c8d579282600493610a6a969360e496600092610c82575b50508160011b916000199060031b1c19161790555b6003810160ff610a0c60648801611764565b16815461ff00610a1e60848a01611764565b60081b1662ff0000610a3260a48b01611764565b60101b169163ff000000610a4860c48c01611764565b60181b169363ff000000199162ffffff19161716171717905501920183611731565b9067ffffffffffffffff8211610c6c57610a84835461155b565b601f8111610c24575b50600090601f8311600114610b98579282610b60937f7d67c403c16f70d94b948db023f7f904317f7e5a314b2131a72b3a5e6cfd922a9693604096600092610b8d575b50508160011b916000199060031b1c19161790555b8251610af0816115b2565b60008152600560208201916000835285810160008152606082016103e88152608083019143835260a0840195600187528b60005260046020528960002094518555516001850155516002840155516003830155516004820155019051151560ff8019835416911617905580611731565b919082825193849260208452816020850152848401376000828201840152601f01601f19168101030190a2005b013590508880610ad0565b8382526020822091601f198416815b818110610c0c5750937f7d67c403c16f70d94b948db023f7f904317f7e5a314b2131a72b3a5e6cfd922a96936040969360019383610b609810610bf2575b505050811b019055610ae5565b0135600019600384901b60f8161c19169055888080610be5565b91936020600181928787013581550195019201610ba7565b836000526020600020601f840160051c81019160208510610c62575b601f0160051c01905b818110610c565750610a8d565b60008155600101610c49565b9091508190610c40565b634e487b7160e01b600052604160045260246000fd5b013590508a806109e5565b8382526020822091601f198416815b818110610ce2575093610a6a969360e496936001938360049810610cc8575b505050811b0190556109fa565b0135600019600384901b60f8161c191690558a8080610cbb565b91936020600181928787013581550195019201610c9c565b836000526020600020601f840160051c81019160208510610d38575b601f0160051c01905b818110610d2c57506109c1565b60008155600101610d1f565b9091508190610d16565b013590508780610978565b84825260208220925090601f198416815b818110610d9b5750908460019594939210610d81575b505050811b01905561098d565b0135600019600384901b60f8161c19169055878080610d74565b91936020600181928787013581550195019201610d5e565b909150836000526020600020601f840160051c81019160208510610dfc575b90601f859493920160051c01905b818110610ded5750610961565b60008155849350600101610de0565b9091508190610dd2565b013590508680610916565b84825260208220925090601f198416815b818110610e5f5750908460019594939210610e45575b505050811b01815561092b565b0135600019600384901b60f8161c19169055868080610e38565b91936020600181928787013581550195019201610e22565b909150836000526020600020601f840160051c81019160208510610ec0575b90601f859493920160051c01905b818110610eb157506108ff565b60008155849350600101610ea4565b9091508190610e96565b630ea075bf60e21b60005260046000fd5b34610100576000366003190112610100576020600254604051908152f35b34610100576020366003190112610100576001600160a01b03610f1a61144e565b166000526003602052610f80604060002061066e610f37826115f0565b91610f44600182016115f0565b60ff610f9c610f55600285016115f0565b610f8e610f696004600388015497016115f0565b94604051998a996101008b526101008b019061147a565b9089820360208b015261147a565b90878203604089015261147a565b928181166060870152818160081c166080870152818160101c1660a087015260181c1660c085015283820360e085015261147a565b3461010057604036600319011261010057610fea61144e565b610ff2611464565b9060018060a01b0316600052600560205260406000209060018060a01b031660005260205261066e60ff6040600020541660405191829182611548565b3461010057604036600319011261010057610ff261104b61144e565b611053611464565b90611806565b346101005760003660031901126101005760025460405160208183815201918260026000527f405787fa12a823e0f2b7631cc41b3ba8828b3321ca811111fa75cd3aa3bb5ace60005b83811061138c575050826110b79103836115ce565b6110c081611694565b6110cd60405191826115ce565b818152601f196110dc83611694565b0160005b81811061136b5750506110f282611694565b9161110060405193846115ce565b808352601f1961110f82611694565b0160005b81811061134a57505060005b8181106112505750506040519384936060850190606086525180915260808501919060005b81811061122e575050508381036020850152815180825260208201916020808360051b8301019401926000915b8383106111fb57505050505082810360408401526020808351928381520192019060005b8181106111a3575050500390f35b91935091602060c0826111ed600194885160a08091805184526020810151602085015260408101516040850152606081015160608501526080810151608085015201511515910152565b019401910191849392611195565b9193959650919360208061121b600193601f1986820301875289516114bb565b9701930193019092879695949293611171565b82516001600160a01b0316845287965060209384019390920191600101611144565b80611261600192979495969761141d565b838060a01b0391549060031b1c16600052600360205260406000206112a460046040519261128e84611595565b611297816115f0565b845261060b8682016115f0565b60e08201526112b3828761171d565b526112be818661171d565b506112c88161141d565b838060a01b0391549060031b1c166000526004602052604060002060ff6005604051926112f4846115b2565b80548452858101546020850152600281015460408501526003810154606085015260048101546080850152015416151560a0820152611333828861171d565b5261133e818761171d565b5001949392919461111f565b60209061135a97949596976116ec565b828289010152019594939295611113565b60209061137b96939495966116ac565b8282870101520194939291946110e0565b81546001600160a01b03168352602090920191600191820191016110a2565b34610100576020366003190112610100576113c461144e565b6000546001600160a01b031633036103e357600180546001600160a01b0319166001600160a01b0392909216919091179055005b3461010057602036600319011261010057600435600254811015610100576104116020915b60025481101561143857600260005260206000200190600090565b634e487b7160e01b600052603260045260246000fd5b600435906001600160a01b038216820361010057565b602435906001600160a01b038216820361010057565b919082519283825260005b8481106114a6575050826000602080949584010152601f8019910116010190565b80602080928401015182828601015201611485565b6115459160e06115006114ee6114dc8551610100865261010086019061147a565b6020860151858203602087015261147a565b6040850151848203604086015261147a565b9260ff606082015116606084015260ff608082015116608084015260ff60a08201511660a084015260ff60c08201511660c084015201519060e081840391015261147a565b90565b9190602083019260048210156103c35752565b90600182811c9216801561158b575b602083101461157557565b634e487b7160e01b600052602260045260246000fd5b91607f169161156a565b610100810190811067ffffffffffffffff821117610c6c57604052565b60c0810190811067ffffffffffffffff821117610c6c57604052565b90601f8019910116810190811067ffffffffffffffff821117610c6c57604052565b90604051918260008254926116048461155b565b8084529360018116908115611672575060011461162b575b50611629925003836115ce565b565b90506000929192526020600020906000915b818310611656575050906020611629928201013861161c565b602091935080600191548385890101520191019091849261163d565b90506020925061162994915060ff191682840152151560051b8201013861161c565b67ffffffffffffffff8111610c6c5760051b60200190565b604051906116b982611595565b606060e08382815282602082015282604082015260008382015260006080820152600060a0820152600060c08201520152565b604051906116f9826115b2565b600060a0838281528260208201528260408201528260608201528260808201520152565b80518210156114385760209160051b010190565b903590601e1981360301821215610100570180359067ffffffffffffffff82116101005760200191813603831361010057565b3560ff811681036101005790565b9190820391821161177f57565b634e487b7160e01b600052601160045260246000fd5b9190820180921161177f57565b919091805483101561143857600052601f60206000208360051c01921690565b600019811461177f5760010190565b8054600160401b811015610c6c576117ee916001820181556117a2565b60ff80839493549260031b9316831b921b1916179055565b9091906001600160a01b038084169082161015611545579190565b90808210156118575760329161183691611772565b046023811115611852575060235b600f0180600f1161177f5790565b611844565b5050600f9056fea2646970667358221220988d37d1cd6938834fc2f954bacd66cb7cb4362924b7692c0d1b289d684e0b6564736f6c634300081e0033","linkReferences":{}},"methodIdentifiers":{"arena()":"fd3705f9","getAllGodStates()":"364ac046","getGodAt(uint256)":"dec33398","getGodCount()":"7d6caa08","getPersonality(address)":"b510dee0","getRecentMoves(address,uint256)":"ae4d1bd0","getRelation(address,address)":"6a5850a2","getStats(address)":"c23f85d6","gods(uint256)":"0798699b","owner()":"8da5cb5b","personalities(address)":"78540f71","recordResult(address,address,uint8,uint8,uint256)":"ec60b695","registerGod(address,(string,string,string,uint8,uint8,uint8,uint8,string))":"8660c23f","relations(address,address)":"6dae11a8","setArena(address)":"1bd5ff28","setRelation(address,address,uint8)":"b90b3e40","stats(address)":"8bcdcbf3"},"id":23}