{"abi":[{"type":"constructor","inputs":[],"stateMutability":"nonpayable"},{"type":"function","name":"arena","inputs":[],"outputs":[{"name":"","type":"address","internalType":"address"}],"stateMutability":"view"},{"type":"function","name":"getAllGodStates","inputs":[],"outputs":[{"name":"addresses","type":"address[]","internalType":"address[]"},{"name":"perks","type":"tuple[]","internalType":"struct GodRegistry.GodPersonality[]","components":[{"name":"name","type":"string","internalType":"string"},{"name":"epithet","type":"string","internalType":"string"},{"name":"lore","type":"string","internalType":"string"},{"name":"aggression","type":"uint8","internalType":"uint8"},{"name":"riskTolerance","type":"uint8","internalType":"uint8"},{"name":"adaptability","type":"uint8","internalType":"uint8"},{"name":"favoredMove","type":"uint8","internalType":"uint8"},{"name":"color","type":"string","internalType":"string"}]},{"name":"allStats","type":"tuple[]","internalType":"struct GodRegistry.GodStats[]","components":[{"name":"wins","type":"uint256","internalType":"uint256"},{"name":"losses","type":"uint256","internalType":"uint256"},{"name":"totalStaked","type":"uint256","internalType":"uint256"},{"name":"powerScore","type":"uint256","internalType":"uint256"},{"name":"lastActionBlock","type":"uint256","internalType":"uint256"},{"name":"active","type":"bool","internalType":"bool"}]}],"stateMutability":"view"},{"type":"function","name":"getGodAt","inputs":[{"name":"index","type":"uint256","internalType":"uint256"}],"outputs":[{"name":"","type":"address","internalType":"address"}],"stateMutability":"view"},{"type":"function","name":"getGodCount","inputs":[],"outputs":[{"name":"","type":"uint256","internalType":"uint256"}],"stateMutability":"view"},{"type":"function","name":"getPersonality","inputs":[{"name":"god","type":"address","internalType":"address"}],"outputs":[{"name":"","type":"tuple","internalType":"struct GodRegistry.GodPersonality","components":[{"name":"name","type":"string","internalType":"string"},{"name":"epithet","type":"string","internalType":"string"},{"name":"lore","type":"string","internalType":"string"},{"name":"aggression","type":"uint8","internalType":"uint8"},{"name":"riskTolerance","type":"uint8","internalType":"uint8"},{"name":"adaptability","type":"uint8","internalType":"uint8"},{"name":"favoredMove","type":"uint8","internalType":"uint8"},{"name":"color","type":"string","internalType":"string"}]}],"stateMutability":"view"},{"type":"function","name":"getRecentMoves","inputs":[{"name":"god","type":"address","internalType":"address"},{"name":"n","type":"uint256","internalType":"uint256"}],"outputs":[{"name":"","type":"uint8[]","internalType":"uint8[]"}],"stateMutability":"view"},{"type":"function","name":"getRelation","inputs":[{"name":"godA","type":"address","internalType":"address"},{"name":"godB","type":"address","internalType":"address"}],"outputs":[{"name":"","type":"uint8","internalType":"enum GodRegistry.Relation"}],"stateMutability":"view"},{"type":"function","name":"getStats","inputs":[{"name":"god","type":"address","internalType":"address"}],"outputs":[{"name":"","type":"tuple","internalType":"struct GodRegistry.GodStats","components":[{"name":"wins","type":"uint256","internalType":"uint256"},{"name":"losses","type":"uint256","internalType":"uint256"},{"name":"totalStaked","type":"uint256","internalType":"uint256"},{"name":"powerScore","type":"uint256","internalType":"uint256"},{"name":"lastActionBlock","type":"uint256","internalType":"uint256"},{"name":"active","type":"bool","internalType":"bool"}]}],"stateMutability":"view"},{"type":"function","name":"gods","inputs":[{"name":"","type":"uint256","internalType":"uint256"}],"outputs":[{"name":"","type":"address","internalType":"address"}],"stateMutability":"view"},{"type":"function","name":"owner","inputs":[],"outputs":[{"name":"","type":"address","internalType":"address"}],"stateMutability":"view"},{"type":"function","name":"personalities","inputs":[{"name":"","type":"address","internalType":"address"}],"outputs":[{"name":"name","type":"string","internalType":"string"},{"name":"epithet","type":"string","internalType":"string"},{"name":"lore","type":"string","internalType":"string"},{"name":"aggression","type":"uint8","internalType":"uint8"},{"name":"riskTolerance","type":"uint8","internalType":"uint8"},{"name":"adaptability","type":"uint8","internalType":"uint8"},{"name":"favoredMove","type":"uint8","internalType":"uint8"},{"name":"color","type":"string","internalType":"string"}],"stateMutability":"view"},{"type":"function","name":"recordResult","inputs":[{"name":"winner","type":"address","internalType":"address"},{"name":"loser","type":"address","internalType":"address"},{"name":"winnerMove","type":"uint8","internalType":"uint8"},{"name":"loserMove","type":"uint8","internalType":"uint8"},{"name":"stake","type":"uint256","internalType":"uint256"}],"outputs":[],"stateMutability":"nonpayable"},{"type":"function","name":"registerGod","inputs":[{"name":"godAddress","type":"address","internalType":"address"},{"name":"personality","type":"tuple","internalType":"struct GodRegistry.GodPersonality","components":[{"name":"name","type":"string","internalType":"string"},{"name":"epithet","type":"string","internalType":"string"},{"name":"lore","type":"string","internalType":"string"},{"name":"aggression","type":"uint8","internalType":"uint8"},{"name":"riskTolerance","type":"uint8","internalType":"uint8"},{"name":"adaptability","type":"uint8","internalType":"uint8"},{"name":"favoredMove","type":"uint8","internalType":"uint8"},{"name":"color","type":"string","internalType":"string"}]}],"outputs":[],"stateMutability":"nonpayable"},{"type":"function","name":"relations","inputs":[{"name":"","type":"address","internalType":"address"},{"name":"","type":"address","internalType":"address"}],"outputs":[{"name":"","type":"uint8","internalType":"enum GodRegistry.Relation"}],"stateMutability":"view"},{"type":"function","name":"setArena","inputs":[{"name":"_arena","type":"address","internalType":"address"}],"outputs":[],"stateMutability":"nonpayable"},{"type":"function","name":"setRelation","inputs":[{"name":"godA","type":"address","internalType":"address"},{"name":"godB","type":"address","internalType":"address"},{"name":"rel","type":"uint8","internalType":"enum GodRegistry.Relation"}],"outputs":[],"stateMutability":"nonpayable"},{"type":"function","name":"stats","inputs":[{"name":"","type":"address","internalType":"address"}],"outputs":[{"name":"wins","type":"uint256","internalType":"uint256"},{"name":"losses","type":"uint256","internalType":"uint256"},{"name":"totalStaked","type":"uint256","internalType":"uint256"},{"name":"powerScore","type":"uint256","internalType":"uint256"},{"name":"lastActionBlock","type":"uint256","internalType":"uint256"},{"name":"active","type":"bool","internalType":"bool"}],"stateMutability":"view"},{"type":"event","name":"GodRegistered","inputs":[{"name":"god","type":"address","indexed":true,"internalType":"address"},{"name":"name","type":"string","indexed":false,"internalType":"string"}],"anonymous":false},{"type":"event","name":"RelationChanged","inputs":[{"name":"godA","type":"address","indexed":true,"internalType":"address"},{"name":"godB","type":"address","indexed":true,"internalType":"address"},{"name":"relation","type":"uint8","indexed":false,"internalType":"enum GodRegistry.Relation"}],"anonymous":false},{"type":"event","name":"StatsUpdated","inputs":[{"name":"god","type":"address","indexed":true,"internalType":"address"},{"name":"wins","type":"uint256","indexed":false,"internalType":"uint256"},{"name":"losses","type":"uint256","indexed":false,"internalType":"uint256"},{"name":"powerScore","type":"uint256","indexed":false,"internalType":"uint256"}],"anonymous":false},{"type":"error","name":"AlreadyRegistered","inputs":[]},{"type":"error","name":"GodNotFound","inputs":[]},{"type":"error","name":"Unauthorized","inputs":[]}],"bytecode":{"object":"0x6080604052348015600e575f5ffd5b505f80546001600160a01b031916331790556120238061002d5f395ff3fe608060405234801561000f575f5ffd5b5060043610610106575f3560e01c80638bcdcbf31161009e578063b90b3e401161006e578063b90b3e40146102c4578063c23f85d6146102d7578063dec33398146102f7578063ec60b6951461030a578063fd3705f91461031d575f5ffd5b80638bcdcbf3146101fe5780638da5cb5b14610272578063ae4d1bd014610284578063b510dee0146102a4575f5ffd5b80636dae11a8116100d95780636dae11a81461018657806378540f71146101b35780637d6caa08146101da5780638660c23f146101eb575f5ffd5b80630798699b1461010a5780631bd5ff281461013a578063364ac0461461014f5780636a5850a214610166575b5f5ffd5b61011d6101183660046116c0565b610330565b6040516001600160a01b0390911681526020015b60405180910390f35b61014d6101483660046116f2565b610358565b005b6101576103a3565b60405161013193929190611873565b61017961017436600461192f565b6108a5565b6040516101319190611974565b61017961019436600461192f565b600560209081525f928352604080842090915290825290205460ff1681565b6101c66101c13660046116f2565b6108e7565b60405161013198979695949392919061199a565b600254604051908152602001610131565b61014d6101f9366004611a1b565b610b4f565b61024361020c3660046116f2565b600460208190525f918252604090912080546001820154600283015460038401549484015460059094015492949193909260ff1686565b6040805196875260208701959095529385019290925260608401526080830152151560a082015260c001610131565b5f5461011d906001600160a01b031681565b610297610292366004611a6d565b610cdf565b6040516101319190611a95565b6102b76102b23660046116f2565b610dd7565b6040516101319190611ada565b61014d6102d2366004611aec565b6110b9565b6102ea6102e53660046116f2565b61118c565b6040516101319190611b33565b61011d6103053660046116c0565b611226565b61014d610318366004611b89565b611254565b60015461011d906001600160a01b031681565b6002818154811061033f575f80fd5b5f918252602090912001546001600160a01b0316905081565b5f546001600160a01b03163314610381576040516282b42960e81b815260040160405180910390fd5b600180546001600160a01b0319166001600160a01b0392909216919091179055565b6002805460408051602080840282018101909252828152606093849384939092919083908301828280156103fe57602002820191905f5260205f20905b81546001600160a01b031681526001909101906020018083116103e0575b505050505093508067ffffffffffffffff81111561041e5761041e611be5565b60405190808252806020026020018201604052801561048a57816020015b6040805161010081018252606080825260208083018290529282018190525f8183018190526080830181905260a0830181905260c083015260e082015282525f1990920191018161043c5790505b5092508067ffffffffffffffff8111156104a6576104a6611be5565b60405190808252806020026020018201604052801561050c57816020015b6104f96040518060c001604052805f81526020015f81526020015f81526020015f81526020015f81526020015f151581525090565b8152602001906001900390816104c45790505b5091505f5b8181101561089e5760035f6002838154811061052f5761052f611bf9565b5f9182526020808320909101546001600160a01b0316835282019290925260409081019091208151610100810190925280548290829061056e90611c0d565b80601f016020809104026020016040519081016040528092919081815260200182805461059a90611c0d565b80156105e55780601f106105bc576101008083540402835291602001916105e5565b820191905f5260205f20905b8154815290600101906020018083116105c857829003601f168201915b505050505081526020016001820180546105fe90611c0d565b80601f016020809104026020016040519081016040528092919081815260200182805461062a90611c0d565b80156106755780601f1061064c57610100808354040283529160200191610675565b820191905f5260205f20905b81548152906001019060200180831161065857829003601f168201915b5050505050815260200160028201805461068e90611c0d565b80601f01602080910402602001604051908101604052809291908181526020018280546106ba90611c0d565b80156107055780601f106106dc57610100808354040283529160200191610705565b820191905f5260205f20905b8154815290600101906020018083116106e857829003601f168201915b5050509183525050600382015460ff808216602084015261010082048116604084015262010000820481166060840152630100000090910416608082015260048201805460a09092019161075890611c0d565b80601f016020809104026020016040519081016040528092919081815260200182805461078490611c0d565b80156107cf5780601f106107a6576101008083540402835291602001916107cf565b820191905f5260205f20905b8154815290600101906020018083116107b257829003601f168201915b5050505050815250508482815181106107ea576107ea611bf9565b602002602001018190525060045f6002838154811061080b5761080b611bf9565b5f9182526020808320909101546001600160a01b031683528281019390935260409182019020815160c0810183528154815260018201549381019390935260028101549183019190915260038101546060830152600481015460808301526005015460ff16151560a0820152835184908390811061088b5761088b611bf9565b6020908102919091010152600101610511565b5050909192565b5f5f5f6108b285856114f9565b6001600160a01b039182165f90815260056020908152604080832093909416825291909152205460ff16925050505b92915050565b60036020525f908152604090208054819061090190611c0d565b80601f016020809104026020016040519081016040528092919081815260200182805461092d90611c0d565b80156109785780601f1061094f57610100808354040283529160200191610978565b820191905f5260205f20905b81548152906001019060200180831161095b57829003601f168201915b50505050509080600101805461098d90611c0d565b80601f01602080910402602001604051908101604052809291908181526020018280546109b990611c0d565b8015610a045780601f106109db57610100808354040283529160200191610a04565b820191905f5260205f20905b8154815290600101906020018083116109e757829003601f168201915b505050505090806002018054610a1990611c0d565b80601f0160208091040260200160405190810160405280929190818152602001828054610a4590611c0d565b8015610a905780601f10610a6757610100808354040283529160200191610a90565b820191905f5260205f20905b815481529060010190602001808311610a7357829003601f168201915b505050506003830154600484018054939460ff80841695610100850482169550620100008504821694630100000090049091169290610ace90611c0d565b80601f0160208091040260200160405190810160405280929190818152602001828054610afa90611c0d565b8015610b455780601f10610b1c57610100808354040283529160200191610b45565b820191905f5260205f20905b815481529060010190602001808311610b2857829003601f168201915b5050505050905088565b5f546001600160a01b03163314610b78576040516282b42960e81b815260040160405180910390fd5b6001600160a01b0382165f9081526004602052604090206005015460ff1615610bb457604051630ea075bf60e21b815260040160405180910390fd5b60028054600181019091557f405787fa12a823e0f2b7631cc41b3ba8828b3321ca811111fa75cd3aa3bb5ace0180546001600160a01b0319166001600160a01b0384169081179091555f9081526003602052604090208190610c168282611d97565b50506040805160c0810182525f80825260208083018281528385018381526103e8606086019081524360808701908152600160a088018181526001600160a01b038c168089526004978890529990972097518855935193870193909355905160028601555160038501555190830155516005909101805460ff19169115159190911790557f7d67c403c16f70d94b948db023f7f904317f7e5a314b2131a72b3a5e6cfd922a610cc58380611c45565b604051610cd3929190611f4e565b60405180910390a25050565b6001600160a01b0382165f9081526006602052604081208054606092848210610d085784610d0a565b815b90505f8167ffffffffffffffff811115610d2657610d26611be5565b604051908082528060200260200182016040528015610d4f578160200160208202803683370190505b5090505f5b82811015610dcc578481610d688587611f90565b610d729190611fa3565b81548110610d8257610d82611bf9565b905f5260205f2090602091828204019190069054906101000a900460ff16828281518110610db257610db2611bf9565b60ff90921660209283029190910190910152600101610d54565b509695505050505050565b60408051610100810182526060808252602082018190529181018290525f8282018190526080820181905260a0820181905260c082015260e08101919091526001600160a01b0382165f908152600360205260409081902081516101008101909252805482908290610e4890611c0d565b80601f0160208091040260200160405190810160405280929190818152602001828054610e7490611c0d565b8015610ebf5780601f10610e9657610100808354040283529160200191610ebf565b820191905f5260205f20905b815481529060010190602001808311610ea257829003601f168201915b50505050508152602001600182018054610ed890611c0d565b80601f0160208091040260200160405190810160405280929190818152602001828054610f0490611c0d565b8015610f4f5780601f10610f2657610100808354040283529160200191610f4f565b820191905f5260205f20905b815481529060010190602001808311610f3257829003601f168201915b50505050508152602001600282018054610f6890611c0d565b80601f0160208091040260200160405190810160405280929190818152602001828054610f9490611c0d565b8015610fdf5780601f10610fb657610100808354040283529160200191610fdf565b820191905f5260205f20905b815481529060010190602001808311610fc257829003601f168201915b5050509183525050600382015460ff808216602084015261010082048116604084015262010000820481166060840152630100000090910416608082015260048201805460a09092019161103290611c0d565b80601f016020809104026020016040519081016040528092919081815260200182805461105e90611c0d565b80156110a95780601f10611080576101008083540402835291602001916110a9565b820191905f5260205f20905b81548152906001019060200180831161108c57829003601f168201915b5050505050815250509050919050565b6001546001600160a01b031633146110e3576040516282b42960e81b815260040160405180910390fd5b5f5f6110ef85856114f9565b6001600160a01b038083165f9081526005602090815260408083209385168352929052208054929450909250849160ff1916600183600381111561113557611135611960565b0217905550806001600160a01b0316826001600160a01b03167f4cc942ab25942790fd040f418659b25a0e615eaba6201b8853da242e8e91c44f8560405161117d9190611974565b60405180910390a35050505050565b6111c16040518060c001604052805f81526020015f81526020015f81526020015f81526020015f81526020015f151581525090565b506001600160a01b03165f90815260046020818152604092839020835160c081018552815481526001820154928101929092526002810154938201939093526003830154606082015290820154608082015260059091015460ff16151560a082015290565b5f6002828154811061123a5761123a611bf9565b5f918252602090912001546001600160a01b031692915050565b6001546001600160a01b0316331461127e576040516282b42960e81b815260040160405180910390fd5b6001600160a01b038086165f90815260046020526040808220928716825281208254909183906112ad83611fb6565b919050555082826002015f8282546112c59190611fa3565b9091555050436004830155600181018054905f6112e183611fb6565b919050555082816002015f8282546112f99190611fa3565b9091555050436004820155600380830154908201545f916113199161152a565b905080836003015f82825461132e9190611fa3565b9091555050600382015481101561135d5780826003015f8282546113529190611f90565b909155506113659050565b606460038301555b60065f896001600160a01b03166001600160a01b031681526020019081526020015f2086908060018154018082558091505060019003905f5260205f2090602091828204019190069091909190916101000a81548160ff021916908360ff16021790555060065f886001600160a01b03166001600160a01b031681526020019081526020015f2085908060018154018082558091505060019003905f5260205f2090602091828204019190069091909190916101000a81548160ff021916908360ff160217905550876001600160a01b03167f997f24cf4975d3212acc0b9725adbd096842424cf775f6f4e79752c4a22c06ff845f015485600101548660030154604051611486939291909283526020830191909152604082015260600190565b60405180910390a2815460018301546003840154604080519384526020840192909252908201526001600160a01b038816907f997f24cf4975d3212acc0b9725adbd096842424cf775f6f4e79752c4a22c06ff9060600160405180910390a26114ef888861157a565b5050505050505050565b5f5f826001600160a01b0316846001600160a01b03161061151b57828461151e565b83835b915091505b9250929050565b5f81831061153a5750600f6108e1565b5f6115458484611f90565b90505f611553603283611fce565b9050602381116115635780611566565b60235b61157190600f611fa3565b95945050505050565b5f5f61158684846114f9565b6001600160a01b038083165f90815260056020908152604080832093851683529290522054919350915060ff1660028160038111156115c7576115c7611960565b0361163d576001600160a01b038381165f8181526005602090815260408083209487168084529490915290819020805460ff1916600390811790915590517f4cc942ab25942790fd040f418659b25a0e615eaba6201b8853da242e8e91c44f9161163091611974565b60405180910390a36116b9565b5f81600381111561165057611650611960565b036116b9576001600160a01b038381165f8181526005602090815260408083209487168084529490915290819020805460ff1916600290811790915590517f4cc942ab25942790fd040f418659b25a0e615eaba6201b8853da242e8e91c44f9161117d91611974565b5050505050565b5f602082840312156116d0575f5ffd5b5035919050565b80356001600160a01b03811681146116ed575f5ffd5b919050565b5f60208284031215611702575f5ffd5b61170b826116d7565b9392505050565b5f81518084528060208401602086015e5f602082860101526020601f19601f83011685010191505092915050565b5f81516101008452611756610100850182611712565b90506020830151848203602086015261176f8282611712565b915050604083015184820360408601526117898282611712565b91505060608301516117a0606086018260ff169052565b5060808301516117b5608086018260ff169052565b5060a08301516117ca60a086018260ff169052565b5060c08301516117df60c086018260ff169052565b5060e083015184820360e08601526115718282611712565b5f8151808452602084019350602083015f5b8281101561186957611853868351805182526020810151602083015260408101516040830152606081015160608301526080810151608083015260a0810151151560a08301525050565b60c0959095019460209190910190600101611809565b5093949350505050565b606080825284519082018190525f9060208601906080840190835b818110156118b55783516001600160a01b031683526020938401939092019160010161188e565b50508381036020850152809150855180825260208201925060208160051b830101602088015f5b8381101561190e57601f198584030186526118f8838351611740565b60209687019690935091909101906001016118dc565b5050858103604087015261192281886117f7565b9998505050505050505050565b5f5f60408385031215611940575f5ffd5b611949836116d7565b9150611957602084016116d7565b90509250929050565b634e487b7160e01b5f52602160045260245ffd5b602081016004831061199457634e487b7160e01b5f52602160045260245ffd5b91905290565b61010081525f6119ae61010083018b611712565b82810360208401526119c0818b611712565b905082810360408401526119d4818a611712565b905060ff8816606084015260ff8716608084015260ff861660a084015260ff851660c084015282810360e0840152611a0c8185611712565b9b9a5050505050505050505050565b5f5f60408385031215611a2c575f5ffd5b611a35836116d7565b9150602083013567ffffffffffffffff811115611a50575f5ffd5b83016101008186031215611a62575f5ffd5b809150509250929050565b5f5f60408385031215611a7e575f5ffd5b611a87836116d7565b946020939093013593505050565b602080825282518282018190525f918401906040840190835b81811015611acf57835160ff16835260209384019390920191600101611aae565b509095945050505050565b602081525f61170b6020830184611740565b5f5f5f60608486031215611afe575f5ffd5b611b07846116d7565b9250611b15602085016116d7565b9150604084013560048110611b28575f5ffd5b809150509250925092565b60c081016108e18284805182526020810151602083015260408101516040830152606081015160608301526080810151608083015260a0810151151560a08301525050565b60ff81168114611b86575f5ffd5b50565b5f5f5f5f5f60a08688031215611b9d575f5ffd5b611ba6866116d7565b9450611bb4602087016116d7565b93506040860135611bc481611b78565b92506060860135611bd481611b78565b949793965091946080013592915050565b634e487b7160e01b5f52604160045260245ffd5b634e487b7160e01b5f52603260045260245ffd5b600181811c90821680611c2157607f821691505b602082108103611c3f57634e487b7160e01b5f52602260045260245ffd5b50919050565b5f5f8335601e19843603018112611c5a575f5ffd5b83018035915067ffffffffffffffff821115611c74575f5ffd5b602001915036819003821315611523575f5ffd5b601f821115611ccc57805f5260205f20601f840160051c81016020851015611cad5750805b601f840160051c820191505b818110156116b9575f8155600101611cb9565b505050565b67ffffffffffffffff831115611ce957611ce9611be5565b611cfd83611cf78354611c0d565b83611c88565b5f601f841160018114611d2e575f8515611d175750838201355b5f19600387901b1c1916600186901b1783556116b9565b5f83815260208120601f198716915b82811015611d5d5786850135825560209485019460019092019101611d3d565b5086821015611d79575f1960f88860031b161c19848701351681555b505060018560011b0183555050505050565b5f81356108e181611b78565b611da18283611c45565b67ffffffffffffffff811115611db957611db9611be5565b611dcd81611dc78554611c0d565b85611c88565b5f601f821160018114611dfe575f8315611de75750838201355b5f19600385901b1c1916600184901b178555611e55565b5f85815260208120601f198516915b82811015611e2d5786850135825560209485019460019092019101611e0d565b5084821015611e49575f1960f88660031b161c19848701351681555b505060018360011b0185555b50505050611e666020830183611c45565b611e74818360018601611cd1565b5050611e836040830183611c45565b611e91818360028601611cd1565b505060038101611eb7611ea660608501611d8b565b825460ff191660ff91909116178255565b611edc611ec660808501611d8b565b825461ff00191660089190911b61ff0016178255565b611f03611eeb60a08501611d8b565b825462ff0000191660109190911b62ff000016178255565b611f2c611f1260c08501611d8b565b825463ff000000191660189190911b63ff00000016178255565b50611f3a60e0830183611c45565b611f48818360048601611cd1565b50505050565b60208152816020820152818360408301375f818301604090810191909152601f909201601f19160101919050565b634e487b7160e01b5f52601160045260245ffd5b818103818111156108e1576108e1611f7c565b808201808211156108e1576108e1611f7c565b5f60018201611fc757611fc7611f7c565b5060010190565b5f82611fe857634e487b7160e01b5f52601260045260245ffd5b50049056fea26469706673582212205c2a6208e1a0469b13cef4fa345fb49357a076eb651562245a166c37578e053864736f6c634300081e0033","linkReferences":{}},"methodIdentifiers":{"arena()":"fd3705f9","getAllGodStates()":"364ac046","getGodAt(uint256)":"dec33398","getGodCount()":"7d6caa08","getPersonality(address)":"b510dee0","getRecentMoves(address,uint256)":"ae4d1bd0","getRelation(address,address)":"6a5850a2","getStats(address)":"c23f85d6","gods(uint256)":"0798699b","owner()":"8da5cb5b","personalities(address)":"78540f71","recordResult(address,address,uint8,uint8,uint256)":"ec60b695","registerGod(address,(string,string,string,uint8,uint8,uint8,uint8,string))":"8660c23f","relations(address,address)":"6dae11a8","setArena(address)":"1bd5ff28","setRelation(address,address,uint8)":"b90b3e40","stats(address)":"8bcdcbf3"},"id":23}