{"abi":[{"type":"constructor","inputs":[{"name":"_registry","type":"address","internalType":"address"}],"stateMutability":"nonpayable"},{"type":"receive","stateMutability":"payable"},{"type":"function","name":"MAX_FEED_SIZE","inputs":[],"outputs":[{"name":"","type":"uint256","internalType":"uint256"}],"stateMutability":"view"},{"type":"function","name":"activate","inputs":[{"name":"_arena","type":"address","internalType":"address"}],"outputs":[],"stateMutability":"nonpayable"},{"type":"function","name":"aggressionModifier","inputs":[{"name":"","type":"address","internalType":"address"}],"outputs":[{"name":"","type":"int8","internalType":"int8"}],"stateMutability":"view"},{"type":"function","name":"arena","inputs":[],"outputs":[{"name":"","type":"address","internalType":"address"}],"stateMutability":"view"},{"type":"function","name":"battleFeed","inputs":[{"name":"","type":"uint256","internalType":"uint256"}],"outputs":[{"name":"matchId","type":"uint256","internalType":"uint256"},{"name":"winner","type":"address","internalType":"address"},{"name":"loser","type":"address","internalType":"address"},{"name":"stake","type":"uint256","internalType":"uint256"},{"name":"winnerMove","type":"uint8","internalType":"uint8"},{"name":"loserMove","type":"uint8","internalType":"uint8"},{"name":"blockNumber","type":"uint256","internalType":"uint256"},{"name":"decisionReason","type":"string","internalType":"string"}],"stateMutability":"view"},{"type":"function","name":"era","inputs":[],"outputs":[{"name":"","type":"uint256","internalType":"uint256"}],"stateMutability":"view"},{"type":"function","name":"getBattleFeed","inputs":[{"name":"count","type":"uint256","internalType":"uint256"}],"outputs":[{"name":"","type":"tuple[]","internalType":"struct WorldState.BattleRecord[]","components":[{"name":"matchId","type":"uint256","internalType":"uint256"},{"name":"winner","type":"address","internalType":"address"},{"name":"loser","type":"address","internalType":"address"},{"name":"stake","type":"uint256","internalType":"uint256"},{"name":"winnerMove","type":"uint8","internalType":"uint8"},{"name":"loserMove","type":"uint8","internalType":"uint8"},{"name":"blockNumber","type":"uint256","internalType":"uint256"},{"name":"decisionReason","type":"string","internalType":"string"}]}],"stateMutability":"view"},{"type":"function","name":"getEffectiveAggression","inputs":[{"name":"god","type":"address","internalType":"address"}],"outputs":[{"name":"","type":"int256","internalType":"int256"}],"stateMutability":"view"},{"type":"function","name":"getWorldEvents","inputs":[{"name":"count","type":"uint256","internalType":"uint256"}],"outputs":[{"name":"","type":"tuple[]","internalType":"struct WorldState.WorldEvent[]","components":[{"name":"blockNumber","type":"uint256","internalType":"uint256"},{"name":"description","type":"string","internalType":"string"},{"name":"affectedGod","type":"address","internalType":"address"},{"name":"aggressionModifier","type":"int8","internalType":"int8"},{"name":"eventType","type":"uint8","internalType":"uint8"}]}],"stateMutability":"view"},{"type":"function","name":"getWorldSummary","inputs":[],"outputs":[{"name":"currentEra","type":"uint256","internalType":"uint256"},{"name":"battles","type":"uint256","internalType":"uint256"},{"name":"feedSize","type":"uint256","internalType":"uint256"},{"name":"worldEventCount","type":"uint256","internalType":"uint256"}],"stateMutability":"view"},{"type":"function","name":"onEvent","inputs":[{"name":"emitter","type":"address","internalType":"address"},{"name":"eventTopics","type":"bytes32[]","internalType":"bytes32[]"},{"name":"data","type":"bytes","internalType":"bytes"}],"outputs":[],"stateMutability":"nonpayable"},{"type":"function","name":"owner","inputs":[],"outputs":[{"name":"","type":"address","internalType":"address"}],"stateMutability":"view"},{"type":"function","name":"registry","inputs":[],"outputs":[{"name":"","type":"address","internalType":"contract GodRegistry"}],"stateMutability":"view"},{"type":"function","name":"subscriptionId","inputs":[],"outputs":[{"name":"","type":"uint256","internalType":"uint256"}],"stateMutability":"view"},{"type":"function","name":"supportsInterface","inputs":[{"name":"interfaceId","type":"bytes4","internalType":"bytes4"}],"outputs":[{"name":"","type":"bool","internalType":"bool"}],"stateMutability":"pure"},{"type":"function","name":"totalBattles","inputs":[],"outputs":[{"name":"","type":"uint256","internalType":"uint256"}],"stateMutability":"view"},{"type":"function","name":"worldEvents","inputs":[{"name":"","type":"uint256","internalType":"uint256"}],"outputs":[{"name":"blockNumber","type":"uint256","internalType":"uint256"},{"name":"description","type":"string","internalType":"string"},{"name":"affectedGod","type":"address","internalType":"address"},{"name":"aggressionModifier","type":"int8","internalType":"int8"},{"name":"eventType","type":"uint8","internalType":"uint8"}],"stateMutability":"view"},{"type":"event","name":"EraAdvanced","inputs":[{"name":"newEra","type":"uint256","indexed":true,"internalType":"uint256"},{"name":"blockNumber","type":"uint256","indexed":false,"internalType":"uint256"}],"anonymous":false},{"type":"event","name":"SubscriptionCreated","inputs":[{"name":"subscriptionId","type":"uint256","indexed":false,"internalType":"uint256"}],"anonymous":false},{"type":"event","name":"WorldEventApplied","inputs":[{"name":"era","type":"uint256","indexed":true,"internalType":"uint256"},{"name":"description","type":"string","indexed":false,"internalType":"string"}],"anonymous":false},{"type":"event","name":"WorldUpdated","inputs":[{"name":"era","type":"uint256","indexed":true,"internalType":"uint256"},{"name":"winner","type":"address","indexed":true,"internalType":"address"},{"name":"loser","type":"address","indexed":true,"internalType":"address"},{"name":"matchId","type":"uint256","indexed":false,"internalType":"uint256"}],"anonymous":false},{"type":"error","name":"ArenaNotSet","inputs":[]},{"type":"error","name":"EmptyFilter","inputs":[]},{"type":"error","name":"GasLimitExceeded","inputs":[]},{"type":"error","name":"GasLimitZero","inputs":[]},{"type":"error","name":"HandlerZeroAddress","inputs":[]},{"type":"error","name":"InsufficientBalance","inputs":[]},{"type":"error","name":"InvalidMaxFeePerGas","inputs":[]},{"type":"error","name":"OnlyReactivityPrecompile","inputs":[]},{"type":"error","name":"Unauthorized","inputs":[]}],"bytecode":{"object":"0x6080604052348015600e575f5ffd5b506040516127cd3803806127cd833981016040819052602b91605c565b5f80546001600160a01b039092166001600160a01b0319928316179055600280549091163317905560016003556087565b5f60208284031215606b575f5ffd5b81516001600160a01b03811681146080575f5ffd5b9392505050565b612739806100945f395ff3fe6080604052600436106100fd575f3560e01c80635343595e116100925780638da5cb5b116100625780638da5cb5b146102f3578063a983e78114610312578063b30145d814610342578063bf1dfb8a1461036e578063fd3705f914610383575f5ffd5b80635343595e1461022c57806353edf33d1461026b5780635455fb9e1461028a5780637b103999146102bd575f5ffd5b80631c5a9d9c116100cd5780631c5a9d9c146101a05780632aa625d9146101c157806330ec9f2d146101f957806334027fcf14610218575f5ffd5b806301ffc9a71461010857806302fd26301461013c57806309c1ba2e14610168578063143e55e01461018b575f5ffd5b3661010457005b5f5ffd5b348015610113575f5ffd5b50610127610122366004611ac2565b6103a2565b60405190151581526020015b60405180910390f35b348015610147575f5ffd5b5061015b610156366004611af0565b6103d8565b6040516101339190611b35565b348015610173575f5ffd5b5061017d60055481565b604051908152602001610133565b348015610196575f5ffd5b5061017d60035481565b3480156101ab575f5ffd5b506101bf6101ba366004611bef565b6105a8565b005b3480156101cc575f5ffd5b50600354600454600654600754604080519485526020850193909352918301526060820152608001610133565b348015610204575f5ffd5b5061017d610213366004611bef565b6106b7565b348015610223575f5ffd5b5061017d606481565b348015610237575f5ffd5b50610259610246366004611bef565b60086020525f9081526040812054900b81565b6040515f9190910b8152602001610133565b348015610276575f5ffd5b506101bf610285366004611c4e565b610782565b348015610295575f5ffd5b506102a96102a4366004611af0565b6107b8565b604051610133989796959493929190611cff565b3480156102c8575f5ffd5b505f546102db906001600160a01b031681565b6040516001600160a01b039091168152602001610133565b3480156102fe575f5ffd5b506002546102db906001600160a01b031681565b34801561031d575f5ffd5b5061033161032c366004611af0565b6108a8565b604051610133959493929190611d5e565b34801561034d575f5ffd5b5061036161035c366004611af0565b610982565b6040516101339190611da1565b348015610379575f5ffd5b5061017d60045481565b34801561038e575f5ffd5b506001546102db906001600160a01b031681565b5f6301ffc9a760e01b6001600160e01b0319831614806103d257506353edf33d60e01b6001600160e01b03198316145b92915050565b6007546060905f8382106103ec57836103ee565b815b90505f816001600160401b0381111561040957610409611e73565b60405190808252806020026020018201604052801561046057816020015b6040805160a0810182525f808252606060208084018290529383018290528201819052608082015282525f199092019101816104275790505b5090505f5b8281101561059f5760078161047b600187611e9b565b6104859190611e9b565b8154811061049557610495611eae565b905f5260205f2090600302016040518060a00160405290815f82015481526020016001820180546104c590611ec2565b80601f01602080910402602001604051908101604052809291908181526020018280546104f190611ec2565b801561053c5780601f106105135761010080835404028352916020019161053c565b820191905f5260205f20905b81548152906001019060200180831161051f57829003601f168201915b5050509183525050600291909101546001600160a01b0381166020830152600160a01b81045f0b6040830152600160a81b900460ff16606090910152825183908390811061058c5761058c611eae565b6020908102919091010152600101610465565b50949350505050565b6002546001600160a01b031633146105d2576040516282b42960e81b815260040160405180910390fd5b600180546001600160a01b0319166001600160a01b0383169081179091556040805160e0810182527fb237fdf26315d0c32e1ea500f843c2c005db3cc186796515d88e75abc85a5e5760608083018281525f6080850181905260a0850181905260c085018190529084526020808501829052848601969096528451918201855281526404a817c8009481019490945262989680928401929092529091610679308383610ba2565b60058190556040519081527f6a2b70dde6ae0193f84b6a9eeb3b0ebdc3a35e99d9167b88c570158dd09cb0f79060200160405180910390a150505050565b5f80546040516305a886f760e51b81526001600160a01b0384811660048301528392169063b510dee0906024015f60405180830381865afa1580156106fe573d5f5f3e3d5ffd5b505050506040513d5f823e601f3d908101601f19168201604052610725919081019061200b565b60608101516001600160a01b0385165f9081526008602052604081205492935060ff90911691810b906107588284612138565b90505f8112610776576064811361076f5780610778565b6064610778565b5f5b9695505050505050565b33610100146107a45760405163191fbb7560e01b815260040160405180910390fd5b6107b18585858585610bb6565b5050505050565b600681815481106107c7575f80fd5b5f91825260209091206007909102018054600182015460028301546003840154600485015460058601546006870180549698506001600160a01b03958616979490951695929460ff80841695610100909404169391929161082790611ec2565b80601f016020809104026020016040519081016040528092919081815260200182805461085390611ec2565b801561089e5780601f106108755761010080835404028352916020019161089e565b820191905f5260205f20905b81548152906001019060200180831161088157829003601f168201915b5050505050905088565b600781815481106108b7575f80fd5b5f91825260209091206003909102018054600182018054919350906108db90611ec2565b80601f016020809104026020016040519081016040528092919081815260200182805461090790611ec2565b80156109525780601f1061092957610100808354040283529160200191610952565b820191905f5260205f20905b81548152906001019060200180831161093557829003601f168201915b505050600290930154919250506001600160a01b03811690600160a01b81045f0b9060ff600160a81b9091041685565b6006546060905f8382106109965783610998565b815b90505f816001600160401b038111156109b3576109b3611e73565b604051908082528060200260200182016040528015610a3d57816020015b610a2a6040518061010001604052805f81526020015f6001600160a01b031681526020015f6001600160a01b031681526020015f81526020015f60ff1681526020015f60ff1681526020015f8152602001606081525090565b8152602001906001900390816109d15790505b5090505f5b8281101561059f57600681610a58600187611e9b565b610a629190611e9b565b81548110610a7257610a72611eae565b5f91825260209182902060408051610100808201835260079094029092018054835260018101546001600160a01b039081169584019590955260028101549094169082015260038301546060820152600483015460ff808216608084015292900490911660a0820152600582015460c082015260068201805491929160e084019190610afd90611ec2565b80601f0160208091040260200160405190810160405280929190818152602001828054610b2990611ec2565b8015610b745780601f10610b4b57610100808354040283529160200191610b74565b820191905f5260205f20905b815481529060010190602001808311610b5757829003601f168201915b505050505081525050828281518110610b8f57610b8f611eae565b6020908102919091010152600101610a42565b5f610bae848484610d33565b949350505050565b6001546001600160a01b03908116908616036107b157600483106107b1575f84846001818110610be857610be8611eae565b905060200201355f1c90505f85856002818110610c0757610c07611eae565b905060200201355f1c90505f86865f818110610c2557610c25611eae565b602002919091013591505f9050808080610c41888a018a61215f565b6004805494985092965090945092505f610c5a83612201565b9190505550610c6e85888887878787610ee4565b6032600454610c7d9190612219565b5f03610cd55760038054905f610c9283612201565b90915550506003546040514381527fdff79382af11a6cb54fe18ea30a0f274f3075a86a466c546a6d8535d387585f29060200160405180910390a2610cd5611239565b856001600160a01b0316876001600160a01b03166003547fda717966086786e2c12d7981f12e4b4fec1fd2090db9c9b90f1dcdd624d409f888604051610d1d91815260200190565b60405180910390a4505050505050505050505050565b5f6001600160a01b038416610d5b57604051631677fb0160e21b815260040160405180910390fd5b610d6483611574565b610d815760405163043b369d60e01b815260040160405180910390fd5b81604001516001600160401b03165f03610dae576040516390ecd8f560e01b815260040160405180910390fd5b630bebc2006001600160401b031682604001516001600160401b03161115610de957604051635f48bcd360e11b815260040160405180910390fd5b60208201516001600160401b031615801590610e2d575081602001516001600160401b0316640165a0bc00835f01516001600160401b0316610e2b9190612238565b115b15610e4b57604051630f13856560e21b815260040160405180910390fd5b6801bc16d674ec800000471015610e7557604051631e9acf1760e31b815260040160405180910390fd5b61010063c5fca91e610e888686866115d8565b6040518263ffffffff1660e01b8152600401610ea4919061226d565b6020604051808303815f875af1158015610ec0573d5f5f3e3d5ffd5b505050506040513d601f19601f82011682018060405250810190610bae9190612352565b600654606411611070575f5b600654610eff90600190611e9b565b811015610ffa576006610f13826001612238565b81548110610f2357610f23611eae565b905f5260205f20906007020160068281548110610f4257610f42611eae565b5f9182526020909120825460079092020190815560018083015490820180546001600160a01b039283166001600160a01b03199182161790915560028085015490840180549190931691161790556003808301549082015560048083018054918301805460ff93841660ff19821681178355925461ffff199091169092176101009283900490931690910291909117905560058083015490820155600680820190610fef908401826123ad565b505050600101610ef0565b50600680548061100c5761100c612484565b5f8281526020812060075f19909301928302018181556001810180546001600160a01b031990811690915560028201805490911690556003810182905560048101805461ffff19169055600581018290559061106b60068301826119f0565b505090555b6040805161010080820183528982526001600160a01b03808a16602084019081528982169484019485526060840189815260ff808a166080870190815289821660a088019081524360c0890190815260e089018b8152600680546001810182555f919091528a5160079091027ff652222313e28459528d920b65115c16c04f3efc82aaedc97be59f3f377c0d3f810191825597517ff652222313e28459528d920b65115c16c04f3efc82aaedc97be59f3f377c0d4089018054918b166001600160a01b03199283161790559b517ff652222313e28459528d920b65115c16c04f3efc82aaedc97be59f3f377c0d418901805491909a169c169b909b1790975593517ff652222313e28459528d920b65115c16c04f3efc82aaedc97be59f3f377c0d4286015590517ff652222313e28459528d920b65115c16c04f3efc82aaedc97be59f3f377c0d43850180549251841690970261ffff199092169216919091171790935591517ff652222313e28459528d920b65115c16c04f3efc82aaedc97be59f3f377c0d44830155519192917ff652222313e28459528d920b65115c16c04f3efc82aaedc97be59f3f377c0d459091019061122d9082612498565b50505050505050505050565b5f611242611667565b905080515f0361124f5750565b60035460048054604080514360208201529081019390935260608301525f91608001604051602081830303815290604052805190602001205f1c6112939190612219565b9050805f03611324575f5b82518110156112fa57600f60085f8584815181106112be576112be611eae565b6020908102919091018101516001600160a01b031682528101919091526040015f20805460ff191660ff9290921691909117905560010161129e565b5061132060405180608001604052806047815260200161265d604791395f600f5f6117c8565b5050565b80600103611389575f61133683611906565b6001600160a01b0381165f90815260086020908152604091829020805460ff191660ec179055815160608101909252603480835292935061138492906126a4908301398260131960016117c8565b505050565b806002036114f2575f828351436040516020016113b391815261673160f01b602082015260220190565b604051602081830303815290604052805190602001205f1c6113d59190612219565b815181106113e5576113e5611eae565b602002602001015190505f8384514360405160200161141191815261339960f11b602082015260220190565b604051602081830303815290604052805190602001205f1c6114339190612219565b8151811061144357611443611eae565b60200260200101519050806001600160a01b0316826001600160a01b0316146114ec575f546040516302e42cf960e61b81526001600160a01b039091169063b90b3e409061149a908590859060039060040161254a565b5f604051808303815f87803b1580156114b1575f5ffd5b505af11580156114c3573d5f5f3e3d5ffd5b505050506114ec6040518060600160405280602c81526020016126d8602c91395f5f60026117c8565b50505050565b5f5b825181101561154f575f60085f85848151811061151357611513611eae565b6020908102919091018101516001600160a01b031682528101919091526040015f20805460ff191660ff929092169190911790556001016114f4565b506113206040518060600160405280603f815260200161261e603f91395f5f5f6117c8565b60208101515f906001600160a01b031615158061159d575060408201516001600160a01b031615155b806115a9575081515115155b806115b8575081516020015115155b806115c7575081516040015115155b806103d25750505160600151151590565b6115e0611a2a565b506040805161016081018252835181526020808501516001600160a01b03908116828401525f83850181905295840151811660608401529590951660808201526353edf33d60e01b60a082015282516001600160401b0390811660c083015294830151851660e0820152910151909216610100830152610120820181905261014082015290565b5f805460408051630fad954160e31b81529051606093926001600160a01b031691637d6caa089160048083019260209291908290030181865afa1580156116b0573d5f5f3e3d5ffd5b505050506040513d601f19601f820116820180604052508101906116d49190612352565b90505f816001600160401b038111156116ef576116ef611e73565b604051908082528060200260200182016040528015611718578160200160208202803683370190505b5090505f5b828110156117c1575f54604051631bd8667360e31b8152600481018390526001600160a01b039091169063dec3339890602401602060405180830381865afa15801561176b573d5f5f3e3d5ffd5b505050506040513d601f19601f8201168201806040525081019061178f919061258c565b8282815181106117a1576117a1611eae565b6001600160a01b039092166020928302919091019091015260010161171d565b5092915050565b6040805160a081018252438152602081018681526001600160a01b038616928201929092525f84810b606083015260ff84166080830152600780546001810182559152815160039091027fa66cc928b5edb82af9bd49922954155ab7b0942694bea4ce44661d9a8736c68881019182559251919290917fa66cc928b5edb82af9bd49922954155ab7b0942694bea4ce44661d9a8736c6899091019061186d9082612498565b50604082810151600292909201805460608501516080909501516001600160a01b039094166001600160a81b031990911617600160a01b60ff958616021760ff60a81b1916600160a81b94909316939093029190911790915560035490517f557009d46903e47938a506f9536996fc3afc8297adf5c306e3f272c0f9834be0906118f89087906125a7565b60405180910390a250505050565b5f80805b83518110156119e9575f805485516001600160a01b039091169063c23f85d69087908590811061193c5761193c611eae565b60200260200101516040518263ffffffff1660e01b815260040161196f91906001600160a01b0391909116815260200190565b60c060405180830381865afa15801561198a573d5f5f3e3d5ffd5b505050506040513d601f19601f820116820180604052508101906119ae91906125b9565b905082816060015111156119e057806060015192508482815181106119d5576119d5611eae565b602002602001015193505b5060010161190a565b5050919050565b5080546119fc90611ec2565b5f825580601f10611a0b575050565b601f0160209004905f5260205f2090810190611a279190611a8c565b50565b604051806101600160405280611a3e611aa4565b81525f6020820181905260408201819052606082018190526080820181905260a0820181905260c0820181905260e08201819052610100820181905261012082018190526101409091015290565b5b80821115611aa0575f8155600101611a8d565b5090565b60405180608001604052806004906020820280368337509192915050565b5f60208284031215611ad2575f5ffd5b81356001600160e01b031981168114611ae9575f5ffd5b9392505050565b5f60208284031215611b00575f5ffd5b5035919050565b5f81518084528060208401602086015e5f602082860101526020601f19601f83011685010191505092915050565b5f602082016020835280845180835260408501915060408160051b8601019250602086015f5b82811015611bcf57603f19878603018452815180518652602081015160a06020880152611b8b60a0880182611b07565b6040838101516001600160a01b0316908901526060808401515f0b9089015260809283015160ff169290970191909152506020938401939190910190600101611b5b565b50929695505050505050565b6001600160a01b0381168114611a27575f5ffd5b5f60208284031215611bff575f5ffd5b8135611ae981611bdb565b5f5f83601f840112611c1a575f5ffd5b5081356001600160401b03811115611c30575f5ffd5b602083019150836020828501011115611c47575f5ffd5b9250929050565b5f5f5f5f5f60608688031215611c62575f5ffd5b8535611c6d81611bdb565b945060208601356001600160401b03811115611c87575f5ffd5b8601601f81018813611c97575f5ffd5b80356001600160401b03811115611cac575f5ffd5b8860208260051b8401011115611cc0575f5ffd5b6020919091019450925060408601356001600160401b03811115611ce2575f5ffd5b611cee88828901611c0a565b969995985093965092949392505050565b8881526001600160a01b038881166020830152871660408201526060810186905260ff8581166080830152841660a082015260c0810183905261010060e082018190525f90611d5090830184611b07565b9a9950505050505050505050565b85815260a060208201525f611d7660a0830187611b07565b6001600160a01b03959095166040830152505f9290920b606083015260ff1660809091015292915050565b5f602082016020835280845180835260408501915060408160051b8601019250602086015f5b82811015611bcf57603f1987860301845281518051865260018060a01b03602082015116602087015260018060a01b036040820151166040870152606081015160608701526080810151611e20608088018260ff169052565b5060a0810151611e3560a088018260ff169052565b5060c081015160c087015260e0810151905061010060e0870152611e5d610100870182611b07565b9550506020938401939190910190600101611dc7565b634e487b7160e01b5f52604160045260245ffd5b634e487b7160e01b5f52601160045260245ffd5b818103818111156103d2576103d2611e87565b634e487b7160e01b5f52603260045260245ffd5b600181811c90821680611ed657607f821691505b602082108103611ef457634e487b7160e01b5f52602260045260245ffd5b50919050565b60405161010081016001600160401b0381118282101715611f1d57611f1d611e73565b60405290565b60405160c081016001600160401b0381118282101715611f1d57611f1d611e73565b604051601f8201601f191681016001600160401b0381118282101715611f6d57611f6d611e73565b604052919050565b5f6001600160401b03821115611f8d57611f8d611e73565b50601f01601f191660200190565b5f82601f830112611faa575f5ffd5b8151611fbd611fb882611f75565b611f45565b818152846020838601011115611fd1575f5ffd5b8160208501602083015e5f918101602001919091529392505050565b60ff81168114611a27575f5ffd5b805161200681611fed565b919050565b5f6020828403121561201b575f5ffd5b81516001600160401b03811115612030575f5ffd5b82016101008185031215612042575f5ffd5b61204a611efa565b81516001600160401b0381111561205f575f5ffd5b61206b86828501611f9b565b82525060208201516001600160401b03811115612086575f5ffd5b61209286828501611f9b565b60208301525060408201516001600160401b038111156120b0575f5ffd5b6120bc86828501611f9b565b6040830152506120ce60608301611ffb565b60608201526120df60808301611ffb565b60808201526120f060a08301611ffb565b60a082015261210160c08301611ffb565b60c082015260e08201516001600160401b0381111561211e575f5ffd5b61212a86828501611f9b565b60e083015250949350505050565b8082018281125f83128015821682158216171561215757612157611e87565b505092915050565b5f5f5f5f60808587031215612172575f5ffd5b84359350602085013561218481611fed565b9250604085013561219481611fed565b915060608501356001600160401b038111156121ae575f5ffd5b8501601f810187136121be575f5ffd5b80356121cc611fb882611f75565b8181528860208385010111156121e0575f5ffd5b816020840160208301375f6020838301015280935050505092959194509250565b5f6001820161221257612212611e87565b5060010190565b5f8261223357634e487b7160e01b5f52601260045260245ffd5b500690565b808201808211156103d2576103d2611e87565b805f5b60048110156114ec57815184526020938401939091019060010161224e565b5f6101c08201905061228082845161224b565b60208301516001600160a01b03811660808401525060408301516001600160a01b03811660a08401525060608301516001600160a01b03811660c08401525060808301516001600160a01b03811660e08401525060a08301516001600160e01b031981166101008401525060c08301516001600160401b0381166101208401525060e08301516001600160401b038116610140840152506101008301516001600160401b03811661016084015250610120830151801515610180840152506101408301518015156101a08401526117c1565b5f60208284031215612362575f5ffd5b5051919050565b601f82111561138457805f5260205f20601f840160051c8101602085101561238e5750805b601f840160051c820191505b818110156107b1575f815560010161239a565b8181036123b8575050565b6123c28254611ec2565b6001600160401b038111156123d9576123d9611e73565b6123ed816123e78454611ec2565b84612369565b5f601f821160018114612421575f83156124075750848201545b600184901b5f19600386901b1c198216175b8555506107b1565b5f8581526020808220868352908220601f198616925b838110156124575782860154825560019586019590910190602001612437565b508583101561247457818501545f19600388901b60f8161c191681555b5050505050600190811b01905550565b634e487b7160e01b5f52603160045260245ffd5b81516001600160401b038111156124b1576124b1611e73565b6124bf816123e78454611ec2565b6020601f8211600181146124ef575f8315612407575081850151600184901b5f19600386901b1c19821617612419565b5f84815260208120601f198516915b8281101561251e57878501518255602094850194600190920191016124fe565b508482101561253b57868401515f19600387901b60f8161c191681555b50505050600190811b01905550565b6001600160a01b03848116825283166020820152606081016004831061257e57634e487b7160e01b5f52602160045260245ffd5b826040830152949350505050565b5f6020828403121561259c575f5ffd5b8151611ae981611bdb565b602081525f611ae96020830184611b07565b5f60c08284031280156125ca575f5ffd5b506125d3611f23565b825181526020808401519082015260408084015190820152606080840151908201526080808401519082015260a08301518015158114612611575f5ffd5b60a0820152939250505056fe4120726172652070656163652064657363656e64732075706f6e207468652070616e7468656f6e2e20476f6473207265737420616e64207265636f7665722e4120646976696e6520737572676520656d706f7765727320616c6c20676f64732e2041676772657373696f6e207269736573206163726f7373207468652070616e7468656f6e2e546865207374726f6e6765737420676f64206973207765616b656e65642062792074686520656e7679206f6620726976616c732e446976696e652074656e73696f6e206572757074732e2054776f20676f6473206465636c617265207761722ea26469706673582212205be59c759ac03d4352ad9e78ddcf408c2cafa700ee5a90892702f7764ad454c764736f6c634300081e0033","linkReferences":{}},"methodIdentifiers":{"MAX_FEED_SIZE()":"34027fcf","activate(address)":"1c5a9d9c","aggressionModifier(address)":"5343595e","arena()":"fd3705f9","battleFeed(uint256)":"5455fb9e","era()":"143e55e0","getBattleFeed(uint256)":"b30145d8","getEffectiveAggression(address)":"30ec9f2d","getWorldEvents(uint256)":"02fd2630","getWorldSummary()":"2aa625d9","onEvent(address,bytes32[],bytes)":"53edf33d","owner()":"8da5cb5b","registry()":"7b103999","subscriptionId()":"09c1ba2e","supportsInterface(bytes4)":"01ffc9a7","totalBattles()":"bf1dfb8a","worldEvents(uint256)":"a983e781"},"id":25}