{"abi":[{"type":"constructor","inputs":[{"name":"_registry","type":"address","internalType":"address"},{"name":"_agentPlatform","type":"address","internalType":"address"},{"name":"_jsonApiAgentId","type":"uint256","internalType":"uint256"}],"stateMutability":"nonpayable"},{"type":"receive","stateMutability":"payable"},{"type":"function","name":"JSON_API_COST","inputs":[],"outputs":[{"name":"","type":"uint256","internalType":"uint256"}],"stateMutability":"view"},{"type":"function","name":"MAX_FEED_SIZE","inputs":[],"outputs":[{"name":"","type":"uint256","internalType":"uint256"}],"stateMutability":"view"},{"type":"function","name":"activate","inputs":[{"name":"_arena","type":"address","internalType":"address"}],"outputs":[],"stateMutability":"nonpayable"},{"type":"function","name":"agentPlatform","inputs":[],"outputs":[{"name":"","type":"address","internalType":"contract IAgentRequester"}],"stateMutability":"view"},{"type":"function","name":"aggressionModifier","inputs":[{"name":"","type":"address","internalType":"address"}],"outputs":[{"name":"","type":"int8","internalType":"int8"}],"stateMutability":"view"},{"type":"function","name":"arena","inputs":[],"outputs":[{"name":"","type":"address","internalType":"address"}],"stateMutability":"view"},{"type":"function","name":"battleFeed","inputs":[{"name":"","type":"uint256","internalType":"uint256"}],"outputs":[{"name":"matchId","type":"uint256","internalType":"uint256"},{"name":"winner","type":"address","internalType":"address"},{"name":"loser","type":"address","internalType":"address"},{"name":"stake","type":"uint256","internalType":"uint256"},{"name":"winnerMove","type":"uint8","internalType":"uint8"},{"name":"loserMove","type":"uint8","internalType":"uint8"},{"name":"blockNumber","type":"uint256","internalType":"uint256"},{"name":"decisionReason","type":"string","internalType":"string"}],"stateMutability":"view"},{"type":"function","name":"era","inputs":[],"outputs":[{"name":"","type":"uint256","internalType":"uint256"}],"stateMutability":"view"},{"type":"function","name":"getBattleFeed","inputs":[{"name":"count","type":"uint256","internalType":"uint256"}],"outputs":[{"name":"","type":"tuple[]","internalType":"struct WorldState.BattleRecord[]","components":[{"name":"matchId","type":"uint256","internalType":"uint256"},{"name":"winner","type":"address","internalType":"address"},{"name":"loser","type":"address","internalType":"address"},{"name":"stake","type":"uint256","internalType":"uint256"},{"name":"winnerMove","type":"uint8","internalType":"uint8"},{"name":"loserMove","type":"uint8","internalType":"uint8"},{"name":"blockNumber","type":"uint256","internalType":"uint256"},{"name":"decisionReason","type":"string","internalType":"string"}]}],"stateMutability":"view"},{"type":"function","name":"getEffectiveAggression","inputs":[{"name":"god","type":"address","internalType":"address"}],"outputs":[{"name":"","type":"int256","internalType":"int256"}],"stateMutability":"view"},{"type":"function","name":"getWorldEvents","inputs":[{"name":"count","type":"uint256","internalType":"uint256"}],"outputs":[{"name":"","type":"tuple[]","internalType":"struct WorldState.WorldEvent[]","components":[{"name":"blockNumber","type":"uint256","internalType":"uint256"},{"name":"description","type":"string","internalType":"string"},{"name":"affectedGod","type":"address","internalType":"address"},{"name":"aggressionModifier","type":"int8","internalType":"int8"},{"name":"eventType","type":"uint8","internalType":"uint8"}]}],"stateMutability":"view"},{"type":"function","name":"getWorldSummary","inputs":[],"outputs":[{"name":"currentEra","type":"uint256","internalType":"uint256"},{"name":"battles","type":"uint256","internalType":"uint256"},{"name":"feedSize","type":"uint256","internalType":"uint256"},{"name":"worldEventCount","type":"uint256","internalType":"uint256"}],"stateMutability":"view"},{"type":"function","name":"handleResponse","inputs":[{"name":"requestId","type":"uint256","internalType":"uint256"},{"name":"responses","type":"tuple[]","internalType":"struct IAgentRequester.Response[]","components":[{"name":"validator","type":"address","internalType":"address"},{"name":"result","type":"bytes","internalType":"bytes"},{"name":"status","type":"uint8","internalType":"enum IAgentRequester.ResponseStatus"},{"name":"receipt","type":"uint256","internalType":"uint256"},{"name":"timestamp","type":"uint256","internalType":"uint256"},{"name":"executionCost","type":"uint256","internalType":"uint256"}]},{"name":"status","type":"uint8","internalType":"enum IAgentRequester.ResponseStatus"},{"name":"","type":"tuple","internalType":"struct IAgentRequester.Request","components":[{"name":"id","type":"uint256","internalType":"uint256"},{"name":"requester","type":"address","internalType":"address"},{"name":"callbackAddress","type":"address","internalType":"address"},{"name":"callbackSelector","type":"bytes4","internalType":"bytes4"},{"name":"subcommittee","type":"address[]","internalType":"address[]"},{"name":"responses","type":"tuple[]","internalType":"struct IAgentRequester.Response[]","components":[{"name":"validator","type":"address","internalType":"address"},{"name":"result","type":"bytes","internalType":"bytes"},{"name":"status","type":"uint8","internalType":"enum IAgentRequester.ResponseStatus"},{"name":"receipt","type":"uint256","internalType":"uint256"},{"name":"timestamp","type":"uint256","internalType":"uint256"},{"name":"executionCost","type":"uint256","internalType":"uint256"}]},{"name":"responseCount","type":"uint256","internalType":"uint256"},{"name":"failureCount","type":"uint256","internalType":"uint256"},{"name":"threshold","type":"uint256","internalType":"uint256"},{"name":"createdAt","type":"uint256","internalType":"uint256"},{"name":"deadline","type":"uint256","internalType":"uint256"},{"name":"status","type":"uint8","internalType":"enum IAgentRequester.ResponseStatus"},{"name":"consensusType","type":"uint8","internalType":"enum IAgentRequester.ConsensusType"},{"name":"remainingBudget","type":"uint256","internalType":"uint256"},{"name":"perAgentBudget","type":"uint256","internalType":"uint256"}]}],"outputs":[],"stateMutability":"nonpayable"},{"type":"function","name":"jsonApiAgentId","inputs":[],"outputs":[{"name":"","type":"uint256","internalType":"uint256"}],"stateMutability":"view"},{"type":"function","name":"lastFetchedEthPrice","inputs":[],"outputs":[{"name":"","type":"uint256","internalType":"uint256"}],"stateMutability":"view"},{"type":"function","name":"lastPriceFetchBattle","inputs":[],"outputs":[{"name":"","type":"uint256","internalType":"uint256"}],"stateMutability":"view"},{"type":"function","name":"onEvent","inputs":[{"name":"emitter","type":"address","internalType":"address"},{"name":"eventTopics","type":"bytes32[]","internalType":"bytes32[]"},{"name":"data","type":"bytes","internalType":"bytes"}],"outputs":[],"stateMutability":"nonpayable"},{"type":"function","name":"owner","inputs":[],"outputs":[{"name":"","type":"address","internalType":"address"}],"stateMutability":"view"},{"type":"function","name":"pendingPriceRequestId","inputs":[],"outputs":[{"name":"","type":"uint256","internalType":"uint256"}],"stateMutability":"view"},{"type":"function","name":"registry","inputs":[],"outputs":[{"name":"","type":"address","internalType":"contract GodRegistry"}],"stateMutability":"view"},{"type":"function","name":"setAgentConfig","inputs":[{"name":"_platform","type":"address","internalType":"address"},{"name":"_agentId","type":"uint256","internalType":"uint256"}],"outputs":[],"stateMutability":"nonpayable"},{"type":"function","name":"subscriptionId","inputs":[],"outputs":[{"name":"","type":"uint256","internalType":"uint256"}],"stateMutability":"view"},{"type":"function","name":"supportsInterface","inputs":[{"name":"interfaceId","type":"bytes4","internalType":"bytes4"}],"outputs":[{"name":"","type":"bool","internalType":"bool"}],"stateMutability":"pure"},{"type":"function","name":"totalBattles","inputs":[],"outputs":[{"name":"","type":"uint256","internalType":"uint256"}],"stateMutability":"view"},{"type":"function","name":"worldEvents","inputs":[{"name":"","type":"uint256","internalType":"uint256"}],"outputs":[{"name":"blockNumber","type":"uint256","internalType":"uint256"},{"name":"description","type":"string","internalType":"string"},{"name":"affectedGod","type":"address","internalType":"address"},{"name":"aggressionModifier","type":"int8","internalType":"int8"},{"name":"eventType","type":"uint8","internalType":"uint8"}],"stateMutability":"view"},{"type":"event","name":"ETHPriceFetched","inputs":[{"name":"requestId","type":"uint256","indexed":false,"internalType":"uint256"},{"name":"price","type":"uint256","indexed":false,"internalType":"uint256"},{"name":"worldImpact","type":"string","indexed":false,"internalType":"string"}],"anonymous":false},{"type":"event","name":"EraAdvanced","inputs":[{"name":"newEra","type":"uint256","indexed":true,"internalType":"uint256"},{"name":"blockNumber","type":"uint256","indexed":false,"internalType":"uint256"}],"anonymous":false},{"type":"event","name":"JSONAPIRequested","inputs":[{"name":"requestId","type":"uint256","indexed":false,"internalType":"uint256"},{"name":"url","type":"string","indexed":false,"internalType":"string"}],"anonymous":false},{"type":"event","name":"SubscriptionCreated","inputs":[{"name":"subscriptionId","type":"uint256","indexed":false,"internalType":"uint256"}],"anonymous":false},{"type":"event","name":"WorldEventApplied","inputs":[{"name":"era","type":"uint256","indexed":true,"internalType":"uint256"},{"name":"description","type":"string","indexed":false,"internalType":"string"}],"anonymous":false},{"type":"event","name":"WorldUpdated","inputs":[{"name":"era","type":"uint256","indexed":true,"internalType":"uint256"},{"name":"winner","type":"address","indexed":true,"internalType":"address"},{"name":"loser","type":"address","indexed":true,"internalType":"address"},{"name":"matchId","type":"uint256","indexed":false,"internalType":"uint256"}],"anonymous":false},{"type":"error","name":"ArenaNotSet","inputs":[]},{"type":"error","name":"EmptyFilter","inputs":[]},{"type":"error","name":"GasLimitExceeded","inputs":[]},{"type":"error","name":"GasLimitZero","inputs":[]},{"type":"error","name":"HandlerZeroAddress","inputs":[]},{"type":"error","name":"InsufficientBalance","inputs":[]},{"type":"error","name":"InvalidMaxFeePerGas","inputs":[]},{"type":"error","name":"OnlyReactivityPrecompile","inputs":[]},{"type":"error","name":"Unauthorized","inputs":[]}],"bytecode":{"object":"0x60803460a457601f61342438819003918201601f19168301916001600160401b0383118484101760a95780849260609460405283398101031260a45760428160bf565b906040604f6020830160bf565b910151600080546001600160a01b03199081166001600160a01b039586161790915560038054821694909316939093179091556004556002805490911633179055600160085560405161335190816100d38239f35b600080fd5b634e487b7160e01b600052604160045260246000fd5b51906001600160a01b038216820360a45756fe608080604052600436101561001d575b50361561001b57600080fd5b005b60003560e01c90816301ffc9a7146111365750806302fd263014610f6957806309c1ba2e14610f4b578063143e55e014610f2d5780631c5a9d9c14610ab85780632aa625d914610a815780632f5b04ec14610a6357806330ec9f2d1461097557806334027fcf14610959578063387e0801146107535780633d638261146106f057806340a9bb61146106d257806351fbe9f4146106a95780635343595e1461066c57806353edf33d146105ac5780635455fb9e1461050057806358e5841b146104e25780637b103999146104b95780638da5cb5b14610490578063a983e7811461040b578063b30145d8146101ca578063bf1dfb8a146101ac578063d29fa2781461018e578063e9ab43ae1461016b5763fd3705f91461013d573861000f565b34610166576000366003190112610166576001546040516001600160a01b039091168152602090f35b600080fd5b346101665760003660031901126101665760206040516701aa535d3d0c00008152f35b34610166576000366003190112610166576020600554604051908152f35b34610166576000366003190112610166576020600954604051908152f35b3461016657602036600319011261016657600b54600435808210156104055750805b6101f5826112a5565b916102036040519384611284565b808352601f19610212826112a5565b0160005b8181106103b6575050600019820191821160005b8281106102fb57846040518091602082016020835281518091526040830190602060408260051b8601019301916000905b82821061026a57505050500390f35b919360019193955060206102eb8192603f198a820301865261010060e08a5180518452878060a01b03868201511686850152878060a01b0360408201511660408501526060810151606085015260ff608082015116608085015260ff60a08201511660a085015260c081015160c08501520151918160e082015201906111ac565b960192019201859493919261025b565b816103a0578061031561031060019387611548565b611416565b5061037f6006604051926103288461124d565b80548452858060a01b0386820154166020850152858060a01b0360028201541660408501526003810154606085015260ff6004820154818116608087015260081c1660a0850152600581015460c085015201611485565b60e082015261038e8288611555565b526103998187611555565b500161022a565b634e487b7160e01b600052601160045260246000fd5b6020906040516103c58161124d565b60008152600083820152600060408201526000606082015260006080820152600060a0820152600060c0820152606060e082015282828801015201610216565b906101ec565b3461016657602036600319011261016657600435600c548110156101665761043290611529565b508054600261044360018401611485565b92015460ff610464604051948594855260a0602086015260a08501906111ac565b6001600160a01b038316604085015260a083901c60000b606085015260a89290921c1660808301520390f35b34610166576000366003190112610166576002546040516001600160a01b039091168152602090f35b34610166576000366003190112610166576000546040516001600160a01b039091168152602090f35b34610166576000366003190112610166576020600654604051908152f35b3461016657602036600319011261016657600435600b548110156101665761052790611416565b5080546105a860018060a01b036001840154169260018060a01b036002820154169060ff6003820154600483015490610567600660058601549501611485565b946040519889988952602089015260408801526060870152818116608087015260081c1660a085015260c084015261010060e08401526101008301906111ac565b0390f35b34610166576060366003190112610166576105c56111d1565b602435906001600160401b0382116101665736602383011215610166578160040135916001600160401b038311610166573660248460051b8301011161016657604435926001600160401b0384116101665736602385011215610166578360040135926001600160401b03841161016657366024858701011161016657610100330361065b5760248061001b96019301906120c3565b63191fbb7560e01b60005260046000fd5b34610166576020366003190112610166576001600160a01b0361068d6111d1565b16600052600d602052602060406000205460000b604051908152f35b34610166576000366003190112610166576003546040516001600160a01b039091168152602090f35b34610166576000366003190112610166576020600754604051908152f35b34610166576040366003190112610166576107096111d1565b6002546001600160a01b0316330361074357600380546001600160a01b0319166001600160a01b0392909216919091179055602435600455005b6282b42960e81b60005260046000fd5b34610166576080366003190112610166576024356001600160401b0381116101665761078390369060040161130e565b604435600581101561016657606435916001600160401b038311610166576101e06003198436030112610166576040516101e081018181106001600160401b0382111761094357604052836004013581526107e0602485016111e7565b60208201526107f1604485016111e7565b604082015260648401356001600160e01b03198116810361016657606082015260848401356001600160401b0381116101665784013660238201121561016657600481013590610840826112a5565b9161084e6040519384611284565b808352602060048185019260051b840101019136831161016657602401905b82821061092b57505050608082015260a48401356001600160401b0381116101665761089f906004369187010161130e565b60a082015260c484013560c082015260e484013560e0820152610104840135610100820152610124840135610120820152610144840135610140820152610164840135600581101561016657610160820152610184840135936003851015610166576101c46101c09161001b966101808501526101a48101356101a085015201359101526004356116df565b60208091610938846111e7565b81520191019061086d565b634e487b7160e01b600052604160045260246000fd5b3461016657600036600319011261016657602060405160648152f35b346101665760203660031901126101665761098e6111d1565b600080546040516305a886f760e51b81526001600160a01b03938416600482018190529390929183916024918391165afa908115610a575760ff91606091600091610a34575b5001511690600052600d60205260406000205460000b90600082820192831291129080158216911516176103a0576000811215610a195750602060005b604051908152f35b6064811315610a2c575060206064610a11565b602090610a11565b610a5191503d806000833e610a498183611284565b8101906115bc565b846109d4565b6040513d6000823e3d90fd5b34610166576000366003190112610166576020600454604051908152f35b34610166576000366003190112610166576080600854600954600b54600c5491604051938452602084015260408301526060820152f35b3461016657602036600319011261016657610ad16111d1565b6002546001600160a01b0316330361074357600180546001600160a01b0319166001600160a01b0392909216918217905560405190608082016001600160401b03811183821017610943576040527fb237fdf26315d0c32e1ea500f843c2c005db3cc186796515d88e75abc85a5e57825260006020830152600060408301526000606083015260405191610b6483611216565b825260208201916000835260408101918252604051610b8281611216565b60008152602081016404a817c800815260408201906298968082523015610f1c5785516001600160a01b031615801590610f09575b8015610efe575b8015610ef0575b8015610ee2575b8015610ed4575b15610ec3576001600160401b0382511615610eb257630bebc2006001600160401b0383511611610ea1576001600160401b03815116151580610e75575b610e64576801bc16d674ec8000004710610e53576001600160401b03808060409897985196610c3e88611231565b6000610140608099604051610c538c82611284565b8b3682378152826020820152826040820152826060820152828b8201528260a08201528260c08201528260e082015282610100820152826101208201520152519760018060a01b039051169860018060a01b039051169551169251169251169260405195610cc087611231565b86526020860196875260408601946000865260608701918252860130815260a08701916353edf33d60e01b835260c0880193845260e0880194855261010088019586526101208801966000885261014089019860008a526040519a8b916362fe548f60e11b8352600483019051906000905b60048210610e3957505090516001600160a01b03908116608490930192909252509051811660a48b01529051811660c48a015290511660e4880152516001600160e01b031916610104870152516001600160401b03908116610124870152905181166101448601529051166101648401525115156101848301525115156101a48201526020816101c48160006101005af1908115610a5757600091610e03575b7f6a2b70dde6ae0193f84b6a9eeb3b0ebdc3a35e99d9167b88c570158dd09cb0f760208380600a55604051908152a1005b906020823d602011610e31575b81610e1d60209383611284565b81010312610e2e5750516020610dd2565b80fd5b3d9150610e10565b825181528e94506020928301926001929092019101610d32565b631e9acf1760e31b60005260046000fd5b630f13856560e21b60005260046000fd5b506001600160401b03835116640165a0bc0081018091116103a0576001600160401b0382511610610c10565b635f48bcd360e11b60005260046000fd5b6390ecd8f560e01b60005260046000fd5b63043b369d60e01b60005260046000fd5b506060845101511515610bd3565b506040845101511515610bcc565b506020845101511515610bc5565b508351511515610bbe565b5084516001600160a01b03161515610bb7565b631677fb0160e21b60005260046000fd5b34610166576000366003190112610166576020600854604051908152f35b34610166576000366003190112610166576020600a54604051908152f35b3461016657602036600319011261016657600c54600435808210156111305750805b610f94826112a5565b91610fa26040519384611284565b808352601f19610fb1826112a5565b0160005b8181106110f6575050600019820191821160005b82811061107657846040518091602082016020835281518091526040830190602060408260051b8601019301916000905b82821061100957505050500390f35b919360019193955060208091603f1989820301855287519081518152608060ff816110418686015160a08887015260a08601906111ac565b94888060a01b036040820151166040860152606081015160000b60608601520151169101529601920192018594939192610ffa565b816103a0578061109061108b60019387611548565b611529565b5060ff6002604051926110a2846111fb565b805484526110b1868201611485565b60208501520154848060a01b03811660408401528060a01c60000b606084015260a81c1660808201526110e48288611555565b526110ef8187611555565b5001610fc9565b602090604051611105816111fb565b6000815260608382015260006040820152600060608201526000608082015282828801015201610fb5565b90610f8b565b34610166576020366003190112610166576004359063ffffffff60e01b8216809203610166576020916301ffc9a760e01b8114908115611178575b5015158152f35b6353edf33d60e01b14905083611171565b60005b83811061119c5750506000910152565b818101518382015260200161118c565b906020916111c581518092818552858086019101611189565b601f01601f1916010190565b600435906001600160a01b038216820361016657565b35906001600160a01b038216820361016657565b60a081019081106001600160401b0382111761094357604052565b606081019081106001600160401b0382111761094357604052565b61016081019081106001600160401b0382111761094357604052565b61010081019081106001600160401b0382111761094357604052565b60c081019081106001600160401b0382111761094357604052565b90601f801991011681019081106001600160401b0382111761094357604052565b6001600160401b0381116109435760051b60200190565b6001600160401b03811161094357601f01601f191660200190565b9291926112e3826112bc565b916112f16040519384611284565b829481845281830111610166578281602093846000960137010152565b9080601f8301121561016657813591611326836112a5565b926113346040519485611284565b80845260208085019160051b830101918383116101665760208101915b83831061136057505050505090565b82356001600160401b03811161016657820160c0818703601f190112610166576040519161138d83611269565b611399602083016111e7565b835260408201356001600160401b0381116101665760209083010187601f8201121561016657878160206113cf933591016112d7565b602084015260608201359260058410156101665760c060209493859460408401526080810135606084015260a08101356080840152013560a0820152815201920191611351565b600b5481101561143557600b6000526007602060002091020190600090565b634e487b7160e01b600052603260045260246000fd5b90600182811c9216801561147b575b602083101461146557565b634e487b7160e01b600052602260045260246000fd5b91607f169161145a565b90604051918260008254926114998461144b565b808452936001811690811561150757506001146114c0575b506114be92500383611284565b565b90506000929192526020600020906000915b8183106114eb5750509060206114be92820101386114b1565b60209193508060019154838589010152019101909184926114d2565b9050602092506114be94915060ff191682840152151560051b820101386114b1565b600c5481101561143557600c6000526003602060002091020190600090565b919082039182116103a057565b80518210156114355760209160051b010190565b81601f8201121561016657805161157f816112bc565b9261158d6040519485611284565b81845260208284010111610166576115ab9160208085019101611189565b90565b519060ff8216820361016657565b602081830312610166578051906001600160401b03821161016657016101008183031261016657604051916115f08361124d565b81516001600160401b038111610166578161160c918401611569565b835260208201516001600160401b038111610166578161162d918401611569565b602084015260408201516001600160401b0381116101665781611651918401611569565b6040840152611662606083016115ae565b6060840152611673608083016115ae565b608084015261168460a083016115ae565b60a084015261169560c083016115ae565b60c084015260e08201516001600160401b038111610166576116b79201611569565b60e082015290565b81156116c9570490565b634e487b7160e01b600052601260045260246000fd5b600354909392906001600160a01b03163303611ecd576005548403611ec75760006005556005811015611eb157600214801590611ea8575b611ea3578051156114355760208080920151015181815181830193849160009401010312610e2e57505160065492816006556060611753611f09565b94806117f6575b506000805160206132dc83398151915293945080511561179c575b61179790604051938493845260208401526060604084015260608301906111ac565b0390a1565b506117976040516117ae606082611284565b602e81527f45544820707269636520737461626c652e2054686520776f726c64206973206960208201526d371032b8bab4b634b13934bab69760911b60408201529050611775565b80841015611b5e576118088482611548565b6064810290808204606414901517156103a057600391611827916116bf565b1015611848575b6000805160206132dc8339815191529394505b849361175a565b50909160005b845181101561190957600080546001600160a01b039081169291906118738389611555565b51166024604051809581936305a886f760e51b835260048301525afa918215610a575760ff60606001946050936000916118f0575b5001511611156118e85760195b828060a01b036118c58389611555565b5116600052600d60205260406000209060ff198254169060ff161790550161184e565b6009196118b5565b611903913d8091833e610a498183611284565b386118a8565b506040519350919061191c608085611284565b604484527f4554482070726963652064726f707065642e204d61726b65742066656172206160208501527f637469766174657320415245532e204f74686572732067726f7720636175746960408501526337bab99760e11b60608501528360405194611987866111fb565b43865260208601958187526040810190600082526060810160198152608082019160008352600c54600160401b811015610943578060016119cb9201600c55611529565b919091611b4857518155600181019951998a516001600160401b03811161094357611a00816119fa845461144b565b84612057565b6020601f8211600114611ace57816002949392611a45926000805160206132dc8339815191529e9f600092611ac3575b50508160011b916000199060031b1c19161790565b90555b935193018054915192516001600160b01b03199092166001600160a01b03949094169390931760a09290921b60ff60a01b169190911760a89190911b60ff60a81b16179055600854604051602080825291926000805160206132fc833981519152928291611ab8918301906111ac565b0390a284935061182e565b015190503880611a30565b601f1982169083600052806000209160005b818110611b3057509183916000805160206132dc8339815191529e9f600297969560019510611b17575b505050811b019055611a48565b015160001960f88460031b161c19169055388080611b0a565b8f830151845560019093019260209283019201611ae0565b634e487b7160e01b600052600060045260246000fd5b808411611b7e575b506000805160206132dc833981519152939450611841565b611b888185611548565b6064810290808204606414901517156103a057600391611ba7916116bf565b1015611bb4575b84611b66565b9160009391935b8551811015611c7557600080546001600160a01b03908116929190611be0838a611555565b51166024604051809581936305a886f760e51b835260048301525afa918215610a575760ff60a0600194604693600091611c5c575b500151161115611c555760145b828060a01b03611c32838a611555565b5116600052600d60205260406000209060ff198254169060ff1617905501611bbb565b6005611c22565b611c6f913d8091833e610a498183611284565b38611c15565b5091935091653a30b136329760d11b60405194611c93608087611284565b604686527f455448207072696365207375726765642e204d61726b65742070726f7370657260208701527f69747920656d706f77657273204845524d455320616e6420746865206164617060408701528501528360405194611cf4866111fb565b43865260208601958187526040810190600082526060810160148152608082019160008352600c54600160401b81101561094357806001611d389201600c55611529565b919091611b4857518155600181019951998a516001600160401b03811161094357611d67816119fa845461144b565b6020601f8211600114611e2957816002949392611dab926000805160206132dc8339815191529e9f600092611ac35750508160011b916000199060031b1c19161790565b90555b935193018054915192516001600160b01b03199092166001600160a01b03949094169390931760a09290921b60ff60a01b169190911760a89190911b60ff60a81b16179055600854604051602080825291926000805160206132fc833981519152928291611e1e918301906111ac565b0390a2849350611bae565b601f1982169083600052806000209160005b818110611e8b57509183916000805160206132dc8339815191529e9f600297969560019510611e72575b505050811b019055611dae565b015160001960f88460031b161c19169055388080611e65565b8f830151845560019093019260209283019201611e3b565b509050565b50805115611717565b634e487b7160e01b600052602160045260246000fd5b50509050565b60405162461bcd60e51b81526020600482015260146024820152734f6e6c7920536f6d6e696120706c6174666f726d60601b6044820152606490fd5b600054604051630fad954160e31b81526001600160a01b039091169190602081600481865afa908115610a575760009161200e575b50611f48816112a5565b90611f566040519283611284565b808252601f19611f65826112a5565b0136602084013760005b818110611f7d575090925050565b604051631bd8667360e31b815260048101829052602081602481895afa908115610a5757600091611fc8575b5090600191611fb88286611555565b90838060a01b0316905201611f6f565b6020813d8211612006575b81611fe060209383611284565b810103126120025751906001600160a01b0382168203610e2e57506001611fa9565b5080fd5b3d9150611fd3565b906020823d602011612038575b8161202860209383611284565b81010312610e2e57505138611f3e565b3d915061201b565b81811061204b575050565b60008155600101612040565b9190601f811161206657505050565b6114be926000526020600020906020601f840160051c83019310612092575b601f0160051c0190612040565b9091508190612085565b359060ff8216820361016657565b60001981146103a05760010190565b81156116c9570690565b6001549294919391926001600160a01b0390811691160361256b576004841061256b5783600110156114355760208301356001600160a01b03169260028511156114355760408101356001600160a01b03169415611435573591810190608081830312610166576121366020820161209c565b906121436040820161209c565b9260608201356001600160401b0381116101665782019080601f8301121561016657816020612174933591016112d7565b926121806009546120aa565b6009556064600b5410156123b8575b6040519261219c8461124d565b85845260208401908782526040850194898652606081019435855260ff608082019216825260ff60a082019416845260c081019343855260e08201978852600b54600160401b811015610943578060016121f99201600b55611416565b969096611b48579151865592516001860180546001600160a01b03199081166001600160a01b03938416179091559651600287018054909816911617909555935160038401559251600483018054945161ffff1990951660ff929092169190911760089490941b61ff0016939093179092556006915160058201550190518051906001600160401b0382116109435761229c82612296855461144b565b85612057565b602090601f8311600114612351576122cc929160009183611ac35750508160011b916000199060031b1c19161790565b90555b6032600954061561230b575b7fda717966086786e2c12d7981f12e4b4fec1fd2090db9c9b90f1dcdd624d409f8602060085492604051908152a4565b6123166008546120aa565b806008557fdff79382af11a6cb54fe18ea30a0f274f3075a86a466c546a6d8535d387585f26020604051438152a261234c612648565b6122db565b90601f1983169184600052816000209260005b8181106123a05750908460019594939210612387575b505050811b0190556122cf565b015160001960f88460031b161c1916905538808061237a565b92936020600181928786015181550195019301612364565b9695949392919060005b600b5460001981019081116103a0578110156124a957600181018082116103a0576123ec90611416565b50906123f781611416565b929092611b4857828160019403612411575b5050016123c2565b8154815583820154848201805460a087901b8790039283166001600160a01b03199182161790915560028085015490840180549190931691161790556003808301549082015560048083018054918301805460ff90931660ff19841681178255915461ff001661ffff199093169091179190911790556124a291600690819060058101546005850155019101612571565b3880612409565b5090919293949596600b54801561255557600019016124c781611416565b611b485780600060069255600060018201556000600282015560006003820155600060048201556000600582015501612500815461144b565b9081612511575b5050600b5561218f565b81601f600093116001146125295750555b3880612507565b8183526020832061254591601f0160051c810190600101612040565b8082528160208120915555612522565b634e487b7160e01b600052603160045260246000fd5b50505050565b919091828114611ea357612585835461144b565b6001600160401b038111610943576125a1816119fa845461144b565b600093601f82116001146125e2576125d392939482916000926125d75750508160011b916000199060031b1c19161790565b9055565b015490503880611a30565b845260208085208386529085209094601f198316815b81811061263057509583600195969710612617575b505050811b019055565b015460001960f88460031b161c1916905538808061260d565b9192600180602092868b0154815501940192016125f8565b612650611f09565b805190600091156130e05760036008546009546040519060208201924384526040830152606082015260608152612688608082611284565b51902016806129075750815b81518110156126d0576001906001600160a01b036126b28285611555565b51168452600d60205260408420805460ff1916600f17905501612694565b5050604051906126e1608083611284565b604782527f4120646976696e6520737572676520656d706f7765727320616c6c20676f647360208301527f2e2041676772657373696f6e207269736573206163726f737320746865207061604083015266373a3432b7b71760c91b60608301526040519061274e826111fb565b4382526020820183815260408301928284526060810191600f83526080820193808552600c54600160401b8110156128df578060016127909201600c55611529565b9390936128f357518355600183019151908151916001600160401b0383116128df576127c6836127c0865461144b565b86612057565b602091601f84116001146128785760029594936127f993909283611ac35750508160011b916000199060031b1c19161790565b90555b935193018054915192516001600160b01b03199092166001600160a01b03949094169390931760a09290921b60ff60a01b169190911760a89190911b60ff60a81b16179055600854604051602080825291926000805160206132fc83398151915292829161286c918301906111ac565b0390a25b6114be61314f565b9190601f198416858452828420935b8181106128c75750916001939185600298979694106128ae575b505050811b0190556127fc565b015160001960f88460031b161c191690553880806128a1565b92936020600181928786015181550195019301612887565b634e487b7160e01b82526041600452602482fd5b634e487b7160e01b82526004829052602482fd5b91929160018103612c4957508254839283916001600160a01b031690825b8451811015612a34576001600160a01b036129408287611555565b5160405163611fc2eb60e11b81529116600482015260c081602481875afa8015612a295788906129a4575b606091500151848111612982575b50600101612925565b909550925060016001600160a01b0361299b8787611555565b51169590612979565b5060c0813d8211612a21575b816129bd60c09383611284565b81010312612a1d5760a0604051916129d483611269565b80518352602081015160208401526040810151604084015260608101516060840152608081015160808401520151908115158203612a195760609160a082015261296b565b8880fd5b8780fd5b3d91506129b0565b6040513d8a823e3d90fd5b506001600160a01b03909416808652600d6020526040808720805460ff191660ec1790555194959093509150612a6d9050606084611284565b603483527f546865207374726f6e6765737420676f64206973207765616b656e6564206279602084015273103a34329032b73b3c9037b3103934bb30b6399760611b6040840152604051612ac0816111fb565b43815260208101908482526040810193845260608101916013198352608082019360018552600c54600160401b8110156128df57806001612b049201600c55611529565b9390936128f357518355600183019151908151916001600160401b0383116128df57612b34836127c0865461144b565b602091601f8411600114612be2576002959493612b6793909283611ac35750508160011b916000199060031b1c19161790565b90555b935193018054915192516001600160b01b03199092166001600160a01b03949094169390931760a09290921b60ff60a01b169190911760a89190911b60ff60a81b16179055600854604051602080825291926000805160206132fc833981519152928291612bda918301906111ac565b0390a2612870565b9190601f198416858452828420935b818110612c31575091600193918560029897969410612c18575b505050811b019055612b6a565b015160001960f88460031b161c19169055388080612c0b565b92936020600181928786015181550195019301612bf1565b919291600203612f4657604051602081019043825261673160f01b604082015260228152612c78604282611284565b51902081516001600160a01b0391612c9991612c93916120b9565b83611555565b511690612ce3604051602081019043825261339960f11b604082015260228152612cc4604282611284565b51902082516001600160a01b039391612cdd91906120b9565b90611555565b5116808203612cf5575b505050612870565b82546001600160a01b031691823b15612f425790606484928360405195869485936302e42cf960e61b855260048501526024840152600360448401525af18015612f37578290612f27575b505060405190612d51606083611284565b602c82527f446976696e652074656e73696f6e206572757074732e2054776f20676f64732060208301526b3232b1b630b932903bb0b91760a11b604083015260405190612d9d826111fb565b4382526020820183815260408301928284526060810191838352608082019360028552600c54600160401b8110156128df57806001612ddf9201600c55611529565b9390936128f357518355600183019151908151916001600160401b0383116128df57612e0f836127c0865461144b565b602091601f8411600114612ec0576002959493612e4293909283611ac35750508160011b916000199060031b1c19161790565b90555b935193018054915192516001600160b01b03199092166001600160a01b03949094169390931760a09290921b60ff60a01b169190911760a89190911b60ff60a81b16179055600854604051602080825291926000805160206132fc833981519152928291612eb5918301906111ac565b0390a2388080612ced565b9190601f198416858452828420935b818110612f0f575091600193918560029897969410612ef6575b505050811b019055612e45565b015160001960f88460031b161c19169055388080612ee9565b92936020600181928786015181550195019301612ecf565b612f3091611284565b3881612d40565b6040513d84823e3d90fd5b8380fd5b815b8151811015612f81576001906001600160a01b03612f668285611555565b51168452600d60205260408420805460ff1916905501612f48565b505060405190612f92606083611284565b603f82527f4120726172652070656163652064657363656e64732075706f6e20746865207060208301527f616e7468656f6e2e20476f6473207265737420616e64207265636f7665722e00604083015260405190612fef826111fb565b43825260208201838152604083019282845260608101918383526080820193808552600c54600160401b8110156128df578060016130309201600c55611529565b9390936128f357518355600183019151908151916001600160401b0383116128df57613060836127c0865461144b565b602091601f8411600114613093576002959493612b6793909283611ac35750508160011b916000199060031b1c19161790565b9190601f198416858452828420935b8181106130c8575091600193918560029897969410612c1857505050811b019055612b6a565b929360206001819287860151815501950193016130a2565b5050565b604c81527f68747470733a2f2f6170692e636f696e6765636b6f2e636f6d2f6170692f763360208201527f2f73696d706c652f70726963653f6964733d657468657265756d2676735f637560408201526b1c9c995b98da595ccf5d5cd960a21b606082015260800190565b6003546001600160a01b031680156132d8576004549081156130e0576701aa535d3d0c000047106130e0576005546130e05761322d9160209160405191631dde098160e11b84840152606060248401526131e860406131b0608486016130e4565b6b195d1a195c995d5b4b9d5cd960a21b8787830392602319840160448a0152600c815201526002606487015286810186520184611284565b6701aa535d3d0c00006040518096819582946345de5df160e11b8452600484015230602484015263387e080160e01b60448401526080606484015260848301906111ac565b03925af18015610a5757600090613286575b7ff9f96786e6fbb3c8b1bfee907103b506085f87efd4e2091ebfe7b6194a3e09ce9150806005556009546007556040519081526040602082015280611797604082016130e4565b6020823d6020116132d0575b8161329f60209383611284565b81010312610e2e57507ff9f96786e6fbb3c8b1bfee907103b506085f87efd4e2091ebfe7b6194a3e09ce905161323f565b3d9150613292565b5056fef0a4ed122caed3170cee7332217c61ad72ec0fd90d37e905278a7101ceaa60ec557009d46903e47938a506f9536996fc3afc8297adf5c306e3f272c0f9834be0a264697066735822122070a5345cdb13dd50d849288e1a481ef330d79271bd12aa605a27a5db9474802064736f6c634300081e0033","linkReferences":{}},"methodIdentifiers":{"JSON_API_COST()":"e9ab43ae","MAX_FEED_SIZE()":"34027fcf","activate(address)":"1c5a9d9c","agentPlatform()":"51fbe9f4","aggressionModifier(address)":"5343595e","arena()":"fd3705f9","battleFeed(uint256)":"5455fb9e","era()":"143e55e0","getBattleFeed(uint256)":"b30145d8","getEffectiveAggression(address)":"30ec9f2d","getWorldEvents(uint256)":"02fd2630","getWorldSummary()":"2aa625d9","handleResponse(uint256,(address,bytes,uint8,uint256,uint256,uint256)[],uint8,(uint256,address,address,bytes4,address[],(address,bytes,uint8,uint256,uint256,uint256)[],uint256,uint256,uint256,uint256,uint256,uint8,uint8,uint256,uint256))":"387e0801","jsonApiAgentId()":"2f5b04ec","lastFetchedEthPrice()":"58e5841b","lastPriceFetchBattle()":"40a9bb61","onEvent(address,bytes32[],bytes)":"53edf33d","owner()":"8da5cb5b","pendingPriceRequestId()":"d29fa278","registry()":"7b103999","setAgentConfig(address,uint256)":"3d638261","subscriptionId()":"09c1ba2e","supportsInterface(bytes4)":"01ffc9a7","totalBattles()":"bf1dfb8a","worldEvents(uint256)":"a983e781"},"id":25}