{"abi":[{"type":"constructor","inputs":[{"name":"_registry","type":"address","internalType":"address"},{"name":"_agentPlatform","type":"address","internalType":"address"},{"name":"_jsonApiAgentId","type":"uint256","internalType":"uint256"}],"stateMutability":"nonpayable"},{"type":"receive","stateMutability":"payable"},{"type":"function","name":"JSON_API_COST","inputs":[],"outputs":[{"name":"","type":"uint256","internalType":"uint256"}],"stateMutability":"view"},{"type":"function","name":"MAX_FEED_SIZE","inputs":[],"outputs":[{"name":"","type":"uint256","internalType":"uint256"}],"stateMutability":"view"},{"type":"function","name":"activate","inputs":[{"name":"_arena","type":"address","internalType":"address"}],"outputs":[],"stateMutability":"nonpayable"},{"type":"function","name":"agentPlatform","inputs":[],"outputs":[{"name":"","type":"address","internalType":"contract IAgentRequester"}],"stateMutability":"view"},{"type":"function","name":"aggressionModifier","inputs":[{"name":"","type":"address","internalType":"address"}],"outputs":[{"name":"","type":"int8","internalType":"int8"}],"stateMutability":"view"},{"type":"function","name":"arena","inputs":[],"outputs":[{"name":"","type":"address","internalType":"address"}],"stateMutability":"view"},{"type":"function","name":"battleFeed","inputs":[{"name":"","type":"uint256","internalType":"uint256"}],"outputs":[{"name":"matchId","type":"uint256","internalType":"uint256"},{"name":"winner","type":"address","internalType":"address"},{"name":"loser","type":"address","internalType":"address"},{"name":"stake","type":"uint256","internalType":"uint256"},{"name":"winnerMove","type":"uint8","internalType":"uint8"},{"name":"loserMove","type":"uint8","internalType":"uint8"},{"name":"blockNumber","type":"uint256","internalType":"uint256"},{"name":"decisionReason","type":"string","internalType":"string"}],"stateMutability":"view"},{"type":"function","name":"era","inputs":[],"outputs":[{"name":"","type":"uint256","internalType":"uint256"}],"stateMutability":"view"},{"type":"function","name":"getBattleFeed","inputs":[{"name":"count","type":"uint256","internalType":"uint256"}],"outputs":[{"name":"","type":"tuple[]","internalType":"struct WorldState.BattleRecord[]","components":[{"name":"matchId","type":"uint256","internalType":"uint256"},{"name":"winner","type":"address","internalType":"address"},{"name":"loser","type":"address","internalType":"address"},{"name":"stake","type":"uint256","internalType":"uint256"},{"name":"winnerMove","type":"uint8","internalType":"uint8"},{"name":"loserMove","type":"uint8","internalType":"uint8"},{"name":"blockNumber","type":"uint256","internalType":"uint256"},{"name":"decisionReason","type":"string","internalType":"string"}]}],"stateMutability":"view"},{"type":"function","name":"getEffectiveAggression","inputs":[{"name":"god","type":"address","internalType":"address"}],"outputs":[{"name":"","type":"int256","internalType":"int256"}],"stateMutability":"view"},{"type":"function","name":"getWorldEvents","inputs":[{"name":"count","type":"uint256","internalType":"uint256"}],"outputs":[{"name":"","type":"tuple[]","internalType":"struct WorldState.WorldEvent[]","components":[{"name":"blockNumber","type":"uint256","internalType":"uint256"},{"name":"description","type":"string","internalType":"string"},{"name":"affectedGod","type":"address","internalType":"address"},{"name":"aggressionModifier","type":"int8","internalType":"int8"},{"name":"eventType","type":"uint8","internalType":"uint8"}]}],"stateMutability":"view"},{"type":"function","name":"getWorldSummary","inputs":[],"outputs":[{"name":"currentEra","type":"uint256","internalType":"uint256"},{"name":"battles","type":"uint256","internalType":"uint256"},{"name":"feedSize","type":"uint256","internalType":"uint256"},{"name":"worldEventCount","type":"uint256","internalType":"uint256"}],"stateMutability":"view"},{"type":"function","name":"handleResponse","inputs":[{"name":"requestId","type":"uint256","internalType":"uint256"},{"name":"responses","type":"tuple[]","internalType":"struct IAgentRequester.Response[]","components":[{"name":"validator","type":"address","internalType":"address"},{"name":"result","type":"bytes","internalType":"bytes"},{"name":"status","type":"uint8","internalType":"enum IAgentRequester.ResponseStatus"},{"name":"receipt","type":"uint256","internalType":"uint256"},{"name":"timestamp","type":"uint256","internalType":"uint256"},{"name":"executionCost","type":"uint256","internalType":"uint256"}]},{"name":"status","type":"uint8","internalType":"enum IAgentRequester.ResponseStatus"},{"name":"","type":"tuple","internalType":"struct IAgentRequester.Request","components":[{"name":"id","type":"uint256","internalType":"uint256"},{"name":"requester","type":"address","internalType":"address"},{"name":"callbackAddress","type":"address","internalType":"address"},{"name":"callbackSelector","type":"bytes4","internalType":"bytes4"},{"name":"subcommittee","type":"address[]","internalType":"address[]"},{"name":"responses","type":"tuple[]","internalType":"struct IAgentRequester.Response[]","components":[{"name":"validator","type":"address","internalType":"address"},{"name":"result","type":"bytes","internalType":"bytes"},{"name":"status","type":"uint8","internalType":"enum IAgentRequester.ResponseStatus"},{"name":"receipt","type":"uint256","internalType":"uint256"},{"name":"timestamp","type":"uint256","internalType":"uint256"},{"name":"executionCost","type":"uint256","internalType":"uint256"}]},{"name":"responseCount","type":"uint256","internalType":"uint256"},{"name":"failureCount","type":"uint256","internalType":"uint256"},{"name":"threshold","type":"uint256","internalType":"uint256"},{"name":"createdAt","type":"uint256","internalType":"uint256"},{"name":"deadline","type":"uint256","internalType":"uint256"},{"name":"status","type":"uint8","internalType":"enum IAgentRequester.ResponseStatus"},{"name":"consensusType","type":"uint8","internalType":"enum IAgentRequester.ConsensusType"},{"name":"remainingBudget","type":"uint256","internalType":"uint256"},{"name":"perAgentBudget","type":"uint256","internalType":"uint256"}]}],"outputs":[],"stateMutability":"nonpayable"},{"type":"function","name":"jsonApiAgentId","inputs":[],"outputs":[{"name":"","type":"uint256","internalType":"uint256"}],"stateMutability":"view"},{"type":"function","name":"lastFetchedEthPrice","inputs":[],"outputs":[{"name":"","type":"uint256","internalType":"uint256"}],"stateMutability":"view"},{"type":"function","name":"lastPriceFetchBattle","inputs":[],"outputs":[{"name":"","type":"uint256","internalType":"uint256"}],"stateMutability":"view"},{"type":"function","name":"onEvent","inputs":[{"name":"emitter","type":"address","internalType":"address"},{"name":"eventTopics","type":"bytes32[]","internalType":"bytes32[]"},{"name":"data","type":"bytes","internalType":"bytes"}],"outputs":[],"stateMutability":"nonpayable"},{"type":"function","name":"owner","inputs":[],"outputs":[{"name":"","type":"address","internalType":"address"}],"stateMutability":"view"},{"type":"function","name":"pendingPriceRequestId","inputs":[],"outputs":[{"name":"","type":"uint256","internalType":"uint256"}],"stateMutability":"view"},{"type":"function","name":"registry","inputs":[],"outputs":[{"name":"","type":"address","internalType":"contract GodRegistry"}],"stateMutability":"view"},{"type":"function","name":"setAgentConfig","inputs":[{"name":"_platform","type":"address","internalType":"address"},{"name":"_agentId","type":"uint256","internalType":"uint256"}],"outputs":[],"stateMutability":"nonpayable"},{"type":"function","name":"subscriptionId","inputs":[],"outputs":[{"name":"","type":"uint256","internalType":"uint256"}],"stateMutability":"view"},{"type":"function","name":"supportsInterface","inputs":[{"name":"interfaceId","type":"bytes4","internalType":"bytes4"}],"outputs":[{"name":"","type":"bool","internalType":"bool"}],"stateMutability":"pure"},{"type":"function","name":"totalBattles","inputs":[],"outputs":[{"name":"","type":"uint256","internalType":"uint256"}],"stateMutability":"view"},{"type":"function","name":"worldEvents","inputs":[{"name":"","type":"uint256","internalType":"uint256"}],"outputs":[{"name":"blockNumber","type":"uint256","internalType":"uint256"},{"name":"description","type":"string","internalType":"string"},{"name":"affectedGod","type":"address","internalType":"address"},{"name":"aggressionModifier","type":"int8","internalType":"int8"},{"name":"eventType","type":"uint8","internalType":"uint8"}],"stateMutability":"view"},{"type":"event","name":"ETHPriceFetched","inputs":[{"name":"requestId","type":"uint256","indexed":false,"internalType":"uint256"},{"name":"price","type":"uint256","indexed":false,"internalType":"uint256"},{"name":"worldImpact","type":"string","indexed":false,"internalType":"string"}],"anonymous":false},{"type":"event","name":"EraAdvanced","inputs":[{"name":"newEra","type":"uint256","indexed":true,"internalType":"uint256"},{"name":"blockNumber","type":"uint256","indexed":false,"internalType":"uint256"}],"anonymous":false},{"type":"event","name":"JSONAPIRequested","inputs":[{"name":"requestId","type":"uint256","indexed":false,"internalType":"uint256"},{"name":"url","type":"string","indexed":false,"internalType":"string"}],"anonymous":false},{"type":"event","name":"SubscriptionCreated","inputs":[{"name":"subscriptionId","type":"uint256","indexed":false,"internalType":"uint256"}],"anonymous":false},{"type":"event","name":"WorldEventApplied","inputs":[{"name":"era","type":"uint256","indexed":true,"internalType":"uint256"},{"name":"description","type":"string","indexed":false,"internalType":"string"}],"anonymous":false},{"type":"event","name":"WorldUpdated","inputs":[{"name":"era","type":"uint256","indexed":true,"internalType":"uint256"},{"name":"winner","type":"address","indexed":true,"internalType":"address"},{"name":"loser","type":"address","indexed":true,"internalType":"address"},{"name":"matchId","type":"uint256","indexed":false,"internalType":"uint256"}],"anonymous":false},{"type":"error","name":"ArenaNotSet","inputs":[]},{"type":"error","name":"EmptyFilter","inputs":[]},{"type":"error","name":"GasLimitExceeded","inputs":[]},{"type":"error","name":"GasLimitZero","inputs":[]},{"type":"error","name":"HandlerZeroAddress","inputs":[]},{"type":"error","name":"InsufficientBalance","inputs":[]},{"type":"error","name":"InvalidMaxFeePerGas","inputs":[]},{"type":"error","name":"OnlyReactivityPrecompile","inputs":[]},{"type":"error","name":"Unauthorized","inputs":[]}],"bytecode":{"object":"0x6080604052348015600e575f5ffd5b50604051613506380380613506833981016040819052602b91608f565b5f80546001600160a01b039485166001600160a01b0319918216179091556003805493909416928116929092179092556004919091556002805490911633179055600160085560c3565b80516001600160a01b0381168114608a575f5ffd5b919050565b5f5f5f6060848603121560a0575f5ffd5b60a7846075565b925060b3602085016075565b9150604084015190509250925092565b613436806100d05f395ff3fe608060405260043610610164575f3560e01c806351fbe9f4116100cd5780638da5cb5b11610087578063bf1dfb8a11610062578063bf1dfb8a14610471578063d29fa27814610486578063e9ab43ae1461049b578063fd3705f9146104b6575f5ffd5b80638da5cb5b146103f6578063a983e78114610415578063b30145d814610445575f5ffd5b806351fbe9f4146102fb5780635343595e1461033257806353edf33d146103715780635455fb9e1461039057806358e5841b146103c35780637b103999146103d8575f5ffd5b80632f5b04ec1161011e5780632f5b04ec1461026057806330ec9f2d1461027557806334027fcf14610294578063387e0801146102a85780633d638261146102c757806340a9bb61146102e6575f5ffd5b806301ffc9a71461016f57806302fd2630146101a357806309c1ba2e146101cf578063143e55e0146101f25780631c5a9d9c146102075780632aa625d914610228575f5ffd5b3661016b57005b5f5ffd5b34801561017a575f5ffd5b5061018e6101893660046121f9565b6104d5565b60405190151581526020015b60405180910390f35b3480156101ae575f5ffd5b506101c26101bd366004612219565b61050b565b60405161019a919061225e565b3480156101da575f5ffd5b506101e4600a5481565b60405190815260200161019a565b3480156101fd575f5ffd5b506101e460085481565b348015610212575f5ffd5b50610226610221366004612323565b6106db565b005b348015610233575f5ffd5b50600854600954600b54600c5460408051948552602085019390935291830152606082015260800161019a565b34801561026b575f5ffd5b506101e460045481565b348015610280575f5ffd5b506101e461028f366004612323565b6107ea565b34801561029f575f5ffd5b506101e4606481565b3480156102b3575f5ffd5b506102266102c236600461260f565b6108b5565b3480156102d2575f5ffd5b506102266102e1366004612797565b610ce0565b3480156102f1575f5ffd5b506101e460075481565b348015610306575f5ffd5b5060035461031a906001600160a01b031681565b6040516001600160a01b03909116815260200161019a565b34801561033d575f5ffd5b5061035f61034c366004612323565b600d6020525f9081526040812054900b81565b6040515f9190910b815260200161019a565b34801561037c575f5ffd5b5061022661038b366004612805565b610d30565b34801561039b575f5ffd5b506103af6103aa366004612219565b610d66565b60405161019a9897969594939291906128b6565b3480156103ce575f5ffd5b506101e460065481565b3480156103e3575f5ffd5b505f5461031a906001600160a01b031681565b348015610401575f5ffd5b5060025461031a906001600160a01b031681565b348015610420575f5ffd5b5061043461042f366004612219565b610e56565b60405161019a959493929190612915565b348015610450575f5ffd5b5061046461045f366004612219565b610f30565b60405161019a9190612958565b34801561047c575f5ffd5b506101e460095481565b348015610491575f5ffd5b506101e460055481565b3480156104a6575f5ffd5b506101e46701aa535d3d0c000081565b3480156104c1575f5ffd5b5060015461031a906001600160a01b031681565b5f6301ffc9a760e01b6001600160e01b03198316148061050557506353edf33d60e01b6001600160e01b03198316145b92915050565b600c546060905f83821061051f5783610521565b815b90505f816001600160401b0381111561053c5761053c61233e565b60405190808252806020026020018201604052801561059357816020015b6040805160a0810182525f808252606060208084018290529383018290528201819052608082015282525f1990920191018161055a5790505b5090505f5b828110156106d257600c816105ae600187612a3e565b6105b89190612a3e565b815481106105c8576105c8612a51565b905f5260205f2090600302016040518060a00160405290815f82015481526020016001820180546105f890612a65565b80601f016020809104026020016040519081016040528092919081815260200182805461062490612a65565b801561066f5780601f106106465761010080835404028352916020019161066f565b820191905f5260205f20905b81548152906001019060200180831161065257829003601f168201915b5050509183525050600291909101546001600160a01b0381166020830152600160a01b81045f0b6040830152600160a81b900460ff1660609091015282518390839081106106bf576106bf612a51565b6020908102919091010152600101610598565b50949350505050565b6002546001600160a01b03163314610705576040516282b42960e81b815260040160405180910390fd5b600180546001600160a01b0319166001600160a01b0383169081179091556040805160e0810182527fb237fdf26315d0c32e1ea500f843c2c005db3cc186796515d88e75abc85a5e5760608083018281525f6080850181905260a0850181905260c085018190529084526020808501829052848601969096528451918201855281526404a817c80094810194909452629896809284019290925290916107ac308383611150565b600a8190556040519081527f6a2b70dde6ae0193f84b6a9eeb3b0ebdc3a35e99d9167b88c570158dd09cb0f79060200160405180910390a150505050565b5f80546040516305a886f760e51b81526001600160a01b0384811660048301528392169063b510dee0906024015f60405180830381865afa158015610831573d5f5f3e3d5ffd5b505050506040513d5f823e601f3d908101601f191682016040526108589190810190612b03565b60608101516001600160a01b0385165f908152600d602052604081205492935060ff90911691810b9061088b8284612c30565b90505f81126108a957606481136108a257806108ab565b60646108ab565b5f5b9695505050505050565b6003546001600160a01b0316331461090a5760405162461bcd60e51b81526020600482015260146024820152734f6e6c7920536f6d6e696120706c6174666f726d60601b604482015260640160405180910390fd5b6005548403610cda575f600555600282600481111561092b5761092b612c57565b14158061093757508251155b610cda575f835f8151811061094e5761094e612a51565b60200260200101516020015180602001905181019061096d9190612c6b565b600680549082905590915060605f610983611164565b90508215610c765782841015610b03575f8361099f8682612a3e565b6109aa906064612c82565b6109b49190612cad565b905060038110610afd575f5b8251811015610ad4575f805484516001600160a01b039091169063b510dee0908690859081106109f2576109f2612a51565b60200260200101516040518263ffffffff1660e01b8152600401610a2591906001600160a01b0391909116815260200190565b5f60405180830381865afa158015610a3f573d5f5f3e3d5ffd5b505050506040513d5f823e601f3d908101601f19168201604052610a669190810190612b03565b90506050816060015160ff1611610a7f57600919610a82565b60195b600d5f868581518110610a9757610a97612a51565b6020908102919091018101516001600160a01b031682528101919091526040015f20805460ff191660ff92909216919091179055506001016109c0565b5060405180608001604052806044815260200161335d604491399250610afd835f60195f6112c5565b50610c76565b82841115610c76575f83610b178187612a3e565b610b22906064612c82565b610b2c9190612cad565b905060038110610c74575f5b8251811015610c4b575f805484516001600160a01b039091169063b510dee090869085908110610b6a57610b6a612a51565b60200260200101516040518263ffffffff1660e01b8152600401610b9d91906001600160a01b0391909116815260200190565b5f60405180830381865afa158015610bb7573d5f5f3e3d5ffd5b505050506040513d5f823e601f3d908101601f19168201604052610bde9190810190612b03565b905060468160a0015160ff1611610bf6576005610bf9565b60145b600d5f868581518110610c0e57610c0e612a51565b6020908102919091018101516001600160a01b031682528101919091526040015f20805460ff191660ff9290921691909117905550600101610b38565b506040518060800160405280604681526020016132a2604691399250610c74835f60145f6112c5565b505b81515f03610c9a576040518060600160405280602e815260200161332f602e913991505b7ff0a4ed122caed3170cee7332217c61ad72ec0fd90d37e905278a7101ceaa60ec888584604051610ccd93929190612cc0565b60405180910390a1505050505b50505050565b6002546001600160a01b03163314610d0a576040516282b42960e81b815260040160405180910390fd5b600380546001600160a01b0319166001600160a01b039390931692909217909155600455565b3361010014610d525760405163191fbb7560e01b815260040160405180910390fd5b610d5f8585858585611403565b5050505050565b600b8181548110610d75575f80fd5b5f91825260209091206007909102018054600182015460028301546003840154600485015460058601546006870180549698506001600160a01b03958616979490951695929460ff808416956101009094041693919291610dd590612a65565b80601f0160208091040260200160405190810160405280929190818152602001828054610e0190612a65565b8015610e4c5780601f10610e2357610100808354040283529160200191610e4c565b820191905f5260205f20905b815481529060010190602001808311610e2f57829003601f168201915b5050505050905088565b600c8181548110610e65575f80fd5b5f9182526020909120600390910201805460018201805491935090610e8990612a65565b80601f0160208091040260200160405190810160405280929190818152602001828054610eb590612a65565b8015610f005780601f10610ed757610100808354040283529160200191610f00565b820191905f5260205f20905b815481529060010190602001808311610ee357829003601f168201915b505050600290930154919250506001600160a01b03811690600160a01b81045f0b9060ff600160a81b9091041685565b600b546060905f838210610f445783610f46565b815b90505f816001600160401b03811115610f6157610f6161233e565b604051908082528060200260200182016040528015610feb57816020015b610fd86040518061010001604052805f81526020015f6001600160a01b031681526020015f6001600160a01b031681526020015f81526020015f60ff1681526020015f60ff1681526020015f8152602001606081525090565b815260200190600190039081610f7f5790505b5090505f5b828110156106d257600b81611006600187612a3e565b6110109190612a3e565b8154811061102057611020612a51565b5f91825260209182902060408051610100808201835260079094029092018054835260018101546001600160a01b039081169584019590955260028101549094169082015260038301546060820152600483015460ff808216608084015292900490911660a0820152600582015460c082015260068201805491929160e0840191906110ab90612a65565b80601f01602080910402602001604051908101604052809291908181526020018280546110d790612a65565b80156111225780601f106110f957610100808354040283529160200191611122565b820191905f5260205f20905b81548152906001019060200180831161110557829003601f168201915b50505050508152505082828151811061113d5761113d612a51565b6020908102919091010152600101610ff0565b5f61115c848484611580565b949350505050565b5f805460408051630fad954160e31b81529051606093926001600160a01b031691637d6caa089160048083019260209291908290030181865afa1580156111ad573d5f5f3e3d5ffd5b505050506040513d601f19601f820116820180604052508101906111d19190612c6b565b90505f816001600160401b038111156111ec576111ec61233e565b604051908082528060200260200182016040528015611215578160200160208202803683370190505b5090505f5b828110156112be575f54604051631bd8667360e31b8152600481018390526001600160a01b039091169063dec3339890602401602060405180830381865afa158015611268573d5f5f3e3d5ffd5b505050506040513d601f19601f8201168201806040525081019061128c9190612ce7565b82828151811061129e5761129e612a51565b6001600160a01b039092166020928302919091019091015260010161121a565b5092915050565b6040805160a081018252438152602081018681526001600160a01b038616928201929092525f84810b606083015260ff84166080830152600c80546001810182559152815160039091027fdf6966c971051c3d54ec59162606531493a51404a002842f56009d7e5cf4a8c781019182559251919290917fdf6966c971051c3d54ec59162606531493a51404a002842f56009d7e5cf4a8c89091019061136a9082612d4b565b50604082810151600292909201805460608501516080909501516001600160a01b039094166001600160a81b031990911617600160a01b60ff958616021760ff60a81b1916600160a81b94909316939093029190911790915560085490517f557009d46903e47938a506f9536996fc3afc8297adf5c306e3f272c0f9834be0906113f5908790612e08565b60405180910390a250505050565b6001546001600160a01b0390811690861603610d5f5760048310610d5f575f8484600181811061143557611435612a51565b905060200201355f1c90505f8585600281811061145457611454612a51565b905060200201355f1c90505f86865f81811061147257611472612a51565b602002919091013591505f905080808061148e888a018a612e1a565b6009805494985092965090945092505f6114a783612e94565b91905055506114bb85888887878787611731565b60326009546114ca9190612eac565b5f036115225760088054905f6114df83612e94565b90915550506008546040514381527fdff79382af11a6cb54fe18ea30a0f274f3075a86a466c546a6d8535d387585f29060200160405180910390a2611522611a86565b856001600160a01b0316876001600160a01b03166008547fda717966086786e2c12d7981f12e4b4fec1fd2090db9c9b90f1dcdd624d409f88860405161156a91815260200190565b60405180910390a4505050505050505050505050565b5f6001600160a01b0384166115a857604051631677fb0160e21b815260040160405180910390fd5b6115b183611dd2565b6115ce5760405163043b369d60e01b815260040160405180910390fd5b81604001516001600160401b03165f036115fb576040516390ecd8f560e01b815260040160405180910390fd5b630bebc2006001600160401b031682604001516001600160401b0316111561163657604051635f48bcd360e11b815260040160405180910390fd5b60208201516001600160401b03161580159061167a575081602001516001600160401b0316640165a0bc00835f01516001600160401b03166116789190612ebf565b115b1561169857604051630f13856560e21b815260040160405180910390fd5b6801bc16d674ec8000004710156116c257604051631e9acf1760e31b815260040160405180910390fd5b61010063c5fca91e6116d5868686611e36565b6040518263ffffffff1660e01b81526004016116f19190612ef4565b6020604051808303815f875af115801561170d573d5f5f3e3d5ffd5b505050506040513d601f19601f8201168201806040525081019061115c9190612c6b565b600b546064116118bd575f5b600b5461174c90600190612a3e565b81101561184757600b611760826001612ebf565b8154811061177057611770612a51565b905f5260205f209060070201600b828154811061178f5761178f612a51565b5f9182526020909120825460079092020190815560018083015490820180546001600160a01b039283166001600160a01b03199182161790915560028085015490840180549190931691161790556003808301549082015560048083018054918301805460ff93841660ff19821681178355925461ffff19909116909217610100928390049093169091029190911790556005808301549082015560068082019061183c90840182612fd9565b50505060010161173d565b50600b805480611859576118596130a5565b5f8281526020812060075f19909301928302018181556001810180546001600160a01b031990811690915560028201805490911690556003810182905560048101805461ffff1916905560058101829055906118b8600683018261210b565b505090555b6040805161010080820183528982526001600160a01b03808a16602084019081528982169484019485526060840189815260ff808a166080870190815289821660a088019081524360c0890190815260e089018b8152600b80546001810182555f919091528a5160079091027f0175b7a638427703f0dbe7bb9bbf987a2551717b34e79f33b5b1008d1fa01db9810191825597517f0175b7a638427703f0dbe7bb9bbf987a2551717b34e79f33b5b1008d1fa01dba89018054918b166001600160a01b03199283161790559b517f0175b7a638427703f0dbe7bb9bbf987a2551717b34e79f33b5b1008d1fa01dbb8901805491909a169c169b909b1790975593517f0175b7a638427703f0dbe7bb9bbf987a2551717b34e79f33b5b1008d1fa01dbc86015590517f0175b7a638427703f0dbe7bb9bbf987a2551717b34e79f33b5b1008d1fa01dbd850180549251841690970261ffff199092169216919091171790935591517f0175b7a638427703f0dbe7bb9bbf987a2551717b34e79f33b5b1008d1fa01dbe830155519192917f0175b7a638427703f0dbe7bb9bbf987a2551717b34e79f33b5b1008d1fa01dbf90910190611a7a9082612d4b565b50505050505050505050565b5f611a8f611164565b905080515f03611a9c5750565b600854600954604080514360208201529081019290925260608201525f90600490608001604051602081830303815290604052805190602001205f1c611ae29190612eac565b9050805f03611b74575f5b8251811015611b4957600f600d5f858481518110611b0d57611b0d612a51565b6020908102919091018101516001600160a01b031682528101919091526040015f20805460ff191660ff92909216919091179055600101611aed565b50611b6f6040518060800160405280604781526020016132e8604791395f600f5f6112c5565b611dc6565b80600103611bda575f611b8683611ec5565b6001600160a01b0381165f908152600d6020908152604091829020805460ff191660ec1790558151606081019092526034808352929350611bd492906133a1908301398260131960016112c5565b50611dc6565b80600203611d44575f82835143604051602001611c0491815261673160f01b602082015260220190565b604051602081830303815290604052805190602001205f1c611c269190612eac565b81518110611c3657611c36612a51565b602002602001015190505f83845143604051602001611c6291815261339960f11b602082015260220190565b604051602081830303815290604052805190602001205f1c611c849190612eac565b81518110611c9457611c94612a51565b60200260200101519050806001600160a01b0316826001600160a01b031614611d3d575f546040516302e42cf960e61b81526001600160a01b039091169063b90b3e4090611ceb90859085906003906004016130b9565b5f604051808303815f87803b158015611d02575f5ffd5b505af1158015611d14573d5f5f3e3d5ffd5b50505050611d3d6040518060600160405280602c81526020016133d5602c91395f5f60026112c5565b5050611dc6565b5f5b8251811015611da1575f600d5f858481518110611d6557611d65612a51565b6020908102919091018101516001600160a01b031682528101919091526040015f20805460ff191660ff92909216919091179055600101611d46565b50611dc66040518060600160405280603f8152602001613263603f91395f5f5f6112c5565b611dce611faf565b5050565b60208101515f906001600160a01b0316151580611dfb575060408201516001600160a01b031615155b80611e07575081515115155b80611e16575081516020015115155b80611e25575081516040015115155b806105055750505160600151151590565b611e3e612145565b506040805161016081018252835181526020808501516001600160a01b03908116828401525f83850181905295840151811660608401529590951660808201526353edf33d60e01b60a082015282516001600160401b0390811660c083015294830151851660e0820152910151909216610100830152610120820181905261014082015290565b5f80805b8351811015611fa8575f805485516001600160a01b039091169063c23f85d690879085908110611efb57611efb612a51565b60200260200101516040518263ffffffff1660e01b8152600401611f2e91906001600160a01b0391909116815260200190565b60c060405180830381865afa158015611f49573d5f5f3e3d5ffd5b505050506040513d601f19601f82011682018060405250810190611f6d91906130fb565b90508281606001511115611f9f5780606001519250848281518110611f9457611f94612a51565b602002602001015193505b50600101611ec9565b5050919050565b6003546001600160a01b0316611fc157565b6004545f03611fcc57565b6701aa535d3d0c0000471015611fde57565b60055415611fe857565b5f633bbc130260e01b600260405160240161200391906131ca565b60408051601f198184030181529181526020820180516001600160e01b03166001600160e01b0319909416939093179092526003546004805493516345de5df160e11b81529294505f936001600160a01b0390921692638bbcbbe2926701aa535d3d0c00009261208092309163387e080160e01b918a9101613212565b60206040518083038185885af115801561209c573d5f5f3e3d5ffd5b50505050506040513d601f19601f820116820180604052508101906120c19190612c6b565b60058190556009546007556040519091507ff9f96786e6fbb3c8b1bfee907103b506085f87efd4e2091ebfe7b6194a3e09ce906120ff90839061324b565b60405180910390a15050565b50805461211790612a65565b5f825580601f10612126575050565b601f0160209004905f5260205f209081019061214291906121a7565b50565b6040518061016001604052806121596121bf565b81525f6020820181905260408201819052606082018190526080820181905260a0820181905260c0820181905260e08201819052610100820181905261012082018190526101409091015290565b5b808211156121bb575f81556001016121a8565b5090565b60405180608001604052806004906020820280368337509192915050565b80356001600160e01b0319811681146121f4575f5ffd5b919050565b5f60208284031215612209575f5ffd5b612212826121dd565b9392505050565b5f60208284031215612229575f5ffd5b5035919050565b5f81518084528060208401602086015e5f602082860101526020601f19601f83011685010191505092915050565b5f602082016020835280845180835260408501915060408160051b8601019250602086015f5b828110156122f857603f19878603018452815180518652602081015160a060208801526122b460a0880182612230565b6040838101516001600160a01b0316908901526060808401515f0b9089015260809283015160ff169290970191909152506020938401939190910190600101612284565b50929695505050505050565b6001600160a01b0381168114612142575f5ffd5b80356121f481612304565b5f60208284031215612333575f5ffd5b813561221281612304565b634e487b7160e01b5f52604160045260245ffd5b60405160c081016001600160401b03811182821017156123745761237461233e565b60405290565b6040516101e081016001600160401b03811182821017156123745761237461233e565b60405161010081016001600160401b03811182821017156123745761237461233e565b604051601f8201601f191681016001600160401b03811182821017156123e8576123e861233e565b604052919050565b5f6001600160401b038211156124085761240861233e565b5060051b60200190565b5f6001600160401b0382111561242a5761242a61233e565b50601f01601f191660200190565b5f61244a61244584612412565b6123c0565b905082815283838301111561245d575f5ffd5b828260208301375f602084830101529392505050565b8035600581106121f4575f5ffd5b5f82601f830112612490575f5ffd5b813561249e612445826123f0565b8082825260208201915060208360051b8601019250858311156124bf575f5ffd5b602085015b838110156125935780356001600160401b038111156124e1575f5ffd5b860160c0818903601f190112156124f6575f5ffd5b6124fe612352565b602082013561250c81612304565b815260408201356001600160401b03811115612526575f5ffd5b82016020810190603f018a1361253a575f5ffd5b6125498a823560208401612438565b60208301525061255b60608301612473565b6040820152608082810135606083015260a0808401359183019190915260c090920135918101919091528352602092830192016124c4565b5095945050505050565b5f82601f8301126125ac575f5ffd5b81356125ba612445826123f0565b8082825260208201915060208360051b8601019250858311156125db575f5ffd5b602085015b838110156125935780356125f381612304565b8352602092830192016125e0565b8035600381106121f4575f5ffd5b5f5f5f5f60808587031215612622575f5ffd5b8435935060208501356001600160401b0381111561263e575f5ffd5b61264a87828801612481565b93505061265960408601612473565b915060608501356001600160401b03811115612673575f5ffd5b85016101e08188031215612685575f5ffd5b61268d61237a565b8135815261269d60208301612318565b60208201526126ae60408301612318565b60408201526126bf606083016121dd565b606082015260808201356001600160401b038111156126dc575f5ffd5b6126e88982850161259d565b60808301525060a08201356001600160401b03811115612706575f5ffd5b61271289828501612481565b60a08301525060c0828101359082015260e0808301359082015261010080830135908201526101208083013590820152610140808301359082015261275a6101608301612473565b61016082015261276d6101808301612601565b6101808201526101a082810135908201526101c09182013591810191909152939692955090935050565b5f5f604083850312156127a8575f5ffd5b82356127b381612304565b946020939093013593505050565b5f5f83601f8401126127d1575f5ffd5b5081356001600160401b038111156127e7575f5ffd5b6020830191508360208285010111156127fe575f5ffd5b9250929050565b5f5f5f5f5f60608688031215612819575f5ffd5b853561282481612304565b945060208601356001600160401b0381111561283e575f5ffd5b8601601f8101881361284e575f5ffd5b80356001600160401b03811115612863575f5ffd5b8860208260051b8401011115612877575f5ffd5b6020919091019450925060408601356001600160401b03811115612899575f5ffd5b6128a5888289016127c1565b969995985093965092949392505050565b8881526001600160a01b038881166020830152871660408201526060810186905260ff8581166080830152841660a082015260c0810183905261010060e082018190525f9061290790830184612230565b9a9950505050505050505050565b85815260a060208201525f61292d60a0830187612230565b6001600160a01b03959095166040830152505f9290920b606083015260ff1660809091015292915050565b5f602082016020835280845180835260408501915060408160051b8601019250602086015f5b828110156122f857603f1987860301845281518051865260018060a01b03602082015116602087015260018060a01b0360408201511660408701526060810151606087015260808101516129d7608088018260ff169052565b5060a08101516129ec60a088018260ff169052565b5060c081015160c087015260e0810151905061010060e0870152612a14610100870182612230565b955050602093840193919091019060010161297e565b634e487b7160e01b5f52601160045260245ffd5b8181038181111561050557610505612a2a565b634e487b7160e01b5f52603260045260245ffd5b600181811c90821680612a7957607f821691505b602082108103612a9757634e487b7160e01b5f52602260045260245ffd5b50919050565b5f82601f830112612aac575f5ffd5b8151612aba61244582612412565b818152846020838601011115612ace575f5ffd5b8160208501602083015e5f918101602001919091529392505050565b60ff81168114612142575f5ffd5b80516121f481612aea565b5f60208284031215612b13575f5ffd5b81516001600160401b03811115612b28575f5ffd5b82016101008185031215612b3a575f5ffd5b612b4261239d565b81516001600160401b03811115612b57575f5ffd5b612b6386828501612a9d565b82525060208201516001600160401b03811115612b7e575f5ffd5b612b8a86828501612a9d565b60208301525060408201516001600160401b03811115612ba8575f5ffd5b612bb486828501612a9d565b604083015250612bc660608301612af8565b6060820152612bd760808301612af8565b6080820152612be860a08301612af8565b60a0820152612bf960c08301612af8565b60c082015260e08201516001600160401b03811115612c16575f5ffd5b612c2286828501612a9d565b60e083015250949350505050565b8082018281125f831280158216821582161715612c4f57612c4f612a2a565b505092915050565b634e487b7160e01b5f52602160045260245ffd5b5f60208284031215612c7b575f5ffd5b5051919050565b808202811582820484141761050557610505612a2a565b634e487b7160e01b5f52601260045260245ffd5b5f82612cbb57612cbb612c99565b500490565b838152826020820152606060408201525f612cde6060830184612230565b95945050505050565b5f60208284031215612cf7575f5ffd5b815161221281612304565b601f821115612d4657805f5260205f20601f840160051c81016020851015612d275750805b601f840160051c820191505b81811015610d5f575f8155600101612d33565b505050565b81516001600160401b03811115612d6457612d6461233e565b612d7881612d728454612a65565b84612d02565b6020601f821160018114612dad575f8315612d935750848201515b600184901b5f19600386901b1c198216175b855550610d5f565b5f84815260208120601f198516915b82811015612ddc5787850151825560209485019460019092019101612dbc565b5084821015612df957868401515f19600387901b60f8161c191681555b50505050600190811b01905550565b602081525f6122126020830184612230565b5f5f5f5f60808587031215612e2d575f5ffd5b843593506020850135612e3f81612aea565b92506040850135612e4f81612aea565b915060608501356001600160401b03811115612e69575f5ffd5b8501601f81018713612e79575f5ffd5b612e8887823560208401612438565b91505092959194509250565b5f60018201612ea557612ea5612a2a565b5060010190565b5f82612eba57612eba612c99565b500690565b8082018082111561050557610505612a2a565b805f5b6004811015610cda578151845260209384019390910190600101612ed5565b5f6101c082019050612f07828451612ed2565b60208301516001600160a01b03811660808401525060408301516001600160a01b03811660a08401525060608301516001600160a01b03811660c08401525060808301516001600160a01b03811660e08401525060a08301516001600160e01b031981166101008401525060c08301516001600160401b0381166101208401525060e08301516001600160401b038116610140840152506101008301516001600160401b03811661016084015250610120830151801515610180840152506101408301518015156101a08401526112be565b818103612fe4575050565b612fee8254612a65565b6001600160401b038111156130055761300561233e565b61301381612d728454612a65565b5f601f821160018114613042575f8315612d93575081850154600184901b5f19600386901b1c19821617612da5565b5f8581526020808220868352908220601f198616925b838110156130785782860154825560019586019590910190602001613058565b508583101561309557818501545f19600388901b60f8161c191681555b5050505050600190811b01905550565b634e487b7160e01b5f52603160045260245ffd5b6001600160a01b0384811682528316602082015260608101600483106130ed57634e487b7160e01b5f52602160045260245ffd5b826040830152949350505050565b5f60c082840312801561310c575f5ffd5b50613115612352565b825181526020808401519082015260408084015190820152606080840151908201526080808401519082015260a08301518015158114613153575f5ffd5b60a08201529392505050565b604c81527f68747470733a2f2f6170692e636f696e6765636b6f2e636f6d2f6170692f763360208201527f2f73696d706c652f70726963653f6964733d657468657265756d2676735f637560408201526b1c9c995b98da595ccf5d5cd960a21b606082015260800190565b606081525f6131db6060830161315f565b8281036020840152600c81526b195d1a195c995d5b4b9d5cd960a21b60208201526040810191505060ff8316604083015292915050565b8481526001600160a01b03841660208201526001600160e01b0319831660408201526080606082018190525f906108ab90830184612230565b818152604060208201525f6122126040830161315f56fe4120726172652070656163652064657363656e64732075706f6e207468652070616e7468656f6e2e20476f6473207265737420616e64207265636f7665722e455448207072696365207375726765642e204d61726b65742070726f7370657269747920656d706f77657273204845524d455320616e642074686520616461707461626c652e4120646976696e6520737572676520656d706f7765727320616c6c20676f64732e2041676772657373696f6e207269736573206163726f7373207468652070616e7468656f6e2e45544820707269636520737461626c652e2054686520776f726c6420697320696e20657175696c69627269756d2e4554482070726963652064726f707065642e204d61726b657420666561722061637469766174657320415245532e204f74686572732067726f772063617574696f75732e546865207374726f6e6765737420676f64206973207765616b656e65642062792074686520656e7679206f6620726976616c732e446976696e652074656e73696f6e206572757074732e2054776f20676f6473206465636c617265207761722ea2646970667358221220e8c9597d7cdcd0255f57e4aa530cc3815f7acf6e1bf6599b487eb57428d4308e64736f6c634300081e0033","linkReferences":{}},"methodIdentifiers":{"JSON_API_COST()":"e9ab43ae","MAX_FEED_SIZE()":"34027fcf","activate(address)":"1c5a9d9c","agentPlatform()":"51fbe9f4","aggressionModifier(address)":"5343595e","arena()":"fd3705f9","battleFeed(uint256)":"5455fb9e","era()":"143e55e0","getBattleFeed(uint256)":"b30145d8","getEffectiveAggression(address)":"30ec9f2d","getWorldEvents(uint256)":"02fd2630","getWorldSummary()":"2aa625d9","handleResponse(uint256,(address,bytes,uint8,uint256,uint256,uint256)[],uint8,(uint256,address,address,bytes4,address[],(address,bytes,uint8,uint256,uint256,uint256)[],uint256,uint256,uint256,uint256,uint256,uint8,uint8,uint256,uint256))":"387e0801","jsonApiAgentId()":"2f5b04ec","lastFetchedEthPrice()":"58e5841b","lastPriceFetchBattle()":"40a9bb61","onEvent(address,bytes32[],bytes)":"53edf33d","owner()":"8da5cb5b","pendingPriceRequestId()":"d29fa278","registry()":"7b103999","setAgentConfig(address,uint256)":"3d638261","subscriptionId()":"09c1ba2e","supportsInterface(bytes4)":"01ffc9a7","totalBattles()":"bf1dfb8a","worldEvents(uint256)":"a983e781"},"id":25}