{"abi":[{"type":"constructor","inputs":[],"stateMutability":"nonpayable"},{"type":"function","name":"allowance","inputs":[{"name":"","type":"address","internalType":"address"},{"name":"","type":"address","internalType":"address"}],"outputs":[{"name":"","type":"uint256","internalType":"uint256"}],"stateMutability":"view"},{"type":"function","name":"approve","inputs":[{"name":"spender","type":"address","internalType":"address"},{"name":"amount","type":"uint256","internalType":"uint256"}],"outputs":[{"name":"","type":"bool","internalType":"bool"}],"stateMutability":"nonpayable"},{"type":"function","name":"arena","inputs":[],"outputs":[{"name":"","type":"address","internalType":"address"}],"stateMutability":"view"},{"type":"function","name":"balanceOf","inputs":[{"name":"","type":"address","internalType":"address"}],"outputs":[{"name":"","type":"uint256","internalType":"uint256"}],"stateMutability":"view"},{"type":"function","name":"decimals","inputs":[],"outputs":[{"name":"","type":"uint8","internalType":"uint8"}],"stateMutability":"view"},{"type":"function","name":"mintTo","inputs":[{"name":"to","type":"address","internalType":"address"},{"name":"amount","type":"uint256","internalType":"uint256"}],"outputs":[],"stateMutability":"nonpayable"},{"type":"function","name":"name","inputs":[],"outputs":[{"name":"","type":"string","internalType":"string"}],"stateMutability":"view"},{"type":"function","name":"owner","inputs":[],"outputs":[{"name":"","type":"address","internalType":"address"}],"stateMutability":"view"},{"type":"function","name":"reward","inputs":[{"name":"winner","type":"address","internalType":"address"},{"name":"loser","type":"address","internalType":"address"},{"name":"stake","type":"uint256","internalType":"uint256"}],"outputs":[],"stateMutability":"nonpayable"},{"type":"function","name":"setArena","inputs":[{"name":"_arena","type":"address","internalType":"address"}],"outputs":[],"stateMutability":"nonpayable"},{"type":"function","name":"symbol","inputs":[],"outputs":[{"name":"","type":"string","internalType":"string"}],"stateMutability":"view"},{"type":"function","name":"totalSupply","inputs":[],"outputs":[{"name":"","type":"uint256","internalType":"uint256"}],"stateMutability":"view"},{"type":"function","name":"transfer","inputs":[{"name":"to","type":"address","internalType":"address"},{"name":"amount","type":"uint256","internalType":"uint256"}],"outputs":[{"name":"","type":"bool","internalType":"bool"}],"stateMutability":"nonpayable"},{"type":"function","name":"transferFrom","inputs":[{"name":"from","type":"address","internalType":"address"},{"name":"to","type":"address","internalType":"address"},{"name":"amount","type":"uint256","internalType":"uint256"}],"outputs":[{"name":"","type":"bool","internalType":"bool"}],"stateMutability":"nonpayable"},{"type":"event","name":"Approval","inputs":[{"name":"owner","type":"address","indexed":true,"internalType":"address"},{"name":"spender","type":"address","indexed":true,"internalType":"address"},{"name":"value","type":"uint256","indexed":false,"internalType":"uint256"}],"anonymous":false},{"type":"event","name":"MinterSet","inputs":[{"name":"minter","type":"address","indexed":true,"internalType":"address"}],"anonymous":false},{"type":"event","name":"Transfer","inputs":[{"name":"from","type":"address","indexed":true,"internalType":"address"},{"name":"to","type":"address","indexed":true,"internalType":"address"},{"name":"value","type":"uint256","indexed":false,"internalType":"uint256"}],"anonymous":false},{"type":"error","name":"InsufficientAllowance","inputs":[]},{"type":"error","name":"InsufficientBalance","inputs":[]},{"type":"error","name":"Unauthorized","inputs":[]}],"bytecode":{"object":"0x6080604052348015600e575f5ffd5b50600480546001600160a01b0319163317905561081b8061002e5f395ff3fe608060405234801561000f575f5ffd5b50600436106100e5575f3560e01c8063449a52f81161008857806395d89b411161006357806395d89b4114610217578063a9059cbb14610239578063dd62ed3e1461024c578063fd3705f914610276575f5ffd5b8063449a52f8146101ba57806370a08231146101cd5780638da5cb5b146101ec575f5ffd5b806318160ddd116100c357806318160ddd146101645780631bd5ff281461017a57806323b872dd1461018d578063313ce567146101a0575f5ffd5b806306fdde03146100e9578063095ea7b31461012c578063135488d61461014f575b5f5ffd5b6101166040518060400160405280600e81526020016d2830b73a3432b7b7102a37b5b2b760911b81525081565b60405161012391906106a8565b60405180910390f35b61013f61013a3660046106f8565b610289565b6040519015158152602001610123565b61016261015d366004610720565b6102f5565b005b61016c5f5481565b604051908152602001610123565b61016261018836600461075a565b610338565b61013f61019b366004610720565b6103ab565b6101a8601281565b60405160ff9091168152602001610123565b6101626101c83660046106f8565b61043b565b61016c6101db36600461075a565b60016020525f908152604090205481565b6004546101ff906001600160a01b031681565b6040516001600160a01b039091168152602001610123565b6101166040518060400160405280600381526020016228242760e91b81525081565b61013f6102473660046106f8565b610473565b61016c61025a36600461077a565b600260209081525f928352604080842090915290825290205481565b6003546101ff906001600160a01b031681565b335f8181526002602090815260408083206001600160a01b038716808552925280832085905551919290917f8c5be1e5ebec7d5bd14f71427d1e84f3dd0314c0f7b2291e5b200ac8c7c3b925906102e39086815260200190565b60405180910390a35060015b92915050565b6003546001600160a01b0316331461031f576040516282b42960e81b815260040160405180910390fd5b6103298282610488565b6103338382610546565b505050565b6004546001600160a01b03163314610362576040516282b42960e81b815260040160405180910390fd5b600380546001600160a01b0319166001600160a01b0383169081179091556040517f726b590ef91a8c76ad05bbe91a57ef84605276528f49cd47d787f558a4e755b6905f90a250565b6001600160a01b0383165f9081526002602090815260408083203384529091528120545f19811461042557828110156103f7576040516313be252b60e01b815260040160405180910390fd5b61040183826107bf565b6001600160a01b0386165f9081526002602090815260408083203384529091529020555b6104308585856105c4565b506001949350505050565b6003546001600160a01b03163314610465576040516282b42960e81b815260040160405180910390fd5b61046f8282610546565b5050565b5f61047f3384846105c4565b50600192915050565b6001600160a01b0382165f908152600160205260409020548111156104c057604051631e9acf1760e31b815260040160405180910390fd5b805f5f8282546104d091906107bf565b90915550506001600160a01b0382165f90815260016020526040812080548392906104fc9084906107bf565b90915550506040518181525f906001600160a01b038416907fddf252ad1be2c89b69c2b068fc378daa952ba7f163c4a11628f55a4df523b3ef906020015b60405180910390a35050565b805f5f82825461055691906107d2565b90915550506001600160a01b0382165f90815260016020526040812080548392906105829084906107d2565b90915550506040518181526001600160a01b038316905f907fddf252ad1be2c89b69c2b068fc378daa952ba7f163c4a11628f55a4df523b3ef9060200161053a565b6001600160a01b0383165f908152600160205260409020548111156105fc57604051631e9acf1760e31b815260040160405180910390fd5b6001600160a01b0383165f90815260016020526040812080548392906106239084906107bf565b90915550506001600160a01b0382165f908152600160205260408120805483929061064f9084906107d2565b92505081905550816001600160a01b0316836001600160a01b03167fddf252ad1be2c89b69c2b068fc378daa952ba7f163c4a11628f55a4df523b3ef8360405161069b91815260200190565b60405180910390a3505050565b602081525f82518060208401528060208501604085015e5f604082850101526040601f19601f83011684010191505092915050565b80356001600160a01b03811681146106f3575f5ffd5b919050565b5f5f60408385031215610709575f5ffd5b610712836106dd565b946020939093013593505050565b5f5f5f60608486031215610732575f5ffd5b61073b846106dd565b9250610749602085016106dd565b929592945050506040919091013590565b5f6020828403121561076a575f5ffd5b610773826106dd565b9392505050565b5f5f6040838503121561078b575f5ffd5b610794836106dd565b91506107a2602084016106dd565b90509250929050565b634e487b7160e01b5f52601160045260245ffd5b818103818111156102ef576102ef6107ab565b808201808211156102ef576102ef6107ab56fea26469706673582212203f4194391a62cde0ccc435147babec8082c1ea192298b52447d082180a2041ce64736f6c634300081e0033","linkReferences":{}},"methodIdentifiers":{"allowance(address,address)":"dd62ed3e","approve(address,uint256)":"095ea7b3","arena()":"fd3705f9","balanceOf(address)":"70a08231","decimals()":"313ce567","mintTo(address,uint256)":"449a52f8","name()":"06fdde03","owner()":"8da5cb5b","reward(address,address,uint256)":"135488d6","setArena(address)":"1bd5ff28","symbol()":"95d89b41","totalSupply()":"18160ddd","transfer(address,uint256)":"a9059cbb","transferFrom(address,address,uint256)":"23b872dd"},"id":24}