{"abi":[{"type":"constructor","inputs":[],"stateMutability":"nonpayable"},{"type":"function","name":"allowance","inputs":[{"name":"","type":"address","internalType":"address"},{"name":"","type":"address","internalType":"address"}],"outputs":[{"name":"","type":"uint256","internalType":"uint256"}],"stateMutability":"view"},{"type":"function","name":"approve","inputs":[{"name":"spender","type":"address","internalType":"address"},{"name":"amount","type":"uint256","internalType":"uint256"}],"outputs":[{"name":"","type":"bool","internalType":"bool"}],"stateMutability":"nonpayable"},{"type":"function","name":"arena","inputs":[],"outputs":[{"name":"","type":"address","internalType":"address"}],"stateMutability":"view"},{"type":"function","name":"balanceOf","inputs":[{"name":"","type":"address","internalType":"address"}],"outputs":[{"name":"","type":"uint256","internalType":"uint256"}],"stateMutability":"view"},{"type":"function","name":"decimals","inputs":[],"outputs":[{"name":"","type":"uint8","internalType":"uint8"}],"stateMutability":"view"},{"type":"function","name":"mintTo","inputs":[{"name":"to","type":"address","internalType":"address"},{"name":"amount","type":"uint256","internalType":"uint256"}],"outputs":[],"stateMutability":"nonpayable"},{"type":"function","name":"name","inputs":[],"outputs":[{"name":"","type":"string","internalType":"string"}],"stateMutability":"view"},{"type":"function","name":"owner","inputs":[],"outputs":[{"name":"","type":"address","internalType":"address"}],"stateMutability":"view"},{"type":"function","name":"reward","inputs":[{"name":"winner","type":"address","internalType":"address"},{"name":"loser","type":"address","internalType":"address"},{"name":"stake","type":"uint256","internalType":"uint256"}],"outputs":[],"stateMutability":"nonpayable"},{"type":"function","name":"setArena","inputs":[{"name":"_arena","type":"address","internalType":"address"}],"outputs":[],"stateMutability":"nonpayable"},{"type":"function","name":"symbol","inputs":[],"outputs":[{"name":"","type":"string","internalType":"string"}],"stateMutability":"view"},{"type":"function","name":"totalSupply","inputs":[],"outputs":[{"name":"","type":"uint256","internalType":"uint256"}],"stateMutability":"view"},{"type":"function","name":"transfer","inputs":[{"name":"to","type":"address","internalType":"address"},{"name":"amount","type":"uint256","internalType":"uint256"}],"outputs":[{"name":"","type":"bool","internalType":"bool"}],"stateMutability":"nonpayable"},{"type":"function","name":"transferFrom","inputs":[{"name":"from","type":"address","internalType":"address"},{"name":"to","type":"address","internalType":"address"},{"name":"amount","type":"uint256","internalType":"uint256"}],"outputs":[{"name":"","type":"bool","internalType":"bool"}],"stateMutability":"nonpayable"},{"type":"event","name":"Approval","inputs":[{"name":"owner","type":"address","indexed":true,"internalType":"address"},{"name":"spender","type":"address","indexed":true,"internalType":"address"},{"name":"value","type":"uint256","indexed":false,"internalType":"uint256"}],"anonymous":false},{"type":"event","name":"MinterSet","inputs":[{"name":"minter","type":"address","indexed":true,"internalType":"address"}],"anonymous":false},{"type":"event","name":"Transfer","inputs":[{"name":"from","type":"address","indexed":true,"internalType":"address"},{"name":"to","type":"address","indexed":true,"internalType":"address"},{"name":"value","type":"uint256","indexed":false,"internalType":"uint256"}],"anonymous":false},{"type":"error","name":"InsufficientAllowance","inputs":[]},{"type":"error","name":"InsufficientBalance","inputs":[]},{"type":"error","name":"Unauthorized","inputs":[]}],"bytecode":{"object":"0x60808060405234602757600480546001600160a01b0319163317905561073a908161002d8239f35b600080fdfe6080604052600436101561001257600080fd5b60003560e01c806306fdde031461050b578063095ea7b314610491578063135488d6146103e457806318160ddd146103c65780631bd5ff281461035557806323b872dd146102c4578063313ce567146102a8578063449a52f81461024257806370a08231146102085780638da5cb5b146101df57806395d89b4114610176578063a9059cbb14610145578063dd62ed3e146100e45763fd3705f9146100b657600080fd5b346100df5760003660031901126100df576003546040516001600160a01b039091168152602090f35b600080fd5b346100df5760403660031901126100df576100fd6105aa565b602435906001600160a01b03821682036100df5760018060a01b0316600052600260205260406000209060018060a01b03166000526020526020604060002054604051908152f35b346100df5760403660031901126100df5761016b6101616105aa565b6024359033610687565b602060405160018152f35b346100df5760003660031901126100df57604051604081019080821067ffffffffffffffff8311176101c9576101c591604052600381526228242760e91b602082015260405191829182610561565b0390f35b634e487b7160e01b600052604160045260246000fd5b346100df5760003660031901126100df576004546040516001600160a01b039091168152602090f35b346100df5760203660031901126100df576001600160a01b036102296105aa565b1660005260016020526020604060002054604051908152f35b346100df5760403660031901126100df5761025b6105aa565b6003546001600160a01b031633141580610293575b61028357610281906024359061062a565b005b6282b42960e81b60005260046000fd5b506004546001600160a01b0316331415610270565b346100df5760003660031901126100df57602060405160128152f35b346100df576102d2366105c0565b6001600160a01b038316600081815260026020908152604080832033845290915290205493919291906001850161030f575b5061016b9350610687565b838510610344576103238461016b966105fa565b60009182526002602090815260408084203385529091529091205584610304565b6313be252b60e01b60005260046000fd5b346100df5760203660031901126100df5761036e6105aa565b6004546001600160a01b0316330361028357600380546001600160a01b0319166001600160a01b039290921691821790557f726b590ef91a8c76ad05bbe91a57ef84605276528f49cd47d787f558a4e755b6600080a2005b346100df5760003660031901126100df576020600054604051908152f35b346100df576103f2366105c0565b6003549091906001600160a01b031633036102835760018060a01b0316918260005260016020528160406000205410610480576000610281936104368483546105fa565b825580825260016020526040822061044f8582546105fa565b90557fddf252ad1be2c89b69c2b068fc378daa952ba7f163c4a11628f55a4df523b3ef6020604051868152a361062a565b631e9acf1760e31b60005260046000fd5b346100df5760403660031901126100df576104aa6105aa565b3360008181526002602090815260408083206001600160a01b03909516808452948252918290206024359081905591519182527f8c5be1e5ebec7d5bd14f71427d1e84f3dd0314c0f7b2291e5b200ac8c7c3b92591a3602060405160018152f35b346100df5760003660031901126100df57604051604081019080821067ffffffffffffffff8311176101c9576101c591604052600e81526d2830b73a3432b7b7102a37b5b2b760911b6020820152604051918291825b91909160208152825180602083015260005b818110610594575060409293506000838284010152601f8019910116010190565b8060208092870101516040828601015201610573565b600435906001600160a01b03821682036100df57565b60609060031901126100df576004356001600160a01b03811681036100df57906024356001600160a01b03811681036100df579060443590565b9190820391821161060757565b634e487b7160e01b600052601160045260246000fd5b9190820180921161060757565b7fddf252ad1be2c89b69c2b068fc378daa952ba7f163c4a11628f55a4df523b3ef602060009261065b85855461061d565b845560018060a01b031693848452600182526040842061067c82825461061d565b9055604051908152a3565b60018060a01b03169081600052600160205282604060002054106104805760207fddf252ad1be2c89b69c2b068fc378daa952ba7f163c4a11628f55a4df523b3ef91836000526001825260406000206106e18682546105fa565b905560018060a01b0316938460005260018252604060002061067c82825461061d56fea2646970667358221220d423e8df946d550cb3e29c4955ee8890a5aebcf6718dd21fa8561979b4a5273264736f6c634300081e0033","linkReferences":{}},"methodIdentifiers":{"allowance(address,address)":"dd62ed3e","approve(address,uint256)":"095ea7b3","arena()":"fd3705f9","balanceOf(address)":"70a08231","decimals()":"313ce567","mintTo(address,uint256)":"449a52f8","name()":"06fdde03","owner()":"8da5cb5b","reward(address,address,uint256)":"135488d6","setArena(address)":"1bd5ff28","symbol()":"95d89b41","totalSupply()":"18160ddd","transfer(address,uint256)":"a9059cbb","transferFrom(address,address,uint256)":"23b872dd"},"id":24}