{"abi":[{"type":"constructor","inputs":[{"name":"_registry","type":"address","internalType":"address"},{"name":"_token","type":"address","internalType":"address"}],"stateMutability":"nonpayable"},{"type":"function","name":"COMMIT_DEADLINE_BLOCKS","inputs":[],"outputs":[{"name":"","type":"uint256","internalType":"uint256"}],"stateMutability":"view"},{"type":"function","name":"REVEAL_DEADLINE_BLOCKS","inputs":[],"outputs":[{"name":"","type":"uint256","internalType":"uint256"}],"stateMutability":"view"},{"type":"function","name":"acceptChallenge","inputs":[{"name":"opponent","type":"address","internalType":"address"},{"name":"matchId","type":"uint256","internalType":"uint256"}],"outputs":[],"stateMutability":"nonpayable"},{"type":"function","name":"activeMatchOf","inputs":[{"name":"","type":"address","internalType":"address"}],"outputs":[{"name":"","type":"uint256","internalType":"uint256"}],"stateMutability":"view"},{"type":"function","name":"commitMove","inputs":[{"name":"god","type":"address","internalType":"address"},{"name":"matchId","type":"uint256","internalType":"uint256"},{"name":"commit","type":"bytes32","internalType":"bytes32"}],"outputs":[],"stateMutability":"nonpayable"},{"type":"function","name":"forfeitExpired","inputs":[{"name":"matchId","type":"uint256","internalType":"uint256"}],"outputs":[],"stateMutability":"nonpayable"},{"type":"function","name":"getGodMatchHistory","inputs":[{"name":"god","type":"address","internalType":"address"}],"outputs":[{"name":"","type":"uint256[]","internalType":"uint256[]"}],"stateMutability":"view"},{"type":"function","name":"getMatch","inputs":[{"name":"matchId","type":"uint256","internalType":"uint256"}],"outputs":[{"name":"","type":"tuple","internalType":"struct Arena.Match","components":[{"name":"id","type":"uint256","internalType":"uint256"},{"name":"challenger","type":"address","internalType":"address"},{"name":"opponent","type":"address","internalType":"address"},{"name":"stake","type":"uint256","internalType":"uint256"},{"name":"gameType","type":"uint8","internalType":"enum Arena.GameType"},{"name":"status","type":"uint8","internalType":"enum Arena.MatchStatus"},{"name":"challengerCommit","type":"bytes32","internalType":"bytes32"},{"name":"opponentCommit","type":"bytes32","internalType":"bytes32"},{"name":"challengerMove","type":"uint8","internalType":"uint8"},{"name":"opponentMove","type":"uint8","internalType":"uint8"},{"name":"challengerRevealed","type":"bool","internalType":"bool"},{"name":"opponentRevealed","type":"bool","internalType":"bool"},{"name":"winner","type":"address","internalType":"address"},{"name":"createdBlock","type":"uint256","internalType":"uint256"},{"name":"decisionReason","type":"string","internalType":"string"}]}],"stateMutability":"view"},{"type":"function","name":"getRecentMatches","inputs":[{"name":"count","type":"uint256","internalType":"uint256"}],"outputs":[{"name":"","type":"tuple[]","internalType":"struct Arena.Match[]","components":[{"name":"id","type":"uint256","internalType":"uint256"},{"name":"challenger","type":"address","internalType":"address"},{"name":"opponent","type":"address","internalType":"address"},{"name":"stake","type":"uint256","internalType":"uint256"},{"name":"gameType","type":"uint8","internalType":"enum Arena.GameType"},{"name":"status","type":"uint8","internalType":"enum Arena.MatchStatus"},{"name":"challengerCommit","type":"bytes32","internalType":"bytes32"},{"name":"opponentCommit","type":"bytes32","internalType":"bytes32"},{"name":"challengerMove","type":"uint8","internalType":"uint8"},{"name":"opponentMove","type":"uint8","internalType":"uint8"},{"name":"challengerRevealed","type":"bool","internalType":"bool"},{"name":"opponentRevealed","type":"bool","internalType":"bool"},{"name":"winner","type":"address","internalType":"address"},{"name":"createdBlock","type":"uint256","internalType":"uint256"},{"name":"decisionReason","type":"string","internalType":"string"}]}],"stateMutability":"view"},{"type":"function","name":"godMatchIds","inputs":[{"name":"","type":"address","internalType":"address"},{"name":"","type":"uint256","internalType":"uint256"}],"outputs":[{"name":"","type":"uint256","internalType":"uint256"}],"stateMutability":"view"},{"type":"function","name":"godMind","inputs":[],"outputs":[{"name":"","type":"address","internalType":"address"}],"stateMutability":"view"},{"type":"function","name":"hasActiveMatch","inputs":[{"name":"","type":"address","internalType":"address"}],"outputs":[{"name":"","type":"bool","internalType":"bool"}],"stateMutability":"view"},{"type":"function","name":"matchCounter","inputs":[],"outputs":[{"name":"","type":"uint256","internalType":"uint256"}],"stateMutability":"view"},{"type":"function","name":"matches","inputs":[{"name":"","type":"uint256","internalType":"uint256"}],"outputs":[{"name":"id","type":"uint256","internalType":"uint256"},{"name":"challenger","type":"address","internalType":"address"},{"name":"opponent","type":"address","internalType":"address"},{"name":"stake","type":"uint256","internalType":"uint256"},{"name":"gameType","type":"uint8","internalType":"enum Arena.GameType"},{"name":"status","type":"uint8","internalType":"enum Arena.MatchStatus"},{"name":"challengerCommit","type":"bytes32","internalType":"bytes32"},{"name":"opponentCommit","type":"bytes32","internalType":"bytes32"},{"name":"challengerMove","type":"uint8","internalType":"uint8"},{"name":"opponentMove","type":"uint8","internalType":"uint8"},{"name":"challengerRevealed","type":"bool","internalType":"bool"},{"name":"opponentRevealed","type":"bool","internalType":"bool"},{"name":"winner","type":"address","internalType":"address"},{"name":"createdBlock","type":"uint256","internalType":"uint256"},{"name":"decisionReason","type":"string","internalType":"string"}],"stateMutability":"view"},{"type":"function","name":"owner","inputs":[],"outputs":[{"name":"","type":"address","internalType":"address"}],"stateMutability":"view"},{"type":"function","name":"proposeChallenge","inputs":[{"name":"challenger","type":"address","internalType":"address"},{"name":"opponent","type":"address","internalType":"address"},{"name":"stake","type":"uint256","internalType":"uint256"},{"name":"decisionReason","type":"string","internalType":"string"}],"outputs":[{"name":"matchId","type":"uint256","internalType":"uint256"}],"stateMutability":"nonpayable"},{"type":"function","name":"registry","inputs":[],"outputs":[{"name":"","type":"address","internalType":"contract GodRegistry"}],"stateMutability":"view"},{"type":"function","name":"revealMove","inputs":[{"name":"god","type":"address","internalType":"address"},{"name":"matchId","type":"uint256","internalType":"uint256"},{"name":"move","type":"uint8","internalType":"uint8"},{"name":"secret","type":"bytes32","internalType":"bytes32"}],"outputs":[],"stateMutability":"nonpayable"},{"type":"function","name":"setGodMind","inputs":[{"name":"_godMind","type":"address","internalType":"address"}],"outputs":[],"stateMutability":"nonpayable"},{"type":"function","name":"setWorldState","inputs":[{"name":"_worldState","type":"address","internalType":"address"}],"outputs":[],"stateMutability":"nonpayable"},{"type":"function","name":"token","inputs":[],"outputs":[{"name":"","type":"address","internalType":"contract PantheonToken"}],"stateMutability":"view"},{"type":"function","name":"worldState","inputs":[],"outputs":[{"name":"","type":"address","internalType":"address"}],"stateMutability":"view"},{"type":"event","name":"MatchAccepted","inputs":[{"name":"matchId","type":"uint256","indexed":true,"internalType":"uint256"},{"name":"opponent","type":"address","indexed":true,"internalType":"address"}],"anonymous":false},{"type":"event","name":"MatchCancelled","inputs":[{"name":"matchId","type":"uint256","indexed":true,"internalType":"uint256"},{"name":"reason","type":"string","indexed":false,"internalType":"string"}],"anonymous":false},{"type":"event","name":"MatchProposed","inputs":[{"name":"matchId","type":"uint256","indexed":true,"internalType":"uint256"},{"name":"challenger","type":"address","indexed":true,"internalType":"address"},{"name":"opponent","type":"address","indexed":true,"internalType":"address"},{"name":"stake","type":"uint256","indexed":false,"internalType":"uint256"}],"anonymous":false},{"type":"event","name":"MatchResolved","inputs":[{"name":"matchId","type":"uint256","indexed":true,"internalType":"uint256"},{"name":"winner","type":"address","indexed":true,"internalType":"address"},{"name":"loser","type":"address","indexed":true,"internalType":"address"},{"name":"stake","type":"uint256","indexed":false,"internalType":"uint256"},{"name":"winnerMove","type":"uint8","indexed":false,"internalType":"uint8"},{"name":"loserMove","type":"uint8","indexed":false,"internalType":"uint8"},{"name":"decisionReason","type":"string","indexed":false,"internalType":"string"}],"anonymous":false},{"type":"event","name":"MovesCommitted","inputs":[{"name":"matchId","type":"uint256","indexed":true,"internalType":"uint256"}],"anonymous":false},{"type":"error","name":"CommitMismatch","inputs":[]},{"type":"error","name":"DeadlineExpired","inputs":[]},{"type":"error","name":"GodBusy","inputs":[]},{"type":"error","name":"GodNotActive","inputs":[]},{"type":"error","name":"InsufficientBalance","inputs":[]},{"type":"error","name":"InvalidMove","inputs":[]},{"type":"error","name":"MatchNotFound","inputs":[]},{"type":"error","name":"Unauthorized","inputs":[]},{"type":"error","name":"WrongStatus","inputs":[]}],"bytecode":{"object":"0x608034609457601f61206e38819003918201601f19168301916001600160401b038311848410176099578084926040948552833981010312609457604b602060458360af565b920160af565b600080546001600160a01b03199081166001600160a01b0394851617909155600180548216939092169290921790556003805490911633179055604051611fab90816100c38239f35b600080fd5b634e487b7160e01b600052604160045260246000fd5b51906001600160a01b038216820360945756fe608080604052600436101561001357600080fd5b600090813560e01c90816301fd195114611aa7575080630c10fe931461172257806315f418ff146115b657806318685569146113cd57806333184450146113765780633d092b3d1461125a5780634768d4ef146111345780634a790369146110e55780634d4f58b5146110bc57806353e376cd14611007578063649af1ab1461087e5780637b10399914610fe05780638da5cb5b14610fb757806396719dce14610f5a578063b46695ff14610ad9578063bdfd55bf14610ab0578063be48753914610883578063cd9689391461087e578063d32fc5f91461083f578063ed6b9ff214610806578063fb74beff1461013e5763fc0c546a1461011357600080fd5b3461013b578060031936011261013b576001546040516001600160a01b039091168152602090f35b80fd5b503461013b57608036600319011261013b57610158611ac7565b602435906001600160a01b03821682036108025767ffffffffffffffff60643511610802573660236064350112156108025767ffffffffffffffff6064356004013511610802573660246064356004013560643501011161080257336001600160a01b0382161415806107ed575b806107d8575b6107ca57825460405163611fc2eb60e11b81526001600160a01b03838116600483015290911660c082602481845afa90811561079d5760249286926107a8575b5060405163611fc2eb60e11b81526001600160a01b03861660048201529260c09184919082905afa91821561079d578592610769575b5060a001511561075a5760a001511561074b576001600160a01b03811683526007602052604083205460ff1661073c576001546040516370a0823160e01b81526001600160a01b038381166004830152909160209183916024918391165afa9081156107315784916106fa575b50604435116106eb576004549160001983146106d75760018301600455604051936102d985611d1c565b60018401855260018060a01b038316602086015260018060a01b038216604086015260443560608601528060808601528060a08601528060c08601528060e08601528061010086015280610120860152806101408601528061016086015280610180860152436101a08601526040516103626020601f19601f6064356004013501160182611d4f565b606435600481013580835290602401602083013760046064350135810160209081018390526101c087019190915260018581018352600582526040808420885181559288015183830180546001600160a01b03199081166001600160a01b0393841617909155918901516002850180549093169116179055606087015160038301556080870151908110156106c35760ff8019600484015416911617600482015560a086015160058110156106c3576101c09160099161ff0060048301549160081b169061ff00191617600482015560c0880151600582015560e088015160068201556104dc6007820160ff806101008c0151161660ff1982541617815561048360ff6101208c015116829061ff0082549160081b169061ff001916179055565b6101408a015181546101608c01516101808d015162010000600160c01b031990921692151560101b62ff0000169290921791151560181b63ff000000169190911760209190911b640100000000600160c01b0316179055565b6101a088015160088201550195015194855167ffffffffffffffff81116106af576105078254611c5f565b601f811161066a575b506020968790601f8311600114610603576105ab949392918491836105f8575b50508160011b916000199060031b1c19161790555b6001600160a01b038416808252600787526040808320805460ff19166001908117909155828452600689528184209088019081905591835260088852822061058d9190611ebc565b6001600160a01b038316815260088652604090206001850190611ebc565b60405160443581526001600160a01b03918216929091169060018401907f20f379fd34729bd22505540c049a9f812d76b07b5f3afbc20b558cc0902c939e908690a4600160405191018152f35b015190503880610530565b8385528185209190601f198416865b81811061065357509160019391856105ab989796941061063a575b505050811b019055610545565b015160001960f88460031b161c1916905538808061062d565b92938b600181928786015181550195019301610612565b82845260208420601f830160051c810191602084106106a5575b601f0160051c01905b81811061069a5750610510565b84815560010161068d565b9091508190610684565b634e487b7160e01b83526041600452602483fd5b634e487b7160e01b83526021600452602483fd5b634e487b7160e01b84526011600452602484fd5b631e9acf1760e31b8352600483fd5b90506020813d602011610729575b8161071560209383611d4f565b810103126107245751386102af565b600080fd5b3d9150610708565b6040513d86823e3d90fd5b63a3f5c0d160e01b8352600483fd5b6356e8e66960e11b8352600483fd5b6356e8e66960e11b8452600484fd5b60a091925061078f9060c03d60c011610796575b6107878183611d4f565b810190611e4c565b9190610242565b503d61077d565b6040513d87823e3d90fd5b60c09192506107c390823d8411610796576107878183611d4f565b919061020c565b6282b42960e81b8352600483fd5b506003546001600160a01b03163314156101cc565b506009546001600160a01b03163314156101c6565b8280fd5b503461013b57602036600319011261013b576020906040906001600160a01b0361082e611ac7565b168152600683522054604051908152f35b503461013b57602036600319011261013b5760209060ff906040906001600160a01b0361086a611ac7565b168152600784522054166040519015158152f35b611d71565b503461013b57602036600319011261013b5760048054903580821015610aa8575090815b6108b081611e20565b926108be6040519485611d4f565b818452601f196108cd83611e20565b01835b818110610a89575050825b82811061094a575050506040519182916020830160208452825180915260408401602060408360051b870101940192905b82821061091b57505050500390f35b9193600191939550602061093a8192603f198a82030186528851611b7c565b960192019201859493919261090c565b80829593949503828111610a75579060019186526005602052604086206009610a4f6040519261097984611d1c565b80548452858060a01b0386820154166020850152858060a01b036002820154166040850152600381015460608501526109ce60ff60048301546109c182821660808901611e08565b60081c1660a08601611e14565b600581015460c0850152600681015460e0850152600781015460ff811661010086015260ff8160081c1661012086015260ff8160101c16151561014086015260ff8160181c161515610160860152868060a01b039060201c1661018085015260088101546101a0850152610a486040518094819301611c99565b0382611d4f565b6101c0820152610a5f8286611e38565b52610a6a8185611e38565b5001939291936108db565b634e487b7160e01b86526011600452602486fd5b602090610a9896949596611d8d565b82828701015201949392946108d0565b9190916108a7565b503461013b578060031936011261013b576002546040516001600160a01b039091168152602090f35b503461013b57608036600319011261013b57610af3611ac7565b602435906044359060ff821690818303610f56576001600160a01b03163381141580610f41575b80610f2c575b610edd5783855260056020526040852092835415610f1d5760ff600485015460081c166005811015610f0957600203610efa5760028311610eeb576040516020810190848252606435604082015260408152610b7d606082611d4f565b51902060018501549092906001600160a01b03168103610e83575050600583015403610e7457906007918282019060ff198254161781556201000062ff0000198254161790555b015460ff8160101c169081610e66575b50610bdd575080f35b808252600560205260408220600781019182549160ff8084169360081c169360ff610c088686611ef6565b1660018103610e0f57506001820154600283015494956001600160a01b03958616959092911690610c619082905b8054640100000000600160c01b03191660209290921b640100000000600160c01b0316919091179055565b60048301805461ff0019166103001790556001808401546001600160a01b039081168952600760208181526040808c20805460ff19908116909155600289015485168d52929091528a2080549091169055905460038501805490928a9216803b15610802576040516309aa446b60e11b81526001600160a01b0386811660048301528a166024820152604481019290925282908290606490829084905af18015610def57610dfa575b5060018060a01b03815416825493813b156108025760405163ec60b69560e01b81526001600160a01b0391821660048201819052999091166024820181905260ff9a8b166044830181905296909a16606482018190526084820195909552908290829081835a9260a493f18015610def57610dd6575b50507fb237fdf26315d0c32e1ea500f843c2c005db3cc186796515d88e75abc85a5e5793610dd0915492604051948594855260208501526040840152608060608401526009608084019101611c99565b0390a480f35b81610de091611d4f565b610deb578738610d80565b8780fd5b6040513d84823e3d90fd5b81610e0491611d4f565b610deb578738610d0a565b939493600203610e41576002820154600183015494956001600160a01b03958616959092911690610c61908290610c36565b600182015460028301546001600160a01b039081169592911690610c61908290610c36565b60ff915060181c1638610bd4565b63c684117960e01b8452600484fd5b60028501549193506001600160a01b0390911603610edd57600683015403610e745790600791610ec783830191829061ff0082549160081b169061ff001916179055565b805463ff00000019166301000000179055610bc4565b6282b42960e81b8552600485fd5b6321e08b4d60e21b8652600486fd5b638e78f0cb60e01b8652600486fd5b634e487b7160e01b87526021600452602487fd5b631632113760e31b8652600486fd5b506003546001600160a01b0316331415610b20565b506009546001600160a01b0316331415610b1a565b8480fd5b503461013b57602036600319011261013b57610f74611ac7565b6003546001600160a01b03163303610fa95760018060a01b03166bffffffffffffffffffffffff60a01b600954161760095580f35b6282b42960e81b8252600482fd5b503461013b578060031936011261013b576003546040516001600160a01b039091168152602090f35b503461013b578060031936011261013b57546040516001600160a01b039091168152602090f35b503461013b57602036600319011261013b576001600160a01b03611029611ac7565b168152600860205260408120604051908160208254918281520190819285526020852090855b8181106110a65750505082611065910383611d4f565b604051928392602084019060208552518091526040840192915b81811061108d575050500390f35b825184528594506020938401939092019160010161107f565b825484526020909301926001928301920161104f565b503461013b578060031936011261013b576009546040516001600160a01b039091168152602090f35b503461013b57602036600319011261013b576110ff611ac7565b6003546001600160a01b03163303610fa95760018060a01b03166bffffffffffffffffffffffff60a01b600254161760025580f35b503461013b57602036600319011261013b5760409060043581526005602052208054611256600960018060a01b036001850154169360018060a01b03600282015416600382015460048301546111ec6005850154916006860154936007870154956111b56008890154986111ae604051809c819301611c99565b038a611d4f565b6040519b8c9b8c5260208c015260408b015260608a01526111dc60808a0160ff8316611b0b565b60ff60a08a019160081c16611b2e565b60c087015260e086015260ff818116610100870152600882901c8116610120870152601082901c81161515610140870152601882901c16151561016086015260201c6001600160a01b03166101808501526101a08401526101e06101c08401819052830190611b3b565b0390f35b503461013b57602036600319011261013b5760406112569161127a611d8d565b506004358152600560205220600961135c6040519261129884611d1c565b8054845260018101546001600160a01b03908116602086015260028201541660408501526003810154606085015260048101546112e19060ff906109c181831660808901611e08565b600581015460c0850152600681015460e0850152600781015460ff811661010086015260ff8160081c1661012086015260ff8160101c16151561014086015260ff8160181c16151561016086015260018060a01b039060201c1661018085015260088101546101a0850152610a486040518094819301611c99565b6101c0820152604051918291602083526020830190611b7c565b503461013b57604036600319011261013b57611390611ac7565b6001600160a01b031681526008602052604081208054602435929083101561013b5760206113be8484611add565b90549060031b1c604051908152f35b503461013b57604036600319011261013b576113e7611ac7565b6001600160a01b031660243533821415806115a1575b8061158c575b6107ca5780835260056020526040832080541561157d57600481019060ff825460081c1660058110156115695761155a5760028101546001600160a01b0316849003610edd57838552600760205260ff60408620541661154b576001546040516370a0823160e01b8152600481018690529190602090839060249082906001600160a01b03165afa91821561154057869261150b575b5060030154116114fc5761010061ff0019825416179055818352600760205260408320600160ff1982541617905581835260066020528060408420557f3b8d451bc77cb8362426b579170661ca3515d7fa4c08b9627c660328f03110088380a380f35b631e9acf1760e31b8452600484fd5b9091506020813d602011611538575b8161152760209383611d4f565b810103126107245751906003611499565b3d915061151a565b6040513d88823e3d90fd5b63a3f5c0d160e01b8552600485fd5b638e78f0cb60e01b8552600485fd5b634e487b7160e01b86526021600452602486fd5b631632113760e31b8452600484fd5b506003546001600160a01b0316331415611403565b506009546001600160a01b03163314156113fd565b503461013b57606036600319011261013b576115d0611ac7565b602435906001600160a01b0316604435338214158061170d575b806116f8575b6116ea57828452600560205260408420908154156116db57600482019260ff845460081c166005811015610f0957600103610efa5760018301546001600160a01b0316811490811590816116c3575b506116b557156116ab5760058201555b60058101541515908161169d575b50611666578280f35b805461ff0019166102001790557fa72173e53be57962753f2192ef8bfe47076356dd2efb260d9cc51f0ca8f49fb68280a238808280f35b60069150015415153861165d565b600682015561164f565b6282b42960e81b8652600486fd5b60028501546001600160a01b0316141590503861163f565b631632113760e31b8552600485fd5b6282b42960e81b8452600484fd5b506003546001600160a01b03163314156115f0565b506009546001600160a01b03163314156115ea565b503461013b57602036600319011261013b57600435808252600560205260408220805415611a98576004810160ff815460081c166005811015611a84578061182557506008820154603281018091116118115743106118025761040061ff00198254161790556001808060a01b0391015416825260076020526040822060ff1981541690557fbe9561483b1664685b575e72966584b8b66b253bd4f2e55e045e00db8fc134af606060405160208152601760208201527f4f70706f6e656e74206e657665722061636365707465640000000000000000006040820152a280f35b631ab7da6b60e01b8452600484fd5b634e487b7160e01b85526011600452602485fd5b90929060018114908115611a79575b50611840575b50505080f35b60088201546032810190818111610a755760640180911161181157431061180257600582015415611a655760018201546001600160a01b0316915b6001810180546001600160a01b0380861695929116858103611a5f575060028301546001600160a01b0316955b600784018054640100000000600160c01b031916602085901b640100000000600160c01b0316179055805461ff001916610300179055546001600160a01b039081168752600760208181526040808a20805460ff19908116909155600287015485168b5292909152882080549091169055600154600390930180549093889216803b15610802576040516309aa446b60e11b81526001600160a01b039485166004820152938816602485015260448401919091528290606490829084905af1801561154057611a4b575b50845481549486916001600160a01b031690813b1561080257829160a48392604051948593849263ec60b69560e01b84528b600485015260018060a01b03169b8c602485015282604485015282606485015260848401525af18015610def57611a36575b505060c07fb237fdf26315d0c32e1ea500f843c2c005db3cc186796515d88e75abc85a5e579154604051908152866020820152866040820152608060608201526007608082015266119bdc99995a5d60ca1b60a0820152a438808061183a565b81611a4091611d4f565b610f565784386119d6565b85611a5891969296611d4f565b9338611972565b956118a8565b60028201546001600160a01b03169161187b565b600291501438611834565b634e487b7160e01b85526021600452602485fd5b631632113760e31b8352600483fd5b905034611ac35781600319360112611ac3576020906004548152f35b5080fd5b600435906001600160a01b038216820361072457565b8054821015611af55760005260206000200190600090565b634e487b7160e01b600052603260045260246000fd5b906001821015611b185752565b634e487b7160e01b600052602160045260246000fd5b906005821015611b185752565b919082519283825260005b848110611b67575050826000602080949584010152601f8019910116010190565b80602080928401015182828601015201611b46565b906101e06101c0611c5c938051845260018060a01b03602082015116602085015260018060a01b03604082015116604085015260608101516060850152611bcb60808201516080860190611b0b565b611bdd60a082015160a0860190611b2e565b60c081015160c085015260e081015160e085015260ff6101008201511661010085015260ff610120820151166101208501526101408101511515610140850152610160810151151561016085015260018060a01b03610180820151166101808501526101a08101516101a0850152015191816101c08201520190611b3b565b90565b90600182811c92168015611c8f575b6020831014611c7957565b634e487b7160e01b600052602260045260246000fd5b91607f1691611c6e565b60009291815491611ca983611c5f565b8083529260018116908115611cff5750600114611cc557505050565b60009081526020812093945091925b838310611ce5575060209250010190565b600181602092949394548385870101520191019190611cd4565b915050602093945060ff929192191683830152151560051b010190565b6101e0810190811067ffffffffffffffff821117611d3957604052565b634e487b7160e01b600052604160045260246000fd5b90601f8019910116810190811067ffffffffffffffff821117611d3957604052565b3461072457600036600319011261072457602060405160328152f35b60405190611d9a82611d1c565b60606101c08360008152600060208201526000604082015260008382015260006080820152600060a0820152600060c0820152600060e08201526000610100820152600061012082015260006101408201526000610160820152600061018082015260006101a08201520152565b6001821015611b185752565b6005821015611b185752565b67ffffffffffffffff8111611d395760051b60200190565b8051821015611af55760209160051b010190565b908160c09103126107245760006040519160c0830183811067ffffffffffffffff8211176106af579060a0916040528051845260208101516020850152604081015160408501526060810151606085015260808101516080850152015190811515820361013b575060a082015290565b805468010000000000000000811015611d3957611ede91600182018155611add565b819291549060031b91821b91600019901b1916179055565b60ff9081169116818114611f6e5781159182611f63575b8215611f49575b8215611f2b575b5050611f2657600290565b600190565b600214915081611f3e575b503880611f1b565b600191501438611f36565b91506001821480611f5b575b91611f14565b508015611f55565b600282149250611f0d565b505060009056fea2646970667358221220b7e38e011e65c9306746522f8cbe1271568383b8246d4ecd3ebe4fe4cadf502364736f6c634300081e0033","linkReferences":{}},"methodIdentifiers":{"COMMIT_DEADLINE_BLOCKS()":"649af1ab","REVEAL_DEADLINE_BLOCKS()":"cd968939","acceptChallenge(address,uint256)":"18685569","activeMatchOf(address)":"ed6b9ff2","commitMove(address,uint256,bytes32)":"15f418ff","forfeitExpired(uint256)":"0c10fe93","getGodMatchHistory(address)":"53e376cd","getMatch(uint256)":"3d092b3d","getRecentMatches(uint256)":"be487539","godMatchIds(address,uint256)":"33184450","godMind()":"4d4f58b5","hasActiveMatch(address)":"d32fc5f9","matchCounter()":"01fd1951","matches(uint256)":"4768d4ef","owner()":"8da5cb5b","proposeChallenge(address,address,uint256,string)":"fb74beff","registry()":"7b103999","revealMove(address,uint256,uint8,bytes32)":"b46695ff","setGodMind(address)":"96719dce","setWorldState(address)":"4a790369","token()":"fc0c546a","worldState()":"bdfd55bf"},"id":21}