{"abi":[{"type":"constructor","inputs":[{"name":"_registry","type":"address","internalType":"address"},{"name":"_token","type":"address","internalType":"address"}],"stateMutability":"nonpayable"},{"type":"function","name":"COMMIT_DEADLINE_BLOCKS","inputs":[],"outputs":[{"name":"","type":"uint256","internalType":"uint256"}],"stateMutability":"view"},{"type":"function","name":"REVEAL_DEADLINE_BLOCKS","inputs":[],"outputs":[{"name":"","type":"uint256","internalType":"uint256"}],"stateMutability":"view"},{"type":"function","name":"acceptChallenge","inputs":[{"name":"opponent","type":"address","internalType":"address"},{"name":"matchId","type":"uint256","internalType":"uint256"}],"outputs":[],"stateMutability":"nonpayable"},{"type":"function","name":"activeMatchOf","inputs":[{"name":"","type":"address","internalType":"address"}],"outputs":[{"name":"","type":"uint256","internalType":"uint256"}],"stateMutability":"view"},{"type":"function","name":"commitMove","inputs":[{"name":"god","type":"address","internalType":"address"},{"name":"matchId","type":"uint256","internalType":"uint256"},{"name":"commit","type":"bytes32","internalType":"bytes32"}],"outputs":[],"stateMutability":"nonpayable"},{"type":"function","name":"forfeitExpired","inputs":[{"name":"matchId","type":"uint256","internalType":"uint256"}],"outputs":[],"stateMutability":"nonpayable"},{"type":"function","name":"getGodMatchHistory","inputs":[{"name":"god","type":"address","internalType":"address"}],"outputs":[{"name":"","type":"uint256[]","internalType":"uint256[]"}],"stateMutability":"view"},{"type":"function","name":"getMatch","inputs":[{"name":"matchId","type":"uint256","internalType":"uint256"}],"outputs":[{"name":"","type":"tuple","internalType":"struct Arena.Match","components":[{"name":"id","type":"uint256","internalType":"uint256"},{"name":"challenger","type":"address","internalType":"address"},{"name":"opponent","type":"address","internalType":"address"},{"name":"stake","type":"uint256","internalType":"uint256"},{"name":"gameType","type":"uint8","internalType":"enum Arena.GameType"},{"name":"status","type":"uint8","internalType":"enum Arena.MatchStatus"},{"name":"challengerCommit","type":"bytes32","internalType":"bytes32"},{"name":"opponentCommit","type":"bytes32","internalType":"bytes32"},{"name":"challengerMove","type":"uint8","internalType":"uint8"},{"name":"opponentMove","type":"uint8","internalType":"uint8"},{"name":"winner","type":"address","internalType":"address"},{"name":"createdBlock","type":"uint256","internalType":"uint256"},{"name":"decisionReason","type":"string","internalType":"string"}]}],"stateMutability":"view"},{"type":"function","name":"getRecentMatches","inputs":[{"name":"count","type":"uint256","internalType":"uint256"}],"outputs":[{"name":"","type":"tuple[]","internalType":"struct Arena.Match[]","components":[{"name":"id","type":"uint256","internalType":"uint256"},{"name":"challenger","type":"address","internalType":"address"},{"name":"opponent","type":"address","internalType":"address"},{"name":"stake","type":"uint256","internalType":"uint256"},{"name":"gameType","type":"uint8","internalType":"enum Arena.GameType"},{"name":"status","type":"uint8","internalType":"enum Arena.MatchStatus"},{"name":"challengerCommit","type":"bytes32","internalType":"bytes32"},{"name":"opponentCommit","type":"bytes32","internalType":"bytes32"},{"name":"challengerMove","type":"uint8","internalType":"uint8"},{"name":"opponentMove","type":"uint8","internalType":"uint8"},{"name":"winner","type":"address","internalType":"address"},{"name":"createdBlock","type":"uint256","internalType":"uint256"},{"name":"decisionReason","type":"string","internalType":"string"}]}],"stateMutability":"view"},{"type":"function","name":"godMatchIds","inputs":[{"name":"","type":"address","internalType":"address"},{"name":"","type":"uint256","internalType":"uint256"}],"outputs":[{"name":"","type":"uint256","internalType":"uint256"}],"stateMutability":"view"},{"type":"function","name":"hasActiveMatch","inputs":[{"name":"","type":"address","internalType":"address"}],"outputs":[{"name":"","type":"bool","internalType":"bool"}],"stateMutability":"view"},{"type":"function","name":"matchCounter","inputs":[],"outputs":[{"name":"","type":"uint256","internalType":"uint256"}],"stateMutability":"view"},{"type":"function","name":"matches","inputs":[{"name":"","type":"uint256","internalType":"uint256"}],"outputs":[{"name":"id","type":"uint256","internalType":"uint256"},{"name":"challenger","type":"address","internalType":"address"},{"name":"opponent","type":"address","internalType":"address"},{"name":"stake","type":"uint256","internalType":"uint256"},{"name":"gameType","type":"uint8","internalType":"enum Arena.GameType"},{"name":"status","type":"uint8","internalType":"enum Arena.MatchStatus"},{"name":"challengerCommit","type":"bytes32","internalType":"bytes32"},{"name":"opponentCommit","type":"bytes32","internalType":"bytes32"},{"name":"challengerMove","type":"uint8","internalType":"uint8"},{"name":"opponentMove","type":"uint8","internalType":"uint8"},{"name":"winner","type":"address","internalType":"address"},{"name":"createdBlock","type":"uint256","internalType":"uint256"},{"name":"decisionReason","type":"string","internalType":"string"}],"stateMutability":"view"},{"type":"function","name":"owner","inputs":[],"outputs":[{"name":"","type":"address","internalType":"address"}],"stateMutability":"view"},{"type":"function","name":"proposeChallenge","inputs":[{"name":"challenger","type":"address","internalType":"address"},{"name":"opponent","type":"address","internalType":"address"},{"name":"stake","type":"uint256","internalType":"uint256"},{"name":"decisionReason","type":"string","internalType":"string"}],"outputs":[{"name":"matchId","type":"uint256","internalType":"uint256"}],"stateMutability":"nonpayable"},{"type":"function","name":"registry","inputs":[],"outputs":[{"name":"","type":"address","internalType":"contract GodRegistry"}],"stateMutability":"view"},{"type":"function","name":"revealMove","inputs":[{"name":"god","type":"address","internalType":"address"},{"name":"matchId","type":"uint256","internalType":"uint256"},{"name":"move","type":"uint8","internalType":"uint8"},{"name":"secret","type":"bytes32","internalType":"bytes32"}],"outputs":[],"stateMutability":"nonpayable"},{"type":"function","name":"setWorldState","inputs":[{"name":"_worldState","type":"address","internalType":"address"}],"outputs":[],"stateMutability":"nonpayable"},{"type":"function","name":"token","inputs":[],"outputs":[{"name":"","type":"address","internalType":"contract PantheonToken"}],"stateMutability":"view"},{"type":"function","name":"worldState","inputs":[],"outputs":[{"name":"","type":"address","internalType":"address"}],"stateMutability":"view"},{"type":"event","name":"MatchAccepted","inputs":[{"name":"matchId","type":"uint256","indexed":true,"internalType":"uint256"},{"name":"opponent","type":"address","indexed":true,"internalType":"address"}],"anonymous":false},{"type":"event","name":"MatchCancelled","inputs":[{"name":"matchId","type":"uint256","indexed":true,"internalType":"uint256"},{"name":"reason","type":"string","indexed":false,"internalType":"string"}],"anonymous":false},{"type":"event","name":"MatchProposed","inputs":[{"name":"matchId","type":"uint256","indexed":true,"internalType":"uint256"},{"name":"challenger","type":"address","indexed":true,"internalType":"address"},{"name":"opponent","type":"address","indexed":true,"internalType":"address"},{"name":"stake","type":"uint256","indexed":false,"internalType":"uint256"}],"anonymous":false},{"type":"event","name":"MatchResolved","inputs":[{"name":"matchId","type":"uint256","indexed":true,"internalType":"uint256"},{"name":"winner","type":"address","indexed":true,"internalType":"address"},{"name":"loser","type":"address","indexed":true,"internalType":"address"},{"name":"stake","type":"uint256","indexed":false,"internalType":"uint256"},{"name":"winnerMove","type":"uint8","indexed":false,"internalType":"uint8"},{"name":"loserMove","type":"uint8","indexed":false,"internalType":"uint8"},{"name":"decisionReason","type":"string","indexed":false,"internalType":"string"}],"anonymous":false},{"type":"event","name":"MovesCommitted","inputs":[{"name":"matchId","type":"uint256","indexed":true,"internalType":"uint256"}],"anonymous":false},{"type":"error","name":"CommitMismatch","inputs":[]},{"type":"error","name":"DeadlineExpired","inputs":[]},{"type":"error","name":"GodBusy","inputs":[]},{"type":"error","name":"GodNotActive","inputs":[]},{"type":"error","name":"InsufficientBalance","inputs":[]},{"type":"error","name":"InvalidMove","inputs":[]},{"type":"error","name":"MatchNotFound","inputs":[]},{"type":"error","name":"Unauthorized","inputs":[]},{"type":"error","name":"WrongStatus","inputs":[]}],"bytecode":{"object":"0x6080604052348015600e575f5ffd5b5060405161238b38038061238b833981016040819052602b916084565b5f80546001600160a01b039384166001600160a01b031991821617909155600180549290931691811691909117909155600380549091163317905560b0565b80516001600160a01b0381168114607f575f5ffd5b919050565b5f5f604083850312156094575f5ffd5b609b83606a565b915060a760208401606a565b90509250929050565b6122ce806100bd5f395ff3fe608060405234801561000f575f5ffd5b5060043610610127575f3560e01c80637b103999116100a9578063cd9689391161006e578063cd96893914610214578063d32fc5f91461029f578063ed6b9ff2146102d1578063fb74beff146102f0578063fc0c546a14610303575f5ffd5b80637b1039991461021c5780638da5cb5b14610246578063b46695ff14610259578063bdfd55bf1461026c578063be4875391461027f575f5ffd5b80633d092b3d116100ef5780633d092b3d146101955780634768d4ef146101b55780634a790369146101e157806353e376cd146101f4578063649af1ab14610214575f5ffd5b806301fd19511461012b5780630c10fe931461014757806315f418ff1461015c578063186855691461016f5780633318445014610182575b5f5ffd5b61013460045481565b6040519081526020015b60405180910390f35b61015a610155366004611b5c565b610316565b005b61015a61016a366004611b8e565b61070e565b61015a61017d366004611bbe565b61087b565b610134610190366004611bbe565b610a75565b6101a86101a3366004611b5c565b610aa0565b60405161013e9190611d47565b6101c86101c3366004611b5c565b610c45565b60405161013e9d9c9b9a99989796959493929190611d60565b61015a6101ef366004611e03565b610d49565b610207610202366004611e03565b610d95565b60405161013e9190611e1c565b610134603281565b5f5461022e906001600160a01b031681565b6040516001600160a01b03909116815260200161013e565b60035461022e906001600160a01b031681565b61015a610267366004611e5e565b610dfe565b60025461022e906001600160a01b031681565b61029261028d366004611b5c565b6110c4565b60405161013e9190611ea6565b6102c16102ad366004611e03565b60076020525f908152604090205460ff1681565b604051901515815260200161013e565b6101346102df366004611e03565b60066020525f908152604090205481565b6101346102fe366004611f09565b61130b565b60015461022e906001600160a01b031681565b5f818152600560205260408120805490910361034557604051631632113760e31b815260040160405180910390fd5b5f600482810154610100900460ff169081111561036457610364611be6565b03610440576032816008015461037a9190611fb2565b43101561039a57604051631ab7da6b60e01b815260040160405180910390fd5b6004818101805461ff00191661010083021790555060018101546001600160a01b03165f9081526007602052604090819020805460ff191690555182907fbe9561483b1664685b575e72966584b8b66b253bd4f2e55e045e00db8fc134af906104349060208082526017908201527f4f70706f6e656e74206e65766572206163636570746564000000000000000000604082015260600190565b60405180910390a25050565b6001600482810154610100900460ff169081111561046057610460611be6565b148061048957506002600482810154610100900460ff169081111561048757610487611be6565b145b1561070a5760328082600801546104a09190611fb2565b6104aa9190611fb2565b4310156104ca57604051631ab7da6b60e01b815260040160405180910390fd5b60058101545f906104e85760028201546001600160a01b03166104f7565b60018201546001600160a01b03165b60018301549091505f906001600160a01b038084169116146105265760018301546001600160a01b0316610535565b60028301546001600160a01b03165b60078401805462010000600160b01b031916620100006001600160a01b0386160217905560048401805491925060039161ff0019166101008302179055506001838101546001600160a01b039081165f90815260076020526040808220805460ff199081169091556002880154841683529181902080549092169091559154600386015492516309aa446b60e11b8152858316600482015284831660248201526044810193909352169063135488d6906064015f604051808303815f87803b1580156105ff575f5ffd5b505af1158015610611573d5f5f3e3d5ffd5b50505f8054600387015460405163ec60b69560e01b81526001600160a01b038881166004830152878116602483015260448201859052606482019490945260848101919091529116925063ec60b695915060a4015f604051808303815f87803b15801561067c575f5ffd5b505af115801561068e573d5f5f3e3d5ffd5b5050506003840154604080519182525f602083018190529082015260806060820181905260079082015266119bdc99995a5d60ca1b60a08201526001600160a01b03808416925084169086907fb237fdf26315d0c32e1ea500f843c2c005db3cc186796515d88e75abc85a5e579060c00160405180910390a450505b5050565b82336001600160a01b03821614610737576040516282b42960e81b815260040160405180910390fd5b5f838152600560205260408120805490910361076657604051631632113760e31b815260040160405180910390fd5b6001600482810154610100900460ff169081111561078657610786611be6565b146107a457604051638e78f0cb60e01b815260040160405180910390fd5b60018101546001600160a01b038681169116148015906107d4575060028101546001600160a01b03868116911614155b156107f1576040516282b42960e81b815260040160405180910390fd5b60018101546001600160a01b0390811690861603610815576005810183905561081d565b600681018390555b6005810154158015906108335750600681015415155b156108745760048101805461ff00191661020017905560405184907fa72173e53be57962753f2192ef8bfe47076356dd2efb260d9cc51f0ca8f49fb6905f90a25b5050505050565b81336001600160a01b038216146108a4576040516282b42960e81b815260040160405180910390fd5b5f82815260056020526040812080549091036108d357604051631632113760e31b815260040160405180910390fd5b5f600482810154610100900460ff16908111156108f2576108f2611be6565b1461091057604051638e78f0cb60e01b815260040160405180910390fd5b60028101546001600160a01b0385811691161461093f576040516282b42960e81b815260040160405180910390fd5b6001600160a01b0384165f9081526007602052604090205460ff16156109785760405163a3f5c0d160e01b815260040160405180910390fd5b60038101546001546040516370a0823160e01b81526001600160a01b038781166004830152909116906370a0823190602401602060405180830381865afa1580156109c5573d5f5f3e3d5ffd5b505050506040513d601f19601f820116820180604052508101906109e99190611fc5565b1015610a0857604051631e9acf1760e31b815260040160405180910390fd5b60048101805461ff0019166101001790556001600160a01b0384165f818152600760209081526040808320805460ff1916600117905560069091528082208690555185917f3b8d451bc77cb8362426b579170661ca3515d7fa4c08b9627c660328f031100891a350505050565b6008602052815f5260405f208181548110610a8e575f80fd5b905f5260205f20015f91509150505481565b610aa8611aed565b5f8281526005602090815260409182902082516101a0810184528154815260018201546001600160a01b0390811693820193909352600282015490921692820192909252600382015460608201526004820154909190608083019060ff168015610b1457610b14611be6565b8015610b2257610b22611be6565b81526020016004820160019054906101000a900460ff166004811115610b4a57610b4a611be6565b6004811115610b5b57610b5b611be6565b81526005820154602082015260068201546040820152600782015460ff808216606084015261010082041660808301526201000090046001600160a01b031660a0820152600882015460c082015260098201805460e090920191610bbe90611fdc565b80601f0160208091040260200160405190810160405280929190818152602001828054610bea90611fdc565b8015610c355780601f10610c0c57610100808354040283529160200191610c35565b820191905f5260205f20905b815481529060010190602001808311610c1857829003601f168201915b5050505050815250509050919050565b600560208190525f91825260409091208054600182015460028301546003840154600485015495850154600686015460078701546008880154600989018054989a6001600160a01b039889169a97891699969860ff80831699610100938490048216998783169794850490921695620100009094049092169390610cc890611fdc565b80601f0160208091040260200160405190810160405280929190818152602001828054610cf490611fdc565b8015610d3f5780601f10610d1657610100808354040283529160200191610d3f565b820191905f5260205f20905b815481529060010190602001808311610d2257829003601f168201915b505050505090508d565b6003546001600160a01b03163314610d73576040516282b42960e81b815260040160405180910390fd5b600280546001600160a01b0319166001600160a01b0392909216919091179055565b6001600160a01b0381165f90815260086020908152604091829020805483518184028101840190945280845260609392830182828015610df257602002820191905f5260205f20905b815481526020019060010190808311610dde575b50505050509050919050565b83336001600160a01b03821614610e27576040516282b42960e81b815260040160405180910390fd5b5f8481526005602052604081208054909103610e5657604051631632113760e31b815260040160405180910390fd5b6002600482810154610100900460ff1690811115610e7657610e76611be6565b14610e9457604051638e78f0cb60e01b815260040160405180910390fd5b60028460ff161115610eb9576040516321e08b4d60e21b815260040160405180910390fd5b6040805160ff86166020808301919091528183018690528251808303840181526060909201909252805191012060018201546001600160a01b0390811690881603610f385780826005015414610f225760405163c684117960e01b815260040160405180910390fd5b60078201805460ff191660ff8716179055610fa7565b60028201546001600160a01b0390811690881603610f8f5780826006015414610f745760405163c684117960e01b815260040160405180910390fd5b60078201805461ff00191661010060ff881602179055610fa7565b6040516282b42960e81b815260040160405180910390fd5b600582015415801590610fbd5750600682015415155b156110bb5760078201545f9060ff161515806110045750604080515f6020820152908101869052606001604051602081830303815290604052805190602001208360050154145b60078401549091505f90610100900460ff1615158061104e5750604080515f6020820152908101879052606001604051602081830303815290604052805190602001208460060154145b60018501549091506001600160a01b038a8116911614801561107257506006840154155b156110805750505050610874565b60028401546001600160a01b038a811691161480156110a157506005840154155b156110af5750505050610874565b6110b8886117d6565b50505b50505050505050565b6004546060905f8382106110d857836110da565b815b90505f8167ffffffffffffffff8111156110f6576110f6612014565b60405190808252806020026020018201604052801561112f57816020015b61111c611aed565b8152602001906001900390816111145790505b5090505f5b828110156113025760055f6111498387612028565b815260208082019290925260409081015f2081516101a0810183528154815260018201546001600160a01b0390811694820194909452600282015490931691830191909152600381015460608301526004810154608083019060ff1680156111b3576111b3611be6565b80156111c1576111c1611be6565b81526020016004820160019054906101000a900460ff1660048111156111e9576111e9611be6565b60048111156111fa576111fa611be6565b81526005820154602082015260068201546040820152600782015460ff808216606084015261010082041660808301526201000090046001600160a01b031660a0820152600882015460c082015260098201805460e09092019161125d90611fdc565b80601f016020809104026020016040519081016040528092919081815260200182805461128990611fdc565b80156112d45780601f106112ab576101008083540402835291602001916112d4565b820191905f5260205f20905b8154815290600101906020018083116112b757829003601f168201915b5050505050815250508282815181106112ef576112ef61203b565b6020908102919091010152600101611134565b50949350505050565b5f85336001600160a01b03821614611335576040516282b42960e81b815260040160405180910390fd5b5f805460405163611fc2eb60e11b81526001600160a01b038a811660048301529091169063c23f85d69060240160c060405180830381865afa15801561137d573d5f5f3e3d5ffd5b505050506040513d601f19601f820116820180604052508101906113a1919061205e565b5f805460405163611fc2eb60e11b81526001600160a01b038b811660048301529394509192169063c23f85d69060240160c060405180830381865afa1580156113ec573d5f5f3e3d5ffd5b505050506040513d601f19601f82011682018060405250810190611410919061205e565b90508160a00151611434576040516356e8e66960e11b815260040160405180910390fd5b8060a00151611456576040516356e8e66960e11b815260040160405180910390fd5b6001600160a01b0389165f9081526007602052604090205460ff161561148f5760405163a3f5c0d160e01b815260040160405180910390fd5b6001546040516370a0823160e01b81526001600160a01b038b81166004830152899216906370a0823190602401602060405180830381865afa1580156114d7573d5f5f3e3d5ffd5b505050506040513d601f19601f820116820180604052508101906114fb9190611fc5565b101561151a57604051631e9acf1760e31b815260040160405180910390fd5b60045f8154611528906120da565b9190508190559350604051806101a001604052808581526020018a6001600160a01b03168152602001896001600160a01b031681526020018881526020015f5f81111561157757611577611be6565b81526020015f81526020015f5f1b81526020015f5f1b81526020015f60ff1681526020015f60ff1681526020015f6001600160a01b0316815260200143815260200187878080601f0160208091040260200160405190810160405280939291908181526020018383808284375f920182905250939094525050868152600560209081526040918290208451815590840151600180830180546001600160a01b039384166001600160a01b031991821617909155938601516002840180549190931694169390931790556060840151600382015560808401516004820180549294509092909160ff19169083801561167057611670611be6565b021790555060a08201518160040160016101000a81548160ff0219169083600481111561169f5761169f611be6565b021790555060c0820151600582015560e08201516006820155610100808301516007830180546101208601516101408701516001600160a01b0316620100000262010000600160b01b031960ff92831690960261ffff199093169190941617179290921617905561016082015160088201556101808201516009820190611726908261213b565b5050506001600160a01b03808a165f818152600760209081526040808320805460ff19166001908117909155600683528184208a90556008835281842080548083018255908552838520018a9055948d16808452818420805496870181558452919092209093018790555186907f20f379fd34729bd22505540c049a9f812d76b07b5f3afbc20b558cc0902c939e906117c2908c815260200190565b60405180910390a450505095945050505050565b5f818152600560205260408120600781015490919081908190819081906118089060ff80821691610100900416611a77565b90508060ff1660010361184a576001860154600287015460078801546001600160a01b0392831697509116945060ff80821694506101009091041691506118b9565b8060ff16600203611888576002860154600187015460078801546001600160a01b0392831697509116945060ff6101008204811694501691506118b9565b6001860154600287015460078801546001600160a01b0392831697509116945060ff80821694506101009091041691505b60078601805462010000600160b01b031916620100006001600160a01b038816021790556004860180546003919061ff0019166101008302179055506001868101546001600160a01b039081165f90815260076020526040808220805460ff1990811690915560028b0154841683529181902080549092169091559154600389015492516309aa446b60e11b8152888316600482015287831660248201526044810193909352169063135488d6906064015f604051808303815f87803b158015611981575f5ffd5b505af1158015611993573d5f5f3e3d5ffd5b50505f54600389015460405163ec60b69560e01b81526001600160a01b038a81166004830152898116602483015260ff808a1660448401528816606483015260848201929092529116925063ec60b695915060a4015f604051808303815f87803b1580156119ff575f5ffd5b505af1158015611a11573d5f5f3e3d5ffd5b50505050836001600160a01b0316856001600160a01b0316887fb237fdf26315d0c32e1ea500f843c2c005db3cc186796515d88e75abc85a5e57896003015487878c600901604051611a6694939291906121f6565b60405180910390a450505050505050565b5f8160ff168360ff1603611a8c57505f611ae7565b60ff8316158015611aa057508160ff166002145b80611aba57508260ff166001148015611aba575060ff8216155b80611ad657508260ff166002148015611ad657508160ff166001145b15611ae357506001611ae7565b5060025b92915050565b604080516101a0810182525f808252602082018190529181018290526060810182905290608082019081526020015f81526020015f81526020015f81526020015f60ff1681526020015f60ff1681526020015f6001600160a01b031681526020015f8152602001606081525090565b5f60208284031215611b6c575f5ffd5b5035919050565b80356001600160a01b0381168114611b89575f5ffd5b919050565b5f5f5f60608486031215611ba0575f5ffd5b611ba984611b73565b95602085013595506040909401359392505050565b5f5f60408385031215611bcf575f5ffd5b611bd883611b73565b946020939093013593505050565b634e487b7160e01b5f52602160045260245ffd5b60018110611c0a57611c0a611be6565b9052565b60058110611c0a57611c0a611be6565b5f81518084528060208401602086015e5f602082860101526020601f19601f83011685010191505092915050565b805182525f6020820151611c6b60208501826001600160a01b03169052565b506040820151611c8660408501826001600160a01b03169052565b50606082015160608401526080820151611ca36080850182611bfa565b5060a0820151611cb660a0850182611c0e565b5060c082015160c084015260e082015160e0840152610100820151611ce161010085018260ff169052565b50610120820151611cf861012085018260ff169052565b50610140820151611d156101408501826001600160a01b03169052565b506101608201516101608401526101808201516101a0610180850152611d3f6101a0850182611c1e565b949350505050565b602081525f611d596020830184611c4c565b9392505050565b8d81526001600160a01b038d811660208301528c166040820152606081018b9052611d8e608082018b611bfa565b611d9b60a082018a611c0e565b8760c08201528660e082015260ff8616610100820152611dc161012082018660ff169052565b6001600160a01b038416610140820152826101608201526101a06101808201525f611df06101a0830184611c1e565b9f9e505050505050505050505050505050565b5f60208284031215611e13575f5ffd5b611d5982611b73565b602080825282518282018190525f918401906040840190835b81811015611e53578351835260209384019390920191600101611e35565b509095945050505050565b5f5f5f5f60808587031215611e71575f5ffd5b611e7a85611b73565b935060208501359250604085013560ff81168114611e96575f5ffd5b9396929550929360600135925050565b5f602082016020835280845180835260408501915060408160051b8601019250602086015f5b82811015611efd57603f19878603018452611ee8858351611c4c565b94506020938401939190910190600101611ecc565b50929695505050505050565b5f5f5f5f5f60808688031215611f1d575f5ffd5b611f2686611b73565b9450611f3460208701611b73565b935060408601359250606086013567ffffffffffffffff811115611f56575f5ffd5b8601601f81018813611f66575f5ffd5b803567ffffffffffffffff811115611f7c575f5ffd5b886020828401011115611f8d575f5ffd5b959894975092955050506020019190565b634e487b7160e01b5f52601160045260245ffd5b80820180821115611ae757611ae7611f9e565b5f60208284031215611fd5575f5ffd5b5051919050565b600181811c90821680611ff057607f821691505b60208210810361200e57634e487b7160e01b5f52602260045260245ffd5b50919050565b634e487b7160e01b5f52604160045260245ffd5b81810381811115611ae757611ae7611f9e565b634e487b7160e01b5f52603260045260245ffd5b80518015158114611b89575f5ffd5b5f60c082840312801561206f575f5ffd5b5060405160c0810167ffffffffffffffff8111828210171561209357612093612014565b60409081528351825260208085015190830152838101519082015260608084015190820152608080840151908201526120ce60a0840161204f565b60a08201529392505050565b5f600182016120eb576120eb611f9e565b5060010190565b601f82111561213657805f5260205f20601f840160051c810160208510156121175750805b601f840160051c820191505b81811015610874575f8155600101612123565b505050565b815167ffffffffffffffff81111561215557612155612014565b612169816121638454611fdc565b846120f2565b6020601f82116001811461219b575f83156121845750848201515b5f19600385901b1c1916600184901b178455610874565b5f84815260208120601f198516915b828110156121ca57878501518255602094850194600190920191016121aa565b50848210156121e757868401515f19600387901b60f8161c191681555b50505050600190811b01905550565b84815260ff8416602082015260ff83166040820152608060608201525f5f835461221f81611fdc565b806080860152600182165f811461223d57600181146122595761228a565b60ff19831660a087015260a082151560051b870101935061228a565b865f5260205f205f5b8381101561228157815488820160a00152600190910190602001612262565b870160a0019450505b50919897505050505050505056fea26469706673582212206535821ede42b6425c55d219b2c2736d2124527394e027054b688f8ef2a3175464736f6c634300081e0033","linkReferences":{}},"methodIdentifiers":{"COMMIT_DEADLINE_BLOCKS()":"649af1ab","REVEAL_DEADLINE_BLOCKS()":"cd968939","acceptChallenge(address,uint256)":"18685569","activeMatchOf(address)":"ed6b9ff2","commitMove(address,uint256,bytes32)":"15f418ff","forfeitExpired(uint256)":"0c10fe93","getGodMatchHistory(address)":"53e376cd","getMatch(uint256)":"3d092b3d","getRecentMatches(uint256)":"be487539","godMatchIds(address,uint256)":"33184450","hasActiveMatch(address)":"d32fc5f9","matchCounter()":"01fd1951","matches(uint256)":"4768d4ef","owner()":"8da5cb5b","proposeChallenge(address,address,uint256,string)":"fb74beff","registry()":"7b103999","revealMove(address,uint256,uint8,bytes32)":"b46695ff","setWorldState(address)":"4a790369","token()":"fc0c546a","worldState()":"bdfd55bf"},"id":21}