{"abi":[{"type":"constructor","inputs":[{"name":"_registry","type":"address","internalType":"address"},{"name":"_token","type":"address","internalType":"address"}],"stateMutability":"nonpayable"},{"type":"function","name":"COMMIT_DEADLINE_BLOCKS","inputs":[],"outputs":[{"name":"","type":"uint256","internalType":"uint256"}],"stateMutability":"view"},{"type":"function","name":"REVEAL_DEADLINE_BLOCKS","inputs":[],"outputs":[{"name":"","type":"uint256","internalType":"uint256"}],"stateMutability":"view"},{"type":"function","name":"acceptChallenge","inputs":[{"name":"opponent","type":"address","internalType":"address"},{"name":"matchId","type":"uint256","internalType":"uint256"}],"outputs":[],"stateMutability":"nonpayable"},{"type":"function","name":"activeMatchOf","inputs":[{"name":"","type":"address","internalType":"address"}],"outputs":[{"name":"","type":"uint256","internalType":"uint256"}],"stateMutability":"view"},{"type":"function","name":"commitMove","inputs":[{"name":"god","type":"address","internalType":"address"},{"name":"matchId","type":"uint256","internalType":"uint256"},{"name":"commit","type":"bytes32","internalType":"bytes32"}],"outputs":[],"stateMutability":"nonpayable"},{"type":"function","name":"forfeitExpired","inputs":[{"name":"matchId","type":"uint256","internalType":"uint256"}],"outputs":[],"stateMutability":"nonpayable"},{"type":"function","name":"getGodMatchHistory","inputs":[{"name":"god","type":"address","internalType":"address"}],"outputs":[{"name":"","type":"uint256[]","internalType":"uint256[]"}],"stateMutability":"view"},{"type":"function","name":"getMatch","inputs":[{"name":"matchId","type":"uint256","internalType":"uint256"}],"outputs":[{"name":"","type":"tuple","internalType":"struct Arena.Match","components":[{"name":"id","type":"uint256","internalType":"uint256"},{"name":"challenger","type":"address","internalType":"address"},{"name":"opponent","type":"address","internalType":"address"},{"name":"stake","type":"uint256","internalType":"uint256"},{"name":"gameType","type":"uint8","internalType":"enum Arena.GameType"},{"name":"status","type":"uint8","internalType":"enum Arena.MatchStatus"},{"name":"challengerCommit","type":"bytes32","internalType":"bytes32"},{"name":"opponentCommit","type":"bytes32","internalType":"bytes32"},{"name":"challengerMove","type":"uint8","internalType":"uint8"},{"name":"opponentMove","type":"uint8","internalType":"uint8"},{"name":"winner","type":"address","internalType":"address"},{"name":"createdBlock","type":"uint256","internalType":"uint256"},{"name":"decisionReason","type":"string","internalType":"string"}]}],"stateMutability":"view"},{"type":"function","name":"getRecentMatches","inputs":[{"name":"count","type":"uint256","internalType":"uint256"}],"outputs":[{"name":"","type":"tuple[]","internalType":"struct Arena.Match[]","components":[{"name":"id","type":"uint256","internalType":"uint256"},{"name":"challenger","type":"address","internalType":"address"},{"name":"opponent","type":"address","internalType":"address"},{"name":"stake","type":"uint256","internalType":"uint256"},{"name":"gameType","type":"uint8","internalType":"enum Arena.GameType"},{"name":"status","type":"uint8","internalType":"enum Arena.MatchStatus"},{"name":"challengerCommit","type":"bytes32","internalType":"bytes32"},{"name":"opponentCommit","type":"bytes32","internalType":"bytes32"},{"name":"challengerMove","type":"uint8","internalType":"uint8"},{"name":"opponentMove","type":"uint8","internalType":"uint8"},{"name":"winner","type":"address","internalType":"address"},{"name":"createdBlock","type":"uint256","internalType":"uint256"},{"name":"decisionReason","type":"string","internalType":"string"}]}],"stateMutability":"view"},{"type":"function","name":"godMatchIds","inputs":[{"name":"","type":"address","internalType":"address"},{"name":"","type":"uint256","internalType":"uint256"}],"outputs":[{"name":"","type":"uint256","internalType":"uint256"}],"stateMutability":"view"},{"type":"function","name":"godMind","inputs":[],"outputs":[{"name":"","type":"address","internalType":"address"}],"stateMutability":"view"},{"type":"function","name":"hasActiveMatch","inputs":[{"name":"","type":"address","internalType":"address"}],"outputs":[{"name":"","type":"bool","internalType":"bool"}],"stateMutability":"view"},{"type":"function","name":"matchCounter","inputs":[],"outputs":[{"name":"","type":"uint256","internalType":"uint256"}],"stateMutability":"view"},{"type":"function","name":"matches","inputs":[{"name":"","type":"uint256","internalType":"uint256"}],"outputs":[{"name":"id","type":"uint256","internalType":"uint256"},{"name":"challenger","type":"address","internalType":"address"},{"name":"opponent","type":"address","internalType":"address"},{"name":"stake","type":"uint256","internalType":"uint256"},{"name":"gameType","type":"uint8","internalType":"enum Arena.GameType"},{"name":"status","type":"uint8","internalType":"enum Arena.MatchStatus"},{"name":"challengerCommit","type":"bytes32","internalType":"bytes32"},{"name":"opponentCommit","type":"bytes32","internalType":"bytes32"},{"name":"challengerMove","type":"uint8","internalType":"uint8"},{"name":"opponentMove","type":"uint8","internalType":"uint8"},{"name":"winner","type":"address","internalType":"address"},{"name":"createdBlock","type":"uint256","internalType":"uint256"},{"name":"decisionReason","type":"string","internalType":"string"}],"stateMutability":"view"},{"type":"function","name":"owner","inputs":[],"outputs":[{"name":"","type":"address","internalType":"address"}],"stateMutability":"view"},{"type":"function","name":"proposeChallenge","inputs":[{"name":"challenger","type":"address","internalType":"address"},{"name":"opponent","type":"address","internalType":"address"},{"name":"stake","type":"uint256","internalType":"uint256"},{"name":"decisionReason","type":"string","internalType":"string"}],"outputs":[{"name":"matchId","type":"uint256","internalType":"uint256"}],"stateMutability":"nonpayable"},{"type":"function","name":"registry","inputs":[],"outputs":[{"name":"","type":"address","internalType":"contract GodRegistry"}],"stateMutability":"view"},{"type":"function","name":"revealMove","inputs":[{"name":"god","type":"address","internalType":"address"},{"name":"matchId","type":"uint256","internalType":"uint256"},{"name":"move","type":"uint8","internalType":"uint8"},{"name":"secret","type":"bytes32","internalType":"bytes32"}],"outputs":[],"stateMutability":"nonpayable"},{"type":"function","name":"setGodMind","inputs":[{"name":"_godMind","type":"address","internalType":"address"}],"outputs":[],"stateMutability":"nonpayable"},{"type":"function","name":"setWorldState","inputs":[{"name":"_worldState","type":"address","internalType":"address"}],"outputs":[],"stateMutability":"nonpayable"},{"type":"function","name":"token","inputs":[],"outputs":[{"name":"","type":"address","internalType":"contract PantheonToken"}],"stateMutability":"view"},{"type":"function","name":"worldState","inputs":[],"outputs":[{"name":"","type":"address","internalType":"address"}],"stateMutability":"view"},{"type":"event","name":"MatchAccepted","inputs":[{"name":"matchId","type":"uint256","indexed":true,"internalType":"uint256"},{"name":"opponent","type":"address","indexed":true,"internalType":"address"}],"anonymous":false},{"type":"event","name":"MatchCancelled","inputs":[{"name":"matchId","type":"uint256","indexed":true,"internalType":"uint256"},{"name":"reason","type":"string","indexed":false,"internalType":"string"}],"anonymous":false},{"type":"event","name":"MatchProposed","inputs":[{"name":"matchId","type":"uint256","indexed":true,"internalType":"uint256"},{"name":"challenger","type":"address","indexed":true,"internalType":"address"},{"name":"opponent","type":"address","indexed":true,"internalType":"address"},{"name":"stake","type":"uint256","indexed":false,"internalType":"uint256"}],"anonymous":false},{"type":"event","name":"MatchResolved","inputs":[{"name":"matchId","type":"uint256","indexed":true,"internalType":"uint256"},{"name":"winner","type":"address","indexed":true,"internalType":"address"},{"name":"loser","type":"address","indexed":true,"internalType":"address"},{"name":"stake","type":"uint256","indexed":false,"internalType":"uint256"},{"name":"winnerMove","type":"uint8","indexed":false,"internalType":"uint8"},{"name":"loserMove","type":"uint8","indexed":false,"internalType":"uint8"},{"name":"decisionReason","type":"string","indexed":false,"internalType":"string"}],"anonymous":false},{"type":"event","name":"MovesCommitted","inputs":[{"name":"matchId","type":"uint256","indexed":true,"internalType":"uint256"}],"anonymous":false},{"type":"error","name":"CommitMismatch","inputs":[]},{"type":"error","name":"DeadlineExpired","inputs":[]},{"type":"error","name":"GodBusy","inputs":[]},{"type":"error","name":"GodNotActive","inputs":[]},{"type":"error","name":"InsufficientBalance","inputs":[]},{"type":"error","name":"InvalidMove","inputs":[]},{"type":"error","name":"MatchNotFound","inputs":[]},{"type":"error","name":"Unauthorized","inputs":[]},{"type":"error","name":"WrongStatus","inputs":[]}],"bytecode":{"object":"0x608034609457601f611ff038819003918201601f19168301916001600160401b038311848410176099578084926040948552833981010312609457604b602060458360af565b920160af565b600080546001600160a01b03199081166001600160a01b0394851617909155600180548216939092169290921790556003805490911633179055604051611f2d90816100c38239f35b600080fd5b634e487b7160e01b600052604160045260246000fd5b51906001600160a01b038216820360945756fe608080604052600436101561001357600080fd5b600090813560e01c90816301fd1951146115bb575080630c10fe931461125357806315f418ff146110d25780631868556914610ef55780633318445014610e9e5780633d092b3d14610da05780634768d4ef14610c985780634a79036914610c495780634d4f58b514610c2057806353e376cd14610b6b578063649af1ab146107f05780637b10399914610b445780638da5cb5b14610b1b57806396719dce14610abe578063b46695ff14610a2d578063bdfd55bf14610a04578063be487539146107f5578063cd968939146107f0578063d32fc5f9146107b1578063ed6b9ff214610778578063fb74beff1461013e5763fc0c546a1461011357600080fd5b3461013b578060031936011261013b576001546040516001600160a01b039091168152602090f35b80fd5b503461013b57608036600319011261013b576101586115db565b6024356001600160a01b03811690819003610774576044359167ffffffffffffffff60643511610770573660236064350112156107705767ffffffffffffffff60643560040135116107705736602460643560040135606435010111610770576001600160a01b0316338114158061075b575b80610746575b61073857835460405163611fc2eb60e11b815260048101839052906001600160a01b031660c082602481845afa90811561070b576024928792610716575b5060c0906040519384809263611fc2eb60e11b82528860048301525afa91821561070b5786926106d7575b5060a00151156106c85760a00151156106b957808452600760205260ff6040852054166106aa576001546040516370a0823160e01b81526004810183905290602090829060249082906001600160a01b03165afa801561069f5784918691610665575b5010610656576004549260001984146106425760018401600455604051946102c486611814565b6001850186528260208701528360408701528160608701528060808701528060a08701528060c08701528060e0870152806101008701528061012087015280610140870152436101608701526040519561032e6020601f19601f6064356004013501160188611847565b6064356004810135808952906024016020890137600460643581013588016020908101849052610180830198895260018881018552600582526040808620855181559285015183830180546001600160a01b03199081166001600160a01b03938416179091559186015160028501805490931691161790556060840151600383015560808401519193928401919081101561062e5760ff8019835416911617815560a0820151600581101561062e5791610160916009949361ff0082549160081b169061ff00191617905560c0810151600584015560e081015160068401556104756007840160ff80610100850151161660ff1982541617815561044b60ff61012085015116829061ff0082549160081b169061ff001916179055565b610140830151815462010000600160b01b03191660109190911b62010000600160b01b0316179055565b0151600882015501955195865167ffffffffffffffff811161061a5761049b8254611757565b601f81116105d5575b506020978890601f831160011461056e5761052a94939291849183610563575b50508160011b916000199060031b1c19161790555b8381526007875260408120600160ff1982541617905583815260068752600186016040822055838152600887526105166001870160408320611e3e565b848152600887526040600187019120611e3e565b6040519081527f20f379fd34729bd22505540c049a9f812d76b07b5f3afbc20b558cc0902c939e856001860192a4600160405191018152f35b0151905038806104c4565b8385528185209190601f198416865b8181106105be575091600193918561052a98979694106105a5575b505050811b0190556104d9565b015160001960f88460031b161c19169055388080610598565b92938c60018192878601518155019501930161057d565b82845260208420601f830160051c81019160208410610610575b601f0160051c01905b81811061060557506104a4565b8481556001016105f8565b90915081906105ef565b634e487b7160e01b83526041600452602483fd5b634e487b7160e01b85526021600452602485fd5b634e487b7160e01b85526011600452602485fd5b631e9acf1760e31b8452600484fd5b9150506020813d602011610697575b8161068160209383611847565b81010312610692578390513861029d565b600080fd5b3d9150610674565b6040513d87823e3d90fd5b63a3f5c0d160e01b8452600484fd5b6356e8e66960e11b8452600484fd5b6356e8e66960e11b8552600485fd5b60a09192506106fd9060c03d60c011610704575b6106f58183611847565b810190611dce565b919061023a565b503d6106eb565b6040513d88823e3d90fd5b60c091925061073190823d8411610704576106f58183611847565b919061020f565b6282b42960e81b8452600484fd5b506003546001600160a01b03163314156101d1565b506009546001600160a01b03163314156101cb565b8380fd5b8280fd5b503461013b57602036600319011261013b576020906040906001600160a01b036107a06115db565b168152600683522054604051908152f35b503461013b57602036600319011261013b5760209060ff906040906001600160a01b036107dc6115db565b168152600784522054166040519015158152f35b611869565b503461013b57602036600319011261013b57600480549035808210156109fc575090815b61082281611da2565b926108306040519485611847565b818452601f1961083f83611da2565b01835b8181106109dd575050825b8281106108bc575050506040519182916020830160208452825180915260408401602060408360051b870101940192905b82821061088d57505050500390f35b919360019193955060206108ac8192603f198a82030186528851611690565b960192019201859493919261087e565b808295939495038281116109c95790600191865260056020526040862060096109a3604051926108eb84611814565b80548452858060a01b0386820154166020850152858060a01b0360028201541660408501526003810154606085015261094060ff600483015461093382821660808901611917565b60081c1660a08601611923565b600581015460c0850152600681015460e0850152600781015460ff811661010086015260ff8160081c16610120860152868060a01b039060101c16610140850152600881015461016085015261099c6040518094819301611791565b0382611847565b6101808201526109b38286611dba565b526109be8185611dba565b50019392919361084d565b634e487b7160e01b86526011600452602486fd5b6020906109ec969495966118ac565b8282870101520194939294610842565b919091610819565b503461013b578060031936011261013b576002546040516001600160a01b039091168152602090f35b503461013b57608036600319011261013b57610a476115db565b60443560ff8116810361077457336001600160a01b038316141580610aa9575b80610a94575b610a865790610a8391606435916024359061192f565b80f35b6282b42960e81b8352600483fd5b506003546001600160a01b0316331415610a6d565b506009546001600160a01b0316331415610a67565b503461013b57602036600319011261013b57610ad86115db565b6003546001600160a01b03163303610b0d5760018060a01b03166bffffffffffffffffffffffff60a01b600954161760095580f35b6282b42960e81b8252600482fd5b503461013b578060031936011261013b576003546040516001600160a01b039091168152602090f35b503461013b578060031936011261013b57546040516001600160a01b039091168152602090f35b503461013b57602036600319011261013b576001600160a01b03610b8d6115db565b168152600860205260408120604051908160208254918281520190819285526020852090855b818110610c0a5750505082610bc9910383611847565b604051928392602084019060208552518091526040840192915b818110610bf1575050500390f35b8251845285945060209384019390920191600101610be3565b8254845260209093019260019283019201610bb3565b503461013b578060031936011261013b576009546040516001600160a01b039091168152602090f35b503461013b57602036600319011261013b57610c636115db565b6003546001600160a01b03163303610b0d5760018060a01b03166bffffffffffffffffffffffff60a01b600254161760025580f35b503461013b57602036600319011261013b5760409060043581526005602052208054610d9c600960018060a01b036001850154169360018060a01b0360028201541660038201546004830154610d50600585015491600686015493600787015495610d19600889015498610d12604051809c819301611791565b038a611847565b6040519b8c9b8c5260208c015260408b015260608a0152610d4060808a0160ff831661161f565b60ff60a08a019160081c16611642565b60c087015260e086015260ff818116610100870152600882901c1661012086015260101c6001600160a01b03166101408501526101608401526101a0610180840181905283019061164f565b0390f35b503461013b57602036600319011261013b576040610d9c91610dc06118ac565b5060043581526005602052206009610e8460405192610dde84611814565b8054845260018101546001600160a01b0390811660208601526002820154166040850152600381015460608501526004810154610e279060ff9061093381831660808901611917565b600581015460c0850152600681015460e0850152600781015460ff811661010086015260ff8160081c1661012086015260018060a01b039060101c16610140850152600881015461016085015261099c6040518094819301611791565b610180820152604051918291602083526020830190611690565b503461013b57604036600319011261013b57610eb86115db565b6001600160a01b031681526008602052604081208054602435929083101561013b576020610ee684846115f1565b90549060031b1c604051908152f35b503461013b57604036600319011261013b57610f0f6115db565b6001600160a01b031660243533821415806110bd575b806110a8575b610a865780835260056020526040832080541561109957600481019060ff825460081c166005811015611085576110765760028101546001600160a01b031684900361106857838552600760205260ff604086205416611059576001546040516370a0823160e01b8152600481018690529190602090839060249082906001600160a01b03165afa91821561070b578692611024575b5060030154116106565761010061ff0019825416179055818352600760205260408320600160ff1982541617905581835260066020528060408420557f3b8d451bc77cb8362426b579170661ca3515d7fa4c08b9627c660328f03110088380a380f35b9091506020813d602011611051575b8161104060209383611847565b810103126106925751906003610fc1565b3d9150611033565b63a3f5c0d160e01b8552600485fd5b6282b42960e81b8552600485fd5b638e78f0cb60e01b8552600485fd5b634e487b7160e01b86526021600452602486fd5b631632113760e31b8452600484fd5b506003546001600160a01b0316331415610f2b565b506009546001600160a01b0316331415610f25565b503461013b57606036600319011261013b576110ec6115db565b602435906001600160a01b0316604435338214158061123e575b80611229575b610738578284526005602052604084209081541561121a57600482019260ff845460081c166005811015611206576001036111f75760018301546001600160a01b0316811490811590816111df575b506111d157156111c75760058201555b6005810154151590816111b9575b50611182578280f35b805461ff0019166102001790557fa72173e53be57962753f2192ef8bfe47076356dd2efb260d9cc51f0ca8f49fb68280a238808280f35b600691500154151538611179565b600682015561116b565b6282b42960e81b8652600486fd5b60028501546001600160a01b0316141590503861115b565b638e78f0cb60e01b8652600486fd5b634e487b7160e01b87526021600452602487fd5b631632113760e31b8552600485fd5b506003546001600160a01b031633141561110c565b506009546001600160a01b0316331415611106565b503461013b57602036600319011261013b576004358082526005602052604082208054156115ac576004810160ff815460081c16600581101561062e578061134257506008820154603281018091116106425743106113335761040061ff00198254161790556001808060a01b0391015416825260076020526040822060ff1981541690557fbe9561483b1664685b575e72966584b8b66b253bd4f2e55e045e00db8fc134af606060405160208152601760208201527f4f70706f6e656e74206e657665722061636365707465640000000000000000006040820152a280f35b631ab7da6b60e01b8452600484fd5b909290600181149081156115a1575b5061135d575b50505080f35b600882015460328101908181116109c9576064018091116106425743106113335760058201541561158d5760018201546001600160a01b0316915b6001810180546001600160a01b0380861695929116858103611587575060028301546001600160a01b0316955b60078401805462010000600160b01b031916601085901b62010000600160b01b0316179055805461ff001916610300179055546001600160a01b039081168752600760208181526040808a20805460ff19908116909155600287015485168b5292909152882080549091169055600154600390930180549093889216803b15610774576040516309aa446b60e11b81526001600160a01b039485166004820152938816602485015260448401919091528290606490829084905af1801561070b57611573575b50845481549486916001600160a01b031690813b1561077457829160a48392604051948593849263ec60b69560e01b84528b600485015260018060a01b03169b8c602485015282604485015282606485015260848401525af180156115685761154f575b505060c07fb237fdf26315d0c32e1ea500f843c2c005db3cc186796515d88e75abc85a5e579154604051908152866020820152866040820152608060608201526007608082015266119bdc99995a5d60ca1b60a0820152a4388080611357565b8161155991611847565b6115645784386114ef565b8480fd5b6040513d84823e3d90fd5b8561158091969296611847565b933861148b565b956113c5565b60028201546001600160a01b031691611398565b600291501438611351565b631632113760e31b8352600483fd5b9050346115d757816003193601126115d7576020906004548152f35b5080fd5b600435906001600160a01b038216820361069257565b80548210156116095760005260206000200190600090565b634e487b7160e01b600052603260045260246000fd5b90600182101561162c5752565b634e487b7160e01b600052602160045260246000fd5b90600582101561162c5752565b919082519283825260005b84811061167b575050826000602080949584010152601f8019910116010190565b8060208092840101518282860101520161165a565b906101a0610180611754938051845260018060a01b03602082015116602085015260018060a01b036040820151166040850152606081015160608501526116df6080820151608086019061161f565b6116f160a082015160a0860190611642565b60c081015160c085015260e081015160e085015260ff6101008201511661010085015260ff6101208201511661012085015260018060a01b036101408201511661014085015261016081015161016085015201519181610180820152019061164f565b90565b90600182811c92168015611787575b602083101461177157565b634e487b7160e01b600052602260045260246000fd5b91607f1691611766565b600092918154916117a183611757565b80835292600181169081156117f757506001146117bd57505050565b60009081526020812093945091925b8383106117dd575060209250010190565b6001816020929493945483858701015201910191906117cc565b915050602093945060ff929192191683830152151560051b010190565b6101a0810190811067ffffffffffffffff82111761183157604052565b634e487b7160e01b600052604160045260246000fd5b90601f8019910116810190811067ffffffffffffffff82111761183157604052565b3461069257600036600319011261069257602060405160328152f35b805462010000600160b01b03191660109290921b62010000600160b01b0316919091179055565b604051906118b982611814565b60606101808360008152600060208201526000604082015260008382015260006080820152600060a0820152600060c0820152600060e082015260006101008201526000610120820152600061014082015260006101608201520152565b600182101561162c5752565b600582101561162c5752565b9290926000928484526005602052604084209081541561121a5760ff600483015460081c166005811015611085576002036110765760ff811660028111611d9357604051602081019082825286604082015260408152611990606082611847565b5190206001840180546001600160a01b0396871696919491168603611d415750600584015403611d3257600783019060ff198254161790555b600582015493841594851580611d25575b6119e9575b5050505050505050565b600784015460ff9181831615611cfd575b5060081c1615611ccc575b50546001600160a01b0316821480611cc0575b611cb957600201546001600160a01b0316149081611cb1575b50611cad57818152600560205260408120916007830180549260ff8085169460081c169460ff611a618787611e78565b1660018103611c54575060018101546002820154845462010000600160b01b031916601083901b62010000600160b01b03161790945594956001600160a01b0393841695909316915b60048201805461ff0019166103001790556001808301546001600160a01b039081168352600760208181526040808620805460ff19908116909155600288015485168752929091528420805490911690559054600384018054909392909116803b15610774576040516309aa446b60e11b81526001600160a01b0387811660048301528a166024820152604481019290925282908290606490829084905af18015611568578290611c44575b505060018060a01b03815416825494813b156107745760405163ec60b69560e01b81526001600160a01b0391821660048201819052999091166024820181905260ff9a8b166044830181905297909a16606482018190526084820196909652908290829081835a9260a493f1801561156857611c2f575b50507fb237fdf26315d0c32e1ea500f843c2c005db3cc186796515d88e75abc85a5e57939291611c1f915492604051948594855260208501526040840152608060608401526009608084019101611791565b0390a438808080808080806119df565b611c3a828092611847565b61013b5780611bcd565b611c4d91611847565b3881611b56565b949594600203611c87576002810154600182015495966001600160a01b0396871696909491169290611aaa908490611885565b600181015460028201546001600160a01b03908116969491169290611aaa908490611885565b5050565b905038611a31565b5050505050565b50600681015415611a18565b6006830154604080516020810189815281830194909452908152909190611cf4606082611847565b51902014611a05565b60408051602081018b8152818301879052918152611d1c606082611847565b519020146119fa565b50600684015415156119da565b63c684117960e01b8652600486fd5b60028501549092506001600160a01b03168503611d8557600684015403611d3257611d8090600784019061ff0082549160081b169061ff001916179055565b6119c9565b6282b42960e81b8752600487fd5b6321e08b4d60e21b8652600486fd5b67ffffffffffffffff81116118315760051b60200190565b80518210156116095760209160051b010190565b908160c09103126106925760006040519160c0830183811067ffffffffffffffff82111761061a579060a0916040528051845260208101516020850152604081015160408501526060810151606085015260808101516080850152015190811515820361013b575060a082015290565b80546801000000000000000081101561183157611e60916001820181556115f1565b819291549060031b91821b91600019901b1916179055565b60ff9081169116818114611ef05781159182611ee5575b8215611ecb575b8215611ead575b5050611ea857600290565b600190565b600214915081611ec0575b503880611e9d565b600191501438611eb8565b91506001821480611edd575b91611e96565b508015611ed7565b600282149250611e8f565b505060009056fea26469706673582212206798a1e4536a28160549b89cc876dbc07491b98c8e2f66371a32a133b7c6cc1964736f6c634300081e0033","linkReferences":{}},"methodIdentifiers":{"COMMIT_DEADLINE_BLOCKS()":"649af1ab","REVEAL_DEADLINE_BLOCKS()":"cd968939","acceptChallenge(address,uint256)":"18685569","activeMatchOf(address)":"ed6b9ff2","commitMove(address,uint256,bytes32)":"15f418ff","forfeitExpired(uint256)":"0c10fe93","getGodMatchHistory(address)":"53e376cd","getMatch(uint256)":"3d092b3d","getRecentMatches(uint256)":"be487539","godMatchIds(address,uint256)":"33184450","godMind()":"4d4f58b5","hasActiveMatch(address)":"d32fc5f9","matchCounter()":"01fd1951","matches(uint256)":"4768d4ef","owner()":"8da5cb5b","proposeChallenge(address,address,uint256,string)":"fb74beff","registry()":"7b103999","revealMove(address,uint256,uint8,bytes32)":"b46695ff","setGodMind(address)":"96719dce","setWorldState(address)":"4a790369","token()":"fc0c546a","worldState()":"bdfd55bf"},"id":21}