{"abi":[{"type":"constructor","inputs":[{"name":"_registry","type":"address","internalType":"address"},{"name":"_arena","type":"address","internalType":"address"},{"name":"_worldState","type":"address","internalType":"address"},{"name":"_agentPlatform","type":"address","internalType":"address"},{"name":"_llmAgentId","type":"uint256","internalType":"uint256"},{"name":"_llmProxyUrl","type":"string","internalType":"string"}],"stateMutability":"nonpayable"},{"type":"receive","stateMutability":"payable"},{"type":"function","name":"CHALLENGE_COOLDOWN_BLOCKS","inputs":[],"outputs":[{"name":"","type":"uint256","internalType":"uint256"}],"stateMutability":"view"},{"type":"function","name":"LLM_TOTAL_COST","inputs":[],"outputs":[{"name":"","type":"uint256","internalType":"uint256"}],"stateMutability":"view"},{"type":"function","name":"agentPlatform","inputs":[],"outputs":[{"name":"","type":"address","internalType":"contract IAgentRequester"}],"stateMutability":"view"},{"type":"function","name":"arena","inputs":[],"outputs":[{"name":"","type":"address","internalType":"contract Arena"}],"stateMutability":"view"},{"type":"function","name":"decisionHistory","inputs":[{"name":"","type":"address","internalType":"address"},{"name":"","type":"uint256","internalType":"uint256"}],"outputs":[{"name":"blockNumber","type":"uint256","internalType":"uint256"},{"name":"god","type":"address","internalType":"address"},{"name":"action","type":"string","internalType":"string"},{"name":"target","type":"address","internalType":"address"},{"name":"stake","type":"uint256","internalType":"uint256"},{"name":"move","type":"uint8","internalType":"uint8"},{"name":"reasoning","type":"string","internalType":"string"},{"name":"usedLLM","type":"bool","internalType":"bool"}],"stateMutability":"view"},{"type":"function","name":"decodeInt","inputs":[{"name":"data","type":"bytes","internalType":"bytes"}],"outputs":[{"name":"","type":"int256","internalType":"int256"}],"stateMutability":"pure"},{"type":"function","name":"decodeUint","inputs":[{"name":"data","type":"bytes","internalType":"bytes"}],"outputs":[{"name":"","type":"uint256","internalType":"uint256"}],"stateMutability":"pure"},{"type":"function","name":"executeDecision","inputs":[{"name":"god","type":"address","internalType":"address"}],"outputs":[],"stateMutability":"nonpayable"},{"type":"function","name":"getDecisionHistory","inputs":[{"name":"god","type":"address","internalType":"address"},{"name":"count","type":"uint256","internalType":"uint256"}],"outputs":[{"name":"","type":"tuple[]","internalType":"struct GodMind.DecisionLog[]","components":[{"name":"blockNumber","type":"uint256","internalType":"uint256"},{"name":"god","type":"address","internalType":"address"},{"name":"action","type":"string","internalType":"string"},{"name":"target","type":"address","internalType":"address"},{"name":"stake","type":"uint256","internalType":"uint256"},{"name":"move","type":"uint8","internalType":"uint8"},{"name":"reasoning","type":"string","internalType":"string"},{"name":"usedLLM","type":"bool","internalType":"bool"}]}],"stateMutability":"view"},{"type":"function","name":"getLLMStats","inputs":[],"outputs":[{"name":"total","type":"uint256","internalType":"uint256"},{"name":"llm","type":"uint256","internalType":"uint256"},{"name":"markov","type":"uint256","internalType":"uint256"}],"stateMutability":"view"},{"type":"function","name":"getLatestDecision","inputs":[{"name":"god","type":"address","internalType":"address"}],"outputs":[{"name":"","type":"tuple","internalType":"struct GodMind.DecisionLog","components":[{"name":"blockNumber","type":"uint256","internalType":"uint256"},{"name":"god","type":"address","internalType":"address"},{"name":"action","type":"string","internalType":"string"},{"name":"target","type":"address","internalType":"address"},{"name":"stake","type":"uint256","internalType":"uint256"},{"name":"move","type":"uint8","internalType":"uint8"},{"name":"reasoning","type":"string","internalType":"string"},{"name":"usedLLM","type":"bool","internalType":"bool"}]}],"stateMutability":"view"},{"type":"function","name":"handleResponse","inputs":[{"name":"requestId","type":"uint256","internalType":"uint256"},{"name":"responses","type":"tuple[]","internalType":"struct IAgentRequester.Response[]","components":[{"name":"validator","type":"address","internalType":"address"},{"name":"result","type":"bytes","internalType":"bytes"},{"name":"status","type":"uint8","internalType":"enum IAgentRequester.ResponseStatus"},{"name":"receipt","type":"uint256","internalType":"uint256"},{"name":"timestamp","type":"uint256","internalType":"uint256"},{"name":"executionCost","type":"uint256","internalType":"uint256"}]},{"name":"status","type":"uint8","internalType":"enum IAgentRequester.ResponseStatus"},{"name":"","type":"tuple","internalType":"struct IAgentRequester.Request","components":[{"name":"id","type":"uint256","internalType":"uint256"},{"name":"requester","type":"address","internalType":"address"},{"name":"callbackAddress","type":"address","internalType":"address"},{"name":"callbackSelector","type":"bytes4","internalType":"bytes4"},{"name":"subcommittee","type":"address[]","internalType":"address[]"},{"name":"responses","type":"tuple[]","internalType":"struct IAgentRequester.Response[]","components":[{"name":"validator","type":"address","internalType":"address"},{"name":"result","type":"bytes","internalType":"bytes"},{"name":"status","type":"uint8","internalType":"enum IAgentRequester.ResponseStatus"},{"name":"receipt","type":"uint256","internalType":"uint256"},{"name":"timestamp","type":"uint256","internalType":"uint256"},{"name":"executionCost","type":"uint256","internalType":"uint256"}]},{"name":"responseCount","type":"uint256","internalType":"uint256"},{"name":"failureCount","type":"uint256","internalType":"uint256"},{"name":"threshold","type":"uint256","internalType":"uint256"},{"name":"createdAt","type":"uint256","internalType":"uint256"},{"name":"deadline","type":"uint256","internalType":"uint256"},{"name":"status","type":"uint8","internalType":"enum IAgentRequester.ResponseStatus"},{"name":"consensusType","type":"uint8","internalType":"enum IAgentRequester.ConsensusType"},{"name":"remainingBudget","type":"uint256","internalType":"uint256"},{"name":"perAgentBudget","type":"uint256","internalType":"uint256"}]}],"outputs":[],"stateMutability":"nonpayable"},{"type":"function","name":"lastChallengeBlock","inputs":[{"name":"","type":"address","internalType":"address"}],"outputs":[{"name":"","type":"uint256","internalType":"uint256"}],"stateMutability":"view"},{"type":"function","name":"llmAgentId","inputs":[],"outputs":[{"name":"","type":"uint256","internalType":"uint256"}],"stateMutability":"view"},{"type":"function","name":"llmDecisions","inputs":[],"outputs":[{"name":"","type":"uint256","internalType":"uint256"}],"stateMutability":"view"},{"type":"function","name":"llmProxyUrl","inputs":[],"outputs":[{"name":"","type":"string","internalType":"string"}],"stateMutability":"view"},{"type":"function","name":"owner","inputs":[],"outputs":[{"name":"","type":"address","internalType":"address"}],"stateMutability":"view"},{"type":"function","name":"pendingRequests","inputs":[{"name":"","type":"uint256","internalType":"uint256"}],"outputs":[{"name":"god","type":"address","internalType":"address"},{"name":"target","type":"address","internalType":"address"},{"name":"stake","type":"uint256","internalType":"uint256"},{"name":"matchId","type":"uint256","internalType":"uint256"},{"name":"markovFallback","type":"uint8","internalType":"uint8"}],"stateMutability":"view"},{"type":"function","name":"registry","inputs":[],"outputs":[{"name":"","type":"address","internalType":"contract GodRegistry"}],"stateMutability":"view"},{"type":"function","name":"setAgentConfig","inputs":[{"name":"_platform","type":"address","internalType":"address"},{"name":"_agentId","type":"uint256","internalType":"uint256"},{"name":"_proxyUrl","type":"string","internalType":"string"}],"outputs":[],"stateMutability":"nonpayable"},{"type":"function","name":"totalDecisions","inputs":[],"outputs":[{"name":"","type":"uint256","internalType":"uint256"}],"stateMutability":"view"},{"type":"function","name":"worldState","inputs":[],"outputs":[{"name":"","type":"address","internalType":"contract WorldState"}],"stateMutability":"view"},{"type":"event","name":"DecisionMade","inputs":[{"name":"god","type":"address","indexed":true,"internalType":"address"},{"name":"action","type":"string","indexed":false,"internalType":"string"},{"name":"target","type":"address","indexed":true,"internalType":"address"},{"name":"reasoning","type":"string","indexed":false,"internalType":"string"},{"name":"usedLLM","type":"bool","indexed":false,"internalType":"bool"}],"anonymous":false},{"type":"event","name":"LLMDecisionReceived","inputs":[{"name":"god","type":"address","indexed":true,"internalType":"address"},{"name":"requestId","type":"uint256","indexed":false,"internalType":"uint256"},{"name":"result","type":"string","indexed":false,"internalType":"string"},{"name":"success","type":"bool","indexed":false,"internalType":"bool"}],"anonymous":false},{"type":"event","name":"LLMDecisionRequested","inputs":[{"name":"god","type":"address","indexed":true,"internalType":"address"},{"name":"requestId","type":"uint256","indexed":false,"internalType":"uint256"},{"name":"prompt","type":"string","indexed":false,"internalType":"string"}],"anonymous":false},{"type":"event","name":"MarkovFallback","inputs":[{"name":"god","type":"address","indexed":true,"internalType":"address"},{"name":"reason","type":"string","indexed":false,"internalType":"string"}],"anonymous":false},{"type":"error","name":"Unauthorized","inputs":[]}],"bytecode":{"object":"0x6080604052346102bc57613c6680380380610019816102c1565b92833981019060c0818303126102bc57610032816102e6565b61003e602083016102e6565b61004a604084016102e6565b90610057606085016102e6565b608085015160a086015190959194916001600160401b0382116102bc570186601f820112156102bc578051906001600160401b038211610291576100a4601f8301601f19166020016102c1565b97828952602083830101116102bc5760005b8281106102a75750506000908701602001819052600380546001600160a01b03199081166001600160a01b039485161790915560048054821694841694909417909355600580548416948316949094179093558254909116921691909117905560015580516001600160401b03811161029157600254600181811c91168015610287575b602082101461027157601f811161020c575b50602091601f82116001146101a85791819260009261019d575b50508160011b916000199060031b1c1916176002555b600680546001600160a01b0319163317905560405161396b90816102fb8239f35b015190503880610166565b601f198216926002600052806000209160005b8581106101f4575083600195106101db575b505050811b0160025561017c565b015160001960f88460031b161c191690553880806101cd565b919260206001819286850151815501940192016101bb565b60026000527f405787fa12a823e0f2b7631cc41b3ba8828b3321ca811111fa75cd3aa3bb5ace601f830160051c81019160208410610267575b601f0160051c01905b81811061025b575061014c565b6000815560010161024e565b9091508190610245565b634e487b7160e01b600052602260045260246000fd5b90607f169061013a565b634e487b7160e01b600052604160045260246000fd5b80602080928401015182828c010152016100b6565b600080fd5b6040519190601f01601f191682016001600160401b0381118382101761029157604052565b51906001600160a01b03821682036102bc5756fe608080604052600436101561001d575b50361561001b57600080fd5b005b60003560e01c9081627d9d7f14610ae7575080630c96a61a14610ac957806317559bb5146109e4578063272943f3146109c25780632a76736d146109a6578063387e0801146107c75780633c652a9a1461075e57806351fbe9f414610735578063582b56561461048c57806362b2c156146106905780636f5df03b146104dc5780636ff247011461048c5780637b1039991461046357806389aeffc8146103015780638da5cb5b146102d8578063960bd85a146102ba578063bba9f3ae14610299578063bdfd55bf14610270578063c6c2041f14610252578063e977e8091461021c578063f691947a146101495763fd3705f91461011b573861000f565b34610144576000366003190112610144576004546040516001600160a01b039091168152602090f35b600080fd5b3461014457600036600319011261014457604051600060025461016b81610b79565b80845290600181169081156101f857506001146101ab575b6101a78361019381850382610c37565b604051918291602083526020830190610d1f565b0390f35b600260009081526000805160206138f6833981519152939250905b8082106101de57509091508101602001610193610183565b9192600181602092548385880101520191019092916101c6565b60ff191660208086019190915291151560051b840190910191506101939050610183565b34610144576000366003190112610144576060600954600a5461023f8183611466565b9060405192835260208301526040820152f35b34610144576000366003190112610144576020600154604051908152f35b34610144576000366003190112610144576005546040516001600160a01b039091168152602090f35b346101445760203660031901126101445761001b6102b5610b1d565b6115a9565b34610144576000366003190112610144576020600a54604051908152f35b34610144576000366003190112610144576006546040516001600160a01b039091168152602090f35b346101445760403660031901126101445761031a610b1d565b6001600160a01b031660009081526007602052604090208054906024358083101561045d575081905b61034c82610d44565b9261035a6040519485610c37565b828452601f1961036984610d44565b0160005b818110610446575050600019810190811160005b8481106103f057856040518091602082016020835281518091526040830190602060408260051b8601019301916000905b8282106103c157505050500390f35b919360019193955060206103e08192603f198a82030186528851610eb3565b96019201920185949391926103b2565b81610430578061041461040e61040860019487611466565b87610b47565b50611473565b61041e8289610f51565b526104298188610f51565b5001610381565b634e487b7160e01b600052601160045260246000fd5b602090610451611427565b8282890101520161036d565b90610343565b34610144576000366003190112610144576003546040516001600160a01b039091168152602090f35b34610144576020366003190112610144576004356001600160401b038111610144576104bc903690600401610d76565b602081519181808201938492010103126101445760209051604051908152f35b34610144576060366003190112610144576104f5610b1d565b604435906001600160401b0382116101445736602383011215610144578160040135906001600160401b038211610144573660248385010111610144576006546001600160a01b031633036106805760018060a01b03166001600160601b0360a01b6000541617600055602435600155600090610573600254610b79565b601f811161062f575b5081601f82116001146105c057819083946105ac94926105b2575b50508160011b916000199060031b1c19161790565b60025580f35b602492500101358480610597565b601f198216936000805160206138f683398151915291845b86811061061457508360019596106105f7575b505050811b0160025580f35b0160240135600019600384901b60f8161c191690558380806105eb565b909260206001819260248787010135815501940191016105d8565b600283526000805160206138f6833981519152601f830160051c81019160208410610676575b601f0160051c01905b81811061066b575061057c565b83815560010161065e565b9091508190610655565b6282b42960e81b60005260046000fd5b34610144576020366003190112610144576106a9610b1d565b6106b1611427565b506001600160a01b03166000908152600760205260409020805480156107015760001981019081116104305761040e6106ed916101a793610b47565b604051918291602083526020830190610eb3565b60405162461bcd60e51b815260206004820152600c60248201526b4e6f206465636973696f6e7360a01b6044820152606490fd5b34610144576000366003190112610144576000546040516001600160a01b039091168152602090f35b3461014457602036600319011261014457600435600052600860205260a06040600020600180831b0381541690600180841b0360018201541690600281015460ff6004600384015493015416926040519485526020850152604084015260608301526080820152f35b34610144576080366003190112610144576024356001600160401b038111610144576107f7903690600401610dbd565b604435600581101561014457606435916001600160401b038311610144576101e060031984360301126101445760405161083081610bb3565b8360040135815261084360248501610b33565b602082015261085460448501610b33565b604082015260648401356001600160e01b03198116810361014457606082015260848401356001600160401b03811161014457840136602382011215610144576004810135906108a382610d44565b916108b16040519384610c37565b808352602060048185019260051b840101019136831161014457602401905b82821061098e57505050608082015260a48401356001600160401b038111610144576109029060043691870101610dbd565b60a082015260c484013560c082015260e484013560e0820152610104840135610100820152610124840135610120820152610144840135610140820152610164840135600581101561014457610160820152610184840135936003851015610144576101c46101c09161001b966101808501526101a48101356101a08501520135910152600435610f74565b6020809161099b84610b33565b8152019101906108d0565b34610144576000366003190112610144576020604051600a8152f35b34610144576000366003190112610144576020604051666a94d74f4300008152f35b34610144576040366003190112610144576109fd610b1d565b6001600160a01b0316600090815260076020526040902080546024359081101561014457610a2a91610b47565b50805460018201546001600160a01b031691610abd610a4b60028301610c58565b9160018060a01b0360038201541690600481015460ff60058301541690610aa060ff6007610a7b60068701610c58565b9501541696604051998a998a5260208a015261010060408a0152610100890190610d1f565b936060880152608087015260a086015284820360c0860152610d1f565b90151560e08301520390f35b34610144576000366003190112610144576020600954604051908152f35b34610144576020366003190112610144576020906001600160a01b03610b0b610b1d565b16600052600b82526040600020548152f35b600435906001600160a01b038216820361014457565b35906001600160a01b038216820361014457565b8054821015610b635760005260206000209060031b0190600090565b634e487b7160e01b600052603260045260246000fd5b90600182811c92168015610ba9575b6020831014610b9357565b634e487b7160e01b600052602260045260246000fd5b91607f1691610b88565b6101e081019081106001600160401b03821117610bcf57604052565b634e487b7160e01b600052604160045260246000fd5b60c081019081106001600160401b03821117610bcf57604052565b60a081019081106001600160401b03821117610bcf57604052565b61010081019081106001600160401b03821117610bcf57604052565b90601f801991011681019081106001600160401b03821117610bcf57604052565b9060405191826000825492610c6c84610b79565b8084529360018116908115610cda5750600114610c93575b50610c9192500383610c37565b565b90506000929192526020600020906000915b818310610cbe575050906020610c919282010138610c84565b6020919350806001915483858901015201910190918492610ca5565b905060209250610c9194915060ff191682840152151560051b82010138610c84565b60005b838110610d0f5750506000910152565b8181015183820152602001610cff565b90602091610d3881518092818552858086019101610cfc565b601f01601f1916010190565b6001600160401b038111610bcf5760051b60200190565b6001600160401b038111610bcf57601f01601f191660200190565b81601f8201121561014457803590610d8d82610d5b565b92610d9b6040519485610c37565b8284526020838301011161014457816000926020809301838601378301015290565b9080601f8301121561014457813591610dd583610d44565b92610de36040519485610c37565b80845260208085019160051b830101918383116101445760208101915b838310610e0f57505050505090565b82356001600160401b03811161014457820160c0818703601f1901126101445760405191610e3c83610be5565b610e4860208301610b33565b835260408201356001600160401b03811161014457876020610e6c92850101610d76565b602084015260608201359260058410156101445760c060209493859460408401526080810135606084015260a08101356080840152013560a0820152815201920191610e00565b908151815260018060a01b03602083015116602082015260e080610f26610eeb60408601516101006040870152610100860190610d1f565b60018060a01b0360608701511660608601526080860151608086015260ff60a08701511660a086015260c086015185820360c0870152610d1f565b930151151591015290565b60051115610f3b57565b634e487b7160e01b600052602160045260246000fd5b8051821015610b635760209160051b010190565b60001981146104305760010190565b6000805490939192906001600160a01b031633036113f25782845260086020526040842092604051610fa581610c00565b84546001600160a01b0390811680835260018701549091166020830190815260028701546040840190815260038801546060850190815260049098015460ff1660808501908152909892156113e75760ff9085845260086020528360046040822082815582600182015582600282015582600382015501555116918093604096600288516110338a82610c37565b601c81527f4c4c4d206661696c65642e204d61726b6f762066616c6c6261636b2e0000000060208201529961106781610f31565b14806113dd575b61128e575b5060018060a01b038151168751968752606060208801527fafe6a0c9bb27bc0196375000f9964f8c81b665db615c5db29a6332b0826db0c66110b8606089018b610d1f565b9780881515998a8c8301520390a28851156112665751975191519851865160608a901b6bffffffffffffffffffffffff191660208201908152603482018590524360548084019190915282526001600160a01b039b8c169b909a169991939190611123607482610c37565b519020908751602081019060ff87168252838a820152898152611147606082610c37565b519020918a8452600c60205288842082855260205288842055898352600d60205287832081845260205287832060ff861660ff1982541617905560018060a01b0360045416803b15611262579060648b8580948c5196879586946315f418ff60e01b86526004860152602485015260448401525af18015611258579361120f9361123f9896938a9896936000805160206139168339815191529b94611248575b50508b87516111f68982610c37565b600681526510d3d353525560d21b60208201528c6130e5565b815193849360608552600660608601526510d3d353525560d21b608086015260a0602086015260a0850190610d1f565b918301520390a3565b8161125291610c37565b386111e7565b87513d84823e3d90fd5b8380fd5b5191519851610c9199979850966001600160a01b0390811696509091169350611ec392505050565b8051156113c957602080806112c19301510151895180938192636ff2470160e01b83528460048401526024830190610d1f565b0381305afa839181611395575b5015611073576002811161107357600a549198506001955060ff1693506112f490610f65565b600a5561130083611e05565b61138e600561130e88611e05565b9260438a519485927f536f6d6e6961204a534f4e204150492b4c4c4d2028687962726964292e204d6f6020850152623b329d60e91b8d85015261135a8151809260208688019101610cfc565b830164205265712360d81b8382015261137d825180936020604885019101610cfc565b01010301601f198101835282610c37565b9638611073565b9091506020813d6020116113c1575b816113b160209383610c37565b81010312611262575190386112ce565b3d91506113a4565b634e487b7160e01b83526032600452602483fd5b508051151561106e565b505050505050505050565b60405162461bcd60e51b815260206004820152600d60248201526c4f6e6c7920706c6174666f726d60981b6044820152606490fd5b6040519061143482610c1b565b600060e083828152826020820152606060408201528260608201528260808201528260a0820152606060c08201520152565b9190820391821161043057565b9060405161148081610c1b565b60e060ff600783958054855260018060a01b0360018201541660208601526114aa60028201610c58565b604086015260038101546001600160a01b03166060860152600481015460808601526005810154831660a08601526114e460068201610c58565b60c08601520154161515910152565b601f821161150057505050565b6000526020600020906020601f840160051c8301931061153b575b601f0160051c01905b81811061152f575050565b60008155600101611524565b909150819061151b565b5190811515820361014457565b908160c0910312610144576115a160a06040519261156f84610be5565b805184526020810151602085015260408101516040850152606081015160608501526080810151608085015201611545565b60a082015290565b6006546001600160a01b031633036106805760035460405163611fc2eb60e11b81526001600160a01b0383811660048301819052939260c09183916024918391165afa8015611b185760a091600091611dd5575b50015115611c02576004805460405163d32fc5f960e01b8152918201849052602090829060249082906001600160a01b03165afa908115611b1857600091611d9b575b5015611d9157600480546040516376b5cff960e11b81529182018490526001600160a01b0316602082602481845afa918215611b1857600092611d5c575b50600060249160405192838092633d092b3d60e01b82528660048301525afa908115611b1857600091611c0f575b5060a08101600181516116be81610f31565b6116c781610f31565b03611be1575060208101516001600160a01b0316848103611bdb575060408101516001600160a01b0316905b6003546040516305a886f760e51b81526004810187905290600090829060249082906001600160a01b03165afa8015611b185761174991600091611bb8575b5060ff60c08160a08401511692015116908461368b565b90666a94d74f43000047101580611bad575b15611b24576060015160035460405163611fc2eb60e11b81526001600160a01b0385811660048301819052939693919260c09184916024918391165afa918215611b1857600092611ae3575b5061191c906118b860046117ba8a61354c565b816117c48a61354c565b9660076117d08a611e05565b9160056117ea60206117e28451611e05565b930151611e05565b93816040519c8d986117fe60208b01613358565b643f676f643d60d81b815261181c8251809360208785019101610cfc565b0164266f70703d60d81b8382015261183e825180936020600a85019101610cfc565b010166266d617463683d60c81b83820152611863825180936020600c85019101610cfc565b010163266f773d60e01b83820152611885825180936020600b85019101610cfc565b010163266f6c3d60e01b838201526118a7825180936020600885019101610cfc565b01010301601f198101855284610c37565b6020604051631dde098160e11b828201526118e8816118da87602483016133cf565b03601f198101835282610c37565b60018060a01b0360005416600154666a94d74f4300006040518097819582946345de5df160e11b8452309060048501613407565b03925af160009281611aac575b506119d757505050610c91957fa32de85fd6e8f7ab05fbd0b95094ef7073e6e99582697fcc8c6d634f5f522f9d604051806119968160609060208152601a60208201527f4a534f4e20415049206167656e7420756e617661696c61626c6500000000000060408201520190565b0390a2604051946119a8604087610c37565b601a86527f4d61726b6f7620286167656e7420756e617661696c61626c65290000000000006020870152612294565b937fafb0da1f0b8293fdd616ebb292d276ec08b01c70ea482a8aa804935b1e2862c4975060ff93849296506004939760405196611a1388610c00565b8b885260208089019182526040808a0193845260608a0194855294861660808a0190815260008b8152600890925290859020985189546001600160a01b03199081166001600160a01b03928316178b55925160018b01805490941691161790915590516002880155905160038701555192909401805460ff1916929091169290921617905551918291611aa791908361343c565b0390a2565b90926020823d602011611adb575b81611ac760209383610c37565b81010312611ad85750519138611929565b80fd5b3d9150611aba565b61191c919250611b0a9060c03d60c011611b11575b611b028183610c37565b810190611552565b91906117a7565b503d611af8565b6040513d6000823e3d90fd5b606090610c91967fa32de85fd6e8f7ab05fbd0b95094ef7073e6e99582697fcc8c6d634f5f522f9d83604051602081526014602082015273496e73756666696369656e742062616c616e636560601b6040820152a201519260405194611b8b604087610c37565b601086526f26b0b935b7bb10383932b234b1ba37b960811b6020870152612294565b50600154151561175b565b611bd591503d806000833e611bcd8183610c37565b810190612490565b38611732565b906116f3565b905060029192935051611bf381610f31565b611bfc81610f31565b14611c06575b5050565b610c9191613453565b3d8083833e611c1e8183610c37565b810190602081830312611d58578051906001600160401b0382116112625701916101e083830312611ad85760405192611c5684610bb3565b80518452611c66602082016130d1565b6020850152611c77604082016130d1565b60408501526060810151606085015260808101516001811015611d5857608085015260a08101516005811015611d585760a085015260c081015160c085015260e081015160e0850152611ccd6101008201612482565b610100850152611ce06101208201612482565b610120850152611cf36101408201611545565b610140850152611d066101608201611545565b610160850152611d1961018082016130d1565b6101808501526101a08101516101a08501526101c0810151916001600160401b038311611ad85750611d4c92910161243d565b6101c0820152386116ac565b8280fd5b90916020823d602011611d89575b81611d7760209383610c37565b81010312611ad857505190600061167e565b3d9150611d6a565b610c919150612593565b90506020813d602011611dcd575b81611db660209383610c37565b8101031261014457611dc790611545565b38611640565b3d9150611da9565b611dee915060c03d60c011611b1157611b028183610c37565b386115fd565b908151811015610b63570160200190565b8015611ea35780816000925b611e8f5750611e1f82610d5b565b91611e2d6040519384610c37565b80835281601f19611e3d83610d5b565b013660208601375b611e4e57505090565b8015610430576000190190600a8106603001908160301161043057600a9160f81b6001600160f81b03191660001a611e868486611df4565b53049081611e45565b91611e9b600a91610f65565b920480611e11565b50604051611eb2604082610c37565b60018152600360fc1b602082015290565b6004805460405163fb74beff60e01b81526001600160a01b039384169281018390529383166024850181905260448501869052608060648601529591949193919260209183911681600081611f1b608482018a610d1f565b03925af18015611b1857612265575b506040908151611f3a8382610c37565b60098152684348414c4c454e474560b81b60208201528460005260076020528260002091835191611f6a83610c1b565b4383526020830191878352858401918252606084018981526080850191825260a08501926000845260c086019489865260e0870197600089528054600160401b811015610bcf57611fc091600182018155610b47565b97909761224f57518755516001870180546001600160a01b0319166001600160a01b039290921691909117905551805160028701916001600160401b038211610bcf57612017826120118554610b79565b856114f3565b602090601f83116001146121e257918061204e9260ff98979695946000926121575750508160011b916000199060031b1c19161790565b90555b516003860180546001600160a01b0319166001600160a01b03929092169190911790555160048501555160058401805460ff191660ff939092169290921617905551805160068301916001600160401b038211610bcf576120b6826120118554610b79565b602090601f831160011461216257926121008360079461123f9997946000805160206139168339815191529b99976000926121575750508160011b916000199060031b1c19161790565b90555b019051151560ff8019835416911617905561211f600954610f65565b600955600081519384936060855260096060860152684348414c4c454e474560b81b608086015260a0602086015260a0850190610d1f565b015190503880610597565b90601f1983169184600052816000209260005b8181106121ca57509361123f9896936000805160206139168339815191529a98969360019383600798106121b1575b505050811b019055612103565b015160001960f88460031b161c191690553880806121a4565b92936020600181928786015181550195019301612175565b90601f1983169184600052816000209260005b818110612237575091600193918560ff9a99989796941061221e575b505050811b019055612051565b015160001960f88460031b161c19169055388080612211565b929360206001819287860151815501950193016121f5565b634e487b7160e01b600052600060045260246000fd5b6020813d60201161228c575b8161227e60209383610c37565b810103126101445751611f2a565b3d9150612271565b949291939093600091604051956020870160018060a01b038916976001600160601b03198a60601b168252826034820152436054820152605481526122da607482610c37565b51902090604051602081019060ff8616825283604082015260408152612301606082610c37565b51902091888652600c602052604086208287526020526040862055878552600d602052604085208186526020526040852060ff851660ff1982541617905560018060a01b0360045416803b15612439579060648987809460405196879586946315f418ff60e01b86526004860152602485015260448401525af1801561242e579286949260008051602061391683398151915297926124019795612414575b509183916123d193866040809d6123b982519283610c37565b600682526510d3d353525560d21b60208301526130e5565b865193849360608552600660608601526510d3d353525560d21b608086015260a0602086015260a0850190610d1f565b968301526001600160a01b0316940390a3565b93612425816123d195939496610c37565b939190926123a0565b6040513d86823e3d90fd5b8580fd5b81601f8201121561014457805161245381610d5b565b926124616040519485610c37565b818452602082840101116101445761247f9160208085019101610cfc565b90565b519060ff8216820361014457565b602081830312610144578051906001600160401b03821161014457016101008183031261014457604051916124c483610c1b565b81516001600160401b03811161014457816124e091840161243d565b835260208201516001600160401b038111610144578161250191840161243d565b602084015260408201516001600160401b038111610144578161252591840161243d565b604084015261253660608301612482565b606084015261254760808301612482565b608084015261255860a08301612482565b60a084015261256960c08301612482565b60c084015260e08201516001600160401b0381116101445761258b920161243d565b60e082015290565b60018060a01b0381169081600052600b602052604060002054600a8101809111610430574310611c02576003546040516305a886f760e51b8152600481018490529290600090849060249082906001600160a01b03165afa928315611b18576000936130b6575b506005546040516330ec9f2d60e01b81526004810183905290602090829060249082906001600160a01b03165afa908115611b1857600091613084575b50606460095460405160208101914383526001600160601b03198760601b16604083015260548201526054815261266f607482610c37565b519020061015612da557600354604051630fad954160e31b81526001600160a01b0390911690602081600481855afa908115611b1857600091612d73575b50906000916000809260608801935b838110612afa575050506001600160a01b038316959150508415612af35760ff608082015116681b1ae4d6e2ef5000000268ffffffffffffffffff811690810361043057606468ffffffffffffffffff91041692670de0b6b3a76400008410612ae3575b80600052600b60205243604060002055666a94d74f43000047101580612ad8575b15612ab25760035460405163611fc2eb60e11b8152600481018890529060c090829060249082906001600160a01b03165afa908115611b1857600091612a93575b5061285760046127918861354c565b600c61279c8861354c565b9460056127ae60206117e28451611e05565b91816040519889966127c260208901613358565b643f676f643d60d81b81526127e08251809360208785019101610cfc565b0164266f70703d60d81b83820152612802825180936020600a85019101610cfc565b0101670266d617463683d360c41b8382015263266f773d60e01b600d820152612835825180936020601185019101610cfc565b010163266f6c3d60e01b8382015261137d825180936020601085019101610cfc565b6128b06020604051631dde098160e11b8282015261287c816118da86602483016133cf565b60018060a01b0360005416600154666a94d74f4300006040518096819582946345de5df160e11b8452309060048501613407565b03925af160009181612a5f575b50612989575050610c9195507fa32de85fd6e8f7ab05fbd0b95094ef7073e6e99582697fcc8c6d634f5f522f9d6040518061292a8160609060208152601a60208201527f4a534f4e20415049206167656e7420756e617661696c61626c6500000000000060408201520190565b0390a25192612984601760206040518761294d8299518092858086019101610cfc565b81017f206368616c6c656e67657320766961204d61726b6f762e000000000000000000838201520301600819810187520185610c37565b611ec3565b935093917fafb0da1f0b8293fdd616ebb292d276ec08b01c70ea482a8aa804935b1e2862c4955060ff8092978160c060049401511690604051956129cc87610c00565b8a875260208088019283526040808901928352600060608a0181815260808b019687528b82526008909352819020985189546001600160a01b03199081166001600160a01b03928316178b55945160018b01805490961691161790935590516002880155516003870155905192909401805460ff1916919092169290921691909117905551918291611aa791908361343c565b90916020823d602011612a8b575b81612a7a60209383610c37565b81010312611ad857505190386128bd565b3d9150612a6d565b612aac915060c03d60c011611b1157611b028183610c37565b38612782565b50610c9194505192612984601760206040518761294d8299518092858086019101610cfc565b506001541515612741565b670de0b6b3a76400009350612720565b5050505050565b604051631bd8667360e31b815260048101829052602081602481865afa908115611b1857600091612d3a575b506001600160a01b0381168881148015612cbf575b612cb55760405163352c285160e11b8152896004820152816024820152602081604481885afa908115611b1857600091612c77575b50906032916004811015610f3b5760038103612c475750906028810180911161043057905b604660ff89511611612bc4575b50848111612bb7575b50506001905b016126bc565b9096509250600138612bab565b6040519063611fc2eb60e11b8252600482015260c081602481885afa8015611b1857606091600091612c29575b50015160006103e8821015612c2257506103e8036103e8811161043057601490045b81018091116104305738612ba2565b9050612c13565b612c41915060c03d8111611b1157611b028183610c37565b38612bf1565b600060028203612c6557505090601481018091116104305790612b95565b5060001901612b955760059150612b95565b6020813d8211612cad575b81612c8f60209383610c37565b81010312612ca95751906004821015611ad8575038612b70565b5080fd5b3d9150612c82565b5050600190612bb1565b506004805460405163d32fc5f960e01b8152918201839052602090829060249082906001600160a01b03165afa908115611b1857600091612d01575b50612b3b565b906020823d8211612d32575b81612d1a60209383610c37565b81010312611ad85750612d2c90611545565b38612cfb565b3d9150612d0d565b906020823d8211612d6b575b81612d5360209383610c37565b81010312611ad85750612d65906130d1565b38612b26565b3d9150612d46565b90506020813d602011612d9d575b81612d8e60209383610c37565b810103126101445751386126ad565b3d9150612d81565b92915050604091825192612db98185610c37565b600484526349444c4560e01b60208501528051612dd68282610c37565b600881526721b7b7b63237bbb760c11b60208201528260005260076020528160002092825192612e0584610c1b565b438452602084019182528301958652606083016000815260808401906000825260a08501926000845260c0860194855260e0860196600088528054600160401b811015610bcf57612e5b91600182018155610b47565b96909661224f57518655516001860180546001600160a01b0319166001600160a01b03929092169190911790559651805190979060028601906001600160401b038111610bcf57612eb681612eb08454610b79565b846114f3565b6020601f8211600114613018579080612eec9260ff98999a9b9c6000926121575750508160011b916000199060031b1c19161790565b90555b516003860180546001600160a01b0319166001600160a01b03929092169190911790555160048501555160058401805460ff191660ff939092169290921617905551805160068301916001600160401b038211610bcf57612f54826120118554610b79565b602090601f8311600114612fad579180612f899260079695946000926121575750508160011b916000199060031b1c19161790565b90555b019051151560ff80198354169116179055612fa8600954610f65565b600955565b90601f1983169184600052816000209260005b818110613000575091600193918560079897969410612fe7575b505050811b019055612f8c565b015160001960f88460031b161c19169055388080612fda565b92936020600181928786015181550195019301612fc0565b601f1982169a83600052816000209b60005b81811061306c57509160ff98999a9b9c91846001959410613053575b505050811b019055612eef565b015160001960f88460031b161c19169055388080613046565b838301518e556001909d019c6020938401930161302a565b90506020813d6020116130ae575b8161309f60209383610c37565b81010312610144575138612637565b3d9150613092565b6130ca91933d8091833e611bcd8183610c37565b91386125fa565b51906001600160a01b038216820361014457565b6001600160a01b031660008181526007602052604090819020905192989796929592949293919061311587610c1b565b4387526020870191825260408701998a52606087019260018060a01b031683526080870193845260ff60a088019516855260c0870195865260e0870197151588528054600160401b811015610bcf5761317391600182018155610b47565b96909661224f57518655516001860180546001600160a01b0319166001600160a01b03929092169190911790559651805190979060028601906001600160401b038111610bcf576131c881612eb08454610b79565b6020601f82116001146132ec5790806131fe9260ff98999a9b9c6000926121575750508160011b916000199060031b1c19161790565b90555b516003860180546001600160a01b0319166001600160a01b03929092169190911790555160048501555160058401805460ff191660ff939092169290921617905551805160068301916001600160401b038211610bcf57613266826120118554610b79565b602090601f831160011461329b579180612f899260079695946000926121575750508160011b916000199060031b1c19161790565b90601f1983169184600052816000209260005b8181106132d4575091600193918560079897969410612fe757505050811b019055612f8c565b929360206001819287860151815501950193016132ae565b601f1982169a83600052816000209b60005b81811061334057509160ff98999a9b9c91846001959410613327575b505050811b019055613201565b015160001960f88460031b161c1916905538808061331a565b838301518e556001909d019c602093840193016132fe565b6002546000929161336882610b79565b91600181169081156133bd5750600114613380575050565b6002600090815292935090916000805160206138f68339815191525b8382106133a95750500190565b60018160209254848601520191019061339c565b60ff1916825250811515909102019150565b91906040806133e8600093606087526060870190610d1f565b858103602087015260048152636d6f766560e01b602082015201930152565b9081526001600160a01b03909116602082015263387e080160e01b604082015260806060820181905261247f92910190610d1f565b60409061247f939281528160208201520190610d1f565b6001600160a01b03166000818152600c6020908152604080832085845290915281205493929091841561354557808352600d602090815260408085208486529091528320546004546001600160a01b0316959060ff16863b1561354157906084859283604051998a94859363b46695ff60e01b8552886004860152896024860152604485015260648401525af19485156135365760409495613522575b50808352600c60205283832082845260205282848120558252600d6020528282209082526020522060ff198154169055565b8361352f91949294610c37565b91386134f0565b6040513d85823e3d90fd5b8480fd5b5050509050565b60409081519061355c8383610c37565b601082526f181899199a1a9b1b9c1cb0b131b232b360811b602083015260609251926135888185610c37565b602a845260208401601f198201368237845115610b635760309053835160011015610b63576078602185015360005b601481106135c6575050505090565b82821b6bffffffffffffffffffffffff1916811a6001600160f81b03196135f4600483901c60ff1687611df4565b5116908260011b918383046002148415171561043057826002019081600211610430576136259060001a9189611df4565b536001600160f81b03199061363d90600f1687611df4565b5116600091600301918260031161366657600193929161365f911a9188611df4565b53016135b7565b634e487b7160e01b81526011600452602490fd5b906003811015610b635760051b0190565b600354604051630ae4d1bd60e41b81526001600160a01b0380841660048301526006602483015290959293929160009187916044918391165afa948515611b185760009561385a575b50845192600284106138195750600019830192831193846104305760ff6136fb8588610f51565b5116926060946040519561370f8188610c37565b3687376000875b61043057818110156137a9578560ff61372f838c610f51565b51161480613787575b613746575b60010187613716565b60018101908181116104305760ff6137606001938c610f51565b511661377f613778613772838c61367a565b51610f65565b918a61367a565b52905061373d565b50600181018082116104305760ff6137a16003928c610f51565b511610613738565b50509250935093506000916020810151815110613810575b6137d460408201519160ff85169061367a565b5110613807575b60ff601e9116106000146137ed575090565b6001915060ff160160ff81116104305760ff600391160690565b600291506137db565b600192506137c1565b9150935060ff92506003915060405160208101914383526001600160601b03199060601b16604082015260348152613852605482610c37565b519020061690565b9490943d8083833e61386c8183610c37565b810190602081830312611d58578051906001600160401b038211611262570181601f82011215611d58578051906138a282610d44565b936138b06040519586610c37565b82855260208086019360051b830101938411611ad85750602001905b8282106138dd5750505093386136d4565b602080916138ea84612482565b8152019101906138cc56fe405787fa12a823e0f2b7631cc41b3ba8828b3321ca811111fa75cd3aa3bb5ace5f547094811d379a730e76283d666cb9ba744c31bb0775a48dd2aedee60bb39ca2646970667358221220c7aedbc90544c74d94c690e268a1c90b679a0540d714cea4f922c2aba626996d64736f6c634300081e0033","linkReferences":{}},"methodIdentifiers":{"CHALLENGE_COOLDOWN_BLOCKS()":"2a76736d","LLM_TOTAL_COST()":"272943f3","agentPlatform()":"51fbe9f4","arena()":"fd3705f9","decisionHistory(address,uint256)":"17559bb5","decodeInt(bytes)":"582b5656","decodeUint(bytes)":"6ff24701","executeDecision(address)":"bba9f3ae","getDecisionHistory(address,uint256)":"89aeffc8","getLLMStats()":"e977e809","getLatestDecision(address)":"62b2c156","handleResponse(uint256,(address,bytes,uint8,uint256,uint256,uint256)[],uint8,(uint256,address,address,bytes4,address[],(address,bytes,uint8,uint256,uint256,uint256)[],uint256,uint256,uint256,uint256,uint256,uint8,uint8,uint256,uint256))":"387e0801","lastChallengeBlock(address)":"007d9d7f","llmAgentId()":"c6c2041f","llmDecisions()":"960bd85a","llmProxyUrl()":"f691947a","owner()":"8da5cb5b","pendingRequests(uint256)":"3c652a9a","registry()":"7b103999","setAgentConfig(address,uint256,string)":"6f5df03b","totalDecisions()":"0c96a61a","worldState()":"bdfd55bf"},"id":6}