{"abi":[{"type":"constructor","inputs":[{"name":"_registry","type":"address","internalType":"address"},{"name":"_arena","type":"address","internalType":"address"},{"name":"_worldState","type":"address","internalType":"address"},{"name":"_agentPlatform","type":"address","internalType":"address"},{"name":"_llmAgentId","type":"uint256","internalType":"uint256"}],"stateMutability":"nonpayable"},{"type":"receive","stateMutability":"payable"},{"type":"function","name":"CHALLENGE_COOLDOWN_BLOCKS","inputs":[],"outputs":[{"name":"","type":"uint256","internalType":"uint256"}],"stateMutability":"view"},{"type":"function","name":"LLM_TOTAL_COST","inputs":[],"outputs":[{"name":"","type":"uint256","internalType":"uint256"}],"stateMutability":"view"},{"type":"function","name":"agentPlatform","inputs":[],"outputs":[{"name":"","type":"address","internalType":"contract IAgentRequester"}],"stateMutability":"view"},{"type":"function","name":"arena","inputs":[],"outputs":[{"name":"","type":"address","internalType":"contract Arena"}],"stateMutability":"view"},{"type":"function","name":"decisionHistory","inputs":[{"name":"","type":"address","internalType":"address"},{"name":"","type":"uint256","internalType":"uint256"}],"outputs":[{"name":"blockNumber","type":"uint256","internalType":"uint256"},{"name":"god","type":"address","internalType":"address"},{"name":"action","type":"string","internalType":"string"},{"name":"target","type":"address","internalType":"address"},{"name":"stake","type":"uint256","internalType":"uint256"},{"name":"move","type":"uint8","internalType":"uint8"},{"name":"reasoning","type":"string","internalType":"string"},{"name":"usedLLM","type":"bool","internalType":"bool"}],"stateMutability":"view"},{"type":"function","name":"decodeInt","inputs":[{"name":"data","type":"bytes","internalType":"bytes"}],"outputs":[{"name":"","type":"int256","internalType":"int256"}],"stateMutability":"pure"},{"type":"function","name":"executeDecision","inputs":[{"name":"god","type":"address","internalType":"address"}],"outputs":[],"stateMutability":"nonpayable"},{"type":"function","name":"getDecisionHistory","inputs":[{"name":"god","type":"address","internalType":"address"},{"name":"count","type":"uint256","internalType":"uint256"}],"outputs":[{"name":"","type":"tuple[]","internalType":"struct GodMind.DecisionLog[]","components":[{"name":"blockNumber","type":"uint256","internalType":"uint256"},{"name":"god","type":"address","internalType":"address"},{"name":"action","type":"string","internalType":"string"},{"name":"target","type":"address","internalType":"address"},{"name":"stake","type":"uint256","internalType":"uint256"},{"name":"move","type":"uint8","internalType":"uint8"},{"name":"reasoning","type":"string","internalType":"string"},{"name":"usedLLM","type":"bool","internalType":"bool"}]}],"stateMutability":"view"},{"type":"function","name":"getLLMStats","inputs":[],"outputs":[{"name":"total","type":"uint256","internalType":"uint256"},{"name":"llm","type":"uint256","internalType":"uint256"},{"name":"markov","type":"uint256","internalType":"uint256"}],"stateMutability":"view"},{"type":"function","name":"getLatestDecision","inputs":[{"name":"god","type":"address","internalType":"address"}],"outputs":[{"name":"","type":"tuple","internalType":"struct GodMind.DecisionLog","components":[{"name":"blockNumber","type":"uint256","internalType":"uint256"},{"name":"god","type":"address","internalType":"address"},{"name":"action","type":"string","internalType":"string"},{"name":"target","type":"address","internalType":"address"},{"name":"stake","type":"uint256","internalType":"uint256"},{"name":"move","type":"uint8","internalType":"uint8"},{"name":"reasoning","type":"string","internalType":"string"},{"name":"usedLLM","type":"bool","internalType":"bool"}]}],"stateMutability":"view"},{"type":"function","name":"handleResponse","inputs":[{"name":"requestId","type":"uint256","internalType":"uint256"},{"name":"responses","type":"tuple[]","internalType":"struct IAgentRequester.Response[]","components":[{"name":"validator","type":"address","internalType":"address"},{"name":"result","type":"bytes","internalType":"bytes"},{"name":"status","type":"uint8","internalType":"enum IAgentRequester.ResponseStatus"},{"name":"receipt","type":"uint256","internalType":"uint256"},{"name":"timestamp","type":"uint256","internalType":"uint256"},{"name":"executionCost","type":"uint256","internalType":"uint256"}]},{"name":"status","type":"uint8","internalType":"enum IAgentRequester.ResponseStatus"},{"name":"","type":"tuple","internalType":"struct IAgentRequester.Request","components":[{"name":"id","type":"uint256","internalType":"uint256"},{"name":"requester","type":"address","internalType":"address"},{"name":"callbackAddress","type":"address","internalType":"address"},{"name":"callbackSelector","type":"bytes4","internalType":"bytes4"},{"name":"subcommittee","type":"address[]","internalType":"address[]"},{"name":"responses","type":"tuple[]","internalType":"struct IAgentRequester.Response[]","components":[{"name":"validator","type":"address","internalType":"address"},{"name":"result","type":"bytes","internalType":"bytes"},{"name":"status","type":"uint8","internalType":"enum IAgentRequester.ResponseStatus"},{"name":"receipt","type":"uint256","internalType":"uint256"},{"name":"timestamp","type":"uint256","internalType":"uint256"},{"name":"executionCost","type":"uint256","internalType":"uint256"}]},{"name":"responseCount","type":"uint256","internalType":"uint256"},{"name":"failureCount","type":"uint256","internalType":"uint256"},{"name":"threshold","type":"uint256","internalType":"uint256"},{"name":"createdAt","type":"uint256","internalType":"uint256"},{"name":"deadline","type":"uint256","internalType":"uint256"},{"name":"status","type":"uint8","internalType":"enum IAgentRequester.ResponseStatus"},{"name":"consensusType","type":"uint8","internalType":"enum IAgentRequester.ConsensusType"},{"name":"remainingBudget","type":"uint256","internalType":"uint256"},{"name":"perAgentBudget","type":"uint256","internalType":"uint256"}]}],"outputs":[],"stateMutability":"nonpayable"},{"type":"function","name":"lastChallengeBlock","inputs":[{"name":"","type":"address","internalType":"address"}],"outputs":[{"name":"","type":"uint256","internalType":"uint256"}],"stateMutability":"view"},{"type":"function","name":"llmAgentId","inputs":[],"outputs":[{"name":"","type":"uint256","internalType":"uint256"}],"stateMutability":"view"},{"type":"function","name":"llmDecisions","inputs":[],"outputs":[{"name":"","type":"uint256","internalType":"uint256"}],"stateMutability":"view"},{"type":"function","name":"owner","inputs":[],"outputs":[{"name":"","type":"address","internalType":"address"}],"stateMutability":"view"},{"type":"function","name":"pendingRequests","inputs":[{"name":"","type":"uint256","internalType":"uint256"}],"outputs":[{"name":"god","type":"address","internalType":"address"},{"name":"target","type":"address","internalType":"address"},{"name":"stake","type":"uint256","internalType":"uint256"},{"name":"matchId","type":"uint256","internalType":"uint256"},{"name":"markovFallback","type":"uint8","internalType":"uint8"}],"stateMutability":"view"},{"type":"function","name":"registry","inputs":[],"outputs":[{"name":"","type":"address","internalType":"contract GodRegistry"}],"stateMutability":"view"},{"type":"function","name":"setAgentConfig","inputs":[{"name":"_platform","type":"address","internalType":"address"},{"name":"_agentId","type":"uint256","internalType":"uint256"}],"outputs":[],"stateMutability":"nonpayable"},{"type":"function","name":"totalDecisions","inputs":[],"outputs":[{"name":"","type":"uint256","internalType":"uint256"}],"stateMutability":"view"},{"type":"function","name":"worldState","inputs":[],"outputs":[{"name":"","type":"address","internalType":"contract WorldState"}],"stateMutability":"view"},{"type":"event","name":"DecisionMade","inputs":[{"name":"god","type":"address","indexed":true,"internalType":"address"},{"name":"action","type":"string","indexed":false,"internalType":"string"},{"name":"target","type":"address","indexed":true,"internalType":"address"},{"name":"reasoning","type":"string","indexed":false,"internalType":"string"},{"name":"usedLLM","type":"bool","indexed":false,"internalType":"bool"}],"anonymous":false},{"type":"event","name":"LLMDecisionReceived","inputs":[{"name":"god","type":"address","indexed":true,"internalType":"address"},{"name":"requestId","type":"uint256","indexed":false,"internalType":"uint256"},{"name":"result","type":"string","indexed":false,"internalType":"string"},{"name":"success","type":"bool","indexed":false,"internalType":"bool"}],"anonymous":false},{"type":"event","name":"LLMDecisionRequested","inputs":[{"name":"god","type":"address","indexed":true,"internalType":"address"},{"name":"requestId","type":"uint256","indexed":false,"internalType":"uint256"},{"name":"prompt","type":"string","indexed":false,"internalType":"string"}],"anonymous":false},{"type":"event","name":"MarkovFallback","inputs":[{"name":"god","type":"address","indexed":true,"internalType":"address"},{"name":"reason","type":"string","indexed":false,"internalType":"string"}],"anonymous":false},{"type":"error","name":"Unauthorized","inputs":[]}],"bytecode":{"object":"0x6080346100df57601f613ad338819003918201601f19168301916001600160401b038311848410176100e45780849260a0946040528339810103126100df57610047816100fa565b90610054602082016100fa565b610060604083016100fa565b90608061006f606085016100fa565b930151600280546001600160a01b03199081166001600160a01b03978816179091556003805482169387169390931790925560048054831693861693909317909255600080548216949093169390931790915560015560058054909116331790556040516139c4908161010f8239f35b600080fd5b634e487b7160e01b600052604160045260246000fd5b51906001600160a01b03821682036100df5756fe608080604052600436101561001d575b50361561001b57600080fd5b005b60003560e01c9081627d9d7f146108d8575080630c96a61a146108ba57806317559bb5146107d5578063272943f3146107b35780632a76736d14610797578063387e0801146105915780633c652a9a146105285780633d638261146104c557806351fbe9f41461049c578063582b56561461044c57806362b2c156146103a35780637b1039991461037a57806389aeffc8146102185780638da5cb5b146101ef578063960bd85a146101d1578063bba9f3ae146101b0578063bdfd55bf14610187578063c6c2041f14610169578063e977e809146101335763fd3705f914610105573861000f565b3461012e57600036600319011261012e576003546040516001600160a01b039091168152602090f35b600080fd5b3461012e57600036600319011261012e5760606008546009546101568183611220565b9060405192835260208301526040820152f35b3461012e57600036600319011261012e576020600154604051908152f35b3461012e57600036600319011261012e576004546040516001600160a01b039091168152602090f35b3461012e57602036600319011261012e5761001b6101cc61090e565b611311565b3461012e57600036600319011261012e576020600954604051908152f35b3461012e57600036600319011261012e576005546040516001600160a01b039091168152602090f35b3461012e57604036600319011261012e5761023161090e565b6001600160a01b0316600090815260066020526040902080549060243580831015610374575081905b61026382610b03565b9261027160405194856109f6565b828452601f1961028084610b03565b0160005b81811061035d575050600019810190811160005b84811061030757856040518091602082016020835281518091526040830190602060408260051b8601019301916000905b8282106102d857505050500390f35b919360019193955060206102f78192603f198a82030186528851610c72565b96019201920185949391926102c9565b81610347578061032b61032561031f60019487611220565b87610938565b5061122d565b6103358289610d10565b526103408188610d10565b5001610298565b634e487b7160e01b600052601160045260246000fd5b6020906103686111e1565b82828901015201610284565b9061025a565b3461012e57600036600319011261012e576002546040516001600160a01b039091168152602090f35b3461012e57602036600319011261012e576103bc61090e565b6103c46111e1565b506001600160a01b0316600090815260066020526040902080548015610418576000198101908111610347576103256104009161041493610938565b604051918291602083526020830190610c72565b0390f35b60405162461bcd60e51b815260206004820152600c60248201526b4e6f206465636973696f6e7360a01b6044820152606490fd5b3461012e57602036600319011261012e576004356001600160401b03811161012e5761047c903690600401610b35565b6020815191818082019384920101031261012e5760209051604051908152f35b3461012e57600036600319011261012e576000546040516001600160a01b039091168152602090f35b3461012e57604036600319011261012e576104de61090e565b6005546001600160a01b0316330361051857600080546001600160a01b0319166001600160a01b0392909216919091179055602435600155005b6282b42960e81b60005260046000fd5b3461012e57602036600319011261012e57600435600052600760205260a06040600020600180831b0381541690600180841b0360018201541690600281015460ff6004600384015493015416926040519485526020850152604084015260608301526080820152f35b3461012e57608036600319011261012e576024356001600160401b03811161012e576105c1903690600401610b7c565b604435600581101561012e57606435916001600160401b03831161012e576101e0600319843603011261012e576040516101e081018181106001600160401b03821117610781576040528360040135815261061e60248501610924565b602082015261062f60448501610924565b604082015260648401356001600160e01b03198116810361012e57606082015260848401356001600160401b03811161012e5784013660238201121561012e5760048101359061067e82610b03565b9161068c60405193846109f6565b808352602060048185019260051b840101019136831161012e57602401905b82821061076957505050608082015260a48401356001600160401b03811161012e576106dd9060043691870101610b7c565b60a082015260c484013560c082015260e484013560e0820152610104840135610100820152610124840135610120820152610144840135610140820152610164840135600581101561012e5761016082015261018484013593600385101561012e576101c46101c09161001b966101808501526101a48101356101a08501520135910152600435610d33565b6020809161077684610924565b8152019101906106ab565b634e487b7160e01b600052604160045260246000fd5b3461012e57600036600319011261012e576020604051600a8152f35b3461012e57600036600319011261012e576020604051666a94d74f4300008152f35b3461012e57604036600319011261012e576107ee61090e565b6001600160a01b0316600090815260066020526040902080546024359081101561012e5761081b91610938565b50805460018201546001600160a01b0316916108ae61083c60028301610a17565b9160018060a01b0360038201541690600481015460ff6005830154169061089160ff600761086c60068701610a17565b9501541696604051998a998a5260208a015261010060408a0152610100890190610ade565b936060880152608087015260a086015284820360c0860152610ade565b90151560e08301520390f35b3461012e57600036600319011261012e576020600854604051908152f35b3461012e57602036600319011261012e576020906001600160a01b036108fc61090e565b16600052600a82526040600020548152f35b600435906001600160a01b038216820361012e57565b35906001600160a01b038216820361012e57565b80548210156109545760005260206000209060031b0190600090565b634e487b7160e01b600052603260045260246000fd5b90600182811c9216801561099a575b602083101461098457565b634e487b7160e01b600052602260045260246000fd5b91607f1691610979565b60c081019081106001600160401b0382111761078157604052565b60a081019081106001600160401b0382111761078157604052565b61010081019081106001600160401b0382111761078157604052565b90601f801991011681019081106001600160401b0382111761078157604052565b9060405191826000825492610a2b8461096a565b8084529360018116908115610a995750600114610a52575b50610a50925003836109f6565b565b90506000929192526020600020906000915b818310610a7d575050906020610a509282010138610a43565b6020919350806001915483858901015201910190918492610a64565b905060209250610a5094915060ff191682840152151560051b82010138610a43565b60005b838110610ace5750506000910152565b8181015183820152602001610abe565b90602091610af781518092818552858086019101610abb565b601f01601f1916010190565b6001600160401b0381116107815760051b60200190565b6001600160401b03811161078157601f01601f191660200190565b81601f8201121561012e57803590610b4c82610b1a565b92610b5a60405194856109f6565b8284526020838301011161012e57816000926020809301838601378301015290565b9080601f8301121561012e57813591610b9483610b03565b92610ba260405194856109f6565b80845260208085019160051b8301019183831161012e5760208101915b838310610bce57505050505090565b82356001600160401b03811161012e57820160c0818703601f19011261012e5760405191610bfb836109a4565b610c0760208301610924565b835260408201356001600160401b03811161012e57876020610c2b92850101610b35565b6020840152606082013592600584101561012e5760c060209493859460408401526080810135606084015260a08101356080840152013560a0820152815201920191610bbf565b908151815260018060a01b03602083015116602082015260e080610ce5610caa60408601516101006040870152610100860190610ade565b60018060a01b0360608701511660608601526080860151608086015260ff60a08701511660a086015260c086015185820360c0870152610ade565b930151151591015290565b60051115610cfa57565b634e487b7160e01b600052602160045260246000fd5b80518210156109545760209160051b010190565b60001981146103475760010190565b6000805490939192906001600160a01b031633036111ac5782845260076020526040842092604051610d64816109bf565b84546001600160a01b0390811680835260018701549091166020830190815260028701546040840190815260038801546060850190815260049098015460ff1660808501908152909892156111a15760ff908584526007602052836004604082208281558260018201558260028201558260038201550155511691809360409660028851610df28a826109f6565b601c81527f4c4c4d206661696c65642e204d61726b6f762066616c6c6261636b2e00000000602082015299610e2681610cf0565b1480611197575b61104d575b5060018060a01b038151168751968752606060208801527fafe6a0c9bb27bc0196375000f9964f8c81b665db615c5db29a6332b0826db0c6610e77606089018b610ade565b9780881515998a8c8301520390a28851156110255751975191519851865160608a901b6bffffffffffffffffffffffff191660208201908152603482018590524360548084019190915282526001600160a01b039b8c169b909a169991939190610ee26074826109f6565b519020908751602081019060ff87168252838a820152898152610f066060826109f6565b519020918a8452600b60205288842082855260205288842055898352600c60205287832081845260205287832060ff861660ff1982541617905560018060a01b0360035416803b15611021579060648b8580948c5196879586946315f418ff60e01b86526004860152602485015260448401525af180156110175793610fce93610ffe9896938a98969360008051602061396f8339815191529b94611007575b50508b8751610fb589826109f6565b600681526510d3d353525560d21b60208201528c613283565b815193849360608552600660608601526510d3d353525560d21b608086015260a0602086015260a0850190610ade565b918301520390a3565b81611011916109f6565b38610fa6565b87513d84823e3d90fd5b8380fd5b5191519851610a5099979850966001600160a01b0390811696509091169350611dd392505050565b80511561118357602080806110809301510151895180938192632c15ab2b60e11b83528460048401526024830190610ade565b0381305afa83918161114f575b5015610e32578281121580611144575b15610e32576009549198506001955060ff1693506110ba90610d24565b6009556110c683611d0e565b61113d60056110d488611d0e565b9260318a519485927029b7b6b734b090262626971026b7bb329d60791b60208501526111098151809260208688019101610abb565b830164205265712360d81b8382015261112c825180936020603685019101610abb565b01010301601f1981018352826109f6565b9638610e32565b50600281131561109d565b9091506020813d60201161117b575b8161116b602093836109f6565b810103126110215751903861108d565b3d915061115e565b634e487b7160e01b83526032600452602483fd5b5080511515610e2d565b505050505050505050565b60405162461bcd60e51b815260206004820152600d60248201526c4f6e6c7920706c6174666f726d60981b6044820152606490fd5b604051906111ee826109da565b600060e083828152826020820152606060408201528260608201528260808201528260a0820152606060c08201520152565b9190820391821161034757565b9060405161123a816109da565b60e060ff600783958054855260018060a01b03600182015416602086015261126460028201610a17565b604086015260038101546001600160a01b03166060860152600481015460808601526005810154831660a086015261129e60068201610a17565b60c08601520154161515910152565b5190811515820361012e57565b908160c091031261012e5761130960a0604051926112d7846109a4565b8051845260208101516020850152604081015160408501526060810151606085015260808101516080850152016112ad565b60a082015290565b6005546001600160a01b031633036105185760025460405163611fc2eb60e11b81526001600160a01b0383811660048301819052939260c09183916024918391165afa80156119f15760a091600091611cef575b50015115611b1d5760035460405163d32fc5f960e01b81526004810184905290602090829060249082906001600160a01b03165afa9081156119f157600091611cb5575b5015611cab576003546040516376b5cff960e11b815260048101849052906001600160a01b0316602082602481845afa9182156119f157600092611c76575b50600060249160405192838092633d092b3d60e01b82528660048301525afa9081156119f157600091611b2a575b5060a081016001815161142881610cf0565b61143181610cf0565b03611afc575060208101516001600160a01b0316848103611af6575060408101516001600160a01b0316905b6002546040516305a886f760e51b81526004810187905290600090829060249082906001600160a01b03165afa80156119f1576114b391600091611adb575b5060ff60c08160a084015116920151169084613704565b90666a94d74f43000047101580611ad0575b15611a4757606001519260018060a01b03600254166040516305a886f760e51b8152876004820152600081602481855afa9081156119f157600091611a2c575b5060405163611fc2eb60e11b81526001600160a01b03861660048201819052919060c081602481875afa9081156119f1576000916119fd575b5060246000835195604051928380926305a886f760e51b82528860048301525afa9081156119f1576000916119ce575b5051815191602001519061158187611d0e565b92604051809460208201986702cb7ba9030b932960c51b8a52805190816028850191602001916115b092610abb565b8201602881016a20696e206d61746368202360a81b9052815191826033830191602001916115dd92610abb565b01602801600b8101601760f91b905203600b01601e198101855260010161160490856109f6565b61160d90611d0e565b9161161790611d0e565b916040519283916020830193630103b39960e51b85528051908160248601916020019161164392610abb565b83016024810161040560f31b90528151918260268301916020019161166792610abb565b016024016002810161572f60f01b90528151918260048301916020019161168d92610abb565b01600201600281016226149760e91b905203600201601c19810183526003016116b690836109f6565b604051906116c56060836109f6565b603a825260208201927f2043686f6f736520303d526f636b20313d506170657220323d53636973736f728452604083017f732e2052657475726e204f4e4c5920302c20312c206f7220322e00000000000090526040519788955190816020880161172e92610abb565b8501905191826020830161174192610abb565b0160200191829151809361175492610abb565b0103601f198101845261176790846109f6565b604090810151905163c6833c3d60e01b602082015260a060248201529190829061179460c4830186610ade565b8281036023190160448401526117a991610ade565b6000606483018190526002608484015260a483015203601f19810183526117d090836109f6565b6000546001546040516345de5df160e11b8152936001600160a01b039092169184918291611803913090600485016135ae565b03815a602094666a94d74f43000091f160009281611997575b506118c257505050610a50957fa32de85fd6e8f7ab05fbd0b95094ef7073e6e99582697fcc8c6d634f5f522f9d60405180611881816060906020815260156020820152744c4c4d206167656e7420756e617661696c61626c6560581b60408201520190565b0390a2604051946118936040876109f6565b601886527f4d61726b6f7620284c4c4d20756e617661696c61626c652900000000000000006020870152612239565b937fafb0da1f0b8293fdd616ebb292d276ec08b01c70ea482a8aa804935b1e2862c4975060ff938492965060049397604051966118fe886109bf565b8b885260208089019182526040808a0193845260608a0194855294861660808a0190815260008b8152600790925290859020985189546001600160a01b03199081166001600160a01b03928316178b55925160018b01805490941691161790915590516002880155905160038701555192909401805460ff19169290911692909216179055519182916119929190836135e3565b0390a2565b90926020823d6020116119c6575b816119b2602093836109f6565b810103126119c3575051913861181c565b80fd5b3d91506119a5565b6119eb91503d806000833e6119e381836109f6565b810190612435565b3861156e565b6040513d6000823e3d90fd5b611a1f915060c03d60c011611a25575b611a1781836109f6565b8101906112ba565b3861153e565b503d611a0d565b611a4191503d806000833e6119e381836109f6565b38611505565b606090610a50967fa32de85fd6e8f7ab05fbd0b95094ef7073e6e99582697fcc8c6d634f5f522f9d83604051602081526014602082015273496e73756666696369656e742062616c616e636560601b6040820152a201519260405194611aae6040876109f6565b601086526f26b0b935b7bb10383932b234b1ba37b960811b6020870152612239565b5060015415156114c5565b611af091503d806000833e6119e381836109f6565b3861149c565b9061145d565b905060029192935051611b0e81610cf0565b611b1781610cf0565b14611b21575b5050565b610a50916135fa565b3d8083833e611b3981836109f6565b810190602081830312611c5e578051906001600160401b0382116110215701916101a0838303126119c357604051926101a084018481106001600160401b03821117611c625760405280518452611b926020820161326f565b6020850152611ba36040820161326f565b60408501526060810151606085015260808101516001811015611c5e57608085015260a08101516005811015611c5e5760a085015260c081015160c085015260e081015160e0850152611bf96101008201612427565b610100850152611c0c6101208201612427565b610120850152611c1f610140820161326f565b610140850152610160810151610160850152610180810151916001600160401b0383116119c35750611c529291016123e2565b61018082015238611416565b8280fd5b634e487b7160e01b83526041600452602483fd5b90916020823d602011611ca3575b81611c91602093836109f6565b810103126119c35750519060006113e8565b3d9150611c84565b610a509150612538565b90506020813d602011611ce7575b81611cd0602093836109f6565b8101031261012e57611ce1906112ad565b386113a9565b3d9150611cc3565b611d08915060c03d60c011611a2557611a1781836109f6565b38611365565b8015611db357600081805b611d9f5750611d2781610b1a565b90611d3560405192836109f6565b808252601f19611d4482610b1a565b013660208401375b808315611d98578015610347576000190192600a8106603001918260301161034757835185101561095457600a9260f81b6001600160f81b03191660001a908401601f01530491611d4c565b5050905090565b90611dab600a91610d24565b910480611d19565b50604051611dc26040826109f6565b60018152600360fc1b602082015290565b60035460405163fb74beff60e01b81526001600160a01b039283166004820181905293831660248201819052604482018690526080606483015295939492909160209183911681600081611e2a608482018a610ade565b03925af180156119f15761220a575b506040908151611e4983826109f6565b60098152684348414c4c454e474560b81b60208201528460005260066020528260002091835191611e79836109da565b4383526020830191878352858401918252606084018981526080850191825260a08501926000845260c086019489865260e0870197600089528054600160401b81101561078157611ecf91600182018155610938565b9790976121f457518755516001870180546001600160a01b0319166001600160a01b039290921691909117905551805160028701916001600160401b03821161078157611f1c835461096a565b601f81116121ac575b50602090601f831160011461213f5760ff96959493929160009183612134575b50508160011b916000199060031b1c19161790555b516003860180546001600160a01b0319166001600160a01b03929092169190911790555160048501555160058401805460ff191660ff939092169290921617905551805160068301916001600160401b03821161078157611fbb835461096a565b601f81116120ec575b50602090601f831160011461206c579282600793610ffe98969360008051602061396f8339815191529a9896600092612061575b50508160011b916000199060031b1c19161790555b019051151560ff80198354169116179055612029600854610d24565b600855600081519384936060855260096060860152684348414c4c454e474560b81b608086015260a0602086015260a0850190610ade565b015190503880611ff8565b90601f1983169184600052816000209260005b8181106120d4575093610ffe98969360008051602061396f8339815191529a98969360019383600798106120bb575b505050811b01905561200d565b015160001960f88460031b161c191690553880806120ae565b9293602060018192878601518155019501930161207f565b836000526020600020601f840160051c8101916020851061212a575b601f0160051c01905b81811061211e5750611fc4565b60008155600101612111565b9091508190612108565b015190503880611f45565b90601f1983169184600052816000209260005b818110612194575091600193918560ff9a99989796941061217b575b505050811b019055611f5a565b015160001960f88460031b161c1916905538808061216e565b92936020600181928786015181550195019301612152565b836000526020600020601f840160051c810191602085106121ea575b601f0160051c01905b8181106121de5750611f25565b600081556001016121d1565b90915081906121c8565b634e487b7160e01b600052600060045260246000fd5b6020813d602011612231575b81612223602093836109f6565b8101031261012e5751611e39565b3d9150612216565b949291939093600091604051956020870160018060a01b038916976001600160601b03198a60601b1682528260348201524360548201526054815261227f6074826109f6565b51902090604051602081019060ff86168252836040820152604081526122a66060826109f6565b51902091888652600b602052604086208287526020526040862055878552600c602052604085208186526020526040852060ff851660ff1982541617905560018060a01b0360035416803b156123de579060648987809460405196879586946315f418ff60e01b86526004860152602485015260448401525af180156123d3579286949260008051602061396f83398151915297926123a697956123b9575b5091839161237693866040809d61235e825192836109f6565b600682526510d3d353525560d21b6020830152613283565b865193849360608552600660608601526510d3d353525560d21b608086015260a0602086015260a0850190610ade565b968301526001600160a01b0316940390a3565b936123ca81612376959394966109f6565b93919092612345565b6040513d86823e3d90fd5b8580fd5b81601f8201121561012e5780516123f881610b1a565b9261240660405194856109f6565b8184526020828401011161012e576124249160208085019101610abb565b90565b519060ff8216820361012e57565b60208183031261012e578051906001600160401b03821161012e57016101008183031261012e5760405191612469836109da565b81516001600160401b03811161012e57816124859184016123e2565b835260208201516001600160401b03811161012e57816124a69184016123e2565b602084015260408201516001600160401b03811161012e57816124ca9184016123e2565b60408401526124db60608301612427565b60608401526124ec60808301612427565b60808401526124fd60a08301612427565b60a084015261250e60c08301612427565b60c084015260e08201516001600160401b03811161012e5761253092016123e2565b60e082015290565b60018060a01b0381169081600052600a602052604060002054600a8101809111610347574310611b1d576002546040516305a886f760e51b81526004810184905290600090829060249082906001600160a01b03165afa9081156119f157600091613256575b50600480546040516330ec9f2d60e01b8152918201859052602090829060249082906001600160a01b03165afa9081156119f157600091613224575b50606460085460405160208101914383526001600160601b03198760601b1660408301526054820152605481526126126074826109f6565b519020061015612ea657600254604051630fad954160e31b81526001600160a01b0390911690602081600481855afa9081156119f157600091612e74575b50906000916000809260608601935b838110612bfa575050506001600160a01b038316949150508315612bf35760ff608084015116681b1ae4d6e2ef5000000268ffffffffffffffffff811690810361034757606468ffffffffffffffffff91041692670de0b6b3a76400008410612be3575b85600052600a60205243604060002055666a94d74f43000047101580612bd8575b15612bb05760025460405163611fc2eb60e11b815260048101879052906001600160a01b031660c082602481845afa9182156119f157600092612b89575b506000602491604051928380926305a886f760e51b82528b60048301525afa80156119f157600960379161288493600091612b6e575b505193600861276c60608851930151611d0e565b600c612781670de0b6b3a76400008d04611d0e565b916028604051998a966702cb7ba9030b932960c51b60208901526127ae815180926020868c019101610abb565b87016b0171021b430b63632b733b2960a51b838201526127d8825180936020603485019101610abb565b01016710143837bbb2b91d60c11b838201526127fe825180936020601485019101610abb565b01016814971029ba30b5b29d60b91b83820152612825825180936020601185019101610abb565b010164102824271760d91b838201527f2047697665206f6e652073656e74656e63652073747261746567696320726561600e8201527139b7b7171026b0bc101c181031b430b9399760711b602e820152030160178101845201826109f6565b600160408301519660209760405161289c8a826109f6565b60008152600093612b69575b92919089906128e660405191631fcf941360e31b84840152608060248401526128d460a4840189610ade565b83810360231901604485015290610ade565b84606483015260231982820301608483015285518082528382019184808360051b83010198019287915b838310612b35575050505050612932816129659603601f1981018352826109f6565b60018060a01b03845416600154666a94d74f4300006040518098819582946345de5df160e11b84523090600485016135ae565b03925af180938394612b06575b50612a3657505050506017612a3191610a50977fa32de85fd6e8f7ab05fbd0b95094ef7073e6e99582697fcc8c6d634f5f522f9d604051806129de816060906020815260156020820152744c4c4d206167656e7420756e617661696c61626c6560581b60408201520190565b0390a25195604051876129fa8299518092858086019101610abb565b81017f206368616c6c656e67657320766961204d61726b6f762e0000000000000000008382015203016008198101875201856109f6565b611dd3565b90945060ff938492965097600493978360c07fafb0da1f0b8293fdd616ebb292d276ec08b01c70ea482a8aa804935b1e2862c49b015116926040805198612a7c8a6109bf565b8d8a52848a01928352818a0193845260608a0181815260808b019687528b8252600790955220975188546001600160a01b03199081166001600160a01b03928316178a55915160018a01805490931691161790555160028701555160038601555191909301805460ff191693909116919091169190911790556040519182916119929190836135e3565b9093508981813d8311612b2e575b612b1e81836109f6565b81010312611c5e57519238612972565b503d612b14565b91939580612b546001939597999a9b601f198682030187528951610ade565b97019301930190928e95989796949293612910565b6128a8565b612b8391503d806000833e6119e381836109f6565b38612758565b6024919250612ba860009160c03d60c011611a2557611a1781836109f6565b929150612722565b909350610a5094505192612a3160176020604051876129fa8299518092858086019101610abb565b5060015415156126e4565b670de0b6b3a764000093506126c3565b5050505050565b604051631bd8667360e31b815260048101829052602081602481865afa9081156119f157600091612e3b575b506001600160a01b0381168a81148015612dbf575b612db55760405163352c285160e11b81528b6004820152816024820152602081604481885afa9081156119f157600091612d77575b50906032916004811015610cfa5760038103612d475750906028810180911161034757905b604660ff89511611612cc4575b50848111612cb7575b50506001905b0161265f565b9096509250600138612cab565b6040519063611fc2eb60e11b8252600482015260c081602481885afa80156119f157606091600091612d29575b50015160006103e8821015612d2257506103e8036103e8811161034757601490045b81018091116103475738612ca2565b9050612d13565b612d41915060c03d8111611a2557611a1781836109f6565b38612cf1565b600060028203612d6557505090601481018091116103475790612c95565b5060001901612c955760059150612c95565b6020813d8211612dad575b81612d8f602093836109f6565b81010312612da957519060048210156119c3575038612c70565b5080fd5b3d9150612d82565b5050600190612cb1565b5060035460405163d32fc5f960e01b81526004810183905290602090829060249082906001600160a01b03165afa9081156119f157600091612e02575b50612c3b565b906020823d8211612e33575b81612e1b602093836109f6565b810103126119c35750612e2d906112ad565b38612dfc565b3d9150612e0e565b906020823d8211612e6c575b81612e54602093836109f6565b810103126119c35750612e669061326f565b38612c26565b3d9150612e47565b90506020813d602011612e9e575b81612e8f602093836109f6565b8101031261012e575138612650565b3d9150612e82565b505090604091825192612eb981856109f6565b600484526349444c4560e01b60208501528051612ed682826109f6565b600881526721b7b7b63237bbb760c11b60208201528260005260066020528160002092825192612f05846109da565b438452602084019182528301958652606083016000815260808401906000825260a08501926000845260c0860194855260e0860196600088528054600160401b81101561078157612f5b91600182018155610938565b9690966121f457518655516001860180546001600160a01b0319166001600160a01b03929092169190911790559651805190979060028601906001600160401b03811161078157612fac825461096a565b601f81116131dc575b506020601f821160011461317057819060ff9798999a9b600092613165575b50508160011b916000199060031b1c19161790555b516003860180546001600160a01b0319166001600160a01b03929092169190911790555160048501555160058401805460ff191660ff939092169290921617905551805160068301916001600160401b0382116107815761304a835461096a565b601f811161311d575b50602090601f83116001146130b257600794939291600091836130a7575b50508160011b916000199060031b1c19161790555b019051151560ff801983541691161790556130a2600854610d24565b600855565b015190503880613071565b90601f1983169184600052816000209260005b8181106131055750916001939185600798979694106130ec575b505050811b019055613086565b015160001960f88460031b161c191690553880806130df565b929360206001819287860151815501950193016130c5565b836000526020600020601f840160051c8101916020851061315b575b601f0160051c01905b81811061314f5750613053565b60008155600101613142565b9091508190613139565b015190503880612fd4565b601f1982169a83600052816000209b60005b8181106131c457509160ff98999a9b9c918460019594106131ab575b505050811b019055612fe9565b015160001960f88460031b161c1916905538808061319e565b838301518e556001909d019c60209384019301613182565b826000526020600020601f830160051c8101916020841061321a575b601f0160051c01905b81811061320e5750612fb5565b60008155600101613201565b90915081906131f8565b90506020813d60201161324e575b8161323f602093836109f6565b8101031261012e5751386125da565b3d9150613232565b613269913d8091833e6119e381836109f6565b3861259e565b51906001600160a01b038216820361012e57565b6001600160a01b03166000818152600660205260409081902090519298979692959294929391906132b3876109da565b4387526020870191825260408701998a52606087019260018060a01b031683526080870193845260ff60a088019516855260c0870195865260e0870197151588528054600160401b8110156107815761331191600182018155610938565b9690966121f457518655516001860180546001600160a01b0319166001600160a01b03929092169190911790559651805190979060028601906001600160401b03811161078157613362825461096a565b601f8111613566575b506020601f82116001146134fa57819060ff9798999a9b6000926134ef575b50508160011b916000199060031b1c19161790555b516003860180546001600160a01b0319166001600160a01b03929092169190911790555160048501555160058401805460ff191660ff939092169290921617905551805160068301916001600160401b03821161078157613400835461096a565b601f81116134a7575b50602090601f831160011461345657600794939291600091836130a75750508160011b916000199060031b1c1916179055019051151560ff801983541691161790556130a2600854610d24565b90601f1983169184600052816000209260005b81811061348f5750916001939185600798979694106130ec57505050811b019055613086565b92936020600181928786015181550195019301613469565b836000526020600020601f840160051c810191602085106134e5575b601f0160051c01905b8181106134d95750613409565b600081556001016134cc565b90915081906134c3565b01519050388061338a565b601f1982169a83600052816000209b60005b81811061354e57509160ff98999a9b9c91846001959410613535575b505050811b01905561339f565b015160001960f88460031b161c19169055388080613528565b838301518e556001909d019c6020938401930161350c565b826000526020600020601f830160051c810191602084106135a4575b601f0160051c01905b818110613598575061336b565b6000815560010161358b565b9091508190613582565b9081526001600160a01b03909116602082015263387e080160e01b604082015260806060820181905261242492910190610ade565b604090612424939281528160208201520190610ade565b6001600160a01b03166000818152600b602090815260408083208584529091528120549392909184156136ec57808352600c602090815260408085208486529091528320546003546001600160a01b0316959060ff16863b156136e857906084859283604051998a94859363b46695ff60e01b8552886004860152896024860152604485015260648401525af19485156136dd57604094956136c9575b50808352600b60205283832082845260205282848120558252600c6020528282209082526020522060ff198154169055565b836136d6919492946109f6565b9138613697565b6040513d85823e3d90fd5b8480fd5b5050509050565b9060038110156109545760051b0190565b600254604051630ae4d1bd60e41b81526001600160a01b0380841660048301526006602483015290959293929160009187916044918391165afa9485156119f1576000956138d3575b50845192600284106138925750600019830192831193846103475760ff6137748588610d10565b5116926060946040519561378881886109f6565b3687376000875b6103475781811015613822578560ff6137a8838c610d10565b51161480613800575b6137bf575b6001018761378f565b60018101908181116103475760ff6137d96001938c610d10565b51166137f86137f16137eb838c6136f3565b51610d24565b918a6136f3565b5290506137b6565b50600181018082116103475760ff61381a6003928c610d10565b5116106137b1565b50509250935093506000916020810151815110613889575b61384d60408201519160ff8516906136f3565b5110613880575b60ff601e911610600014613866575090565b6001915060ff160160ff81116103475760ff600391160690565b60029150613854565b6001925061383a565b9150935060ff92506003915060405160208101914383526001600160601b03199060601b166040820152603481526138cb6054826109f6565b519020061690565b9490943d8083833e6138e581836109f6565b810190602081830312611c5e578051906001600160401b038211611021570181601f82011215611c5e5780519061391b82610b03565b9361392960405195866109f6565b82855260208086019360051b8301019384116119c35750602001905b82821061395657505050933861374d565b6020809161396384612427565b81520191019061394556fe5f547094811d379a730e76283d666cb9ba744c31bb0775a48dd2aedee60bb39ca26469706673582212205cad79901ae464957ada12e165a5f9a2499849778b63372afb9eeba7db31997964736f6c634300081e0033","linkReferences":{}},"methodIdentifiers":{"CHALLENGE_COOLDOWN_BLOCKS()":"2a76736d","LLM_TOTAL_COST()":"272943f3","agentPlatform()":"51fbe9f4","arena()":"fd3705f9","decisionHistory(address,uint256)":"17559bb5","decodeInt(bytes)":"582b5656","executeDecision(address)":"bba9f3ae","getDecisionHistory(address,uint256)":"89aeffc8","getLLMStats()":"e977e809","getLatestDecision(address)":"62b2c156","handleResponse(uint256,(address,bytes,uint8,uint256,uint256,uint256)[],uint8,(uint256,address,address,bytes4,address[],(address,bytes,uint8,uint256,uint256,uint256)[],uint256,uint256,uint256,uint256,uint256,uint8,uint8,uint256,uint256))":"387e0801","lastChallengeBlock(address)":"007d9d7f","llmAgentId()":"c6c2041f","llmDecisions()":"960bd85a","owner()":"8da5cb5b","pendingRequests(uint256)":"3c652a9a","registry()":"7b103999","setAgentConfig(address,uint256)":"3d638261","totalDecisions()":"0c96a61a","worldState()":"bdfd55bf"},"id":22}