{"abi":[{"type":"constructor","inputs":[{"name":"_registry","type":"address","internalType":"address"},{"name":"_arena","type":"address","internalType":"address"},{"name":"_worldState","type":"address","internalType":"address"},{"name":"_agentPlatform","type":"address","internalType":"address"},{"name":"_llmAgentId","type":"uint256","internalType":"uint256"}],"stateMutability":"nonpayable"},{"type":"receive","stateMutability":"payable"},{"type":"function","name":"CHALLENGE_COOLDOWN_BLOCKS","inputs":[],"outputs":[{"name":"","type":"uint256","internalType":"uint256"}],"stateMutability":"view"},{"type":"function","name":"LLM_TOTAL_COST","inputs":[],"outputs":[{"name":"","type":"uint256","internalType":"uint256"}],"stateMutability":"view"},{"type":"function","name":"agentPlatform","inputs":[],"outputs":[{"name":"","type":"address","internalType":"contract IAgentRequester"}],"stateMutability":"view"},{"type":"function","name":"arena","inputs":[],"outputs":[{"name":"","type":"address","internalType":"contract Arena"}],"stateMutability":"view"},{"type":"function","name":"decisionHistory","inputs":[{"name":"","type":"address","internalType":"address"},{"name":"","type":"uint256","internalType":"uint256"}],"outputs":[{"name":"blockNumber","type":"uint256","internalType":"uint256"},{"name":"god","type":"address","internalType":"address"},{"name":"action","type":"string","internalType":"string"},{"name":"target","type":"address","internalType":"address"},{"name":"stake","type":"uint256","internalType":"uint256"},{"name":"move","type":"uint8","internalType":"uint8"},{"name":"reasoning","type":"string","internalType":"string"},{"name":"usedLLM","type":"bool","internalType":"bool"}],"stateMutability":"view"},{"type":"function","name":"decodeInt","inputs":[{"name":"data","type":"bytes","internalType":"bytes"}],"outputs":[{"name":"","type":"int256","internalType":"int256"}],"stateMutability":"pure"},{"type":"function","name":"executeDecision","inputs":[{"name":"god","type":"address","internalType":"address"}],"outputs":[],"stateMutability":"nonpayable"},{"type":"function","name":"getDecisionHistory","inputs":[{"name":"god","type":"address","internalType":"address"},{"name":"count","type":"uint256","internalType":"uint256"}],"outputs":[{"name":"","type":"tuple[]","internalType":"struct GodMind.DecisionLog[]","components":[{"name":"blockNumber","type":"uint256","internalType":"uint256"},{"name":"god","type":"address","internalType":"address"},{"name":"action","type":"string","internalType":"string"},{"name":"target","type":"address","internalType":"address"},{"name":"stake","type":"uint256","internalType":"uint256"},{"name":"move","type":"uint8","internalType":"uint8"},{"name":"reasoning","type":"string","internalType":"string"},{"name":"usedLLM","type":"bool","internalType":"bool"}]}],"stateMutability":"view"},{"type":"function","name":"getLLMStats","inputs":[],"outputs":[{"name":"total","type":"uint256","internalType":"uint256"},{"name":"llm","type":"uint256","internalType":"uint256"},{"name":"markov","type":"uint256","internalType":"uint256"}],"stateMutability":"view"},{"type":"function","name":"getLatestDecision","inputs":[{"name":"god","type":"address","internalType":"address"}],"outputs":[{"name":"","type":"tuple","internalType":"struct GodMind.DecisionLog","components":[{"name":"blockNumber","type":"uint256","internalType":"uint256"},{"name":"god","type":"address","internalType":"address"},{"name":"action","type":"string","internalType":"string"},{"name":"target","type":"address","internalType":"address"},{"name":"stake","type":"uint256","internalType":"uint256"},{"name":"move","type":"uint8","internalType":"uint8"},{"name":"reasoning","type":"string","internalType":"string"},{"name":"usedLLM","type":"bool","internalType":"bool"}]}],"stateMutability":"view"},{"type":"function","name":"handleResponse","inputs":[{"name":"requestId","type":"uint256","internalType":"uint256"},{"name":"responses","type":"tuple[]","internalType":"struct IAgentRequester.Response[]","components":[{"name":"validator","type":"address","internalType":"address"},{"name":"result","type":"bytes","internalType":"bytes"},{"name":"status","type":"uint8","internalType":"enum IAgentRequester.ResponseStatus"},{"name":"receipt","type":"uint256","internalType":"uint256"},{"name":"timestamp","type":"uint256","internalType":"uint256"},{"name":"executionCost","type":"uint256","internalType":"uint256"}]},{"name":"status","type":"uint8","internalType":"enum IAgentRequester.ResponseStatus"},{"name":"","type":"tuple","internalType":"struct IAgentRequester.Request","components":[{"name":"id","type":"uint256","internalType":"uint256"},{"name":"requester","type":"address","internalType":"address"},{"name":"callbackAddress","type":"address","internalType":"address"},{"name":"callbackSelector","type":"bytes4","internalType":"bytes4"},{"name":"subcommittee","type":"address[]","internalType":"address[]"},{"name":"responses","type":"tuple[]","internalType":"struct IAgentRequester.Response[]","components":[{"name":"validator","type":"address","internalType":"address"},{"name":"result","type":"bytes","internalType":"bytes"},{"name":"status","type":"uint8","internalType":"enum IAgentRequester.ResponseStatus"},{"name":"receipt","type":"uint256","internalType":"uint256"},{"name":"timestamp","type":"uint256","internalType":"uint256"},{"name":"executionCost","type":"uint256","internalType":"uint256"}]},{"name":"responseCount","type":"uint256","internalType":"uint256"},{"name":"failureCount","type":"uint256","internalType":"uint256"},{"name":"threshold","type":"uint256","internalType":"uint256"},{"name":"createdAt","type":"uint256","internalType":"uint256"},{"name":"deadline","type":"uint256","internalType":"uint256"},{"name":"status","type":"uint8","internalType":"enum IAgentRequester.ResponseStatus"},{"name":"consensusType","type":"uint8","internalType":"enum IAgentRequester.ConsensusType"},{"name":"remainingBudget","type":"uint256","internalType":"uint256"},{"name":"perAgentBudget","type":"uint256","internalType":"uint256"}]}],"outputs":[],"stateMutability":"nonpayable"},{"type":"function","name":"lastChallengeBlock","inputs":[{"name":"","type":"address","internalType":"address"}],"outputs":[{"name":"","type":"uint256","internalType":"uint256"}],"stateMutability":"view"},{"type":"function","name":"llmAgentId","inputs":[],"outputs":[{"name":"","type":"uint256","internalType":"uint256"}],"stateMutability":"view"},{"type":"function","name":"llmDecisions","inputs":[],"outputs":[{"name":"","type":"uint256","internalType":"uint256"}],"stateMutability":"view"},{"type":"function","name":"owner","inputs":[],"outputs":[{"name":"","type":"address","internalType":"address"}],"stateMutability":"view"},{"type":"function","name":"pendingRequests","inputs":[{"name":"","type":"uint256","internalType":"uint256"}],"outputs":[{"name":"god","type":"address","internalType":"address"},{"name":"target","type":"address","internalType":"address"},{"name":"stake","type":"uint256","internalType":"uint256"},{"name":"matchId","type":"uint256","internalType":"uint256"},{"name":"markovFallback","type":"uint8","internalType":"uint8"}],"stateMutability":"view"},{"type":"function","name":"registry","inputs":[],"outputs":[{"name":"","type":"address","internalType":"contract GodRegistry"}],"stateMutability":"view"},{"type":"function","name":"setAgentConfig","inputs":[{"name":"_platform","type":"address","internalType":"address"},{"name":"_agentId","type":"uint256","internalType":"uint256"}],"outputs":[],"stateMutability":"nonpayable"},{"type":"function","name":"totalDecisions","inputs":[],"outputs":[{"name":"","type":"uint256","internalType":"uint256"}],"stateMutability":"view"},{"type":"function","name":"worldState","inputs":[],"outputs":[{"name":"","type":"address","internalType":"contract WorldState"}],"stateMutability":"view"},{"type":"event","name":"DecisionMade","inputs":[{"name":"god","type":"address","indexed":true,"internalType":"address"},{"name":"action","type":"string","indexed":false,"internalType":"string"},{"name":"target","type":"address","indexed":true,"internalType":"address"},{"name":"reasoning","type":"string","indexed":false,"internalType":"string"},{"name":"usedLLM","type":"bool","indexed":false,"internalType":"bool"}],"anonymous":false},{"type":"event","name":"LLMDecisionReceived","inputs":[{"name":"god","type":"address","indexed":true,"internalType":"address"},{"name":"requestId","type":"uint256","indexed":false,"internalType":"uint256"},{"name":"result","type":"string","indexed":false,"internalType":"string"},{"name":"success","type":"bool","indexed":false,"internalType":"bool"}],"anonymous":false},{"type":"event","name":"LLMDecisionRequested","inputs":[{"name":"god","type":"address","indexed":true,"internalType":"address"},{"name":"requestId","type":"uint256","indexed":false,"internalType":"uint256"},{"name":"prompt","type":"string","indexed":false,"internalType":"string"}],"anonymous":false},{"type":"event","name":"MarkovFallback","inputs":[{"name":"god","type":"address","indexed":true,"internalType":"address"},{"name":"reason","type":"string","indexed":false,"internalType":"string"}],"anonymous":false},{"type":"error","name":"Unauthorized","inputs":[]}],"bytecode":{"object":"0x6080346100df57601f613a0c38819003918201601f19168301916001600160401b038311848410176100e45780849260a0946040528339810103126100df57610047816100fa565b90610054602082016100fa565b610060604083016100fa565b90608061006f606085016100fa565b930151600280546001600160a01b03199081166001600160a01b03978816179091556003805482169387169390931790925560048054831693861693909317909255600080548216949093169390931790915560015560058054909116331790556040516138fd908161010f8239f35b600080fd5b634e487b7160e01b600052604160045260246000fd5b51906001600160a01b03821682036100df5756fe608080604052600436101561001d575b50361561001b57600080fd5b005b60003560e01c9081627d9d7f146108d9575080630c96a61a146108bb57806317559bb5146107d6578063272943f3146107b35780632a76736d14610797578063387e0801146105915780633c652a9a146105285780633d638261146104c557806351fbe9f41461049c578063582b56561461044c57806362b2c156146103a35780637b1039991461037a57806389aeffc8146102185780638da5cb5b146101ef578063960bd85a146101d1578063bba9f3ae146101b0578063bdfd55bf14610187578063c6c2041f14610169578063e977e809146101335763fd3705f914610105573861000f565b3461012e57600036600319011261012e576003546040516001600160a01b039091168152602090f35b600080fd5b3461012e57600036600319011261012e5760606008546009546101568183611221565b9060405192835260208301526040820152f35b3461012e57600036600319011261012e576020600154604051908152f35b3461012e57600036600319011261012e576004546040516001600160a01b039091168152602090f35b3461012e57602036600319011261012e5761001b6101cc61090f565b611312565b3461012e57600036600319011261012e576020600954604051908152f35b3461012e57600036600319011261012e576005546040516001600160a01b039091168152602090f35b3461012e57604036600319011261012e5761023161090f565b6001600160a01b0316600090815260066020526040902080549060243580831015610374575081905b61026382610b04565b9261027160405194856109f7565b828452601f1961028084610b04565b0160005b81811061035d575050600019810190811160005b84811061030757856040518091602082016020835281518091526040830190602060408260051b8601019301916000905b8282106102d857505050500390f35b919360019193955060206102f78192603f198a82030186528851610c73565b96019201920185949391926102c9565b81610347578061032b61032561031f60019487611221565b87610939565b5061122e565b6103358289610d11565b526103408188610d11565b5001610298565b634e487b7160e01b600052601160045260246000fd5b6020906103686111e2565b82828901015201610284565b9061025a565b3461012e57600036600319011261012e576002546040516001600160a01b039091168152602090f35b3461012e57602036600319011261012e576103bc61090f565b6103c46111e2565b506001600160a01b0316600090815260066020526040902080548015610418576000198101908111610347576103256104009161041493610939565b604051918291602083526020830190610c73565b0390f35b60405162461bcd60e51b815260206004820152600c60248201526b4e6f206465636973696f6e7360a01b6044820152606490fd5b3461012e57602036600319011261012e576004356001600160401b03811161012e5761047c903690600401610b36565b6020815191818082019384920101031261012e5760209051604051908152f35b3461012e57600036600319011261012e576000546040516001600160a01b039091168152602090f35b3461012e57604036600319011261012e576104de61090f565b6005546001600160a01b0316330361051857600080546001600160a01b0319166001600160a01b0392909216919091179055602435600155005b6282b42960e81b60005260046000fd5b3461012e57602036600319011261012e57600435600052600760205260a06040600020600180831b0381541690600180841b0360018201541690600281015460ff6004600384015493015416926040519485526020850152604084015260608301526080820152f35b3461012e57608036600319011261012e576024356001600160401b03811161012e576105c1903690600401610b7d565b604435600581101561012e57606435916001600160401b03831161012e576101e0600319843603011261012e576040516101e081018181106001600160401b03821117610781576040528360040135815261061e60248501610925565b602082015261062f60448501610925565b604082015260648401356001600160e01b03198116810361012e57606082015260848401356001600160401b03811161012e5784013660238201121561012e5760048101359061067e82610b04565b9161068c60405193846109f7565b808352602060048185019260051b840101019136831161012e57602401905b82821061076957505050608082015260a48401356001600160401b03811161012e576106dd9060043691870101610b7d565b60a082015260c484013560c082015260e484013560e0820152610104840135610100820152610124840135610120820152610144840135610140820152610164840135600581101561012e5761016082015261018484013593600385101561012e576101c46101c09161001b966101808501526101a48101356101a08501520135910152600435610d34565b6020809161077684610925565b8152019101906106ab565b634e487b7160e01b600052604160045260246000fd5b3461012e57600036600319011261012e576020604051600a8152f35b3461012e57600036600319011261012e576020604051670354a6ba7a1800008152f35b3461012e57604036600319011261012e576107ef61090f565b6001600160a01b0316600090815260066020526040902080546024359081101561012e5761081c91610939565b50805460018201546001600160a01b0316916108af61083d60028301610a18565b9160018060a01b0360038201541690600481015460ff6005830154169061089260ff600761086d60068701610a18565b9501541696604051998a998a5260208a015261010060408a0152610100890190610adf565b936060880152608087015260a086015284820360c0860152610adf565b90151560e08301520390f35b3461012e57600036600319011261012e576020600854604051908152f35b3461012e57602036600319011261012e576020906001600160a01b036108fd61090f565b16600052600a82526040600020548152f35b600435906001600160a01b038216820361012e57565b35906001600160a01b038216820361012e57565b80548210156109555760005260206000209060031b0190600090565b634e487b7160e01b600052603260045260246000fd5b90600182811c9216801561099b575b602083101461098557565b634e487b7160e01b600052602260045260246000fd5b91607f169161097a565b60c081019081106001600160401b0382111761078157604052565b60a081019081106001600160401b0382111761078157604052565b61010081019081106001600160401b0382111761078157604052565b90601f801991011681019081106001600160401b0382111761078157604052565b9060405191826000825492610a2c8461096b565b8084529360018116908115610a9a5750600114610a53575b50610a51925003836109f7565b565b90506000929192526020600020906000915b818310610a7e575050906020610a519282010138610a44565b6020919350806001915483858901015201910190918492610a65565b905060209250610a5194915060ff191682840152151560051b82010138610a44565b60005b838110610acf5750506000910152565b8181015183820152602001610abf565b90602091610af881518092818552858086019101610abc565b601f01601f1916010190565b6001600160401b0381116107815760051b60200190565b6001600160401b03811161078157601f01601f191660200190565b81601f8201121561012e57803590610b4d82610b1b565b92610b5b60405194856109f7565b8284526020838301011161012e57816000926020809301838601378301015290565b9080601f8301121561012e57813591610b9583610b04565b92610ba360405194856109f7565b80845260208085019160051b8301019183831161012e5760208101915b838310610bcf57505050505090565b82356001600160401b03811161012e57820160c0818703601f19011261012e5760405191610bfc836109a5565b610c0860208301610925565b835260408201356001600160401b03811161012e57876020610c2c92850101610b36565b6020840152606082013592600584101561012e5760c060209493859460408401526080810135606084015260a08101356080840152013560a0820152815201920191610bc0565b908151815260018060a01b03602083015116602082015260e080610ce6610cab60408601516101006040870152610100860190610adf565b60018060a01b0360608701511660608601526080860151608086015260ff60a08701511660a086015260c086015185820360c0870152610adf565b930151151591015290565b60051115610cfb57565b634e487b7160e01b600052602160045260246000fd5b80518210156109555760209160051b010190565b60001981146103475760010190565b6000805490939192906001600160a01b031633036111ad5782845260076020526040842092604051610d65816109c0565b84546001600160a01b0390811680835260018701549091166020830190815260028701546040840190815260038801546060850190815260049098015460ff1660808501908152909892156111a25760ff908584526007602052836004604082208281558260018201558260028201558260038201550155511691809360409660028851610df38a826109f7565b601c81527f4c4c4d206661696c65642e204d61726b6f762066616c6c6261636b2e00000000602082015299610e2781610cf1565b1480611198575b61104e575b5060018060a01b038151168751968752606060208801527fafe6a0c9bb27bc0196375000f9964f8c81b665db615c5db29a6332b0826db0c6610e78606089018b610adf565b9780881515998a8c8301520390a28851156110265751975191519851865160608a901b6bffffffffffffffffffffffff191660208201908152603482018590524360548084019190915282526001600160a01b039b8c169b909a169991939190610ee36074826109f7565b519020908751602081019060ff87168252838a820152898152610f076060826109f7565b519020918a8452600b60205288842082855260205288842055898352600c60205287832081845260205287832060ff861660ff1982541617905560018060a01b0360035416803b15611022579060648b8580948c5196879586946315f418ff60e01b86526004860152602485015260448401525af180156110185793610fcf93610fff9896938a9896936000805160206138a88339815191529b94611008575b50508b8751610fb689826109f7565b600681526510d3d353525560d21b60208201528c6131ab565b815193849360608552600660608601526510d3d353525560d21b608086015260a0602086015260a0850190610adf565b918301520390a3565b81611012916109f7565b38610fa7565b87513d84823e3d90fd5b8380fd5b5191519851610a5199979850966001600160a01b0390811696509091169350611f0c92505050565b80511561118457602080806110819301510151895180938192632c15ab2b60e11b83528460048401526024830190610adf565b0381305afa839181611150575b5015610e33578281121580611145575b15610e33576009549198506001955060ff1693506110bb90610d25565b6009556110c783611e47565b61113e60056110d588611e47565b9260318a519485927029b7b6b734b090262626971026b7bb329d60791b602085015261110a8151809260208688019101610abc565b830164205265712360d81b8382015261112d825180936020603685019101610abc565b01010301601f1981018352826109f7565b9638610e33565b50600281131561109e565b9091506020813d60201161117c575b8161116c602093836109f7565b810103126110225751903861108e565b3d915061115f565b634e487b7160e01b83526032600452602483fd5b5080511515610e2e565b505050505050505050565b60405162461bcd60e51b815260206004820152600d60248201526c4f6e6c7920706c6174666f726d60981b6044820152606490fd5b604051906111ef826109db565b600060e083828152826020820152606060408201528260608201528260808201528260a0820152606060c08201520152565b9190820391821161034757565b9060405161123b816109db565b60e060ff600783958054855260018060a01b03600182015416602086015261126560028201610a18565b604086015260038101546001600160a01b03166060860152600481015460808601526005810154831660a086015261129f60068201610a18565b60c08601520154161515910152565b5190811515820361012e57565b908160c091031261012e5761130a60a0604051926112d8846109a5565b8051845260208101516020850152604081015160408501526060810151606085015260808101516080850152016112ae565b60a082015290565b600554600091906001600160a01b03163303611e395760025460405163611fc2eb60e11b81526001600160a01b0383811660048301819052949260c09183916024918391165afa908115611dc5579060a0918391611e1a575b50015115611e155760035460405163d32fc5f960e01b81526004810185905290602090829060249082906001600160a01b03165afa908115611dc5578291611ddb575b5015611dd0576003546040516376b5cff960e11b81526004810185905291906001600160a01b0316602083602481845afa928315611dc5578293611d8d575b50908060249260405193848092633d092b3d60e01b82528760048301525afa918215611d80578192611c2d575b5060a082016001815161142c81610cf1565b61143581610cf1565b03611bfd575060208201516001600160a01b0316858103611bf7575060408201516001600160a01b0316915b6002546040516305a886f760e51b815260048101889052908390829060249082906001600160a01b03165afa908115611bec57906114b7918491611bd2575b5060ff60c08160a08401511692015116908561361d565b94670354a6ba7a18000047101580611bc7575b156119ad5750606001516002546040516305a886f760e51b8152600481018890526001600160a01b039091169491908381602481895afa908115611921578491611993575b5060405163611fc2eb60e11b81526001600160a01b03909516600486018190529460c0816024818a5afa908115611988578591611959575b50602485835198604051928380926305a886f760e51b82528b60048301525afa90811561194e57869161192c575b5051815191602001519061158886611e47565b926040518094602082019b6702cb7ba9030b932960c51b8d52805190816028850191602001916115b792610abc565b8201602881016a20696e206d61746368202360a81b9052815191826033830191602001916115e492610abc565b01602801600b8101601760f91b905203600b01601e198101855260010161160b90856109f7565b61161490611e47565b9161161e90611e47565b916040519283916020830193630103b39960e51b85528051908160248601916020019161164a92610abc565b83016024810161040560f31b90528151918260268301916020019161166e92610abc565b016024016002810161572f60f01b90528151918260048301916020019161169492610abc565b01600201600281016226149760e91b905203600201601c19810183526003016116bd90836109f7565b604051906116cc6060836109f7565b603a825260208201927f2043686f6f736520303d526f636b20313d506170657220323d53636973736f728452604083017f732e2052657475726e204f4e4c5920302c20312c206f7220322e00000000000090526040519a8b955190816020880161173592610abc565b8501905191826020830161174892610abc565b0160200191829151809361175b92610abc565b0103601f198101875261176e90876109f7565b604090810151905163c6833c3d60e01b602082015260a060248201529490859061179b60c4830189610adf565b8281036023190160448401526117b091610adf565b85606483015260848201600290528560a483015203601f19810186526117d690866109f7565b83546001546040516345de5df160e11b8152966001600160a01b039092169187918291611808913090600485016134d6565b03815a602094670354a6ba7a18000091f19485156119215784956118df575b506000805160206138888339815191529660ff936004938593604080519861184e8a6109c0565b8d8a526020808b01938452828b0194855260608b0195865295871660808b019081528b8252600790965220975188546001600160a01b03199081166001600160a01b03928316178a55915160018a01805490931691161790555160028701555160038601555191909301805460ff191691909316919091161790556040519182916118da91908361350b565b0390a2565b9094506020813d602011611919575b816118fb602093836109f7565b8101031261012e575193600080516020613888833981519152611827565b3d91506118ee565b6040513d86823e3d90fd5b61194891503d8088833e61194081836109f7565b8101906123d1565b38611575565b6040513d88823e3d90fd5b61197b915060c03d60c011611981575b61197381836109f7565b8101906112bb565b38611547565b503d611969565b6040513d87823e3d90fd5b6119a791503d8086833e61194081836109f7565b3861150f565b959490606090867fa32de85fd6e8f7ab05fbd0b95094ef7073e6e99582697fcc8c6d634f5f522f9d83604051602081526014602082015273496e73756666696369656e742062616c616e636560601b6040820152a20151604096875195611a1489886109f7565b601087526f26b0b935b7bb10383932b234b1ba37b960811b6020880152885160208101906001600160601b03198460601b16825282603482015243605482015260548152611a636074826109f7565b519020908951602081019060ff87168252838c8201528b8152611a876060826109f7565b51902091898752600b6020528a87208288526020528a872055888652600c60205289862081875260205289862060ff861660ff1982541617905560018060a01b0360035416803b15611bc3579060648a8880948e5196879586946315f418ff60e01b86526004860152602485015260448401525af18015611bb95792868a89979594611b849997946000805160206138a88339815191529b96611b97575b5091611b54959391879593611b3c825192836109f7565b600682526510d3d353525560d21b60208301526131ab565b865193849360608552600660608601526510d3d353525560d21b608086015260a0602086015260a0850190610adf565b968301526001600160a01b0316940390a3565b96611bac81611b5498969499979593976109f7565b9691939594909294611b25565b89513d87823e3d90fd5b8680fd5b5060015415156114ca565b611be691503d8086833e61194081836109f7565b386114a0565b6040513d85823e3d90fd5b91611461565b9091506002929394505190611c1182610cf1565b50611c1b81610cf1565b14611c24575050565b610a5191613522565b9091503d8083833e611c3f81836109f7565b810190602081830312611d7c578051906001600160401b0382116110225701906101a082820312611d7c57604051916101a083018381106001600160401b03821117611d685760405280518352611c9860208201613197565b6020840152611ca960408201613197565b60408401526060810151606084015260808101516001811015611d6457608084015260a08101516005811015611d645760a084015260c081015160c084015260e081015160e0840152611cff61010082016123c3565b610100840152611d1261012082016123c3565b610120840152611d256101408201613197565b610140840152610160810151610160840152610180810151906001600160401b038211611d6457611d5792910161237e565b610180820152903861141a565b8480fd5b634e487b7160e01b85526041600452602485fd5b8280fd5b50604051903d90823e3d90fd5b9092506020813d602011611dbd575b81611da9602093836109f7565b81010312611db9575191816113ed565b5080fd5b3d9150611d9c565b6040513d84823e3d90fd5b50610a5191506124d4565b90506020813d602011611e0d575b81611df6602093836109f7565b81010312611db957611e07906112ae565b386113ae565b3d9150611de9565b505050565b611e33915060c03d60c0116119815761197381836109f7565b3861136b565b6282b42960e81b8252600482fd5b8015611eec57600081805b611ed85750611e6081610b1b565b90611e6e60405192836109f7565b808252601f19611e7d82610b1b565b013660208401375b808315611ed1578015610347576000190192600a8106603001918260301161034757835185101561095557600a9260f81b6001600160f81b03191660001a908401601f01530491611e85565b5050905090565b90611ee4600a91610d25565b910480611e52565b50604051611efb6040826109f7565b60018152600360fc1b602082015290565b60035460405163fb74beff60e01b81526001600160a01b039283166004820181905293831660248201819052604482018690526080606483015295939492909160209183911681600081611f63608482018a610adf565b03925af1801561237257612343575b506040908151611f8283826109f7565b60098152684348414c4c454e474560b81b60208201528460005260066020528260002091835191611fb2836109db565b4383526020830191878352858401918252606084018981526080850191825260a08501926000845260c086019489865260e0870197600089528054600160401b8110156107815761200891600182018155610939565b97909761232d57518755516001870180546001600160a01b0319166001600160a01b039290921691909117905551805160028701916001600160401b03821161078157612055835461096b565b601f81116122e5575b50602090601f83116001146122785760ff9695949392916000918361226d575b50508160011b916000199060031b1c19161790555b516003860180546001600160a01b0319166001600160a01b03929092169190911790555160048501555160058401805460ff191660ff939092169290921617905551805160068301916001600160401b038211610781576120f4835461096b565b601f8111612225575b50602090601f83116001146121a5579282600793610fff9896936000805160206138a88339815191529a989660009261219a575b50508160011b916000199060031b1c19161790555b019051151560ff80198354169116179055612162600854610d25565b600855600081519384936060855260096060860152684348414c4c454e474560b81b608086015260a0602086015260a0850190610adf565b015190503880612131565b90601f1983169184600052816000209260005b81811061220d575093610fff9896936000805160206138a88339815191529a98969360019383600798106121f4575b505050811b019055612146565b015160001960f88460031b161c191690553880806121e7565b929360206001819287860151815501950193016121b8565b836000526020600020601f840160051c81019160208510612263575b601f0160051c01905b81811061225757506120fd565b6000815560010161224a565b9091508190612241565b01519050388061207e565b90601f1983169184600052816000209260005b8181106122cd575091600193918560ff9a9998979694106122b4575b505050811b019055612093565b015160001960f88460031b161c191690553880806122a7565b9293602060018192878601518155019501930161228b565b836000526020600020601f840160051c81019160208510612323575b601f0160051c01905b818110612317575061205e565b6000815560010161230a565b9091508190612301565b634e487b7160e01b600052600060045260246000fd5b6020813d60201161236a575b8161235c602093836109f7565b8101031261012e5751611f72565b3d915061234f565b6040513d6000823e3d90fd5b81601f8201121561012e57805161239481610b1b565b926123a260405194856109f7565b8184526020828401011161012e576123c09160208085019101610abc565b90565b519060ff8216820361012e57565b60208183031261012e578051906001600160401b03821161012e57016101008183031261012e5760405191612405836109db565b81516001600160401b03811161012e578161242191840161237e565b835260208201516001600160401b03811161012e578161244291840161237e565b602084015260408201516001600160401b03811161012e578161246691840161237e565b6040840152612477606083016123c3565b6060840152612488608083016123c3565b608084015261249960a083016123c3565b60a08401526124aa60c083016123c3565b60c084015260e08201516001600160401b03811161012e576124cc920161237e565b60e082015290565b9060018060a01b03821680600052600a602052604060002054600a8101809111610347574310613192576002546040516305a886f760e51b81526004810183905290600090829060249082906001600160a01b03165afa90811561237257600091613179575b50600480546040516330ec9f2d60e01b8152918201849052602090829060249082906001600160a01b03165afa90811561237257600091613147575b50606460085460405160208101914383526001600160601b03198960601b1660408301526054820152605481526125ae6074826109f7565b519020061015612dcb57600254604051630fad954160e31b81526001600160a01b039091169490602081600481895afa90811561237257600091612d99575b50946000956000809260608601935b838110612b20575050506001600160a01b038716929150508115612b185760ff608084015116681b1ae4d6e2ef5000000268ffffffffffffffffff811690810361034757606468ffffffffffffffffff91041695670de0b6b3a76400008710612b08575b84600052600a60205243604060002055670354a6ba7a18000047101580612afd575b15612a9757505060025460405163611fc2eb60e11b815260048101839052956001600160a01b03909116929060c087602481875afa93841561237257602497600095612a73575b50600090604051988980926305a886f760e51b82528760048301525afa968715612372576037600960019961282c93600091612a58575b505196600861271460608851930151611e47565b600c612729670de0b6b3a76400008904611e47565b9160286040519c8d966702cb7ba9030b932960c51b6020890152612756815180926020868c019101610abc565b87016b0171021b430b63632b733b2960a51b83820152612780825180936020603485019101610abc565b01016710143837bbb2b91d60c11b838201526127a6825180936020601485019101610abc565b01016814971029ba30b5b29d60b91b838201526127cd825180936020601185019101610abc565b010164102824271760d91b838201527f2047697665206f6e652073656e74656e63652073747261746567696320726561600e8201527139b7b7171026b0bc101c181031b430b9399760711b602e820152030160178101875201856109f7565b60408201519160209260405161284285826109f7565b60008152600099612a53575b604051631fcf941360e31b8682015260806024820152916128889061287660a485018a610adf565b84810360231901604486015290610adf565b8a606484015260231983820301608484015281518082528682019187808360051b8301019401928d915b838310612a2757505050505093816128da8295949361290e989703601f1981018352826109f7565b60018060a01b038b5416600154670354a6ba7a180000604051809a819582946345de5df160e11b84523090600485016134d6565b03925af1948515612a1c5789956129db575b506000805160206138888339815191529697989360ff936004938560c081950151169260408051986129518a6109c0565b8d8a52848a01928352818a0193845260608a0181815260808b019687528b8252600790955220975188546001600160a01b03199081166001600160a01b03928316178a55915160018a01805490931691161790555160028701555160038601555191909301805460ff191693909116919091169190911790556040519182916118da91908361350b565b9094508281813d8311612a15575b6129f381836109f7565b81010312612a11575193600080516020613888833981519152612920565b8880fd5b503d6129e9565b6040513d8b823e3d90fd5b90919293948980612a44600193601f198682030187528951610adf565b970193019301919392906128b2565b61284e565b612a6d91503d806000833e61194081836109f7565b38612700565b6000919550612a909060c03d60c0116119815761197381836109f7565b94906126c9565b91509250610a519394915192612af86017602060405187612ac18299518092858086019101610abc565b81017f206368616c6c656e67657320766961204d61726b6f762e0000000000000000008382015203016008198101875201856109f7565b611f0c565b506001541515612682565b670de0b6b3a76400009650612660565b505050509050565b604051631bd8667360e31b815260048101829052602081602481865afa90811561237257600091612d60575b506001600160a01b0381168981148015612ce4575b612cda5760405163352c285160e11b81528a6004820152816024820152602081604481885afa90811561237257600091612c9d575b50906032916004811015610cfb5760038103612c6d5750906028810180911161034757905b604660ff89511611612bea575b50848111612bdd575b50506001905b016125fc565b909a509250600138612bd1565b6040519063611fc2eb60e11b8252600482015260c081602481885afa801561237257606091600091612c4f575b50015160006103e8821015612c4857506103e8036103e8811161034757601490045b81018091116103475738612bc8565b9050612c39565b612c67915060c03d81116119815761197381836109f7565b38612c17565b600060028203612c8b57505090601481018091116103475790612bbb565b5060001901612bbb5760059150612bbb565b6020813d8211612cd2575b81612cb5602093836109f7565b81010312611db95751906004821015612ccf575038612b96565b80fd5b3d9150612ca8565b5050600190612bd7565b5060035460405163d32fc5f960e01b81526004810183905290602090829060249082906001600160a01b03165afa90811561237257600091612d27575b50612b61565b906020823d8211612d58575b81612d40602093836109f7565b81010312612ccf5750612d52906112ae565b38612d21565b3d9150612d33565b906020823d8211612d91575b81612d79602093836109f7565b81010312612ccf5750612d8b90613197565b38612b4c565b3d9150612d6c565b90506020813d602011612dc3575b81612db4602093836109f7565b8101031261012e5751386125ed565b3d9150612da7565b50604080519350612ddc81856109f7565b600484526349444c4560e01b60208501528051612df982826109f7565b600881526721b7b7b63237bbb760c11b60208201528260005260066020528160002092825192612e28846109db565b438452602084019182528301958652606083016000815260808401906000825260a08501926000845260c0860194855260e0860196600088528054600160401b81101561078157612e7e91600182018155610939565b96909661232d57518655516001860180546001600160a01b0319166001600160a01b03929092169190911790559651805190979060028601906001600160401b03811161078157612ecf825461096b565b601f81116130ff575b506020601f821160011461309357819060ff9798999a9b600092613088575b50508160011b916000199060031b1c19161790555b516003860180546001600160a01b0319166001600160a01b03929092169190911790555160048501555160058401805460ff191660ff939092169290921617905551805160068301916001600160401b03821161078157612f6d835461096b565b601f8111613040575b50602090601f8311600114612fd55760079493929160009183612fca575b50508160011b916000199060031b1c19161790555b019051151560ff80198354169116179055612fc5600854610d25565b600855565b015190503880612f94565b90601f1983169184600052816000209260005b81811061302857509160019391856007989796941061300f575b505050811b019055612fa9565b015160001960f88460031b161c19169055388080613002565b92936020600181928786015181550195019301612fe8565b836000526020600020601f840160051c8101916020851061307e575b601f0160051c01905b8181106130725750612f76565b60008155600101613065565b909150819061305c565b015190503880612ef7565b601f1982169a83600052816000209b60005b8181106130e757509160ff98999a9b9c918460019594106130ce575b505050811b019055612f0c565b015160001960f88460031b161c191690553880806130c1565b838301518e556001909d019c602093840193016130a5565b826000526020600020601f830160051c8101916020841061313d575b601f0160051c01905b8181106131315750612ed8565b60008155600101613124565b909150819061311b565b90506020813d602011613171575b81613162602093836109f7565b8101031261012e575138612576565b3d9150613155565b61318c913d8091833e61194081836109f7565b3861253a565b509050565b51906001600160a01b038216820361012e57565b6001600160a01b03166000818152600660205260409081902090519298979692959294929391906131db876109db565b4387526020870191825260408701998a52606087019260018060a01b031683526080870193845260ff60a088019516855260c0870195865260e0870197151588528054600160401b8110156107815761323991600182018155610939565b96909661232d57518655516001860180546001600160a01b0319166001600160a01b03929092169190911790559651805190979060028601906001600160401b0381116107815761328a825461096b565b601f811161348e575b506020601f821160011461342257819060ff9798999a9b600092613417575b50508160011b916000199060031b1c19161790555b516003860180546001600160a01b0319166001600160a01b03929092169190911790555160048501555160058401805460ff191660ff939092169290921617905551805160068301916001600160401b03821161078157613328835461096b565b601f81116133cf575b50602090601f831160011461337e5760079493929160009183612fca5750508160011b916000199060031b1c1916179055019051151560ff80198354169116179055612fc5600854610d25565b90601f1983169184600052816000209260005b8181106133b757509160019391856007989796941061300f57505050811b019055612fa9565b92936020600181928786015181550195019301613391565b836000526020600020601f840160051c8101916020851061340d575b601f0160051c01905b8181106134015750613331565b600081556001016133f4565b90915081906133eb565b0151905038806132b2565b601f1982169a83600052816000209b60005b81811061347657509160ff98999a9b9c9184600195941061345d575b505050811b0190556132c7565b015160001960f88460031b161c19169055388080613450565b838301518e556001909d019c60209384019301613434565b826000526020600020601f830160051c810191602084106134cc575b601f0160051c01905b8181106134c05750613293565b600081556001016134b3565b90915081906134aa565b9081526001600160a01b03909116602082015263387e080160e01b60408201526080606082018190526123c092910190610adf565b6040906123c0939281528160208201520190610adf565b6001600160a01b03166000818152600b6020908152604080832085845290915281205493929091841561360557808352600c602090815260408085208486529091528320546003546001600160a01b0316959060ff16863b15611d6457906084859283604051998a94859363b46695ff60e01b8552886004860152896024860152604485015260648401525af1948515611bec57604094956135f1575b50808352600b60205283832082845260205282848120558252600c6020528282209082526020522060ff198154169055565b836135fe919492946109f7565b91386135bf565b5050509050565b9060038110156109555760051b0190565b600254604051630ae4d1bd60e41b81526001600160a01b0380841660048301526006602483015290959293929160009187916044918391165afa948515612372576000956137ec575b50845192600284106137ab5750600019830192831193846103475760ff61368d8588610d11565b511692606094604051956136a181886109f7565b3687376000875b610347578181101561373b578560ff6136c1838c610d11565b51161480613719575b6136d8575b600101876136a8565b60018101908181116103475760ff6136f26001938c610d11565b511661371161370a613704838c61360c565b51610d25565b918a61360c565b5290506136cf565b50600181018082116103475760ff6137336003928c610d11565b5116106136ca565b505092509350935060009160208101518151106137a2575b61376660408201519160ff85169061360c565b5110613799575b60ff601e91161060001461377f575090565b6001915060ff160160ff81116103475760ff600391160690565b6002915061376d565b60019250613753565b9150935060ff92506003915060405160208101914383526001600160601b03199060601b166040820152603481526137e46054826109f7565b519020061690565b9490943d8083833e6137fe81836109f7565b810190602081830312611d7c578051906001600160401b038211611022570181601f82011215611d7c5780519061383482610b04565b9361384260405195866109f7565b82855260208086019360051b830101938411612ccf5750602001905b82821061386f575050509338613666565b6020809161387c846123c3565b81520191019061385e56feafb0da1f0b8293fdd616ebb292d276ec08b01c70ea482a8aa804935b1e2862c45f547094811d379a730e76283d666cb9ba744c31bb0775a48dd2aedee60bb39ca2646970667358221220640df2f55eae191b7e8cfaca6a9a945311450a2a7fc1ee69083372949e2645fb64736f6c634300081e0033","linkReferences":{}},"methodIdentifiers":{"CHALLENGE_COOLDOWN_BLOCKS()":"2a76736d","LLM_TOTAL_COST()":"272943f3","agentPlatform()":"51fbe9f4","arena()":"fd3705f9","decisionHistory(address,uint256)":"17559bb5","decodeInt(bytes)":"582b5656","executeDecision(address)":"bba9f3ae","getDecisionHistory(address,uint256)":"89aeffc8","getLLMStats()":"e977e809","getLatestDecision(address)":"62b2c156","handleResponse(uint256,(address,bytes,uint8,uint256,uint256,uint256)[],uint8,(uint256,address,address,bytes4,address[],(address,bytes,uint8,uint256,uint256,uint256)[],uint256,uint256,uint256,uint256,uint256,uint8,uint8,uint256,uint256))":"387e0801","lastChallengeBlock(address)":"007d9d7f","llmAgentId()":"c6c2041f","llmDecisions()":"960bd85a","owner()":"8da5cb5b","pendingRequests(uint256)":"3c652a9a","registry()":"7b103999","setAgentConfig(address,uint256)":"3d638261","totalDecisions()":"0c96a61a","worldState()":"bdfd55bf"},"id":22}