{"abi":[{"type":"constructor","inputs":[{"name":"_registry","type":"address","internalType":"address"},{"name":"_arena","type":"address","internalType":"address"},{"name":"_worldState","type":"address","internalType":"address"}],"stateMutability":"nonpayable"},{"type":"function","name":"CHALLENGE_COOLDOWN_BLOCKS","inputs":[],"outputs":[{"name":"","type":"uint256","internalType":"uint256"}],"stateMutability":"view"},{"type":"function","name":"arena","inputs":[],"outputs":[{"name":"","type":"address","internalType":"contract Arena"}],"stateMutability":"view"},{"type":"function","name":"decisionHistory","inputs":[{"name":"","type":"address","internalType":"address"},{"name":"","type":"uint256","internalType":"uint256"}],"outputs":[{"name":"blockNumber","type":"uint256","internalType":"uint256"},{"name":"god","type":"address","internalType":"address"},{"name":"action","type":"string","internalType":"string"},{"name":"target","type":"address","internalType":"address"},{"name":"stake","type":"uint256","internalType":"uint256"},{"name":"move","type":"uint8","internalType":"uint8"},{"name":"reasoning","type":"string","internalType":"string"}],"stateMutability":"view"},{"type":"function","name":"executeDecision","inputs":[{"name":"god","type":"address","internalType":"address"}],"outputs":[],"stateMutability":"nonpayable"},{"type":"function","name":"getDecisionHistory","inputs":[{"name":"god","type":"address","internalType":"address"},{"name":"count","type":"uint256","internalType":"uint256"}],"outputs":[{"name":"","type":"tuple[]","internalType":"struct GodMind.DecisionLog[]","components":[{"name":"blockNumber","type":"uint256","internalType":"uint256"},{"name":"god","type":"address","internalType":"address"},{"name":"action","type":"string","internalType":"string"},{"name":"target","type":"address","internalType":"address"},{"name":"stake","type":"uint256","internalType":"uint256"},{"name":"move","type":"uint8","internalType":"uint8"},{"name":"reasoning","type":"string","internalType":"string"}]}],"stateMutability":"view"},{"type":"function","name":"getLatestDecision","inputs":[{"name":"god","type":"address","internalType":"address"}],"outputs":[{"name":"","type":"tuple","internalType":"struct GodMind.DecisionLog","components":[{"name":"blockNumber","type":"uint256","internalType":"uint256"},{"name":"god","type":"address","internalType":"address"},{"name":"action","type":"string","internalType":"string"},{"name":"target","type":"address","internalType":"address"},{"name":"stake","type":"uint256","internalType":"uint256"},{"name":"move","type":"uint8","internalType":"uint8"},{"name":"reasoning","type":"string","internalType":"string"}]}],"stateMutability":"view"},{"type":"function","name":"lastChallengeBlock","inputs":[{"name":"","type":"address","internalType":"address"}],"outputs":[{"name":"","type":"uint256","internalType":"uint256"}],"stateMutability":"view"},{"type":"function","name":"owner","inputs":[],"outputs":[{"name":"","type":"address","internalType":"address"}],"stateMutability":"view"},{"type":"function","name":"registry","inputs":[],"outputs":[{"name":"","type":"address","internalType":"contract GodRegistry"}],"stateMutability":"view"},{"type":"function","name":"totalDecisions","inputs":[],"outputs":[{"name":"","type":"uint256","internalType":"uint256"}],"stateMutability":"view"},{"type":"function","name":"worldState","inputs":[],"outputs":[{"name":"","type":"address","internalType":"contract WorldState"}],"stateMutability":"view"},{"type":"event","name":"DecisionMade","inputs":[{"name":"god","type":"address","indexed":true,"internalType":"address"},{"name":"action","type":"string","indexed":false,"internalType":"string"},{"name":"target","type":"address","indexed":true,"internalType":"address"},{"name":"reasoning","type":"string","indexed":false,"internalType":"string"}],"anonymous":false},{"type":"event","name":"MoveCommitted","inputs":[{"name":"god","type":"address","indexed":true,"internalType":"address"},{"name":"matchId","type":"uint256","indexed":true,"internalType":"uint256"}],"anonymous":false},{"type":"event","name":"MoveRevealed","inputs":[{"name":"god","type":"address","indexed":true,"internalType":"address"},{"name":"matchId","type":"uint256","indexed":true,"internalType":"uint256"},{"name":"move","type":"uint8","indexed":false,"internalType":"uint8"}],"anonymous":false},{"type":"error","name":"CooldownActive","inputs":[]},{"type":"error","name":"NoActiveMatch","inputs":[]},{"type":"error","name":"Unauthorized","inputs":[]}],"bytecode":{"object":"0x6080604052348015600e575f5ffd5b50604051612b88380380612b88833981016040819052602b916092565b5f80546001600160a01b039485166001600160a01b0319918216179091556001805493851693821693909317909255600280549190931690821617909155600380549091163317905560cb565b80516001600160a01b0381168114608d575f5ffd5b919050565b5f5f5f6060848603121560a3575f5ffd5b60aa846078565b925060b6602085016078565b915060c2604085016078565b90509250925092565b612ab0806100d85f395ff3fe608060405234801561000f575f5ffd5b50600436106100a5575f3560e01c80637b1039991161006e5780637b1039991461013257806389aeffc81461015c5780638da5cb5b1461017c578063bba9f3ae1461018f578063bdfd55bf146101a4578063fd3705f9146101b7575f5ffd5b80627d9d7f146100a95780630c96a61a146100db57806317559bb5146100e45780632a76736d1461010a57806362b2c15614610112575b5f5ffd5b6100c86100b7366004611e91565b60086020525f908152604090205481565b6040519081526020015b60405180910390f35b6100c860055481565b6100f76100f2366004611eac565b6101ca565b6040516100d29796959493929190611f04565b6100c8600a81565b610125610120366004611e91565b61034b565b6040516100d29190611fe7565b5f54610144906001600160a01b031681565b6040516001600160a01b0390911681526020016100d2565b61016f61016a366004611eac565b610573565b6040516100d29190611ff9565b600354610144906001600160a01b031681565b6101a261019d366004611e91565b6107f4565b005b600254610144906001600160a01b031681565b600154610144906001600160a01b031681565b6004602052815f5260405f2081815481106101e3575f80fd5b5f9182526020909120600790910201805460018201546002830180549295506001600160a01b039091169350906102199061205c565b80601f01602080910402602001604051908101604052809291908181526020018280546102459061205c565b80156102905780601f1061026757610100808354040283529160200191610290565b820191905f5260205f20905b81548152906001019060200180831161027357829003601f168201915b50505060038401546004850154600586015460068701805496976001600160a01b039094169692955060ff9091169350906102ca9061205c565b80601f01602080910402602001604051908101604052809291908181526020018280546102f69061205c565b80156103415780601f1061031857610100808354040283529160200191610341565b820191905f5260205f20905b81548152906001019060200180831161032457829003601f168201915b5050505050905087565b610353611e0f565b6001600160a01b0382165f90815260046020526040902080546103af5760405162461bcd60e51b815260206004820152601060248201526f139bc8191958da5cda5bdb9cc81e595d60821b604482015260640160405180910390fd5b805481906103bf906001906120a8565b815481106103cf576103cf6120bb565b905f5260205f2090600702016040518060e00160405290815f8201548152602001600182015f9054906101000a90046001600160a01b03166001600160a01b03166001600160a01b0316815260200160028201805461042d9061205c565b80601f01602080910402602001604051908101604052809291908181526020018280546104599061205c565b80156104a45780601f1061047b576101008083540402835291602001916104a4565b820191905f5260205f20905b81548152906001019060200180831161048757829003601f168201915b505050918352505060038201546001600160a01b0316602082015260048201546040820152600582015460ff1660608201526006820180546080909201916104eb9061205c565b80601f01602080910402602001604051908101604052809291908181526020018280546105179061205c565b80156105625780601f1061053957610100808354040283529160200191610562565b820191905f5260205f20905b81548152906001019060200180831161054557829003601f168201915b505050505081525050915050919050565b6001600160a01b0382165f908152600460205260408120805460609284821061059c578461059e565b815b90505f816001600160401b038111156105b9576105b96120cf565b6040519080825280602002602001820160405280156105f257816020015b6105df611e0f565b8152602001906001900390816105d75790505b5090505f5b828110156107e757848161060c6001876120a8565b61061691906120a8565b81548110610626576106266120bb565b905f5260205f2090600702016040518060e00160405290815f8201548152602001600182015f9054906101000a90046001600160a01b03166001600160a01b03166001600160a01b031681526020016002820180546106849061205c565b80601f01602080910402602001604051908101604052809291908181526020018280546106b09061205c565b80156106fb5780601f106106d2576101008083540402835291602001916106fb565b820191905f5260205f20905b8154815290600101906020018083116106de57829003601f168201915b505050918352505060038201546001600160a01b0316602082015260048201546040820152600582015460ff1660608201526006820180546080909201916107429061205c565b80601f016020809104026020016040519081016040528092919081815260200182805461076e9061205c565b80156107b95780601f10610790576101008083540402835291602001916107b9565b820191905f5260205f20905b81548152906001019060200180831161079c57829003601f168201915b5050505050815250508282815181106107d4576107d46120bb565b60209081029190910101526001016105f7565b5093505050505b92915050565b336001600160a01b0382161480159061081857506003546001600160a01b03163314155b15610835576040516282b42960e81b815260040160405180910390fd5b5f805460405163611fc2eb60e11b81526001600160a01b0384811660048301529091169063c23f85d69060240160c060405180830381865afa15801561087d573d5f5f3e3d5ffd5b505050506040513d601f19601f820116820180604052508101906108a19190612173565b90508060a001516108b0575050565b60015460405163d32fc5f960e01b81526001600160a01b0384811660048301525f92169063d32fc5f990602401602060405180830381865afa1580156108f8573d5f5f3e3d5ffd5b505050506040513d601f19601f8201168201806040525081019061091c91906121ee565b90508015610a16576001546040516376b5cff960e11b81526001600160a01b0385811660048301525f92169063ed6b9ff290602401602060405180830381865afa15801561096c573d5f5f3e3d5ffd5b505050506040513d601f19601f820116820180604052508101906109909190612207565b600154604051633d092b3d60e01b8152600481018390529192505f916001600160a01b0390911690633d092b3d906024015f60405180830381865afa1580156109db573d5f5f3e3d5ffd5b505050506040513d5f823e601f3d908101601f19168201604052610a0291908101906122c0565b9050610a0f858383610a25565b5050505050565b610a208383610a74565b505050565b60018160a001516004811115610a3d57610a3d6123dd565b03610a4d57610a20838383610efe565b60028160a001516004811115610a6557610a656123dd565b03610a2057610a20838361127b565b6001600160a01b0382165f90815260086020526040902054610a9890600a906123f1565b431015610aa3575050565b5f80546040516305a886f760e51b81526001600160a01b0385811660048301529091169063b510dee0906024015f60405180830381865afa158015610aea573d5f5f3e3d5ffd5b505050506040513d5f823e601f3d908101601f19168201604052610b119190810190612404565b6002546040516330ec9f2d60e01b81526001600160a01b0386811660048301529293505f92909116906330ec9f2d90602401602060405180830381865afa158015610b5e573d5f5f3e3d5ffd5b505050506040513d601f19601f82011682018060405250810190610b829190612207565b90505f60644386600554604051602001610bbc9392919092835260609190911b6001600160601b0319166020830152603482015260540190565b604051602081830303815290604052805190602001205f1c610bde9190612545565b9050818110610c4257610a0f856040518060400160405280600481526020016349444c4560e01b8152505f5f5f610c14876113af565b610c1d896114b4565b604051602001610c2e92919061256f565b6040516020818303038152906040526114f9565b5f610c4d8685611612565b90506001600160a01b038116610c6557505050505050565b6080840151683635c9adc5dea00000905f90606490610c879060ff16846125d0565b610c9191906125e7565b9050670de0b6b3a7640000811015610cae5750670de0b6b3a76400005b5f805460405163352c285160e11b81526001600160a01b038b81166004830152868116602483015290911690636a5850a290604401602060405180830381865afa158015610cfe573d5f5f3e3d5ffd5b505050506040513d601f19601f82011682018060405250810190610d2291906125fa565b87515f80546040516305a886f760e51b81526001600160a01b0389811660048301529495509193169063b510dee0906024015f60405180830381865afa158015610d6e573d5f5f3e3d5ffd5b505050506040513d5f823e601f3d908101601f19168201604052610d959190810190612404565b51610d9f84611a32565b610da8896113af565b610db18b6114b4565b610dcb610dc6670de0b6b3a76400008a6125e7565b6113af565b604051602001610de096959493929190612618565b60408051601f198184030181528282526001600160a01b03808e165f90815260086020529290922043905560015463fb74beff60e01b8452909350169063fb74beff90610e37908d908990889087906004016126e9565b6020604051808303815f875af1158015610e53573d5f5f3e3d5ffd5b505050506040513d601f19601f82011682018060405250810190610e779190612207565b50610ea78a604051806040016040528060098152602001684348414c4c454e474560b81b81525087865f866114f9565b846001600160a01b03168a6001600160a01b03167f4cd0b2301086c56a4c654b8ba7c76c5f89d79baad722e09ea83e92ab12d6549383604051610eea9190612725565b60405180910390a350505050505050505050565b5f80546040516305a886f760e51b81526001600160a01b0386811660048301529091169063b510dee0906024015f60405180830381865afa158015610f45573d5f5f3e3d5ffd5b505050506040513d5f823e601f3d908101601f19168201604052610f6c9190810190612404565b90505f846001600160a01b031683602001516001600160a01b031614610f96578260200151610f9c565b82604001515b90505f610fad828460a00151611b03565b90505f610fba8285611dba565b84515f80546040516305a886f760e51b81526001600160a01b0388811660048301529495509193169063b510dee0906024015f60405180830381865afa158015611006573d5f5f3e3d5ffd5b505050506040513d5f823e601f3d908101601f1916820160405261102d9190810190612404565b5161103a60ff86166113af565b6110468560ff166113af565b6110568960a0015160ff166113af565b60405160200161106a959493929190612757565b60408051601f19818403018152908290526001600160601b031960608b901b16602083015260348201899052436054830152673830b73a3432b7b760c11b607483015291505f90607c0160408051601f19818403018152828252805160209182012060ff87169184019190915290820181905291505f906060016040516020818303038152906040528051906020012090508160065f8c6001600160a01b03166001600160a01b031681526020019081526020015f205f8b81526020019081526020015f20819055508360075f8c6001600160a01b03166001600160a01b031681526020019081526020015f205f8b81526020019081526020015f205f6101000a81548160ff021916908360ff16021790555060015f9054906101000a90046001600160a01b03166001600160a01b03166315f418ff8b8b846040518463ffffffff1660e01b81526004016111dd939291906001600160a01b039390931683526020830191909152604082015260600190565b5f604051808303815f87803b1580156111f4575f5ffd5b505af1158015611206573d5f5f3e3d5ffd5b5050505061123a8a6040518060400160405280600681526020016510d3d353525560d21b815250888b6060015188886114f9565b60405189906001600160a01b038c16907fed023b424457cda33feade9721fca38038ccc8f28f8b88b13c246d12397ff534905f90a350505050505050505050565b6001600160a01b0382165f8181526007602090815260408083208584528252808320549383526006825280832085845290915290205460ff90911690806112c25750505050565b60015460405163b46695ff60e01b81526001600160a01b0386811660048301526024820186905260ff85166044830152606482018490529091169063b46695ff906084015f604051808303815f87803b15801561131d575f5ffd5b505af115801561132f573d5f5f3e3d5ffd5b505050506001600160a01b0384165f818152600660209081526040808320878452825280832083905583835260078252808320878452825291829020805460ff19169055905160ff851681528592917fa437aa4f0741582c9ceb8081c15f61d101b35d38b2747181c2e9a4b3ca2f2912910160405180910390a350505050565b6060815f036113d55750506040805180820190915260018152600360fc1b602082015290565b815f5b81156113fe57806113e881612810565b91506113f79050600a836125e7565b91506113d8565b5f816001600160401b03811115611417576114176120cf565b6040519080825280601f01601f191660200182016040528015611441576020820181803683370190505b5090505b84156114ac578161145581612828565b92506114649050600a86612545565b61146f9060306123f1565b60f81b818381518110611484576114846120bb565b60200101906001600160f81b03191690815f1a9053506114a5600a866125e7565b9450611445565b949350505050565b60605f8212156114f0576114ca610dc68361283d565b6040516020016114da9190612857565b6040516020818303038152906040529050919050565b6107ee826113af565b6001600160a01b038681165f818152600460209081526040808320815160e0810183524381528084019586529182018b81528a87166060840152608083018a905260ff891660a084015260c08301889052815460018082018455928652939094208251600790940201928355935193820180546001600160a01b031916949095169390931790935551909190600282019061159490826128b0565b5060608201516003820180546001600160a01b0319166001600160a01b039092169190911790556080820151600482015560a082015160058201805460ff191660ff90921691909117905560c082015160068201906115f390826128b0565b50506005805491505f61160583612810565b9190505550505050505050565b5f805460408051630fad954160e31b8152905183926001600160a01b031691637d6caa089160048083019260209291908290030181865afa158015611659573d5f5f3e3d5ffd5b505050506040513d601f19601f8201168201806040525081019061167d9190612207565b90505f80805b83811015611a27575f8054604051631bd8667360e31b8152600481018490526001600160a01b039091169063dec3339890602401602060405180830381865afa1580156116d2573d5f5f3e3d5ffd5b505050506040513d601f19601f820116820180604052508101906116f6919061296a565b9050876001600160a01b0316816001600160a01b0316036117175750611a1f565b60015460405163d32fc5f960e01b81526001600160a01b0383811660048301529091169063d32fc5f990602401602060405180830381865afa15801561175f573d5f5f3e3d5ffd5b505050506040513d601f19601f8201168201806040525081019061178391906121ee565b1561178e5750611a1f565b5f805460405163352c285160e11b81526001600160a01b038b81166004830152848116602483015290911690636a5850a290604401602060405180830381865afa1580156117de573d5f5f3e3d5ffd5b505050506040513d601f19601f8201168201806040525081019061180291906125fa565b5f805460405163611fc2eb60e11b81526001600160a01b0386811660048301529394509192169063c23f85d69060240160c060405180830381865afa15801561184d573d5f5f3e3d5ffd5b505050506040513d601f19601f820116820180604052508101906118719190612173565b905060326003836003811115611889576118896123dd565b036118a0576118996028826123f1565b90506118e1565b60028360038111156118b4576118b46123dd565b036118c4576118996014826123f1565b60018360038111156118d8576118d86123dd565b036118e1575060055b60468a6060015160ff1611156119335781606001516103e811611904575f611922565b601482606001516103e861191891906120a8565b61192291906125e7565b61192c90826123f1565b9050611a0b565b5f805460405163611fc2eb60e11b81526001600160a01b038e811660048301529091169063c23f85d69060240160c060405180830381865afa15801561197b573d5f5f3e3d5ffd5b505050506040513d601f19601f8201168201806040525081019061199f9190612173565b6060015190505f836060015182116119c6578184606001516119c191906120a8565b6119d5565b60608401516119d590836120a8565b90506005816064116119e7575f6119f2565b6119f28260646120a8565b6119fc91906125e7565b611a0690846123f1565b925050505b85811115611a1a578095508396505b505050505b600101611683565b509095945050505050565b60605f826003811115611a4757611a476123dd565b03611a6f57505060408051808201909152600781526613995d5d1c985b60ca1b602082015290565b6001826003811115611a8357611a836123dd565b03611aaa575050604080518082019091526006815265105b1b1a595960d21b602082015290565b6002826003811115611abe57611abe6123dd565b03611ae4575050604080518082019091526005815264149a5d985b60da1b602082015290565b50506040805180820190915260038152622ba0a960e91b602082015290565b5f8054604051630ae4d1bd60e41b81526001600160a01b038581166004830152600a60248301528392169063ae4d1bd0906044015f60405180830381865afa158015611b51573d5f5f3e3d5ffd5b505050506040513d5f823e601f3d908101601f19168201604052611b789190810190612985565b80519091506002811015611bdc5760034386604051602001611bb192919091825260601b6001600160601b031916602082015260340190565b604051602081830303815290604052805190602001205f1c611bd39190612545565b925050506107ee565b5f82611be96001846120a8565b81518110611bf957611bf96120bb565b60200260200101519050611c0b611e5c565b5f5b611c186001856120a8565b811015611c99578260ff16858281518110611c3557611c356120bb565b602002602001015160ff1603611c91578185611c528360016123f1565b81518110611c6257611c626120bb565b602002602001015160ff1660038110611c7d57611c7d6120bb565b60200201805190611c8d82612810565b9052505b600101611c0d565b50805160208201515f911015611cad575060015b818160ff1660038110611cc257611cc26120bb565b602002015160408301511115611cd6575060025b60468760ff161115611daf57604080514360208083019190915260608b901b6001600160601b0319168284015260f88a901b6001600160f81b031916605483015282516035818403018152605590920190925280519101205f90611d3c90606490612545565b9050611d49604689612a27565b60ff16811015611dad576003438a604051602001611d7e92919091825260601b6001600160601b031916602082015260340190565b604051602081830303815290604052805190602001205f1c611da09190612545565b96505050505050506107ee565b505b979650505050505050565b5f806003611dc9856001612a40565b611dd39190612a59565b9050601e8360a0015160ff161015611df157505060c08101516107ee565b603c8360a0015160ff161015611e085790506107ee565b9392505050565b6040518060e001604052805f81526020015f6001600160a01b03168152602001606081526020015f6001600160a01b031681526020015f81526020015f60ff168152602001606081525090565b60405180606001604052806003906020820280368337509192915050565b6001600160a01b0381168114611e8e575f5ffd5b50565b5f60208284031215611ea1575f5ffd5b8135611e0881611e7a565b5f5f60408385031215611ebd575f5ffd5b8235611ec881611e7a565b946020939093013593505050565b5f81518084528060208401602086015e5f602082860101526020601f19601f83011685010191505092915050565b8781526001600160a01b038716602082015260e0604082018190525f90611f2d90830188611ed6565b6001600160a01b03871660608401526080830186905260ff851660a084015282810360c0840152611f5e8185611ed6565b9a9950505050505050505050565b8051825260018060a01b0360208201511660208301525f604082015160e06040850152611f9c60e0850182611ed6565b905060018060a01b0360608401511660608501526080830151608085015260ff60a08401511660a085015260c083015184820360c0860152611fde8282611ed6565b95945050505050565b602081525f611e086020830184611f6c565b5f602082016020835280845180835260408501915060408160051b8601019250602086015f5b8281101561205057603f1987860301845261203b858351611f6c565b9450602093840193919091019060010161201f565b50929695505050505050565b600181811c9082168061207057607f821691505b60208210810361208e57634e487b7160e01b5f52602260045260245ffd5b50919050565b634e487b7160e01b5f52601160045260245ffd5b818103818111156107ee576107ee612094565b634e487b7160e01b5f52603260045260245ffd5b634e487b7160e01b5f52604160045260245ffd5b6040516101a081016001600160401b0381118282101715612106576121066120cf565b60405290565b60405161010081016001600160401b0381118282101715612106576121066120cf565b604051601f8201601f191681016001600160401b0381118282101715612157576121576120cf565b604052919050565b8051801515811461216e575f5ffd5b919050565b5f60c0828403128015612184575f5ffd5b5060405160c081016001600160401b03811182821017156121a7576121a76120cf565b60409081528351825260208085015190830152838101519082015260608084015190820152608080840151908201526121e260a0840161215f565b60a08201529392505050565b5f602082840312156121fe575f5ffd5b611e088261215f565b5f60208284031215612217575f5ffd5b5051919050565b805161216e81611e7a565b80516001811061216e575f5ffd5b80516005811061216e575f5ffd5b805160ff8116811461216e575f5ffd5b5f82601f830112612264575f5ffd5b81516001600160401b0381111561227d5761227d6120cf565b612290601f8201601f191660200161212f565b8181528460208386010111156122a4575f5ffd5b8160208501602083015e5f918101602001919091529392505050565b5f602082840312156122d0575f5ffd5b81516001600160401b038111156122e5575f5ffd5b82016101a081850312156122f7575f5ffd5b6122ff6120e3565b8151815261230f6020830161221e565b60208201526123206040830161221e565b60408201526060828101519082015261233b60808301612229565b608082015261234c60a08301612237565b60a082015260c0828101519082015260e080830151908201526123726101008301612245565b6101008201526123856101208301612245565b610120820152612398610140830161221e565b61014082015261016082810151908201526101808201516001600160401b038111156123c2575f5ffd5b6123ce86828501612255565b61018083015250949350505050565b634e487b7160e01b5f52602160045260245ffd5b808201808211156107ee576107ee612094565b5f60208284031215612414575f5ffd5b81516001600160401b03811115612429575f5ffd5b8201610100818503121561243b575f5ffd5b61244361210c565b81516001600160401b03811115612458575f5ffd5b61246486828501612255565b82525060208201516001600160401b0381111561247f575f5ffd5b61248b86828501612255565b60208301525060408201516001600160401b038111156124a9575f5ffd5b6124b586828501612255565b6040830152506124c760608301612245565b60608201526124d860808301612245565b60808201526124e960a08301612245565b60a08201526124fa60c08301612245565b60c082015260e08201516001600160401b03811115612517575f5ffd5b61252386828501612255565b60e083015250949350505050565b634e487b7160e01b5f52601260045260245ffd5b5f8261255357612553612531565b500690565b5f81518060208401855e5f93019283525090919050565b6f020b3b3b932b9b9b4b7b7103937b636160851b81525f6125936010830185612558565b6d0103b39903a343932b9b437b632160951b81526125b4600e820185612558565b6917102932b9ba34b7339760b11b8152600a0195945050505050565b80820281158282048414176107ee576107ee612094565b5f826125f5576125f5612531565b500490565b5f6020828403121561260a575f5ffd5b815160048110611e08575f5ffd5b5f6126238289612558565b680103a30b933b2ba39960bd1b815261263f6009820189612558565b90506b010143932b630ba34b7b71d160a51b8152612660600c820188612558565b90506201497160ed1b81526f020b3b3b932b9b9b4b7b7103937b636160851b60038201526126916013820187612558565b9050602f60f81b81526126a76001820186612558565b905061017160f51b815266029ba30b5b29d160cd1b60028201526126ce6009820185612558565b64102824271760d91b81526005019998505050505050505050565b6001600160a01b03858116825284166020820152604081018390526080606082018190525f9061271b90830184611ed6565b9695505050505050565b6040815260096040820152684348414c4c454e474560b81b6060820152608060208201525f611e086080830184611ed6565b5f6127628288612558565b69010383932b234b1ba39960b51b815261277f600a820188612558565b90506f0103bb4b63610383630bc9036b7bb32960851b81526127a46010820187612558565b90507f2e20436f756e746572696e672077697468206d6f76652000000000000000000081526127d66017820186612558565b90506e2e2041646170746162696c6974793d60881b81526127fa600f820185612558565b601760f91b815260010198975050505050505050565b5f6001820161282157612821612094565b5060010190565b5f8161283657612836612094565b505f190190565b5f600160ff1b820161285157612851612094565b505f0390565b602d60f81b81525f611e086001830184612558565b601f821115610a2057805f5260205f20601f840160051c810160208510156128915750805b601f840160051c820191505b81811015610a0f575f815560010161289d565b81516001600160401b038111156128c9576128c96120cf565b6128dd816128d7845461205c565b8461286c565b6020601f82116001811461290f575f83156128f85750848201515b5f19600385901b1c1916600184901b178455610a0f565b5f84815260208120601f198516915b8281101561293e578785015182556020948501946001909201910161291e565b508482101561295b57868401515f19600387901b60f8161c191681555b50505050600190811b01905550565b5f6020828403121561297a575f5ffd5b8151611e0881611e7a565b5f60208284031215612995575f5ffd5b81516001600160401b038111156129aa575f5ffd5b8201601f810184136129ba575f5ffd5b80516001600160401b038111156129d3576129d36120cf565b8060051b6129e36020820161212f565b918252602081840181019290810190878411156129fe575f5ffd5b6020850194505b83851015611daf57612a1685612245565b825260209485019490910190612a05565b60ff82811682821603908111156107ee576107ee612094565b60ff81811683821601908111156107ee576107ee612094565b5f60ff831680612a6b57612a6b612531565b8060ff8416069150509291505056fea2646970667358221220abef7524bc8be3ffa4c6542a0add1a009a663b4833cf84e1fd82e6912d0ab27b64736f6c634300081e0033","linkReferences":{}},"methodIdentifiers":{"CHALLENGE_COOLDOWN_BLOCKS()":"2a76736d","arena()":"fd3705f9","decisionHistory(address,uint256)":"17559bb5","executeDecision(address)":"bba9f3ae","getDecisionHistory(address,uint256)":"89aeffc8","getLatestDecision(address)":"62b2c156","lastChallengeBlock(address)":"007d9d7f","owner()":"8da5cb5b","registry()":"7b103999","totalDecisions()":"0c96a61a","worldState()":"bdfd55bf"},"id":22}