{"abi":[{"type":"constructor","inputs":[{"name":"_registry","type":"address","internalType":"address"},{"name":"_arena","type":"address","internalType":"address"},{"name":"_worldState","type":"address","internalType":"address"},{"name":"_agentPlatform","type":"address","internalType":"address"},{"name":"_llmAgentId","type":"uint256","internalType":"uint256"}],"stateMutability":"nonpayable"},{"type":"receive","stateMutability":"payable"},{"type":"function","name":"CHALLENGE_COOLDOWN_BLOCKS","inputs":[],"outputs":[{"name":"","type":"uint256","internalType":"uint256"}],"stateMutability":"view"},{"type":"function","name":"DEFAULT_SUBCOMMITTEE","inputs":[],"outputs":[{"name":"","type":"uint256","internalType":"uint256"}],"stateMutability":"view"},{"type":"function","name":"LLM_COST_PER_AGENT","inputs":[],"outputs":[{"name":"","type":"uint256","internalType":"uint256"}],"stateMutability":"view"},{"type":"function","name":"LLM_TOTAL_COST","inputs":[],"outputs":[{"name":"","type":"uint256","internalType":"uint256"}],"stateMutability":"view"},{"type":"function","name":"agentPlatform","inputs":[],"outputs":[{"name":"","type":"address","internalType":"contract IAgentRequester"}],"stateMutability":"view"},{"type":"function","name":"arena","inputs":[],"outputs":[{"name":"","type":"address","internalType":"contract Arena"}],"stateMutability":"view"},{"type":"function","name":"decisionHistory","inputs":[{"name":"","type":"address","internalType":"address"},{"name":"","type":"uint256","internalType":"uint256"}],"outputs":[{"name":"blockNumber","type":"uint256","internalType":"uint256"},{"name":"god","type":"address","internalType":"address"},{"name":"action","type":"string","internalType":"string"},{"name":"target","type":"address","internalType":"address"},{"name":"stake","type":"uint256","internalType":"uint256"},{"name":"move","type":"uint8","internalType":"uint8"},{"name":"reasoning","type":"string","internalType":"string"},{"name":"usedLLM","type":"bool","internalType":"bool"}],"stateMutability":"view"},{"type":"function","name":"decodeNumberResponse","inputs":[{"name":"result","type":"bytes","internalType":"bytes"}],"outputs":[{"name":"","type":"int256","internalType":"int256"}],"stateMutability":"pure"},{"type":"function","name":"executeDecision","inputs":[{"name":"god","type":"address","internalType":"address"}],"outputs":[],"stateMutability":"nonpayable"},{"type":"function","name":"getDecisionHistory","inputs":[{"name":"god","type":"address","internalType":"address"},{"name":"count","type":"uint256","internalType":"uint256"}],"outputs":[{"name":"","type":"tuple[]","internalType":"struct GodMind.DecisionLog[]","components":[{"name":"blockNumber","type":"uint256","internalType":"uint256"},{"name":"god","type":"address","internalType":"address"},{"name":"action","type":"string","internalType":"string"},{"name":"target","type":"address","internalType":"address"},{"name":"stake","type":"uint256","internalType":"uint256"},{"name":"move","type":"uint8","internalType":"uint8"},{"name":"reasoning","type":"string","internalType":"string"},{"name":"usedLLM","type":"bool","internalType":"bool"}]}],"stateMutability":"view"},{"type":"function","name":"getLLMStats","inputs":[],"outputs":[{"name":"total","type":"uint256","internalType":"uint256"},{"name":"llm","type":"uint256","internalType":"uint256"},{"name":"markov","type":"uint256","internalType":"uint256"}],"stateMutability":"view"},{"type":"function","name":"getLatestDecision","inputs":[{"name":"god","type":"address","internalType":"address"}],"outputs":[{"name":"","type":"tuple","internalType":"struct GodMind.DecisionLog","components":[{"name":"blockNumber","type":"uint256","internalType":"uint256"},{"name":"god","type":"address","internalType":"address"},{"name":"action","type":"string","internalType":"string"},{"name":"target","type":"address","internalType":"address"},{"name":"stake","type":"uint256","internalType":"uint256"},{"name":"move","type":"uint8","internalType":"uint8"},{"name":"reasoning","type":"string","internalType":"string"},{"name":"usedLLM","type":"bool","internalType":"bool"}]}],"stateMutability":"view"},{"type":"function","name":"handleResponse","inputs":[{"name":"requestId","type":"uint256","internalType":"uint256"},{"name":"responses","type":"tuple[]","internalType":"struct IAgentRequester.Response[]","components":[{"name":"validator","type":"address","internalType":"address"},{"name":"result","type":"bytes","internalType":"bytes"},{"name":"status","type":"uint8","internalType":"enum IAgentRequester.ResponseStatus"},{"name":"receipt","type":"uint256","internalType":"uint256"},{"name":"timestamp","type":"uint256","internalType":"uint256"},{"name":"executionCost","type":"uint256","internalType":"uint256"}]},{"name":"status","type":"uint8","internalType":"enum IAgentRequester.ResponseStatus"},{"name":"","type":"tuple","internalType":"struct IAgentRequester.Request","components":[{"name":"id","type":"uint256","internalType":"uint256"},{"name":"requester","type":"address","internalType":"address"},{"name":"callbackAddress","type":"address","internalType":"address"},{"name":"callbackSelector","type":"bytes4","internalType":"bytes4"},{"name":"subcommittee","type":"address[]","internalType":"address[]"},{"name":"responses","type":"tuple[]","internalType":"struct IAgentRequester.Response[]","components":[{"name":"validator","type":"address","internalType":"address"},{"name":"result","type":"bytes","internalType":"bytes"},{"name":"status","type":"uint8","internalType":"enum IAgentRequester.ResponseStatus"},{"name":"receipt","type":"uint256","internalType":"uint256"},{"name":"timestamp","type":"uint256","internalType":"uint256"},{"name":"executionCost","type":"uint256","internalType":"uint256"}]},{"name":"responseCount","type":"uint256","internalType":"uint256"},{"name":"failureCount","type":"uint256","internalType":"uint256"},{"name":"threshold","type":"uint256","internalType":"uint256"},{"name":"createdAt","type":"uint256","internalType":"uint256"},{"name":"deadline","type":"uint256","internalType":"uint256"},{"name":"status","type":"uint8","internalType":"enum IAgentRequester.ResponseStatus"},{"name":"consensusType","type":"uint8","internalType":"enum IAgentRequester.ConsensusType"},{"name":"remainingBudget","type":"uint256","internalType":"uint256"},{"name":"perAgentBudget","type":"uint256","internalType":"uint256"}]}],"outputs":[],"stateMutability":"nonpayable"},{"type":"function","name":"lastChallengeBlock","inputs":[{"name":"","type":"address","internalType":"address"}],"outputs":[{"name":"","type":"uint256","internalType":"uint256"}],"stateMutability":"view"},{"type":"function","name":"llmAgentId","inputs":[],"outputs":[{"name":"","type":"uint256","internalType":"uint256"}],"stateMutability":"view"},{"type":"function","name":"llmDecisions","inputs":[],"outputs":[{"name":"","type":"uint256","internalType":"uint256"}],"stateMutability":"view"},{"type":"function","name":"owner","inputs":[],"outputs":[{"name":"","type":"address","internalType":"address"}],"stateMutability":"view"},{"type":"function","name":"pendingRequests","inputs":[{"name":"","type":"uint256","internalType":"uint256"}],"outputs":[{"name":"god","type":"address","internalType":"address"},{"name":"target","type":"address","internalType":"address"},{"name":"stake","type":"uint256","internalType":"uint256"},{"name":"matchId","type":"uint256","internalType":"uint256"},{"name":"markovFallback","type":"uint8","internalType":"uint8"},{"name":"context","type":"string","internalType":"string"}],"stateMutability":"view"},{"type":"function","name":"registry","inputs":[],"outputs":[{"name":"","type":"address","internalType":"contract GodRegistry"}],"stateMutability":"view"},{"type":"function","name":"setAgentConfig","inputs":[{"name":"_platform","type":"address","internalType":"address"},{"name":"_agentId","type":"uint256","internalType":"uint256"}],"outputs":[],"stateMutability":"nonpayable"},{"type":"function","name":"totalDecisions","inputs":[],"outputs":[{"name":"","type":"uint256","internalType":"uint256"}],"stateMutability":"view"},{"type":"function","name":"worldState","inputs":[],"outputs":[{"name":"","type":"address","internalType":"contract WorldState"}],"stateMutability":"view"},{"type":"event","name":"DecisionMade","inputs":[{"name":"god","type":"address","indexed":true,"internalType":"address"},{"name":"action","type":"string","indexed":false,"internalType":"string"},{"name":"target","type":"address","indexed":true,"internalType":"address"},{"name":"reasoning","type":"string","indexed":false,"internalType":"string"},{"name":"usedLLM","type":"bool","indexed":false,"internalType":"bool"}],"anonymous":false},{"type":"event","name":"LLMDecisionReceived","inputs":[{"name":"god","type":"address","indexed":true,"internalType":"address"},{"name":"requestId","type":"uint256","indexed":false,"internalType":"uint256"},{"name":"result","type":"string","indexed":false,"internalType":"string"},{"name":"success","type":"bool","indexed":false,"internalType":"bool"}],"anonymous":false},{"type":"event","name":"LLMDecisionRequested","inputs":[{"name":"god","type":"address","indexed":true,"internalType":"address"},{"name":"requestId","type":"uint256","indexed":false,"internalType":"uint256"},{"name":"prompt","type":"string","indexed":false,"internalType":"string"}],"anonymous":false},{"type":"event","name":"MarkovFallback","inputs":[{"name":"god","type":"address","indexed":true,"internalType":"address"},{"name":"reason","type":"string","indexed":false,"internalType":"string"}],"anonymous":false},{"type":"error","name":"CooldownActive","inputs":[]},{"type":"error","name":"InsufficientBalance","inputs":[]},{"type":"error","name":"Unauthorized","inputs":[]}],"bytecode":{"object":"0x608060405234801561000f575f5ffd5b5060405161455d38038061455d83398101604081905261002e916100ad565b600280546001600160a01b03199081166001600160a01b039788161790915560038054821695871695909517909455600480548516938616939093179092555f80548416919094161790925560019190915560058054339216919091179055610107565b80516001600160a01b03811681146100a8575f5ffd5b919050565b5f5f5f5f5f60a086880312156100c1575f5ffd5b6100ca86610092565b94506100d860208701610092565b93506100e660408701610092565b92506100f460608701610092565b9150608086015190509295509295909350565b614449806101145f395ff3fe608060405260043610610133575f3560e01c80636b438286116100a8578063b86b374b1161006d578063b86b374b1461036c578063bba9f3ae1461038b578063bdfd55bf146103aa578063c6c2041f146103c9578063e977e809146103de578063fd3705f91461040d575f5ffd5b80636b438286146102d95780637b103999146102ed57806389aeffc81461030c5780638da5cb5b14610338578063960bd85a14610357575f5ffd5b80632a76736d116100f95780632a76736d146101f2578063387e0801146102065780633c652a9a146102275780633d6382611461025857806351fbe9f41461027757806362b2c156146102ad575f5ffd5b80627d9d7f1461013e5780630c96a61a1461017c5780630e8878221461019157806317559bb5146101ab578063272943f3146101de575f5ffd5b3661013a57005b5f5ffd5b348015610149575f5ffd5b50610169610158366004612ea8565b600a6020525f908152604090205481565b6040519081526020015b60405180910390f35b348015610187575f5ffd5b5061016960075481565b34801561019c575f5ffd5b5061016966f8b0a10e47000081565b3480156101b6575f5ffd5b506101ca6101c5366004612eca565b61042c565b604051610173989796959493929190612f22565b3480156101e9575f5ffd5b506101696105b6565b3480156101fd575f5ffd5b50610169600a81565b348015610211575f5ffd5b506102256102203660046132ae565b6105dc565b005b348015610232575f5ffd5b50610246610241366004613438565b61097c565b6040516101739695949392919061344f565b348015610263575f5ffd5b50610225610272366004612eca565b610a4a565b348015610282575f5ffd5b505f54610295906001600160a01b031681565b6040516001600160a01b039091168152602001610173565b3480156102b8575f5ffd5b506102cc6102c7366004612ea8565b610a99565b6040516101739190613534565b3480156102e4575f5ffd5b50610169600381565b3480156102f8575f5ffd5b50600254610295906001600160a01b031681565b348015610317575f5ffd5b5061032b610326366004612eca565b610cce565b6040516101739190613546565b348015610343575f5ffd5b50600554610295906001600160a01b031681565b348015610362575f5ffd5b5061016960085481565b348015610377575f5ffd5b506101696103863660046135a9565b610f63565b348015610396575f5ffd5b506102256103a5366004612ea8565b610f78565b3480156103b5575f5ffd5b50600454610295906001600160a01b031681565b3480156103d4575f5ffd5b5061016960015481565b3480156103e9575f5ffd5b506103f26111a8565b60408051938452602084019290925290820152606001610173565b348015610418575f5ffd5b50600354610295906001600160a01b031681565b6006602052815f5260405f208181548110610445575f80fd5b5f9182526020909120600890910201805460018201546002830180549295506001600160a01b0390911693509061047b906135da565b80601f01602080910402602001604051908101604052809291908181526020018280546104a7906135da565b80156104f25780601f106104c9576101008083540402835291602001916104f2565b820191905f5260205f20905b8154815290600101906020018083116104d557829003601f168201915b50505060038401546004850154600586015460068701805496976001600160a01b039094169692955060ff90911693509061052c906135da565b80601f0160208091040260200160405190810160405280929190818152602001828054610558906135da565b80156105a35780601f1061057a576101008083540402835291602001916105a3565b820191905f5260205f20905b81548152906001019060200180831161058657829003601f168201915b5050506007909301549192505060ff1688565b6105c8600366f8b0a10e470000613626565b6105d990666a94d74f43000061363d565b81565b5f546001600160a01b031633146106315760405162461bcd60e51b81526020600482015260146024820152734f6e6c7920536f6d6e696120706c6174666f726d60601b60448201526064015b60405180910390fd5b5f848152600960209081526040808320815160c08101835281546001600160a01b0390811682526001830154169381019390935260028101549183019190915260038101546060830152600481015460ff16608083015260058101805460a08401919061069d906135da565b80601f01602080910402602001604051908101604052809291908181526020018280546106c9906135da565b80156107145780601f106106eb57610100808354040283529160200191610714565b820191905f5260205f20905b8154815290600101906020018083116106f757829003601f168201915b5050509190925250508151919250506001600160a01b03166107365750610976565b5f85815260096020526040812080546001600160a01b031990811682556001820180549091169055600281018290556003810182905560048101805460ff19169055906107866005830182612dbe565b505f9050600284600481111561079e5761079e613650565b1480156107ab57505f8551115b90505f826080015190505f6040518060600160405280602481526020016143f060249139905082156108e557306001600160a01b031663b86b374b885f815181106107f8576107f8613664565b6020026020010151602001516040518263ffffffff1660e01b81526004016108209190613678565b602060405180830381865afa925050508015610859575060408051601f3d908101601f191682019092526108569181019061368a565b60015b61087d576040518060600160405280603181526020016143bf6031913990506108e5565b5f811215801561088e575060028113155b156108e3578092506108a28360ff166111cc565b6108ab8a6111cc565b6040516020016108bc9291906136b8565b60408051601f19818403018152919052600880549193505f6108dd83613741565b91905055505b505b835f01516001600160a01b03167fafe6a0c9bb27bc0196375000f9964f8c81b665db615c5db29a6332b0826db0c689838660405161092593929190613759565b60405180910390a260608401511561095a57610955845f01518560600151848760200151886040015186896112d1565b610971565b610971845f0151856020015186604001518461147a565b505050505b50505050565b60096020525f90815260409020805460018201546002830154600384015460048501546005860180546001600160a01b039687169796909516959394929360ff909216926109c9906135da565b80601f01602080910402602001604051908101604052809291908181526020018280546109f5906135da565b8015610a405780601f10610a1757610100808354040283529160200191610a40565b820191905f5260205f20905b815481529060010190602001808311610a2357829003601f168201915b5050505050905086565b6005546001600160a01b03163314610a74576040516282b42960e81b815260040160405180910390fd5b5f80546001600160a01b0319166001600160a01b039390931692909217909155600155565b610aa1612df8565b6001600160a01b0382165f9081526006602052604090208054610af95760405162461bcd60e51b815260206004820152601060248201526f139bc8191958da5cda5bdb9cc81e595d60821b6044820152606401610628565b80548190610b0990600190613783565b81548110610b1957610b19613664565b905f5260205f209060080201604051806101000160405290815f8201548152602001600182015f9054906101000a90046001600160a01b03166001600160a01b03166001600160a01b03168152602001600282018054610b78906135da565b80601f0160208091040260200160405190810160405280929190818152602001828054610ba4906135da565b8015610bef5780601f10610bc657610100808354040283529160200191610bef565b820191905f5260205f20905b815481529060010190602001808311610bd257829003601f168201915b505050918352505060038201546001600160a01b0316602082015260048201546040820152600582015460ff166060820152600682018054608090920191610c36906135da565b80601f0160208091040260200160405190810160405280929190818152602001828054610c62906135da565b8015610cad5780601f10610c8457610100808354040283529160200191610cad565b820191905f5260205f20905b815481529060010190602001808311610c9057829003601f168201915b50505091835250506007919091015460ff1615156020909101529392505050565b6001600160a01b0382165f9081526006602052604081208054606092848210610cf75784610cf9565b815b90505f816001600160401b03811115610d1457610d14612f95565b604051908082528060200260200182016040528015610d4d57816020015b610d3a612df8565b815260200190600190039081610d325790505b5090505f5b82811015610f56578481610d67600187613783565b610d719190613783565b81548110610d8157610d81613664565b905f5260205f209060080201604051806101000160405290815f8201548152602001600182015f9054906101000a90046001600160a01b03166001600160a01b03166001600160a01b03168152602001600282018054610de0906135da565b80601f0160208091040260200160405190810160405280929190818152602001828054610e0c906135da565b8015610e575780601f10610e2e57610100808354040283529160200191610e57565b820191905f5260205f20905b815481529060010190602001808311610e3a57829003601f168201915b505050918352505060038201546001600160a01b0316602082015260048201546040820152600582015460ff166060820152600682018054608090920191610e9e906135da565b80601f0160208091040260200160405190810160405280929190818152602001828054610eca906135da565b8015610f155780601f10610eec57610100808354040283529160200191610f15565b820191905f5260205f20905b815481529060010190602001808311610ef857829003601f168201915b50505091835250506007919091015460ff1615156020909101528251839083908110610f4357610f43613664565b6020908102919091010152600101610d52565b5093505050505b92915050565b5f81806020019051810190610f5d919061368a565b336001600160a01b03821614801590610f9c57506005546001600160a01b03163314155b15610fb9576040516282b42960e81b815260040160405180910390fd5b60025460405163611fc2eb60e11b81526001600160a01b0383811660048301525f92169063c23f85d69060240160c060405180830381865afa158015611001573d5f5f3e3d5ffd5b505050506040513d601f19601f8201168201806040525081019061102591906137a5565b90508060a00151611034575050565b60035460405163d32fc5f960e01b81526001600160a01b0384811660048301525f92169063d32fc5f990602401602060405180830381865afa15801561107c573d5f5f3e3d5ffd5b505050506040513d601f19601f820116820180604052508101906110a09190613803565b9050801561119a576003546040516376b5cff960e11b81526001600160a01b0385811660048301525f92169063ed6b9ff290602401602060405180830381865afa1580156110f0573d5f5f3e3d5ffd5b505050506040513d601f19601f82011682018060405250810190611114919061368a565b600354604051633d092b3d60e01b8152600481018390529192505f916001600160a01b0390911690633d092b3d906024015f60405180830381865afa15801561115f573d5f5f3e3d5ffd5b505050506040513d5f823e601f3d908101601f19168201604052611186919081019061389d565b9050611193858383611574565b5050505050565b6111a3836115c3565b505050565b5f5f5f6007546008546008546007546111c19190613783565b925092509250909192565b6060815f036111f25750506040805180820190915260018152600360fc1b602082015290565b815f5b811561121b578061120581613741565b91506112149050600a836139ce565b91506111f5565b5f816001600160401b0381111561123457611234612f95565b6040519080825280601f01601f19166020018201604052801561125e576020820181803683370190505b5090505b84156112c95781611272816139e1565b92506112819050600a866139f6565b61128c90603061363d565b60f81b8183815181106112a1576112a1613664565b60200101906001600160f81b03191690815f1a9053506112c2600a866139ce565b9450611262565b949350505050565b6040516001600160601b0319606089901b166020820152603481018790524360548201526a3830b73a3432b7b716bb1960a91b60748201525f90607f0160408051601f19818403018152828252805160209182012060ff8a169184019190915290820181905291505f9060600160408051808303601f1901815282825280516020918201206001600160a01b038d81165f818152600b85528581208f82528552858120899055818152600c85528581208f825290945293909220805460ff191660ff8d161790556003546315f418ff60e01b85526004850193909352602484018c905260448401819052935016906315f418ff906064015f604051808303815f87803b1580156113df575f5ffd5b505af11580156113f1573d5f5f3e3d5ffd5b50505050611422896040518060400160405280600681526020016510d3d353525560d21b81525088888b89896118f5565b856001600160a01b0316896001600160a01b03167f5f547094811d379a730e76283d666cb9ba744c31bb0775a48dd2aedee60bb39c8686604051611467929190613a09565b60405180910390a3505050505050505050565b60035460405163fb74beff60e01b81526001600160a01b039091169063fb74beff906114b0908790879087908790600401613a49565b6020604051808303815f875af11580156114cc573d5f5f3e3d5ffd5b505050506040513d601f19601f820116820180604052508101906114f0919061368a565b5061152184604051806040016040528060098152602001684348414c4c454e474560b81b81525085855f865f6118f5565b826001600160a01b0316846001600160a01b03167f5f547094811d379a730e76283d666cb9ba744c31bb0775a48dd2aedee60bb39c835f604051611566929190613a85565b60405180910390a350505050565b60018160a00151600481111561158c5761158c613650565b0361159c576111a3838383611a2f565b60028160a0015160048111156115b4576115b4613650565b036111a3576111a38383612039565b6001600160a01b0381165f908152600a60208190526040909120546115e8919061363d565b4310156115f25750565b6002546040516305a886f760e51b81526001600160a01b0383811660048301525f92169063b510dee0906024015f60405180830381865afa158015611639573d5f5f3e3d5ffd5b505050506040513d5f823e601f3d908101601f191682016040526116609190810190613ab7565b600480546040516330ec9f2d60e01b81526001600160a01b03868116938201939093529293505f929116906330ec9f2d90602401602060405180830381865afa1580156116af573d5f5f3e3d5ffd5b505050506040513d601f19601f820116820180604052508101906116d3919061368a565b90505f6064438560075460405160200161170d9392919092835260609190911b6001600160601b0319166020830152603482015260540190565b604051602081830303815290604052805190602001205f1c61172f91906139f6565b905081811061179457610976846040518060400160405280600481526020016349444c4560e01b8152505f5f5f611765876111cc565b61176e89612137565b60405160200161177f929190613be4565b6040516020818303038152906040525f6118f5565b5f61179f858561217c565b90506001600160a01b0381166117b6575050505050565b5f6117c186866125b5565b6001600160a01b0387165f908152600a6020526040902043905590506117ef600366f8b0a10e470000613626565b61180090666a94d74f43000061363d565b4710158015611810575060015415155b15611826576118218683838861260d565b6118ed565b84516002546040516305a886f760e51b81526001600160a01b0385811660048301525f9392169063b510dee0906024015f60405180830381865afa158015611870573d5f5f3e3d5ffd5b505050506040513d5f823e601f3d908101601f191682016040526118979190810190613ab7565b516118a187612137565b6118bb6118b6670de0b6b3a7640000876139ce565b6111cc565b6040516020016118ce9493929190613c3b565b60405160208183030381529060405290506118eb8784848461147a565b505b505050505050565b6001600160a01b038781165f8181526006602090815260408083208151610100810183524381528084019586529182018c81528b87166060840152608083018b905260ff8a1660a084015260c0830189905287151560e0840152815460018082018455928652939094208251600890940201928355935193820180546001600160a01b03191694909516939093179093555190919060028201906119999082613d09565b5060608201516003820180546001600160a01b0319166001600160a01b039092169190911790556080820151600482015560a082015160058201805460ff191660ff90921691909117905560c082015160068201906119f89082613d09565b5060e091909101516007918201805460ff19169115159190911790558054905f611a2183613741565b919050555050505050505050565b6002546040516305a886f760e51b81526001600160a01b0385811660048301525f92169063b510dee0906024015f60405180830381865afa158015611a76573d5f5f3e3d5ffd5b505050506040513d5f823e601f3d908101601f19168201604052611a9d9190810190613ab7565b90505f846001600160a01b031683602001516001600160a01b031614611ac7578260200151611acd565b82604001515b6002546040516305a886f760e51b81526001600160a01b0380841660048301529293505f929091169063b510dee0906024015f60405180830381865afa158015611b19573d5f5f3e3d5ffd5b505050506040513d5f823e601f3d908101601f19168201604052611b409190810190613ab7565b60025460405163611fc2eb60e11b81526001600160a01b0385811660048301529293505f929091169063c23f85d69060240160c060405180830381865afa158015611b8d573d5f5f3e3d5ffd5b505050506040513d601f19601f82011682018060405250810190611bb191906137a5565b90505f611bbe8486612a4f565b9050611bd2600366f8b0a10e470000613626565b611be390666a94d74f43000061363d565b4710158015611bf3575060015415155b15611f2e575f611c0a8685858b8b60600151612d45565b604080516003808252608082019092529192505f9190816020015b6060815260200190600190039081611c25579050509050604051806040016040528060018152602001600360fc1b815250815f81518110611c6857611c68613664565b6020026020010181905250604051806040016040528060018152602001603160f81b81525081600181518110611ca057611ca0613664565b6020026020010181905250604051806040016040528060018152602001601960f91b81525081600281518110611cd857611cd8613664565b60200260200101819052505f63c6833c3d60e01b8389604001515f60025f604051602401611d0a959493929190613dc3565b60408051601f198184030181529190526020810180516001600160e01b03166001600160e01b0319909316929092179091525f8054919250906001600160a01b0316638bbcbbe2611d63600366f8b0a10e470000613626565b611d7490666a94d74f43000061363d565b6001546040516001600160e01b031960e085901b168152611da59190309063387e080160e01b908990600401613e07565b60206040518083038185885af1158015611dc1573d5f5f3e3d5ffd5b50505050506040513d601f19601f82011682018060405250810190611de6919061368a565b90506040518060c001604052808d6001600160a01b03168152602001896001600160a01b031681526020018b6060015181526020018c81526020018660ff1681526020018581525060095f8381526020019081526020015f205f820151815f015f6101000a8154816001600160a01b0302191690836001600160a01b031602179055506020820151816001015f6101000a8154816001600160a01b0302191690836001600160a01b0316021790555060408201518160020155606082015181600301556080820151816004015f6101000a81548160ff021916908360ff16021790555060a0820151816005019081611ede9190613d09565b509050508b6001600160a01b03167fafb0da1f0b8293fdd616ebb292d276ec08b01c70ea482a8aa804935b1e2862c48286604051611f1d929190613e40565b60405180910390a250505050610971565b6001600160a01b0388167fa32de85fd6e8f7ab05fbd0b95094ef7073e6e99582697fcc8c6d634f5f522f9d611f6b600366f8b0a10e470000613626565b611f7c90666a94d74f43000061363d565b4710611fb457604051806040016040528060148152602001731059d95b9d081b9bdd0818dbdb999a59dd5c995960621b815250611fe2565b60405180604001604052806014815260200173496e73756666696369656e742062616c616e636560601b8152505b604051611fef9190613678565b60405180910390a2610971888883878a606001518a5f01516120138860ff166111cc565b604051602001612024929190613e58565b6040516020818303038152906040525f6112d1565b6001600160a01b0382165f818152600c60209081526040808320858452825280832054938352600b825280832085845290915290205460ff90911690806120805750505050565b60035460405163b46695ff60e01b81526001600160a01b0386811660048301526024820186905260ff85166044830152606482018490529091169063b46695ff906084015f604051808303815f87803b1580156120db575f5ffd5b505af11580156120ed573d5f5f3e3d5ffd5b5050506001600160a01b039094165f818152600b602090815260408083208784528252808320839055928252600c815282822095825294909452909220805460ff19169055505050565b60605f8212156121735761214d6118b683613ead565b60405160200161215d9190613ec7565b6040516020818303038152906040529050919050565b610f5d826111cc565b5f5f60025f9054906101000a90046001600160a01b03166001600160a01b0316637d6caa086040518163ffffffff1660e01b8152600401602060405180830381865afa1580156121ce573d5f5f3e3d5ffd5b505050506040513d601f19601f820116820180604052508101906121f2919061368a565b90505f80805b838110156125aa57600254604051631bd8667360e31b8152600481018390525f916001600160a01b03169063dec3339890602401602060405180830381865afa158015612247573d5f5f3e3d5ffd5b505050506040513d601f19601f8201168201806040525081019061226b9190613edc565b9050876001600160a01b0316816001600160a01b03160361228c57506125a2565b60035460405163d32fc5f960e01b81526001600160a01b0383811660048301529091169063d32fc5f990602401602060405180830381865afa1580156122d4573d5f5f3e3d5ffd5b505050506040513d601f19601f820116820180604052508101906122f89190613803565b1561230357506125a2565b60025460405163352c285160e11b81526001600160a01b038a8116600483015283811660248301525f921690636a5850a290604401602060405180830381865afa158015612353573d5f5f3e3d5ffd5b505050506040513d601f19601f820116820180604052508101906123779190613ef7565b60025460405163611fc2eb60e11b81526001600160a01b0385811660048301529293505f929091169063c23f85d69060240160c060405180830381865afa1580156123c4573d5f5f3e3d5ffd5b505050506040513d601f19601f820116820180604052508101906123e891906137a5565b60025460405163611fc2eb60e11b81526001600160a01b038d811660048301529293505f929091169063c23f85d69060240160c060405180830381865afa158015612435573d5f5f3e3d5ffd5b505050506040513d601f19601f8201168201806040525081019061245991906137a5565b90506032600384600381111561247157612471613650565b036124885761248160288261363d565b90506124c9565b600284600381111561249c5761249c613650565b036124ac5761248160148261363d565b60018460038111156124c0576124c0613650565b036124c9575060055b60468b6060015160ff16111561251b576103e88360600151106124ec575f61250a565b601483606001516103e86125009190613783565b61250a91906139ce565b612514908261363d565b905061258d565b5f8360600151836060015111612544578260600151846060015161253f9190613783565b612558565b836060015183606001516125589190613783565b905060648110612568575f61257f565b6005612575826064613783565b61257f91906139ce565b612589908361363d565b9150505b8681111561259c578096508497505b50505050505b6001016121f8565b509095945050505050565b5f5f68056bc75e2d6310000090505f6064846080015160ff16836125d99190613626565b6125e391906139ce565b9050670de0b6b3a764000081106125fa5780612604565b670de0b6b3a76400005b95945050505050565b6002546040516305a886f760e51b81526001600160a01b0385811660048301525f92169063b510dee0906024015f60405180830381865afa158015612654573d5f5f3e3d5ffd5b505050506040513d5f823e601f3d908101601f1916820160405261267b9190810190613ab7565b60025460405163611fc2eb60e11b81526001600160a01b0387811660048301529293505f929091169063c23f85d69060240160c060405180830381865afa1580156126c8573d5f5f3e3d5ffd5b505050506040513d601f19601f820116820180604052508101906126ec91906137a5565b60025460405163611fc2eb60e11b81526001600160a01b0389811660048301529293505f929091169063c23f85d69060240160c060405180830381865afa158015612739573d5f5f3e3d5ffd5b505050506040513d601f19601f8201168201806040525081019061275d91906137a5565b90505f845f0151856020015161277684606001516111cc565b8451612781906111cc565b87516060880151612791906111cc565b885161279c906111cc565b6127b16118b6670de0b6b3a76400008f6139ce565b6040516020016127c8989796959493929190613f15565b60408051808303601f19018152828252878201515f808552602085019093529093509091631fcf941360e31b918491849081612814565b60608152602001906001900390816127ff5790505b5060405160240161282894939291906140db565b60408051601f198184030181529190526020810180516001600160e01b03166001600160e01b0319909316929092179091525f8054919250906001600160a01b0316638bbcbbe2612881600366f8b0a10e470000613626565b61289290666a94d74f43000061363d565b6001546040516001600160e01b031960e085901b1681526128c39190309063387e080160e01b908990600401613e07565b60206040518083038185885af11580156128df573d5f5f3e3d5ffd5b50505050506040513d601f19601f82011682018060405250810190612904919061368a565b90506040518060c001604052808b6001600160a01b031681526020018a6001600160a01b031681526020018981526020015f81526020018860c0015160ff1681526020018481525060095f8381526020019081526020015f205f820151815f015f6101000a8154816001600160a01b0302191690836001600160a01b031602179055506020820151816001015f6101000a8154816001600160a01b0302191690836001600160a01b0316021790555060408201518160020155606082015181600301556080820151816004015f6101000a81548160ff021916908360ff16021790555060a08201518160050190816129fc9190613d09565b50905050896001600160a01b03167fafb0da1f0b8293fdd616ebb292d276ec08b01c70ea482a8aa804935b1e2862c48285604051612a3b929190613e40565b60405180910390a250505050505050505050565b600254604051630ae4d1bd60e41b81526001600160a01b038481166004830152600a60248301525f92839291169063ae4d1bd0906044015f60405180830381865afa158015612aa0573d5f5f3e3d5ffd5b505050506040513d5f823e601f3d908101601f19168201604052612ac7919081019061416e565b80519091506002811015612b4657600343868660a00151604051602001612b1b9392919092835260609190911b6001600160601b031916602083015260f81b6001600160f81b031916603482015260350190565b604051602081830303815290604052805190602001205f1c612b3d91906139f6565b92505050610f5d565b5f82612b53600184613783565b81518110612b6357612b63613664565b60200260200101519050612b75612e4e565b5f5b612b82600185613783565b811015612c36578260ff16858281518110612b9f57612b9f613664565b602002602001015160ff16148015612bdd5750600385612bc083600161363d565b81518110612bd057612bd0613664565b602002602001015160ff16105b15612c2e578185612bef83600161363d565b81518110612bff57612bff613664565b602002602001015160ff1660038110612c1a57612c1a613664565b60200201805190612c2a82613741565b9052505b600101612b77565b50805160208201515f911015612c4a575060015b818160ff1660038110612c5f57612c5f613664565b602002015160408301511115612c73575060025b60468760a0015160ff161115612d08575f6064438a604051602001612caf92919091825260601b6001600160601b031916602082015260340190565b604051602081830303815290604052805190602001205f1c612cd191906139f6565b905060468860a0015160ff16612ce79190613783565b811015612d0657612cf96003826139f6565b9650505050505050610f5d565b505b601e8760a0015160ff1610612d33576003612d248260016141fb565b612d2e9190614214565b612d39565b8660c001515b98975050505050505050565b6060855f01518660200151612d59856111cc565b875160208901518851612d6b906111cc565b612d788a602001516111cc565b612d8d6118b6670de0b6b3a76400008b6139ce565b604051602001612da4989796959493929190614235565b604051602081830303815290604052905095945050505050565b508054612dca906135da565b5f825580601f10612dd9575050565b601f0160209004905f5260205f2090810190612df59190612e6c565b50565b6040518061010001604052805f81526020015f6001600160a01b03168152602001606081526020015f6001600160a01b031681526020015f81526020015f60ff168152602001606081526020015f151581525090565b60405180606001604052806003906020820280368337509192915050565b5b80821115612e80575f8155600101612e6d565b5090565b6001600160a01b0381168114612df5575f5ffd5b8035612ea381612e84565b919050565b5f60208284031215612eb8575f5ffd5b8135612ec381612e84565b9392505050565b5f5f60408385031215612edb575f5ffd5b8235612ee681612e84565b946020939093013593505050565b5f81518084528060208401602086015e5f602082860101526020601f19601f83011685010191505092915050565b8881526001600160a01b0388166020820152610100604082018190525f90612f4c90830189612ef4565b6001600160a01b03881660608401526080830187905260ff861660a084015282810360c0840152612f7d8186612ef4565b91505082151560e08301529998505050505050505050565b634e487b7160e01b5f52604160045260245ffd5b60405160c081016001600160401b0381118282101715612fcb57612fcb612f95565b60405290565b6040516101e081016001600160401b0381118282101715612fcb57612fcb612f95565b6040516101a081016001600160401b0381118282101715612fcb57612fcb612f95565b60405161010081016001600160401b0381118282101715612fcb57612fcb612f95565b604051601f8201601f191681016001600160401b038111828210171561306257613062612f95565b604052919050565b5f6001600160401b0382111561308257613082612f95565b5060051b60200190565b5f6001600160401b038211156130a4576130a4612f95565b50601f01601f191660200190565b5f82601f8301126130c1575f5ffd5b81356130d46130cf8261308c565b61303a565b8181528460208386010111156130e8575f5ffd5b816020850160208301375f918101602001919091529392505050565b60058110612df5575f5ffd5b8035612ea381613104565b5f82601f83011261312a575f5ffd5b81356131386130cf8261306a565b8082825260208201915060208360051b860101925085831115613159575f5ffd5b602085015b8381101561321b5780356001600160401b0381111561317b575f5ffd5b860160c0818903601f19011215613190575f5ffd5b613198612fa9565b60208201356131a681612e84565b815260408201356001600160401b038111156131c0575f5ffd5b6131cf8a6020838601016130b2565b60208301525060608201356131e381613104565b6040820152608082810135606083015260a0808401359183019190915260c0909201359181019190915283526020928301920161315e565b5095945050505050565b80356001600160e01b031981168114612ea3575f5ffd5b5f82601f83011261324b575f5ffd5b81356132596130cf8261306a565b8082825260208201915060208360051b86010192508583111561327a575f5ffd5b602085015b8381101561321b57803561329281612e84565b83526020928301920161327f565b803560038110612ea3575f5ffd5b5f5f5f5f608085870312156132c1575f5ffd5b8435935060208501356001600160401b038111156132dd575f5ffd5b6132e98782880161311b565b93505060408501356132fa81613104565b915060608501356001600160401b03811115613314575f5ffd5b85016101e08188031215613326575f5ffd5b61332e612fd1565b8135815261333e60208301612e98565b602082015261334f60408301612e98565b604082015261336060608301613225565b606082015260808201356001600160401b0381111561337d575f5ffd5b6133898982850161323c565b60808301525060a08201356001600160401b038111156133a7575f5ffd5b6133b38982850161311b565b60a08301525060c0828101359082015260e080830135908201526101008083013590820152610120808301359082015261014080830135908201526133fb6101608301613110565b61016082015261340e61018083016132a0565b6101808201526101a082810135908201526101c09182013591810191909152939692955090935050565b5f60208284031215613448575f5ffd5b5035919050565b6001600160a01b03878116825286166020820152604081018590526060810184905260ff8316608082015260c060a082018190525f90612d3990830184612ef4565b8051825260018060a01b0360208201511660208301525f604082015161010060408501526134c3610100850182612ef4565b905060608301516134df60608601826001600160a01b03169052565b506080830151608085015260a08301516134fe60a086018260ff169052565b5060c083015184820360c08601526135168282612ef4565b91505060e083015161352c60e086018215159052565b509392505050565b602081525f612ec36020830184613491565b5f602082016020835280845180835260408501915060408160051b8601019250602086015f5b8281101561359d57603f19878603018452613588858351613491565b9450602093840193919091019060010161356c565b50929695505050505050565b5f602082840312156135b9575f5ffd5b81356001600160401b038111156135ce575f5ffd5b6112c9848285016130b2565b600181811c908216806135ee57607f821691505b60208210810361360c57634e487b7160e01b5f52602260045260245ffd5b50919050565b634e487b7160e01b5f52601160045260245ffd5b8082028115828204841417610f5d57610f5d613612565b80820180821115610f5d57610f5d613612565b634e487b7160e01b5f52602160045260245ffd5b634e487b7160e01b5f52603260045260245ffd5b602081525f612ec36020830184612ef4565b5f6020828403121561369a575f5ffd5b5051919050565b5f81518060208401855e5f93019283525090919050565b7f536f6d6e6961204c4c4d20496e666572656e63652028636f6e73656e7375732d81527103b30b634b230ba32b214971026b7bb329d160751b60208201525f61370460328301856136a1565b61017160f51b81526b02932b8bab2b9ba1024a21d160a51b600282015261372e600e8201856136a1565b601760f91b815260010195945050505050565b5f6001820161375257613752613612565b5060010190565b838152606060208201525f6137716060830185612ef4565b90508215156040830152949350505050565b81810381811115610f5d57610f5d613612565b80518015158114612ea3575f5ffd5b5f60c08284031280156137b6575f5ffd5b506137bf612fa9565b82518152602080840151908201526040808401519082015260608084015190820152608080840151908201526137f760a08401613796565b60a08201529392505050565b5f60208284031215613813575f5ffd5b612ec382613796565b8051612ea381612e84565b805160018110612ea3575f5ffd5b8051612ea381613104565b805160ff81168114612ea3575f5ffd5b5f82601f83011261385f575f5ffd5b815161386d6130cf8261308c565b818152846020838601011115613881575f5ffd5b8160208501602083015e5f918101602001919091529392505050565b5f602082840312156138ad575f5ffd5b81516001600160401b038111156138c2575f5ffd5b82016101a081850312156138d4575f5ffd5b6138dc612ff4565b815181526138ec6020830161381c565b60208201526138fd6040830161381c565b60408201526060828101519082015261391860808301613827565b608082015261392960a08301613835565b60a082015260c0828101519082015260e0808301519082015261394f6101008301613840565b6101008201526139626101208301613840565b610120820152613975610140830161381c565b61014082015261016082810151908201526101808201516001600160401b0381111561399f575f5ffd5b6139ab86828501613850565b61018083015250949350505050565b634e487b7160e01b5f52601260045260245ffd5b5f826139dc576139dc6139ba565b500490565b5f816139ef576139ef613612565b505f190190565b5f82613a0457613a046139ba565b500690565b60608152600660608201526510d3d353525560d21b608082015260a060208201525f613a3860a0830185612ef4565b905082151560408301529392505050565b6001600160a01b03858116825284166020820152604081018390526080606082018190525f90613a7b90830184612ef4565b9695505050505050565b6060815260096060820152684348414c4c454e474560b81b608082015260a060208201525f613a3860a0830185612ef4565b5f60208284031215613ac7575f5ffd5b81516001600160401b03811115613adc575f5ffd5b82016101008185031215613aee575f5ffd5b613af6613017565b81516001600160401b03811115613b0b575f5ffd5b613b1786828501613850565b82525060208201516001600160401b03811115613b32575f5ffd5b613b3e86828501613850565b60208301525060408201516001600160401b03811115613b5c575f5ffd5b613b6886828501613850565b604083015250613b7a60608301613840565b6060820152613b8b60808301613840565b6080820152613b9c60a08301613840565b60a0820152613bad60c08301613840565b60c082015260e08201516001600160401b03811115613bca575f5ffd5b613bd686828501613850565b60e083015250949350505050565b6402937b636160dd1b81525f613bfd60058301856136a1565b6e0103b399030b3b3b932b9b9b4b7b71608d1b8152613c1f600f8201856136a1565b6917102932b9ba34b7339760b11b8152600a0195945050505050565b5f613c4682876136a1565b6b01031b430b63632b733b2b9960a51b8152613c65600c8201876136a1565b90507520284d61726b6f76292e2041676772657373696f6e3d60501b8152613c9060168201866136a1565b905066207374616b653d60c81b8152613cac60078201856136a1565b64102824271760d91b8152600501979650505050505050565b601f8211156111a357805f5260205f20601f840160051c81016020851015613cea5750805b601f840160051c820191505b81811015611193575f8155600101613cf6565b81516001600160401b03811115613d2257613d22612f95565b613d3681613d3084546135da565b84613cc5565b6020601f821160018114613d68575f8315613d515750848201515b5f19600385901b1c1916600184901b178455611193565b5f84815260208120601f198516915b82811015613d975787850151825560209485019460019092019101613d77565b5084821015613db457868401515f19600387901b60f8161c191681555b50505050600190811b01905550565b60a081525f613dd560a0830188612ef4565b8281036020840152613de78188612ef4565b604084019690965250506060810192909252151560809091015292915050565b8481526001600160a01b03841660208201526001600160e01b0319831660408201526080606082018190525f90613a7b90830184612ef4565b828152604060208201525f6112c96040830184612ef4565b5f613e6382856136a1565b7f2075736573204d61726b6f7620707265646963746f722e2050726564696374658152700321037b83837b732b73a1036b7bb329d1607d1b602082015261372e60318201856136a1565b5f600160ff1b8201613ec157613ec1613612565b505f0390565b602d60f81b81525f612ec360018301846136a1565b5f60208284031215613eec575f5ffd5b8151612ec381612e84565b5f60208284031215613f07575f5ffd5b815160048110612ec3575f5ffd5b6702cb7ba9030b932960c51b81525f613f31600883018b6136a1565b61040560f31b8152613f46600282018b6136a1565b90506201497160ed1b81526c02837bbb2b91039b1b7b9329d1609d1b6003820152613f74601082018a6136a1565b905067017102bb4b7399d160c51b8152613f9160088201896136a1565b905061017160f51b81527f596f75206172652061626f757420746f206368616c6c656e67652000000000006002820152613fce601d8201886136a1565b68010143837bbb2b91d160bd1b81529050600981016140cb61405661404461403e61402b61401c614016614002888f6136a1565b67016103bb4b7399d160c51b815260080190565b8c6136a1565b6201497160ed1b815260030190565b66029ba30b5b29d160cd1b815260070190565b886136a1565b6501028242717160d51b815260060190565b7f50726f766964652061206f6e652d73656e74656e63652073747261746567696381527f20726561736f6e20666f722074686973206368616c6c656e676520696e20636860208201527f617261637465722e204d61782031303020636861726163746572732e000000006040820152605c0190565b9c9b505050505050505050505050565b608081525f6140ed6080830187612ef4565b82810360208401526140ff8187612ef4565b90508415156040840152828103606084015280845180835260208301915060208160051b840101602087015f5b8381101561415e57601f19868403018552614148838351612ef4565b602095860195909350919091019060010161412c565b50909a9950505050505050505050565b5f6020828403121561417e575f5ffd5b81516001600160401b03811115614193575f5ffd5b8201601f810184136141a3575f5ffd5b80516141b16130cf8261306a565b8082825260208201915060208360051b8501019250868311156141d2575f5ffd5b6020840193505b82841015613a7b576141ea84613840565b8252602093840193909101906141d9565b60ff8181168382160190811115610f5d57610f5d613612565b5f60ff831680614226576142266139ba565b8060ff84160691505092915050565b6702cb7ba9030b932960c51b81525f614251600883018b6136a1565b61040560f31b8152614266600282018b6136a1565b90506201497160ed1b815271596f752061726520696e206d61746368202360701b6003820152614299601582018a6136a1565b90506801030b3b0b4b739ba160bd1b81526142b760098201896136a1565b905061040560f31b81526142ce60028201886136a1565b6201497160ed1b815269027b83837b732b73a1d160b51b6003820152600d0190506143af61437a61433961404461403e61402b614324614016614311898f6136a1565b660103bb4b73996160cd1b815260070190565b680103637b9b9b2b997160bd1b815260090190565b7f43686f6f736520796f7572206d6f76653a20303d526f636b2c20313d5061706581526e0391610191ea9b1b4b9b9b7b939971608d1b6020820152602f0190565b7f52657475726e204f4e4c5920746865206e756d6265723a20302c20312c206f7281526210191760e91b602082015260230190565b9b9a505050505050505050505056fe4c4c4d20726573706f6e7365206465636f6465206661696c65642e204d61726b6f762066616c6c6261636b20757365642e4c4c4d2074696d6564206f75742e204d61726b6f762066616c6c6261636b20757365642ea264697066735822122077ab71455ae2d6d00bf4f723655e43e82ee68d0e5868c2221d7e6bcedd24253864736f6c634300081e0033","linkReferences":{}},"methodIdentifiers":{"CHALLENGE_COOLDOWN_BLOCKS()":"2a76736d","DEFAULT_SUBCOMMITTEE()":"6b438286","LLM_COST_PER_AGENT()":"0e887822","LLM_TOTAL_COST()":"272943f3","agentPlatform()":"51fbe9f4","arena()":"fd3705f9","decisionHistory(address,uint256)":"17559bb5","decodeNumberResponse(bytes)":"b86b374b","executeDecision(address)":"bba9f3ae","getDecisionHistory(address,uint256)":"89aeffc8","getLLMStats()":"e977e809","getLatestDecision(address)":"62b2c156","handleResponse(uint256,(address,bytes,uint8,uint256,uint256,uint256)[],uint8,(uint256,address,address,bytes4,address[],(address,bytes,uint8,uint256,uint256,uint256)[],uint256,uint256,uint256,uint256,uint256,uint8,uint8,uint256,uint256))":"387e0801","lastChallengeBlock(address)":"007d9d7f","llmAgentId()":"c6c2041f","llmDecisions()":"960bd85a","owner()":"8da5cb5b","pendingRequests(uint256)":"3c652a9a","registry()":"7b103999","setAgentConfig(address,uint256)":"3d638261","totalDecisions()":"0c96a61a","worldState()":"bdfd55bf"},"id":22}